:1000000000000120750300005D0300005F03000095
:1000100061030000630300006503000000000000AE
:100020000000000000000000000000006703000066
:1000300069030000000000006B0300006D03000076
:100040006F030000F15C0000E14F00006F0300004F
:100050006F0300006F030000014D00006F030000FC
:100060006F0300006F0300006F0300006F030000C8
:100070006F0300006F0300006F0300006F030000B8
:100080006F0300003D3000006F0300006F030000AD
:100090006F0300006F0300006F030000E9620000BF
:1000A0006F0300006F0300006F0300006F03000088
:1000B0006F0300006F03000000000000000000005C
:1000C0006F0300006F0300006F0300006F03000068
:1000D0006F0300006F0300006F03000000000000CA
:1000E0000000000000000000000000000000000010
:1000F0000000000000000000000000000000000000
:1001000000000000000000000000000000000000EF
:1001100000000000000000000000000000000000DF
:1001200000000000000000000000000000000000CF
:1001300000000000000000000000000000000000BF
:1001400000000000000000000000000000000000AF
:10015000000000000000000000000000000000009F
:10016000000000000000000000000000000000008F
:10017000000000000000000000000000000000007F
:10018000000000000000000000000000000000006F
:10019000000000000000000000000000000000005F
:1001A000000000000000000000000000000000004F
:1001B000000000000000000000000000000000003F
:1001C000000000000000000000000000000000002F
:1001D000000000000000000000000000000000001F
:1001E000000000000000000000000000000000000F
:1001F00000000000000000000000000000000000FF
:10020000354936480A1A02D0072291438D463449AF
:1002100034480A1A06D00722914381F30988022242
:1002200082F3148830483149314A00F044F83148AB
:100230003149324A00F03FF831483249324A00F041
:100240003AF832483249334A00F035F832483349F7
:10025000334A00F030F833483349344A00F02BF881
:1002600033483449344A00F026F8344834490022EF
:1002700000F02CF833483449002200F027F83348C6
:100280003349091A082902DB002202604160314A21
:1002900090471F481F49884205D00268043003B4C4
:1002A000904703BCF7E700208646EC46002000217B
:1002B000294A9047FEE7884207D0521A05D00378B2
:1002C00001300B700131013AF9D17047884202D0F8
:1002D00002700130FAE770470000012000E00020C2
:1002E0000000012000000120288400000000002000
:1002F00068000020D0030000D00300001A72000044
:100300002884000000000020000000209C720000F3
:100310009C7200009C7200009C7200009C720000A5
:100320009C7200009C7200009C72000028840000F7
:100330009084000068000020680000206800002011
:100340007C0B00207C0B00207C0B00207C0B002011
:100350007C2B00209D030000615B0000FEE7FEE7B0
:10036000FEE7FEE7FEE7FEE7FEE7FEE7FEE7FEE765
:1003700000F002B8FFF7FCBF0F484FF007018843B9
:1003800085460E4880470E48016841F470010160BF
:10039000BFF34F8FBFF36F8FFFF732BF09480A4992
:1003A0000A4A884207D0521A05D0037801300B70F0
:1003B0000131013AF9D17047000001206D69000058
:1003C00088ED00E09C72000000000020000000208A
:1003D00000B585B00190019B002B0AD0074B43F07C
:1003E00001030393019B9B010293039B029898478F
:1003F00000E000BF05B05DF804FB00BFB072000074
:1004000000B583B00190019B002B0AD04FF47A70A5
:10041000FFF7DEFF019B013B0193019B002BF5D110
:1004200000E000BF03B05DF804FB08B506F07CFAFD
:1004300000BF08BD00B589B0039002910192019BF5
:10044000002B33D00023079303230693029A079BC4
:100450001344019A1946002006F018FA0590079AED
:10046000059B13440793019A059BD31A0193059B9F
:10047000002B13D10F4B1B7883F00103DBB2002B51
:1004800013D10120FFF7BCFF069B013B0693069B9F
:10049000002B03D1074B00221A7007E0054B012205
:1004A0001A70019B002BD1D100E000BF00BF09B042
:1004B0005DF804FB6800002000B585B00390029150
:1004C000054B00934023054A0299039800F012F867
:1004D00000BF05B05DF804FB350400006C0000208F
:1004E00082B0019000BF02B0704782B0019000BF9F
:1004F00002B0704700B5A1B0059004910392029339
:10050000049803F014FD039B1593029B169300239C
:10051000179300238DF8603000231993229B1A93C0
:1005200000231F930FA91F9B0822049803F0D8FDF6
:1005300008231F93119B1293BDF84030ADF84C3047
:10054000BDF84230ADF84E3000238DF851309DF8A3
:100550003C3003F00303DBB2012B26D10F9BC3F326
:1005600095231D939DF83C30C3F3C203DBB28DF895
:100570005030BDF83C30C3F38313DBB21C931C9B9B
:100580009A0009A91F9B049803F0AAFD1C9B9B00DD
:100590001F9A13441F9312AA09A915AB009313467F
:1005A0001C9A1D9800F0DAFE2FE09DF83C3003F015
:1005B0000303DBB2022B28D1BDF83E30C3F389130D
:1005C0009BB21E939DF83C30C3F3C203DBB28DF89F
:1005D00050301E9B082B28BF08231B9307A91F9B85
:1005E0001B9A049803F07CFD1F9A1B9B13441F93D6
:1005F0001E9A1B9BD31A1E9315AB12AA07A81B9910
:1006000000F04EFF1E9B002BE3D1049803F09EFCEC
:1006100000BF21B05DF804FB82B00190019BDB6854
:1006200001225A7100BF02B07047000000B583B0CC
:100630004FF0FF330193FFF7F8FE0421084800F064
:10064000A9FD0190019B002B03DA0649412002F02D
:1006500003FD0348FFF7E0FF00BF03B05DF804FBB4
:1006600064720000C872000000B583B00190009170
:10067000019B1B681B6800990198984700BF03B055
:100680005DF804FB00B583B00190019B1B685B68BB
:100690000198984700BF03B05DF804FB00B583B034
:1006A0000190019B1B689B680198984700BF03B0AD
:1006B0005DF804FB82B001900B468DF80330019B7E
:1006C000DB689DF803201A7100BF02B0704782B04A
:1006D0000190019BDB681B79184602B0704782B01D
:1006E0000190019BDB6801225A7100BF02B0704784
:1006F00082B00190019BDB685B79184602B07047BD
:1007000000B585B001900091154BFF229A60144B03
:1007100000221A60124B00225A60114B0022C3F8CB
:1007200018240F4B0022C3F814240D4B002283F829
:1007300020240C4803F060FB0390039B002B01D0A6
:10074000039B08E0084803F0EBFC084A084BD31A67
:10075000DB0802930023184605B05DF804FB00BFD8
:100760001402002074720000207300006472000004
:100770001C720000024A034BD31ADB08184670476C
:10078000647200001C72000000B587B001900B4637
:100790008DF803309DF80330002B1FD0FFF7EAFFE0
:1007A00004900023059313E0059B9B000E4A13441D
:1007B0000393039B1B881A46019B1B689A4204D132
:1007C000019B059A1A60002309E0059B01330593FC
:1007D000059A049B9A42E7D3052300E000231846BC
:1007E00007B05DF804FB00BF0000002000B585B035
:1007F00001900B468DF803309DF8032001AB1146A4
:100800001846FFF7C1FF0346002B07D1019BDB0011
:10081000054A13440393039B1B6800E0002318461A
:1008200005B05DF804FB00BF1C72000084B00190AD
:100830000B468DF80330019BDB00174A13440293EB
:100840009DF80330013B032B1CD801A252F823F082
:100850006108000069080000710800007B080000C2
:1008600002238DF80F3011E004238DF80F300DE0D6
:10087000029B1B798DF80F3008E0029B5B798DF8A5
:100880000F3003E000238DF80F3000BF9DF80F30CC
:10089000184604B0704700BF1C72000084B001907D
:1008A000009100238DF80F30019B1B7803F00403A7
:1008B000DBB2002B24D0019B1B78C3F30103DBB216
:1008C000012B02D0022B0CD017E0009B1B68019A71
:1008D0001288C2F38312D2B213449A1C009B1A608E
:1008E0000BE0009B1B68019A5288C2F3891292B2F6
:1008F00013449A1C009B1A6000BF01238DF80F302F
:100900009DF80F30184604B07047000000B58BB05A
:100910000023ADF826303E4802F02EFD3D4802F09F
:100920002BFD3D4B5B6804933B4B9B680693049AFD
:10093000069B134002339B00374A13440433089349
:1009400004AB19460898FFF7A9FF0346002B09D00E
:10095000049A069B134002339B002F4A134404332E
:100960000893EDE700BF0023079311E0049B5A1C96
:100970000492069A1340079A920001A90A44264954
:1009800002339B000B445B681360079B01330793A2
:10099000079B012BEAD99DF80430C3F30103DBB2B6
:1009A000012B10D0022B1CD1BDF80A30ADF8263037
:1009B000BDF80630C3F389139BB203339A08049B36
:1009C0001344049313E0BDF80A30ADF82630BDF8A7
:1009D0000430C3F38313DBB21A46049B134404931D
:1009E00005E00E494FF4BF7002F036FB00BF094826
:1009F00002F0CEFC0590059B002B02D0049B064A1A
:100A00005360BDF8263018460BB05DF804FB00BFFC
:100A10002C0600202806002014020020307300005D
:100A200000B585B00021074802F02FFC0390039B1E
:100A30000293029B83F310030193019B184605B0B8
:100A40005DF804FB3006002000B589B003900291E8
:100A500001920093039B1B0C0793FFF7E1FF0690A5
:100A6000FFF788FE0246079B934204D3214940F2D8
:100A7000A31002F0F1FA069B1904009B5A1C0A9B72
:100A80001340079A0A431C4902339B000B445A60E7
:100A9000009A0A9B134002339B00174A1344043305
:100AA0000593039B03F00703D9B2059A137861F30A
:100AB000C5031370019B03F00F03D9B2059A138885
:100AC00061F389131380029BC3F31501059A136820
:100AD00061F39F231360059A1378012161F30103E9
:100AE0001370059A13786FF38203137000BF09B077
:100AF0005DF804FB307300001402002000B58BB0D9
:100B00000390029113468DF80730039B023308933C
:100B100001238DF81F30002001F08EFE3E4B1A6835
:100B2000029B1A603C4B9A683B4B59683A4B1B68D6
:100B3000CB1A13440133099314E00121374802F022
:100B4000EBFBFFF7E3FE06900699344802F0E4FB66
:100B5000314B9A68304B59682F4B1B68CB1A1344A2
:100B600001330993089A099B9A42E6D89DF81F30F1
:100B7000002B48D0002304939DF80730002B17D09A
:100B80009DF81030012262F301038DF810309DF8BA
:100B9000103043F004038DF81030039B03F00F0373
:100BA000DAB2BDF8103062F38913ADF8103016E0F8
:100BB0009DF81030022262F301038DF810309DF889
:100BC000103043F004038DF81030039BC3F3090386
:100BD0009AB2BDF8123062F38F13ADF812300E4B9B
:100BE0001A680D4B9B68134002339B000A4A13445A
:100BF00004330593049A059B1A60074B1A68089BF7
:100C00001344054A1360002001F02AFE9DF81F30AE
:100C100018460BB05DF804FB1402002030060020DB
:100C200000B58BB005900491039202931F4B9B6813
:100C3000079306AB012219460298FFF75FFF0346B0
:100C4000002B24D0069B023309930023089311E064
:100C5000089B9B00039A1A44099B591C0991079908
:100C60000B401268114902339B000B445A60089BE9
:100C700001330893089A029B9A42E9D3069A079B8C
:100C800000931346029A04990598FFF7DDFE074B7F
:100C900093F82034002B05D000BF00F07BF803460A
:100CA000002BFAD100BF0BB05DF804FB140200204A
:100CB00000B583B0019000910023002200990198B3
:100CC000FFF7AEFF00BF03B05DF804FB00B587B0CF
:100CD000039002910192019B059305AA01230299B9
:100CE0000398FFF79DFF00BF07B05DF804FB00B558
:100CF00087B00390029101920093019B0493009BA3
:100D0000059304AA022302990398FFF789FF00BF05
:100D100007B05DF804FB00B589B003900291019221
:100D20000093019B0593009B06930A9B079305AADA
:100D3000032302990398FFF773FF00BF09B05DF822
:100D400004FB00B58BB00390029101920093019BCC
:100D50000593009B06930C9B07930D9B08930E9B9A
:100D6000099305AA052302990398FFF759FF00BFCD
:100D70000BB05DF804FB0000054B5A68044B1B6880
:100D80009A420CBF01230023DBB21846704700BF14
:100D90001402002000B599B0FFF7EEFF0346002BC8
:100DA00001D00023B5E19A4B0022C3F81824BFF309
:100DB0004F8F974B5B680493954B9B681093049AF5
:100DC000109B134002339B00914A13440433119348
:100DD000002317930023169300230F9304AB1946A7
:100DE0001198FFF75BFD0346002B19D0884BD3F811
:100DF0001834002B14D1864B1A68049B9A4205D8EC
:100E0000834B1B68824A5360002382E1049A109B43
:100E1000134002339B007E4A134404331193DDE7F1
:100E20000023159311E0049B5A1C0492109A13405E
:100E3000159A920001A90A44754902339B000B449C
:100E40005B681360159B01331593159B012BEAD941
:100E50009DF8043003F00303DBB2022B40F09C80CA
:100E6000BDF80630C3F389139BB20E93BDF806306C
:100E7000C3F389139BB2502B28BF50239BB20D9311
:100E80000D9BC3F309039AB2BDF8063062F38F13CA
:100E9000ADF806300D9B08330C939DF80430C3F376
:100EA000C203DBB20F930C995A4802F0B0FF1790BF
:100EB000179B002B00F0D080179803F038F801A999
:100EC000169B0822179803F0EDF8169B083316932B
:100ED000049BDA43109B134001339B000B930D9A44
:100EE0000B9B9A4242D90B9B002B08D0049A109B73
:100EF000134002339B00464A1344043300E0464B40
:100F00000A930B9B002B02D00B9BDBB201E00D9BE5
:100F1000DBB28DF827300B9B002B01D03E4B00E05D
:100F2000002308930B9B002B06D00D9BDAB20B9B82
:100F3000DBB2D31ADBB200E000238DF81F309DF83E
:100F40002720169B0A99179803F0ACF89DF82730D4
:100F5000169A13441693089B002B16D09DF81F2059
:100F6000169B0899179803F09DF80EE0049A109BC1
:100F7000134002339B00264A134404330693169B06
:100F80000D9A0699179803F08DF80E9B03339A0873
:100F9000049B134404935FE09DF8043003F00303C3
:100FA000DBB2012B58D1BDF80430C3F38313DBB29D
:100FB000062B28BF0623DAB2BDF8043062F389138A
:100FC000ADF80430BDF80430C3F38313DBB2023351
:100FD00005939DF80430C3F3C203DBB20F93059B66
:100FE0009B0019460B4802F012FF1790179B002B2D
:100FF00032D0179802F09BFF01A9169B0822179880
:1010000003F050F8169B08331693002315931AE04B
:10101000140200207472000020020020049B5A1C5D
:101020000492109A134002339B003C4A1344191D4A
:10103000169B0422179803F035F8169B0433169379
:10104000159B01331593BDF80430C3F38313DBB252
:101050001A46159B9342E1D3179B002B39D02F4B97
:10106000D3F8103414932D4BD3F81834002B1BD025
:10107000179802F06BFF46E000238DF84F3014986C
:10108000FFF736FB0346002B02D001238DF84F30CB
:101090009DF84F30002B03D017991498FFF7E4FA0E
:1010A000149BDB681B681493149B002BE4D11798E6
:1010B00002F04CFF002001F0BFFB184BD3F81834AE
:1010C000002B02D1049B154A5360002001F0C8FB9D
:1010D00019E0124BD3F81034129306E01298FFF780
:1010E000DDFA129BDB681B681293129B002BF5D173
:1010F0000B4A0C4BD31ADB081B0443F002030A49CA
:101100001846FFF7D5FDFFF737FE034683F00103CE
:10111000DBB2184619B05DF804FB00BF14020020D2
:101120003C7200001C7200008073000000B585B0A6
:101130000023039323E0164BD3F8103402930123CA
:101140008DF807300FE00298FFF7C1FA03461A4600
:10115000039B934203D100238DF8073006E0029BE6
:10116000DB681B680293029B002BECD19DF80730D3
:10117000002B01D0039B07E0039B01330393039BE8
:10118000092BD8DD4FF0FF33184605B05DF804FB9E
:101190001402002000B585B001900B468DF8033095
:1011A000FFF7C4FF0390039BB3F1FF3F01D1039B03
:1011B00022E0039BDBB219460198FFF77BFA104B44
:1011C000D3F81034002B08D10D4A019BC2F810341B
:1011D000019BDB6800221A600DE0094BD3F8103444
:1011E000DA68019BDB6812681A60054BD3F810348B
:1011F000DB68019A1A60039B184605B05DF804FB92
:101200001402002000B583B00C4BD3F810340193C6
:101210000A4B012283F8202409E00198FFF75FFAC6
:101220000198FFF72FFA019BDB681B680193019B74
:10123000002BF2D100BF03B05DF804FB14020020C4
:1012400082B00190009100BF02B0704710B584B029
:1012500003900291039BDB88002B0AD0039BDB8861
:101260001A461F4B009313461E4A1F49029802F06C
:10127000BDF9039B1B7A052B2ED0039B5B7A002BB9
:1012800012D0039B9B881A46039B1B7A1946104673
:10129000FFF7CCFA03461A46144B53F822301A468D
:1012A0001349029802F0A2F9039B1B6819460298A1
:1012B000FFF7C6FF039B1B7A1A460E4B53F82240DA
:1012C000039B9B8800211846FFF790FA03462246AD
:1012D0000949029802F08AF900BF04B010BD00BFAE
:1012E000B4730000C4730000FC7300001C000020F5
:1012F00014740000080000201874000000B585B0C8
:101300000390029113468DF80730039B1B7A052B3F
:101310000FD0039B5B7A002B06D00D4B1B681A463F
:101320000C49029802F062F90B49029802F05EF94A
:1013300007E09DF80730002B03D00749029802F020
:1013400055F9029802F030F900BF05B05DF804FBD2
:101350001C000020147400002474000030B58BB011
:1013600007900691059204930E9B1B7B8DF8273006
:101370000E9B00221A730E990498FFF767FF059BD6
:10138000062B7FD801A252F823F000BFA91300005A
:10139000B3130000C3130000D7130000F5130000BF
:1013A0001D1400004D14000007990E9802F01EF95C
:1013B00069E0069B1B681A4607990E9802F016F919
:1013C00061E0069B1A68069B04331B6807990E9818
:1013D00002F00CF957E0069B1A68069B0433196863
:1013E000069B08331B6800930B4607990E9802F082
:1013F000FDF848E0069B1968069B04331868069BB5
:1014000008331B68069A0C32126801920093034657
:101410000A4607990E9802F0E9F834E0069B18682E
:10142000069B04331C68069B08331B68069A0C3223
:1014300012680699103109680291019200932346BF
:10144000024607990E9802F0D1F81CE0069B1C6832
:10145000069B04331D68069B08331B68069A0C32F2
:1014600012680699103109680698143000680390D4
:101470000291019200932B46224607990E9802F0A2
:10148000B5F800E000BF00220E990498FFF736FF80
:101490000E9B9DF827201A7300BF0BB030BD00BF14
:1014A00000B587B00390029101920093029B082B34
:1014B00060D8009B1B7B8DF81330009B00221A73B1
:1014C00000990198FFF7C2FE0023059314E0059AE6
:1014D000029B9A4209D2039A059B13441B781A4631
:1014E0002649009802F082F803E02549009802F0AE
:1014F0007DF8059B01330593059B072BE7D921490F
:10150000009802F073F80023059326E0059A029BE9
:101510009A421BD2039A059B13441B788DF8123014
:101520009DF812307E2B0AD89DF81230184605F02F
:10153000C1FD0346002B02D09DF8123000E02E239F
:101540001A461149009802F051F803E00F4900983B
:1015500002F04CF8059B01330593059B072BD5D969
:10156000012200990198FFF7C9FE009B9DF8132006
:101570001A7300E000BF07B05DF804FB2874000098
:101580003074000034740000387400003C740000B3
:1015900000B583B00190019B1B681F2B04D905493E
:1015A00040F2CD1001F058FD4FF0A043184603B0B3
:1015B0005DF804FB4074000000B585B0019008465A
:1015C00011461A4603468DF803300B468DF802305B
:1015D00013468DF8013001AB1846FFF7D9FF039091
:1015E0009DF803209DF802305B001A439DF80130FE
:1015F0009B001A439DF818301B0242EA03019DF834
:101600001C301B04019A1943039B02F5E07243F856
:10161000221000BF05B05DF804FB00B585B0039053
:10162000002301930023009300230122012103984A
:10163000FFF7C2FF00BF05B05DF804FB00B585B041
:1016400003900B468DF80B309DF80B20002301937F
:10165000002300931346002200210398FFF7ACFFFC
:1016600000BF05B05DF804FB00B585B0019001AB8B
:101670001846FFF78DFF0390019B012202FA03F346
:101680001946039800F069F800BF05B05DF804FB47
:1016900000B585B0019001AB1846FFF779FF0390C4
:1016A000019B012202FA03F31946039800F05FF848
:1016B00000BF05B05DF804FB00B585B0019001AB3B
:1016C0001846FFF765FF0390039BD3F80435029398
:1016D000029BDA43019B012101FA03F31A40039BA9
:1016E000C3F80825019B01229A40029B1A40039BE4
:1016F000C3F80C2500BF05B05DF804FB00B583B04E
:1017000001900091009B002B03D10198FFF7C0FFCF
:1017100002E00198FFF7A8FF00BF03B05DF804FBEB
:1017200000B585B0019001AB1846FFF731FF03907B
:10173000039800F00AF80246019B22FA03F303F033
:101740000103184605B05DF804FB82B00190019BCF
:10175000D3F80435184602B0704782B0019000916A
:10176000019B009AC3F8082500BF02B0704782B001
:1017700001900091019B009AC3F80C2500BF02B0B4
:101780007047000000B585B00190019B032B03D981
:1017900011493A2001F060FC104A019B13441B7868
:1017A0001846FFF7BDFF0346002B14BF012300239B
:1017B0008DF80F309DF80F30002B14BF012300234C
:1017C000DBB283F00103DBB203F00103DBB21846A6
:1017D00005B05DF804FB00BF74740000AC74000039
:1017E00000B583B00190019B032B03D90749412029
:1017F00001F032FC064A019B13441B780021184675
:10180000FFF77CFF00BF03B05DF804FB74740000B9
:10181000AC74000000B583B00190019B032B03D989
:101820000749472001F018FC064A019B13441B7826
:1018300001211846FFF762FF00BF03B05DF804FB0B
:1018400074740000AC74000000B583B000230193F1
:1018500005E00198FFF7DEFF019B01330193019B37
:10186000032BF6D900BF03B05DF804FB00B583B0CD
:101870000023019305E00198FFF7B2FF019B0133BC
:101880000193019B032BF6D900BF03B05DF804FB65
:1018900000B583B00190019B032B03D907495F205A
:1018A00001F0DAFB064A019B13441B781846FFF748
:1018B00003FF00BF03B05DF804FB00BF74740000B9
:1018C000AC74000000B583B00023019309E0094A1D
:1018D000019B13441B781846FFF79FFE019B0133C1
:1018E0000193019B032BF2D9FFF7AEFF00BF03B0BA
:1018F0005DF804FBAC74000000B583B000230193D5
:101900000AE0094A019B13441B7803211846FFF79C
:1019100095FE019B01330193019B032BF1D900BF7D
:1019200003B05DF804FB00BFB074000084B0019008
:101930004FF0FF330293002303930DE00A4A039B09
:1019400013441B781A46019B934202D1039B0293D6
:1019500005E0039B01330393039B032BEED9029B0A
:10196000184604B0704700BFB074000000B583B0E3
:101970000190019B03F00103002B01D0FFF7A2FFB0
:10198000019B03F00203002B01D0FFF7B5FF00BF5E
:1019900003B05DF804FB000084B003468DF8073007
:1019A0009DF807305B08DBB21A460D4B9B5C8DF847
:1019B0000F309DF8073003F00103002B04D09DF891
:1019C0000F301B09DBB204E09DF80F3003F00F036A
:1019D000DBB28DF80E309DF80E30184604B070471B
:1019E0007006002084B003460A468DF8073013467F
:1019F0008DF806309DF8073003F00103002B01D06D
:101A00000F2300E0F0238DF80F309DF8073003F02E
:101A10000103002B04D09DF806301B01DBB201E06E
:101A20009DF806308DF80E309DF807305B08DBB26C
:101A30001A46114B9A5C9DF807305B08DBB21946D9
:101A40009DF80F301340DAB20B4B5A549DF8073013
:101A50005B08DBB21A46084B9A5C9DF807305B08BE
:101A6000DBB219469DF80E301343DAB2024B5A54DA
:101A700000BF04B0704700BF7006002000B585B0FD
:101A800003468DF807300023039310E00F4B1A68CC
:101A9000039BDB0013440293029B1B789DF80720F5
:101AA0009A4201D1029B0DE0039B01330393084B43
:101AB0001B781A46039B9342E8DB0649882001F015
:101AC000CBFA0023184605B05DF804FB3806002069
:101AD0003C060020C074000000B585B003460A46ED
:101AE0008DF8073013468DF806309DF807301846FC
:101AF000FFF7C4FF0390039B002B0BD0039B5B6895
:101B0000002B07D0039B5B689DF806109DF807200B
:101B10001046984700BF05B05DF804FB2DE9F04F73
:101B200085B003460A468DF80F3013468DF80E3007
:101B30009DF80F301846FFF72FFF0346042B00F2E5
:101B4000B58001A252F823F05D1B0000C51B000008
:101B5000E11B0000111C0000271C00009DF80E3046
:101B6000002B00F0A0809DF80F3001211846FFF7F0
:101B700039FF002000F060FE9DF80F204FF00103B8
:101B80004FF00004A2F12000C2F1200104FA02F794
:101B900003FA00F0074323FA01F10F4303FA02F6B8
:101BA000444BD3E9003446EA0302009247EA0403B7
:101BB0000193404BDDE90012C3E90012002000F060
:101BC0004FFE70E09DF80E30002B01D0022200E0A5
:101BD00000229DF80F3011461846FFF703FF65E01D
:101BE0009DF80E30002B0CD09DF80F3003211846C5
:101BF000FFF7F8FE9DF80F3001211846FFF76CFF44
:101C000054E09DF80F3001211846FFF7EBFE4DE040
:101C10009DF80E30002B48D19DF80F300421184656
:101C2000FFF7E0FE41E09DF80E30002B06D09DF856
:101C30000F3003211846FFF7D5FE37E09DF80F302F
:101C400000211846FFF7CEFE9DF80F300021184600
:101C5000FFF742FF002000F0EFFD9DF80F104FF05E
:101C600001024FF00003A1F12006C1F1200003FAA8
:101C700001F502FA06F6354322FA00F0054302FAAE
:101C800001F46FEA04086FEA05090A4BD3E900344E
:101C900008EA030A09EA040B064BC3E900AB00207B
:101CA00000F0DEFD02E000BF00E000BF00BF05B0B5
:101CB000BDE8F08F6806002000B583B00648074BEA
:101CC0001B685B080022194600F034FD019000BF3C
:101CD00003B05DF804FB00BF48060020400600206A
:101CE00010B586B001900023059328E01C4B1A68BC
:101CF000059BDB0013440493049B1B78184602F0F9
:101D0000E5FF03468DF80F30049B5B78012B0CBF79
:101D100001230023DBB21A469DF80F309A420CBF14
:101D2000012300238DF80E30049B1B789DF80E20B4
:101D300011461846FFF7F2FE059B01330593094B48
:101D40001B781A46059B9342D0DB074BD3E900343E
:101D5000234301D0FFF7B0FF00BF06B010BD00BFA6
:101D6000380600203C0600206806002010B584B02C
:101D700001900B468DF80330019BDBB21846FFF74C
:101D80007DFE0390039B1B78184602F09FFF0346DD
:101D90008DF80B30039B5B78012B0CBF01230023D4
:101DA000DBB21A469DF80B309A420CBF0123002388
:101DB0008DF80A309DF80A30002B06D0044BD3E989
:101DC0000034234301D1FFF777FF00BF04B010BDFB
:101DD0006806002010B58AB003900B4601928DF87A
:101DE0000B30019B092B01D8072367E002F060FE4E
:101DF000034683F00103DBB2002B09D002F006FE9C
:101E00000990099B0893089B002B01D0089B55E083
:101E10002C4A039B13602C4A9DF80B3013702B4AFD
:101E2000019B136010220021294805F071F9294A0D
:101E30004FF000034FF00004C2E9003431E09DF898
:101E40000B30DB00039A1344079303238DF81430FF
:101E500000238DF815309DF816306FF300038DF8D0
:101E600016309DF816306FF341038DF816309DF84B
:101E700016306FF382038DF81630079B9B788DF830
:101E80001530079B1B78184605AB134A194602F01C
:101E90001BFE0990099B0693069B002B01D0069B15
:101EA0000CE09DF80B305A1E8DF80B20002BC6D18C
:101EB0000A4A00210A4800F009FC034618460AB005
:101EC00010BD00BF380600203C0600204006002060
:101ED00070060020680600206D1D0000E11C000057
:101EE0000875000000B583B0114B1B68002B04D1AE
:101EF000104940F2351001F0AFF8002301930CE0D7
:101F00000B4B1A68019BDB0013441B780121184618
:101F100002F054FE019B01330193074B1B781A46D4
:101F2000019B9342ECD30023184603B05DF804FBF9
:101F300038060020C07400003C06002086B00390E4
:101F40000291019201238DF817309DF81730204A35
:101F5000039B13601E4A029B53601D4A019B9360C2
:101F6000039B44F20102934213D0039B44F202020A
:101F7000934221D1019B164AD360154BDB681B8825
:101F80001A46134B9A61124BDB685B68104AD361A7
:101F900012E0019B0E4A13610D4B1B699B680C4AB2
:101FA00053610B4B1B691B68094A9361084B1B6902
:101FB0005B68074AD36100BF72B600BF9DF8173057
:101FC000DBB2002BFAD162B600BF06B0704700BF8B
:101FD0008006002000B583B002900091019244F287
:101FE000010071466A4600F003F803B000BD00BF6F
:101FF00030B58BB007900691059272B6FFF702F9E3
:1020000000BFFEF7C7FE0346002BFAD1079B44F240
:102010000102934216D0079B44F2020293423ED142
:10202000059B09932C4A2D4BD31ADB081B0443F064
:102030000100099B5B681A46099B1B882849FEF72B
:1020400056FE39E0059B0893234A244BD31ADB083C
:102050001B0443F00104089B9D68089B9B6818467D
:1020600002F022F903461846089B5B681946089B54
:102070001B68069A02920193009103462A46194969
:102080002046FEF75EFE144A144BD31ADB081B04ED
:1020900043F0010314491846FEF70AFE0CE00E4A0D
:1020A0000E4BD31ADB081B0443F00103069A0F49B9
:1020B0001846FEF70BFE00BF0D4B1B6803F0010333
:1020C000002B00D000BE059A06990798FFF736FF4F
:1020D00000BF0BB030BD00BF3C7200001C7200009E
:1020E0000C75000028750000507500006475000034
:1020F000F0ED00E02DE9F04182B0134800F084FFDC
:10210000034619464FF00002104BD3E90034CF18B4
:1021100042EB0408CDE900780D4BD3E90034DDE94A
:102120000012A24208BF994207D2DDE9003413F140
:10213000807544F10006CDE90056DDE9003418460B
:10214000214602B0BDE8F08140000020A806002032
:10215000B006002010B489B001900091019B079354
:10216000009B0693079BD3E90234CDE90434069B18
:10217000D3E90234CDE90234DDE90434DDE90212A9
:10218000A24208BF99422CBF01230023DBB21846AC
:1021900009B05DF8044B704770B584B00190019BA5
:1021A0005B69002B03D12B49A22000F055FF0023CF
:1021B0008DF80F30284B1B78002B46D0019B002B4D
:1021C00043D0019B1B7FDBB2002B3ED0FFF792FF79
:1021D0000A460146019BD3E90234A24208BF994254
:1021E0002BD3019B1B69002B02D1019B00221A7784
:1021F000019B5B69019A926910469847019B1B6994
:10220000002B22D0019B1B7FDBB2002B1DD0019B3A
:10221000D3E90212019B1B694FF00004CD1842EB79
:102220000406019BC3E90256019B19460B4801F0C5
:1022300095FF01238DF80F3007E0019B19460748F1
:1022400001F08CFF01238DF80F309DF80F301846F8
:1022500004B070BD88750000A4060020D47500008D
:10226000F0B589B0019000910D230793009B0022E7
:102270001A70019BD3E90245FFF73CFF02460B466B
:10228000A61A65EB0307CDE90467DDE90434012BE9
:1022900074F100031ADB049BB3F5350F05D300F08E
:1022A000A9FA0246154B134402E0019BD3E902341C
:1022B00003934FF49603039A0021114800F0A6FD02
:1022C0000790079B002B05D1012313E000210C4848
:1022D00000F074FE079B0D2B07D10198FFF75CFF00
:1022E00003461A46009B1A7003E00649F52000F0E9
:1022F000B3FE0023184609B0F0BD00BFFFFFB400D5
:10230000400000208875000000B583B0044801F04B
:102310005FFF0190019B184603B05DF804FB00BF0E
:10232000D475000000B583B0044801F073FF01903C
:10233000019B184603B05DF804FB00BFD475000094
:1023400000B583B0FFF7E0FF0190019B002B02D0A6
:10235000019B00221A77019B002BF3D100BF03B031
:102360005DF804FB10B4074BD3E9003413F180711E
:1023700044F10002034BC3E9001200BF5DF8044BB7
:10238000704700BFA806002010B582B00190134B23
:102390001B68002B1ED0019800F036FE02460F4B42
:1023A0001B68D3E9023423F07F431946104600F03E
:1023B00015FA0346B3F5960F04D3094940F22B10E2
:1023C00000F04AFE054B1B681846FFF7E5FE034B7D
:1023D00000221A6000BF02B010BD00BFA00600209E
:1023E0008875000010B582B00190FFF783FE0346A8
:1023F0000C46034AC2E9003400BF02B010BD00BF62
:10240000B006002010B586B00190FFF78BFF049056
:1024100000238DF81730049B002B48D02B4B1B68F2
:10242000002B03D101238DF8173019E0049BD3E969
:102430000212264B1B68D3E90234A24208BF99421C
:102440000ED201238DF81730204B1B681B7FDBB2A7
:10245000002B05D01D4B1B6819461D4801F07EFE60
:102460009DF81730002B2AD0FFF74EFF04900DF196
:102470000F0319460498FFF7F3FE0346002B12D012
:10248000124B1B68002B02D1019800F0CBFB0F4AC6
:10249000049B13609DF80F3083F00103DBB2002B27
:1024A000B3D000BF0EE0094B00221A60ADE7074B26
:1024B0001B68002B05D1019800F0CAFB01E000BFAA
:1024C00000E000BF00BF06B010BD00BFA0060020A6
:1024D000D475000000B587B001902A4A03AB1946B5
:1024E000104600F0A5FE059045E0059B1B78012BEA
:1024F00017D0022B29D0002B2DD1059B5B681B7FA9
:10250000DBB283F00103DBB2002B26D0059B5B68B6
:1025100001221A77059B5B6819461B4801F01EFED5
:102520001BE0059B5A68194B1B689A4203D1174B55
:1025300000221A6012E0059B5B681946124801F000
:102540007DFE03468DF8133008E0FFF7F9FE104BCF
:1025500001221A7002E000BF00E000BF094A03AB8D
:102560001946104600F07DFE064A03AB1946104698
:1025700000F05EFE0590059B002BB6D100BF07B0B2
:102580005DF804FB10070020D4750000A0060020B1
:10259000A406002000B583B00190019800F001FD71
:1025A0000346002B01D0FFF7DDFE0021019800F06B
:1025B00016FD0346002B02D00198FFF7E5FE01212E
:1025C000019800F00CFD0346002B02D00198FFF7A4
:1025D00009FF0198FFF77EFF0198FFF713FF00BF87
:1025E00003B05DF804FB000008B5024800F019FDD7
:1025F00000BF08BD4000002000B585B00346009133
:102600008DF80730114A02AB1946104600F0E3FD81
:102610000390039B002B13D0039B9DF807201A7097
:10262000039B009A5A60094A02AB1946104600F013
:10263000EBFD0346002B01D0FFF7D6FF002300E09F
:102640000423184605B05DF804FB00BF1007002006
:1026500000B583B0164B1B68009316480823582218
:10266000154900F085FD0190019B002B01D0019BD5
:1026700019E06B46114A1946114800F055FA0190CD
:10268000019B002B01D0019B0DE001210C4800F0C3
:1026900077FC01230B4A0121094800F0EFFA0A4BAD
:1026A00001221A70019B184603B05DF804FB00BFBD
:1026B000D075000010070020B80600209525000006
:1026C00040000020FFFF7F00A406002000B587B077
:1026D00003900B4601928DF80B30039B002B04D125
:1026E000134940F22E2000F0B7FC019B002B04D1CF
:1026F0000F4940F22F2000F0AFFC019B002B01D1CD
:10270000072310E0039B1B680593059B019A5A6100
:102710009DF80B30012B0CBF01230023DBB21A46BE
:10272000059B1A610023184607B05DF804FB00BF43
:102730008875000070B586B0039002910192039BEA
:10274000002B04D1164940F23E2000F085FC039B8B
:102750000593059B1B7FDBB2002B01D000231BE000
:10276000059B019A9A61FFF7C5FC0A460146029B48
:102770004FF00004CD1842EB0406059BC3E9025656
:10278000059B1B69002B02D0059B029A1A610599D3
:102790000020FFF731FF0346184606B070BD00BFAA
:1027A0008875000000B585B00190019B002B04D115
:1027B00009494FF4157000F04FFC019B0393039BF4
:1027C00000221A7703990120FFF716FF03461846E7
:1027D00005B05DF804FB00BF8875000082B0019071
:1027E0000091019A009BD31A23F07F43184602B050
:1027F0007047000008B5034800F006FC0346184681
:1028000008BD00BF4000002072B6034B1B680133B7
:10281000014A136000BF704724070020054B1B6866
:10282000013B044A1360034B1B68002B00D162B6C6
:1028300000BF70472407002000B583B0019000F06E
:1028400025F80346012B03D00449432000F004FC83
:10285000FFF7DAFF00BF03B05DF804FBE07500008E
:1028600000B583B003468DF8073000F00FF803463B
:10287000012B03D00449512000F0EEFBFFF7CEFFFF
:1028800000BF03B05DF804FBE075000084B0EFF317
:1028900005830193019BC3F308030393039B002B60
:1028A0000DD1EFF314830093009B0293029B03F07E
:1028B0000103002B0CBF01230023DBB200E0012346
:1028C000184604B07047000082B003468DF8073008
:1028D0009DF8073003F01F0205499DF907305B0999
:1028E000012000FA02F241F8232000BF02B0704735
:1028F00000E100E082B003468DF807309DF8073014
:1029000003F01F0206499DF907305B09012000FA18
:1029100002F2403341F8232000BF02B0704700BFED
:1029200000E100E082B0034600918DF807309DF988
:102930000730002B0CDA009BDAB20C499DF8073007
:1029400003F00F03043B5201D2B20B441A7609E0A4
:10295000009BDAB206499DF907305201D2B20B440E
:1029600083F8002300BF02B0704700BF00ED00E015
:1029700000E100E000B583B003460A468DF8073059
:1029800013468DF806309DF80630072B03D9084909
:102990006B2000F061FB9DF806209DF90730114681
:1029A0001846FFF7BFFF00BF03B05DF804FB00BF90
:1029B0002C76000000B583B003468DF807309DF9F2
:1029C00007301846FFF780FF00BF03B05DF804FB37
:1029D00000B585B00190019B002B0AD0074B43F056
:1029E00001030393019B9B010293039B0298984769
:1029F00000E000BF05B05DF804FB00BF20770000D9
:102A000084B0039002910192039B029A02F5A8728E
:102A1000019943F8221000BF04B0704782B00190C2
:102A20000091019B009A02F5A87253F822301846D3
:102A300002B0704782B001900091019B009AC3F8E8
:102A4000042300BF02B0704782B001900091019B47
:102A5000009AC3F8082300BF02B0704782B001900B
:102A60000B46ADF80230BDF80230019A13441B68E2
:102A7000184602B0704784B001900B46ADF80230A2
:102A8000BDF80230019A134400221A60BDF80230EA
:102A9000019A13441B680393039B00BF04B0704763
:102AA00082B00190019BD3F80435184602B07047FC
:102AB00000B583B001900091009BB3F5805F04D313
:102AC00006494FF4BE7000F0C7FA019B009AC3F8A4
:102AD000082500BF03B05DF804FB00BF607600006E
:102AE00082B001900B468DF803309DF80320019BC6
:102AF00013441A460123136000BF02B0704782B02E
:102B000001900091019B009AC3F8442300BF02B0DA
:102B1000704782B001900091019B009AC3F848234E
:102B200000BF02B07047000000B587B0039002916B
:102B30000192039B002B03D13349552000F08CFAFE
:102B4000029B002B03D13049562000F085FA019BEF
:102B5000002B03D12C49572000F07EFA039B5B79B0
:102B600019462A4A019B42F82130039B5B79284A87
:102B7000DB0013441B79002B0ED008230593254A54
:102B8000254BD31ADB081B0443F0020323491846E4
:102B9000FEF78EF8059B32E0039B1A68029B1B88A8
:102BA00019461046FFF784FF039B93F90420029B0C
:102BB0009B7819461046FFF7DDFE039B93F904301E
:102BC0001846FFF7F7FE039B5B79114ADB001344BD
:102BD00001221A71039B5B7919460D4A039B42F847
:102BE0003130002305930B4A0B4BD31ADB081B042F
:102BF00043F003030A491846FEF75AF8059B1846A6
:102C000007B05DF804FB00BF9076000028070020A5
:102C10002C0700204C7200001C720000D4760000CB
:102C2000F876000000B583B00190019B002B03D122
:102C30000649872000F010FA019B1B680021184606
:102C4000FFF74EFF00BF03B05DF804FB9076000075
:102C500000B583B00190019B002B03D106498D2064
:102C600000F0FAF9019B1B6804211846FFF738FFB2
:102C700000BF03B05DF804FB9076000000B587B09C
:102C80000390029101928DF80330039B002B03D136
:102C90002149962000F0E0F94FF48032029B02FABD
:102CA00003F30593029B50339BB29B00ADF81230A7
:102CB000019B23F07F430193039B1B6805991846F2
:102CC000FFF7C2FE039B1B6805991846FFF721FF1B
:102CD000039B1B68BDF8122011461846FFF7CBFE78
:102CE000039B1B68019A02991846FFF789FE039B14
:102CF0001B6805991846FFF702FF9DF80330002B6B
:102D000005D0039B1B6805991846FFF793FE00BF8B
:102D100007B05DF804FB00BF9076000000B585B0F9
:102D20000390029113468DF80730039B002B03D1CB
:102D30000B49A92000F090F9039B1B6802991846E3
:102D4000FFF7DDFE9DF80730002B05D0039B1B68C5
:102D500002991846FFF76EFE00BF05B05DF804FB50
:102D60009076000000B583B001900091019B002B8C
:102D700003D10A49B32000F06FF9019B1B68009949
:102D80001846FFF7C6FE019B1B6800991846FFF71F
:102D90005BFE00BF03B05DF804FB00BF907600004F
:102DA00000B583B001900B46ADF80230019B002BBB
:102DB00003D10F49BA2000F04FF9019B1B68BDF801
:102DC000022011461846FFF749FE0346002B09D0A2
:102DD000019B1B68BDF8022011461846FFF74BFE09
:102DE000012300E00023184603B05DF804FB00BF98
:102DF0009076000082B001900091019A009BD31A56
:102E000023F07F43184602B07047000000B58BB036
:102E10000390029101920093039B002B03D1574929
:102E2000CD2000F019F94FF48032029B02FA03F32F
:102E30000993029B50339BB29B00ADF82230019B5B
:102E400023F07F43019309990398FFF78BFF039BBE
:102E50001B681846FFF724FE0790039B1B68029926
:102E60001846FFF7DBFD0690039B1B68079A029943
:102E70001846FFF7C5FD039B1B68BDF822201146CD
:102E80001846FFF7F8FD07990698FFF7B3FF0346CA
:102E9000012B0AD11020FFF79BFD039B1B68BDF897
:102EA000222011461846FFF7E6FD039B1B681846D3
:102EB000FFF7F6FD079007990198FFF79BFF059034
:102EC000039B1B6809991846FFF719FE059B012B08
:102ED00015D1039B1868019B01331A460299FFF72D
:102EE0008FFD1020FFF774FD039B1B681846FFF74A
:102EF000D7FD0246079B934235D00D2339E0039B53
:102F00001B68019A02991846FFF77AFD039B1B681C
:102F10001846FFF7C5FD0790019B013B079918462E
:102F2000FFF768FF0590009BC3F1FF1303F57F4394
:102F3000059A9A4201D90D231BE0059B002B12D163
:102F4000039B1868019B01331A460299FFF758FD4D
:102F5000039B1B681846FFF7A3FD0246079B93429D
:102F600001D00D2305E0012209990398FFF7D6FE51
:102F7000002318460BB05DF804FB00BF90760000FC
:102F800000B583B001900B468DF803309DF80330F7
:102F90001A4602210198FFF7C1FE00BF03B05DF899
:102FA00004FB00B583B001904FF482710198FFF7E4
:102FB000F7FE0346184603B05DF804FB00B583B086
:102FC000019000914FF48032009B02FA03F31946FE
:102FD0000198FFF7C7FE00BF03B05DF804FB00B522
:102FE00085B001900091009B50339BB29B00ADF8DF
:102FF0000E30BDF80E3019460198FFF7D1FE03469A
:10300000184605B05DF804FB00B583B00190019B44
:103010001B681846FFF744FD0346184603B05DF8E9
:1030200004FB00B583B00190019B93F9043018466E
:10303000FFF760FC00BF03B05DF804FB08B5044B6C
:103040001B68044A12681046984700BF08BD00BFBD
:10305000280700202C07002000B585B0034600910A
:10306000ADF80630BDF80630ADF80830009B03938C
:1030700002AB1A46002144F20200FEF7B9FF00BF7E
:1030800005B05DF804FB86B001900091019B53E808
:10309000011F8AB2D88902449889824228BF121A35
:1030A0001889824202BFBFF32F8F002307E0C2EAD4
:1030B000010243E801200028E9D14FF001038DF817
:1030C0000F30059002910492029A009B1A609DF8BD
:1030D0000F30DBB2184606B0704784B001900199FA
:1030E00051E8013FC3EA034341E80132002AF7D126
:1030F0000392029300BF04B0704786B00190009124
:10310000019B53E8021F1FFAA1F2D888824202BF36
:10311000BFF32F8F00230DE0D889024498898242A3
:1031200028BF121AC1EA024243E802200028E8D16F
:103130004FF001038DF80F30059002910492029A2E
:10314000009B1A609DF80F30DBB2184606B070473E
:1031500084B00190019951E8023FC3EA234341E85A
:103160000232002AF7D10392029300BF04B07047E5
:1031700084B00390029111461A460B46ADF8063012
:103180001346ADF80430029B002B01D10E231FE043
:10319000BDF80630BDF80420B3FBF2F102FB01F2EA
:1031A0009B1A9BB2002B01D0092311E0039B029ACA
:1031B0001A60039B00225A60039B00229A60039BC3
:1031C000BDF806209A81039BBDF80420DA81002314
:1031D000184604B0704700B585B001900091009B7F
:1031E00019460198FFF74FFF0346002B07D0019BBC
:1031F0001B68009A128813440393039B00E000238A
:10320000184605B05DF804FB00B583B0019000914D
:10321000009B1A88009B5B889A4204D10198FFF7B3
:103220005CFF012300E00023184603B05DF804FBB7
:1032300000B585B001900091009B19460198FFF7F9
:103240005CFF0346002B07D0019B1B68009A528845
:1032500013440393039B00E00023184605B05DF878
:1032600004FB00B583B001900091009B1A88009B7D
:103270005B889A4204D10198FFF76AFF012300E0BE
:103280000023184603B05DF804FB10B487B001902A
:103290000091019B009A53E8004F104643E800015B
:1032A00091F0000FF7D1059404900391059B184607
:1032B00007B05DF8044B704710B487B001900091DF
:1032C000019B009A53E8004F44EA020043E80001E2
:1032D00091F0000FF6D1059404900391049B1846D9
:1032E00007B05DF8044B704710B487B001900091AF
:1032F000019B009A53E8004F04EA020043E80001F2
:1033000091F0000FF6D1059404900391059B1846A7
:1033100007B05DF8044B704710B487B0019000917E
:10332000019B009A53E8004F04EB020043E80001C0
:1033300091F0000FF6D1059404900391049B184678
:1033400007B05DF8044B704710B487B0019000914E
:10335000019B009A53E8004FA4EB020043E80001F0
:1033600091F0000FF6D1059404900391049B184648
:1033700007B05DF8044B704700B583B001900121A0
:103380000198FFF799FF0346184603B05DF804FB68
:1033900000B583B0019000210198FFF7A5FF034617
:1033A000184603B05DF804FB00B583B001900B46EE
:1033B0008DF80330019B002B03D10849E820FFF76B
:1033C0004BFE019BDA689DF803300199098A01FBE5
:1033D00003F31344184603B05DF804FB287700009C
:1033E00000B583B001900091019B002B03D10849E7
:1033F000F520FFF731FE009B019AD2689B1A019AD3
:10340000128AB3FBF2F3DBB2184603B05DF804FB9B
:103410002877000000B585B00190019B002B01D1F9
:103420000E234CE0019B1B68002B03D12649FF2093
:10343000FFF712FE019B5B68002B04D122494FF479
:103440008070FFF709FE019B9B68002B04D11E4989
:1034500040F20110FFF700FE019BDB68002B04D156
:1034600019494FF48170FFF7F7FD019B1B8A002B70
:1034700004D1154940F20310FFF7EEFD019B9A6855
:10348000019B5B68D31A8DF80F30019B1B68019A72
:1034900052681A6007E0019B1A681368591C116092
:1034A0009DF80F201A709DF80F305A1E8DF80F20CE
:1034B000002BF0D1019B1B6800221A7100231846D3
:1034C00005B05DF804FB00BF2877000000B585B0AB
:1034D0000190019B002B04D11C494FF49270FFF71F
:1034E000BBFD002303930020FFF7A6F9019B1B6897
:1034F0001A68019B5B689A421FD9019B1B681A6876
:10350000013A1A601B681B7819460198FFF74CFFB7
:103510000390019B9A68019B1B681B68D31A8DF866
:103520000B30019B1B681B799DF80B209A4204D934
:10353000019B1B689DF80B201A710020FFF790F982
:10354000039B184605B05DF804FB00BF2877000018
:1035500010B584B001900091019B002B04D111495A
:1035600040F24710FFF778FD009B002B04D10D4976
:103570004FF4A470FFF770FD009B03930020FFF74A
:103580005BF9019B1B681C68621C1A600399019817
:10359000FFF726FF034623700020FFF761F900BF05
:1035A00004B010BD2877000000B583B00190019BE6
:1035B000002B03D10C493120FFF74EFD019B9B6886
:1035C000002B0CD0019B5B69019A1069019A11686C
:1035D000019A92689847019B00229A6000E000BF20
:1035E00003B05DF804FB00BF707700000EB400B5B7
:1035F00084B00190019B002B03D118494220FFF7B2
:103600002BFD019B5B69002B03D114494320FFF77D
:1036100023FD019B1B68002B03D110494420FFF7B9
:103620001BFD019B5B68002B03D10C494520FFF774
:1036300013FD059B002B0AD00023039306AB0393D5
:1036400003AB1A460599019800F0B8F900E000BFF5
:1036500004B05DF804EB03B0704700BF7077000062
:1036600000B583B001900B468DF803309DF8033010
:103670000A2B03D10D210198FFF7F2FF019B1A6875
:10368000019B9B68581C0199886013449DF8032096
:103690001A70019B9A68019B5B689A4202D3019859
:1036A000FFF782FF00BF03B05DF804FB00B587B0F1
:1036B000039002910192009300230593009B03F075
:1036C0000103002B24D00BE0029B01330293059BE6
:1036D000013305939DF8133019460398FFF7C0FF97
:1036E000029B1B788DF813309DF81330002BEBD123
:1036F00006E0019B013B019320210398FFF7B0FFF7
:10370000019A059B9A422ED9019B002BF1D12AE008
:10371000029B002B0BD0029803F04FFD059006E0B2
:10372000019B013B019320210398FFF799FF019A28
:10373000059B9A420FD9019B002BF1D10BE0029B14
:1037400001330293059B013305939DF8133019460D
:103750000398FFF785FF029B1B788DF813309DF8C7
:103760001330002BEBD100BF07B05DF804FB000065
:1037700000B589B00390029101920093029B0793D8
:103780000123069307E0079A019BB2FBF3F307932B
:10379000069B01330693079A019B9A42F3D2009A43
:1037A000069B9A4201D9009B06930B9B03F00103F1
:1037B000002B22D10A9B002B1FD00B9B03F002038E
:1037C000002B06D0009B002B03D130238DF817303F
:1037D00002E020238DF8173008E00A9B013B0A9392
:1037E0009DF8173019460398FFF73AFF0A9B002B04
:1037F00003D0069A0A9B9A42EFD301230793009BBA
:10380000012B03D9009B013B009309E0029A079B1F
:10381000B2FBF3F30493049A019B9A4200D205E0B1
:10382000079B019A02FB03F30793E8E7029A079BC1
:10383000B2FBF3F30493049B079A02FB03F3029A8F
:10384000D31A0293154A049B13441B781946039814
:10385000FFF706FF079A019BB2FBF3F30793079B61
:10386000002BE3D10B9B03F00103002B11D00A9B2B
:10387000002B0ED006E00A9B013B0A9320210398FF
:10388000FFF7EEFE0A9B002B03D0069A0A9B9A4292
:10389000F1D300BF09B05DF804FB00BFF077000072
:1038A00000B589B00590049103920293049B002B0C
:1038B000B8BF5B4206930123079307E0039B069A78
:1038C00092FBF3F30693079B01330793039B069A3E
:1038D0009A42F3DA029A079B9A4201D9029B079314
:1038E0000A9B002B0AD0049B002B04DB0B9B03F0EC
:1038F0000403002B02D00A9B013B0A930B9B03F0AD
:103900000203002B02D0029B002B16D00B9B03F06E
:103910000103002B11D10A9B002B0ED006E00A9B5D
:10392000013B0A9320210598FFF79AFE0A9B002B82
:1039300003D0079A0A9B9A42F1D3049B002B07DA23
:10394000049B5B4204932D210598FFF789FE08E054
:103950000B9B03F00403002B03D02B210598FFF7EA
:103960007FFE0B9B03F00203002B19D00B9B03F08F
:103970000103002B14D1029B002B11D10A9B002BB9
:103980000ED006E00A9B013B0A9330210598FFF711
:1039900067FE0A9B002B03D0079A0A9B9A42F1D339
:1039A00004990B9B01930A9B0093029B039A059831
:1039B000FFF7DEFE00BF09B05DF804FB00B58FB075
:1039C000059004910392059B002B04D1C84940F255
:1039D0005220FFF741FB059B5B69002B04D1C449D2
:1039E0004FF41570FFF738FB059B1B68002B04D1C3
:1039F000BF4940F25520FFF72FFB059B5B68002B6A
:103A000004D1BB4940F25620FFF726FB049B002B54
:103A100000F0ED81049B1B788DF83730049B013357
:103A200004939DF83730002B00F0D8819DF8373093
:103A3000252B40F0C78100230A9301230C93049B9C
:103A40001B788DF837309DF837302D2B04D0302B74
:103A50000AD02B2B10D017E00A9B43F001030A93E6
:103A6000049B0133049312E00A9B43F002030A9380
:103A7000049B013304930AE00A9B43F004030A9376
:103A8000049B0133049302E000230C9300BF0C9BC2
:103A9000002BD4D1002309939DF837302A2B0CD169
:103AA000039B1B68191D039A11601B68099A134434
:103AB0000993049B013304931AE0049B1B788DF84F
:103AC00037309DF837302F2B12D99DF83730392BEE
:103AD0000ED8049B01330493099A13469B001344A8
:103AE0005B001A469DF837301344303B0993D3E707
:103AF00000230B93049B1B788DF837309DF83730EB
:103B00002E2B1DD1049B01330493049B1B788DF84D
:103B100037309DF837302F2B12D99DF83730392B9D
:103B20000ED8049B013304930B9A13469B00134455
:103B30005B001A469DF837301344303B0B93E4E7A3
:103B4000049B1B788DF837309DF837306C2B03D0F1
:103B50009DF83730682B07D1049B01330493049BF5
:103B60001B788DF83730EFE79DF83730253B532B26
:103B700000F2238101A252F823F000BFB13D000002
:103B8000BB3D0000BB3D0000BB3D0000BB3D000055
:103B9000BB3D0000BB3D0000BB3D0000BB3D000045
:103BA000BB3D0000BB3D0000BB3D0000BB3D000035
:103BB000BB3D0000BB3D0000BB3D0000BB3D000025
:103BC000BB3D0000BB3D0000BB3D0000BB3D000015
:103BD000BB3D0000BB3D0000BB3D0000BB3D000005
:103BE000BB3D0000BB3D0000BB3D0000BB3D0000F5
:103BF000BB3D0000BB3D0000BB3D0000BB3D0000E5
:103C0000BB3D0000BB3D0000BB3D0000BB3D0000D4
:103C1000BB3D0000BB3D0000BB3D0000BB3D0000C4
:103C2000BB3D0000BB3D0000BB3D0000BB3D0000B4
:103C3000BB3D0000BB3D0000BB3D0000BB3D0000A4
:103C4000BB3D0000BB3D00003D3D0000BB3D000012
:103C5000BB3D0000BB3D0000BB3D0000BB3D000084
:103C6000BB3D0000BB3D0000BB3D0000BB3D000074
:103C7000BB3D0000CD3C0000F53C0000BB3D00001A
:103C8000BB3D0000BB3D0000BB3D0000F53C00001B
:103C9000BB3D0000BB3D0000BB3D0000BB3D000044
:103CA000BB3D0000BB3D00007D3D0000BB3D000072
:103CB000BB3D0000613D0000BB3D0000193D000020
:103CC000BB3D0000BB3D00003D3D0000039B1B6869
:103CD000191D039A11601B680C930C9B8DF82330FF
:103CE0009DF8233019460598FFF7BAFC66E000BF3F
:103CF000AC770000039B1B68191D039A11601B68B9
:103D00000C930A9B0193099B00930B9B0A220C992D
:103D10000598FFF7C5FD51E0039B1B68191D039A29
:103D200011601B680C930C990A9B0193099B0093EB
:103D30000B9B0A220598FFF71BFD3FE0039B1B68C6
:103D4000191D039A11601B680C930C990A9B01932F
:103D5000099B00930B9B10220598FFF709FD2DE0AE
:103D6000039B1B68191D039A11601B6807930A9B2C
:103D7000099A07990598FFF799FC1FE0039B1B68B8
:103D8000191D039A11601B680C9330210598FFF7E9
:103D900067FC78210598FFF763FC0C9900230193D9
:103DA00008230093082310220598FFF7E1FC05E0A3
:103DB00025210598FFF754FC00E000BF049B013368
:103DC000049305E09DF8373019460598FFF748FC45
:103DD000049B1B78002B7FF41DAE00E000BF059B09
:103DE0001B7B002B04D00598FFF7DEFB00E000BF33
:103DF0000FB05DF804FB00BF00B583B001900198DF
:103E0000FFF708FB0346184603B05DF804FB00B556
:103E10008BB001900091019B1B8A043B0793009A91
:103E2000079B1344DA1C079BB2FBF3F38DF81B309E
:103E30000198FFF74BFB0590059B002B01D1002358
:103E400038E0059B00221A71059B01225A71079BDD
:103E50009AB2059BDA80059B09939DF81B30013BC4
:103E60000493099B019A1A60002308931DE00198AE
:103E7000FFF72CFB0390039B002B0ED0059B5B7977
:103E80000133DAB2059B5A71099B039A1A60039BAE
:103E9000019A1A60039B099304E0059800F00EF85C
:103EA000002307E0089B01330893089A049B9A4279
:103EB000DDD3059B18460BB05DF804FB00B58BB055
:103EC0000190019B0793079B5B798DF81B30019B49
:103ED00008939DF81B30013B05930023099305E0EF
:103EE000089B1B680893099B01330993099A059B5A
:103EF0009A42F5D3089B1B680493019B0893002307
:103F000009930BE0089B1B68039308990498FFF73B
:103F10001FFB039B0893099B013309939DF81B30FA
:103F2000099A9A42EED300BF0BB05DF804FB00B5CE
:103F300085B00190019B0393039B04330121184634
:103F4000FFF7EAF900BF05B05DF804FB00B587B0E4
:103F50000190019B0593059B043301211846FFF74F
:103F6000F3F90346039303AB0493049B1B78002BE4
:103F700002D10198FFF7A2FF00BF07B05DF804FB74
:103F800000B591B00390029101920093039B002B26
:103F900003D14349B620FFF75FF8039B0993039BC6
:103FA0000F93099BDB881A46099B5B7903FB02F39D
:103FB000043B0893009A089B9A4203D33849C420D3
:103FC000FFF74AF8099BDB880793009B1A1D079BA4
:103FD000B2FBF3F30E93009B0433079AB3FBF2F2A8
:103FE000079901FB02F29B1A0D93019B1A68009B33
:103FF0001344089A9A4203D2089A009BD31A01E00C
:10400000019B1B680C93019B0C9A1A6005E00F9BA7
:104010001B680F930E9B013B0E930E9B002BF6D15A
:1040200000230B93079A0D9BD31A0A930A9A0C9BB1
:10403000934228BF13460A932AE0029A0B9B13442B
:1040400006930F9A0D9B1344043305939DF8483053
:10405000002B05D00A9A0599069803F030F804E081
:104060000A9A0699059803F02AF800230D930F9BEE
:104070001B680F930C9A0A9BD31A0C930B9A0A9BFA
:1040800013440B93079A0C9B934228BF13460A9341
:104090000C9B002BD1D100BF11B05DF804FB00BF19
:1040A0000078000000B589B0059004910392029356
:1040B000039B079307AA00230093029B049905988A
:1040C000FFF75EFF079B039A9A4203D00349F6204D
:1040D000FEF7C2FF00BF09B05DF804FB00780000E6
:1040E00000B589B00590049103920293039B079356
:1040F00007AA01230093029B04990598FFF740FF4C
:10410000079B039A9A4204D004494FF48070FEF74B
:10411000A3FF00BF09B05DF804FB00BF00780000FA
:1041200082B00190019B9B6800229A60019B9B6872
:1041300000221A61019B9B6800225A61019B9B68C7
:104140000022DA60019B9B6800225A60019B9B68F9
:1041500000221A6000BF02B07047000000B585B0B1
:1041600001900091019B002B03D118493A20FEF7E2
:1041700073FF009B002B03D114493B20FEF76CFF1B
:10418000019B5B6803930FE0019B9B68039A126895
:10419000009910469847034683F00103DBB2002BD9
:1041A00007D1039B1B680393039B1B68002BEBD178
:1041B00000E000BF039B1A68009B1A60039B009AF3
:1041C0001A6000BF05B05DF804FB00BF5478000022
:1041D00000B585B00190019B002B03D10C49512003
:1041E000FEF73AFF019B5B681B680393019B5B68CA
:1041F0001B68002B06D0019B5B681A68019B5B68FB
:1042000012681A60039B184605B05DF804FB00BFF6
:104210005478000000B583B00190019B002B03D1BE
:1042200005495D20FEF718FF019B5B681B68184677
:1042300003B05DF804FB00BF5478000000B585B002
:1042400001900091019B002B03D116496920FEF7D4
:1042500003FF009B002B03D112496A20FEF7FCFEEE
:1042600000238DF80F30019B5B6802930FE0029BE7
:104270001B68009A9A4207D1009B1A68029B1A6039
:1042800001238DF80F3006E0029B1B680293029B0E
:104290001B68002BEBD19DF80F30184605B05DF878
:1042A00004FB00BF5478000000B585B00190019870
:1042B00000F00EF80390039B002B01D0039B00E05D
:1042C000024B184605B05DF804FB00BFA078000063
:1042D00086B00190164B0593164B04931FE0049A89
:1042E000059BD31ADB10DA0F13445B10DB00059A31
:1042F00013440393039B1B680293029A019B9A4207
:1043000002D9039B04930AE0029A019B9A4203D2CA
:10431000039B0833059302E0039B5B6804E0059A66
:10432000049B9A42DBD30023184606B0704700BFB7
:10433000747C00008C7D000082B003468DF807304D
:104340009DF8073003F01F0205499DF907305B090E
:10435000012000FA02F241F8232000BF02B07047AA
:1043600000E100E082B0034600918DF807309DF92E
:104370000730002B0CDA009BDAB20C499DF80730AD
:1043800003F00F03043B5201D2B20B441A7609E04A
:10439000009BDAB206499DF907305201D2B20B44B4
:1043A00083F8002300BF02B0704700BF00ED00E0BB
:1043B00000E100E000B583B003460A468DF80730FF
:1043C00013468DF806309DF80630072B03D90849AF
:1043D0006B20FEF741FE9DF806209DF9073011463F
:1043E0001846FFF7BFFF00BF03B05DF804FB00BF36
:1043F0008C7D000000B583B003468DF807309DF931
:1044000007301846FFF798FF00BF03B05DF804FBC4
:1044100000B583B00346ADF80630BDF80630184647
:1044200000F026F803461B68012B0CBF0123002374
:10443000DBB2184603B05DF804FB00B585B0034657
:10444000ADF80630BDF80630184600F011F8034606
:104450001A4600231360BDF80630184600F008F82D
:1044600003461B680393039B00BF05B05DF804FB84
:1044700082B00346ADF80630BDF8063003F1804344
:1044800003F5C043184602B07047000082B00190A7
:10449000034A019BC2F8043300BF02B0704700BF5B
:1044A0000060004082B00190034BD3F80423019BCD
:1044B0001340184602B070470060004082B001907F
:1044C000084A019B03F5A27352F82330054943F0D3
:1044D0000102019B03F5A27341F8232000BF02B043
:1044E000704700BF0060004084B003900291134603
:1044F0008DF80730144A039B03F5A27352F823305A
:10450000114923F4473323F44073039A02F5A2724E
:1045100041F822300C4A039B03F5A27352F8232082
:10452000029B1B0203F4F8519DF807301B0403F4AF
:1045300040330B4304491A43039B03F5A27341F82C
:10454000232000BF04B070470060004082B001909B
:10455000054A019B03F5A27352F823301B0A03F0AE
:104560001F03184602B070470060004082B00190FF
:10457000064A019B03F5A27352F823301B0C03F08B
:104580000303DBB2184602B0704700BF0060004072
:1045900000B583B00190019B1B681F2B04D905490E
:1045A00040F2CD10FEF758FD4FF0A043184603B07F
:1045B0005DF804FBC07D000000B585B001900846A1
:1045C00011461A4603468DF803300B468DF802302B
:1045D00013468DF8013001AB1846FFF7D9FF039061
:1045E0009DF803209DF802305B001A439DF80130CE
:1045F0009B001A439DF818301B0242EA03019DF804
:104600001C301B04019A1943039B02F5E07243F826
:10461000221000BF05B05DF804FB00B585B0039023
:104620000B468DF80B309DF80B20002301930023DF
:1046300000931346002200210398FFF7BDFF00BF3F
:1046400005B05DF804FB00B585B0019001AB1846DC
:10465000FFF79EFF0390019A039B02F5E07253F867
:10466000223023F002030293019A039B02F5E072C9
:10467000029943F8221000BF05B05DF804FB00B5B5
:1046800085B001900B468DF8033001AB1846FFF75B
:104690007FFF0390019A039B02F5E07253F82230EA
:1046A000019A23F44031039B02F5E07243F8221093
:1046B000019A039B02F5E07253F822309DF8032023
:1046C00012041146019A1943039B02F5E07243F864
:1046D000221000BF05B05DF804FB00B585B0019065
:1046E00001AB1846FFF754FF0390039800F020F841
:1046F0000246019B22FA03F303F00103184605B0BA
:104700005DF804FB00B585B0019001AB1846FFF7DA
:104710003FFF0390019A039B02F5E07253F82230A9
:104720001B0C03F00303DBB2184605B05DF804FB75
:1047300082B00190019BD3F81035184602B0704743
:1047400000B587B00390029101924FF0A04304930B
:10475000039A029B1344012B04D9124940F2FD2015
:10476000FEF77AFC039B059311E0059B9B0006AACC
:10477000134453F8083C1846FFF7DAFF0246019B42
:104780001A60019B04330193059B01330593039A3F
:10479000029B1344059A9A42E7D300BF07B05DF825
:1047A00004FB00BFC07D000084B001900091009B1D
:1047B0000393019BDB080293019B03F00703019322
:1047C0000122019B02FA03F30399029A0A44127828
:1047D0001340184604B0704784B001900091009BCC
:1047E0000393019BDB080293019B03F007030193F2
:1047F000039A029B13441B785AB20121019B01FAD0
:1048000003F35BB2134359B2039A029B1344CAB237
:104810001A7000BF04B0704782B001900C4A019B2F
:104820001344303393F90030002B09DB084A019B15
:104830001344303393F90030072B01DC012300E0EF
:10484000002303F00103DBB2184602B0704700BF3B
:104850003407002082B00190064A019B1344303394
:1048600093F90030072BCCBF01230023DBB218469D
:1048700002B070473407002082B00190064A019BC5
:104880001344303393F90030DB43DBB2DB09DBB296
:10489000184602B0704700BF3407002084B0039070
:1048A000029101928DF80330029B59B20E4A039B8C
:1048B000134430330A461A700B49029B019A41F89F
:1048C00023209DF8033083F00103DBB2002B08D0D6
:1048D000029B083B039A51B2034A13440A4683F8E9
:1048E000502000BF04B070473407002082B0019010
:1048F000044A019B13443033FF221A7000BF02B0F8
:10490000704700BF3407002000B583B00190044910
:104910000198FFF761FF00BF03B05DF804FB00BF23
:104920008807002082B00190044A019B1344303371
:1049300093F90030184602B0704700BF34070020DA
:1049400082B00190034A019B52F82330184602B00E
:10495000704700BF3407002000B589B00390029172
:1049600013468DF80730FF238DF81F309DF8073070
:10497000002B01D0002300E0082305939DF80730A9
:10498000002B01D0082300E00C230493059B069321
:1049900014E00F4A069B52F82330B3F1FF3F0AD1CF
:1049A0009DF80730029A06990398FFF777FF069B58
:1049B0008DF81F3006E0069B01330693069A049B90
:1049C0009A42E6D39DF91F30184609B05DF804FB02
:1049D0003407002082B003468DF807309DF8073079
:1049E000094A4FF0FF3142F823109DF80730072B9A
:1049F00007D99DF80730083B034A1344FF2283F888
:104A0000502000BF02B070473407002000B583B0CB
:104A1000254B93F85830002B03D008230093009BBC
:104A20003EE000238DF8073009E09DF80730184676
:104A3000FFF75CFF9DF8073001338DF807309DF8D4
:104A400007301F2BF1D900238DF8073009E09DF8BE
:104A500007301846FFF7BEFF9DF8073001338DF889
:104A600007309DF807300B2BF1D9042200210F48A5
:104A700002F04EFB06210620FFF79CFC0620FFF704
:104A8000B9FC4FF4BE70FFF7D8FC4FF00040FFF7C1
:104A9000FDFC054B012283F8582000230093009B66
:104AA000184603B05DF804FB340700208807002097
:104AB000044B93F85830002B14BF01230023DBB2C2
:104AC000184670473407002000B587B00390029164
:104AD0000192039B1F2B04D9364940F20720FEF7B1
:104AE000BBFA002305930398FFF7C6FE0346002B8D
:104AF00002D00823059357E0029B9B78C3F3400341
:104B0000DBB21A4601990398FFF726FF03468DF89A
:104B100013309DF91330B3F1FF3F43D0029B9B78D4
:104B2000C3F38003DBB283F00103DBB2002B13D0AD
:104B3000029B9B7803F00103DBB2002B03D00398A8
:104B4000FFF781FD05E0029B5B7819460398FFF7AC
:104B500064FD0398FFF7D8FE029B9B7803F00203E5
:104B6000DBB2002B08D09DF91300029B1B781A467C
:104B70000399FFF7B9FC17E09DF91330083B0E4A83
:104B8000134493F95010029B1B789B015AB29DF974
:104B90001330083B0A4351B2074A13440A4683F8CC
:104BA000502001E004230593059B184607B05DF8EB
:104BB00004FB00BFFC7D00003407002000B587B077
:104BC00001900B468DF80330019B1F2B04D93D4902
:104BD00040F23720FEF740FA0198FFF74DFE0346FA
:104BE000002B04D137494FF40E70FEF735FA0198C7
:104BF000FFF730FE0346002B2FD00198FFF792FEFF
:104C00000346083B304A134493F950308DF8163070
:104C10009DF816309B098DF815309DF81530032B43
:104C20000BD10198FFF759FD0346002B01D0032358
:104C300000E002238DF8173008E09DF81530012BB5
:104C400001D1022300E003238DF817309DF81730BF
:104C500019460198FFF713FD30E00198FFF7DCFDDE
:104C60000346002B2AD00198FFF75CFE034604930D
:104C7000049B9BB240339BB29B00ADF80E30049B6B
:104C80001846FFF71BFCBDF80E301846FFF7D5FBA2
:104C90009DF80330002B11D00198FFF743FE034627
:104CA0001846FFF74DFE0290029B002B06D0012212
:104CB000049B02FA03F31846FFF7E8FB00BF07B0B6
:104CC0005DF804FBFC7D00003407002000B583B0D4
:104CD0000190019B1F2B04D908494FF42270FEF765
:104CE000BBF90198FFF7F9FC0346002B14BF012321
:104CF0000023DBB2184603B05DF804FBFC7D000026
:104D000000B595B000231093002303934FF48073F4
:104D1000ADF83A300123129300230F9321E0BDF840
:104D20003A301846FFF774FB0346002B0ED012985A
:104D3000FFF7B8FB0346002B08D0BDF83A30184601
:104D4000FFF77BFB109A129B13431093129B5B009F
:104D50001293BDF83A300433ADF83A300F9B01336B
:104D60000F930F9B072BDAD94FF4BE70FFF750FB60
:104D70000346002B0DD04FF4BE70FFF75EFB109B77
:104D800043F00043109303AB1A4601210020FFF7C4
:104D9000D7FC109BDBB2002B29D0012312930023F8
:104DA0000F9321E0129A109B1340002B16D00F98FE
:104DB000FFF7CCFB0D900F98FFF7D8FB03468DF85B
:104DC00033300F98FFF7BCFD0B900B9B002B05D0E9
:104DD0009DF833200B9B11460D989847129B5B0062
:104DE00012930F9B01330F930F9B072BDAD9109B64
:104DF000002B80F2EE8000238DF84F3000230293C9
:104E0000002311930AE0119B9B0014AA13444FF056
:104E1000FF3243F84C2C119B01331193119B002B53
:104E2000F1D000238DF84F3000230F9378E06B4AC8
:104E30000F9B1344503393F900308DF82B309DF8BD
:104E40002B3023F0C0030993644A0F9B1344503363
:104E500093F90030B3F1FF3F5FD001AB19460998D9
:104E6000FFF7A2FC0346002B57D09DF82B309B097F
:104E70008DF823300998FFF755FD03461846FFF7D4
:104E80005FFD0790079B002B03D19DF82330032B78
:104E900043D19DF82330032B04D102AB1946099866
:104EA000FFF79AFC0998FFF72DFC03468DF81B309D
:104EB00003AB19460998FFF777FC0590059B002B7B
:104EC00003D09DF81B30022B06D0059B002B24D16C
:104ED0009DF81B30032B20D19DF82330032B13D1D9
:104EE0009DF81B30022B01D1032300E002238DF833
:104EF00013309DF8133019460998FFF7C0FB9DF851
:104F00004F3001338DF84F30079B002B05D09DF8B3
:104F10002320079B1146099898470F9B01330F9355
:104F20000F9B032B83D99DF84F30002B4CD00123CE
:104F30008DF84E306B461A4601210020FFF700FC29
:104F40000023119314E0119B9B0014AA134453F8FF
:104F5000502C119B9B0014A90B4453F8443C9A42DB
:104F600003D000238DF84E3005E0119B01331193DF
:104F7000119B002BE7D09DF84E30002B03D000236F
:104F80008DF84F3020E0002311931AE0119B9B0015
:104F900014AA134453F8502C119B9B0014A90B44E2
:104FA00043F8442C119B9B0014AA134453F8482C3B
:104FB000119B9B0014A90B4443F84C2C119B01330B
:104FC0001193119B002BE1D09DF84F30002B7FF403
:104FD00028AF00BF15B05DF804FB00BF3407002008
:104FE00008B5064B1B68002B03D105495120FEF77D
:104FF00033F8024B1B68984700BF08BD900700209C
:10500000447E000000B587B003460A468DF807309D
:1050100013468DF8063000238DF8173000230493D3
:105020009DF807301846FCF781FC0490049B032B85
:1050300060D89DF80630012B04D0022B4FD0002BF6
:1050400030D05AE03649049A13465B0013440B44AF
:105050001B788DF817303249049A13465B001344CD
:105060000B4401331B78002B0ED02E4B2E4A4FF4ED
:1050700080411846FDF75EFB0390039B002B03D194
:10508000294A9DF8073013702549049A13465B009E
:1050900013440B4402331978244A049B13440A46F0
:1050A0001A702AE01F4B1846FDF77CFB1F4A049B31
:1050B000134419781A48049A13465B0013440344B6
:1050C00002331B78994217D11549049A13465B00A5
:1050D00013440B4402331B788DF817300CE0104951
:1050E000049A13465B0013440B4401331B788DF87C
:1050F000173002E000BF00E000BF9DF81730002B22
:1051000009D00B4B1B68002B05D0094B1B689DF881
:1051100017201046984700BF07B05DF804FB00BF9A
:10512000EC070020F8070020180800201C080020C9
:10513000E807002000B583B00190019B1B78022195
:105140001846FFF75FFF00BF03B05DF804FB0000E7
:1051500000B583B00C4B1B78002B0FD000230193BC
:1051600008E0019B022B02D00198FCF753FB019B46
:1051700001330193019B032BF3D901E0FCF764FB9E
:1051800000BF03B05DF804FBA00700202DE9F04745
:1051900088B003468DF81730002307930023069349
:1051A000D04B1B78002B04D0CE4B00221A70FFF797
:1051B000CFFF9DF81730172B00F2268201A252F87C
:1051C00023F000BF255200003D5200003D52000078
:1051D000CD5200005D530000CF5300005954000031
:1051E0007954000089540000A7540000C554000001
:1051F000F15400000F5500001D5500001D55000022
:105200001D5500001D5500001D550000AB55000048
:10521000B9550000CD550000E1550000FB550000D8
:10522000FB550000FFF794FFAF4B1846FDF7BAFAA5
:105230000790AE4A9DF817301370E6E10020FCF7A6
:10524000A1FA0346002B0DD00020FCF7E3FA9DF8ED
:105250001730022B02D14FF4E16301E04FF47A637F
:1052600006930BE00020FCF7BBFA9DF81730022BE9
:1052700001D1C82301E04FF4C87306939B4A9DF8FF
:1052800017301370984D069B19464FF000024FF0EF
:1052900000034FF00004D40344EA5144CB0313F558
:1052A0007A72009244F1000301934FF4FA624FF0D6
:1052B0000003DDE9000101F03DFE03460C4600223B
:1052C00019462846FDF736FA07909EE10020FCF7C4
:1052D00059FA0346002B0DD00020FCF79BFA9DF8ED
:1052E0001730032B02D14FF4487301E04FF47A6377
:1052F00006930BE00020FCF773FA9DF81730032BA0
:1053000001D1C82301E04FF4C8730693774A9DF892
:1053100017301370744D069B19464FF000024FF082
:1053200000034FF00004D40344EA5144CB0313F5C7
:105330007A72029244F1000303934FF4FA624FF041
:105340000003DDE9020101F0F5FD03460C460022F1
:1053500019462846FDF7EEF9079056E10020FCF7C4
:1053600011FA0346002B06D00020FCF753FA4FF445
:105370007A63069305E00020FCF732FA4FF4C87315
:1053800006935A4A9DF817301370574D069B1946DD
:105390004FF000024FF000034FF00004D40344EA42
:1053A0005144CB0313F57A7944F1000A4FF4FA62C1
:1053B0004FF000034846514601F0BCFD03460C4641
:1053C000002219462846FDF7B5F907901DE1002097
:1053D000FCF7D8F90346002B0CD00020FCF71AFA92
:1053E0009DF81730052B01D1C82301E04FF47A63F3
:1053F00006930BE00020FCF7F3F99DF81730052B1E
:1054000001D1C82301E04FF4C8730693374A9DF8D1
:1054100017301370344D069B19464FF000024FF0C1
:1054200000034FF00004D40344EA5144CB0313F5C6
:105430007A7744F100084FF4FA624FF000033846DF
:10544000414601F077FD03460C46002219462846E6
:10545000FDF770F90790D8E00020FCF719FA234A0D
:105460009DF817301370204B002240F266611846F9
:10547000FDF760F90790C8E00020FCF7B1F91B4A7E
:105480009DF817301370C0E0164B01221A700120EE
:10549000FCF7FEF9144B002240F266611846FDF756
:1054A00049F90790B1E00F4B01221A700120FCF777
:1054B000EFF90D4B00224FF400511846FDF73AF971
:1054C0000790A2E0074B01221A700120FCF7E0F9D7
:1054D000054B002240F266611846FDF72BF9079054
:1054E00093E000BF99070020A8070020980700203C
:1054F000484B01221A700120FCF7CAF9464B0022E2
:105500004FF400511846FDF715F907907DE0FCF7C0
:10551000ADF9424A9DF81730137076E0404B1846BB
:10552000FDF740F907909DF81730C3F1110306937A
:10553000069B002B32D0079B002B2FD1069B012B03
:1055400025D9374F069B9BB21A46C82303FB02F3AB
:1055500019464FEAE1724FF000034FF00004D40304
:1055600044EA5144CB0313F57A7544F100064FF435
:10557000FA624FF000032846314601F0DBFC034697
:105580000C46002219463846FDF7D4F80790022051
:10559000FCF726F9234B01221A7036E00220FCF7B3
:1055A00039F9204B00221A702FE0FFF7D1FD1B4A7A
:1055B0009DF81730137028E0FFF7CAFD0020FCF7B4
:1055C0000FF9164A9DF8173013701EE0FFF7C0FD63
:1055D0000120FCF705F9114A9DF81730137014E00B
:1055E000FFF7B6FD0020FCF7FBF80120FCF7F8F808
:1055F0000A4A9DF81730137007E0FCF737F9074A9D
:105600009DF81730137000E000BF079B184608B0E4
:10561000BDE8F08799070020A80700209807002020
:10562000C8070020A007002000B583B00190074BF9
:105630001B6803F00103002B04D0054B1B781846B0
:10564000FFF7A4FD00BF03B05DF804FB9C0700203A
:105650009807002000B583B001900220FCF718F9EC
:1056600000BF03B05DF804FB00B585B00190009168
:10567000002303932A4A019B13602A4A009B13606C
:10568000019B03F00203002B2AD00023029308E0C1
:1056900001220121029800F055F80390029B01338A
:1056A0000293029B032B02D8039B002BF0D0039B99
:1056B000002B06D140F2333204211B48FCF78AFB51
:1056C0000390039B002B02D1FCF70CFC0390039B7F
:1056D000002B05D1154A00211548FCF7F7FF039070
:1056E000019B03F00103002B14D00120FCF73EF9CD
:1056F000039B002B05D10F4A00210F48FCF7E6FF62
:105700000390039B002B05D10C4A01210C48FCF7A8
:10571000DDFF0390039B184605B05DF804FB00BF56
:105720009C070020E80700200080000035510000A1
:10573000FC7F000029560000F47F00005556000051
:10574000F87F000084B001900B468DF803301346BB
:105750008DF8023000230393019B032B3CD89DF866
:105760000230012B0BD19DF80330012B04D1019B9A
:10577000DBB20E33DBB200E000238DF802309DF87F
:105780000330012B04D0022B0CD0002B15D01FE0CE
:105790001449019A13465B0013440B449DF8022000
:1057A0001A701BE00F49019A13465B0013440B4427
:1057B00001339DF802201A7010E00A49019A13463D
:1057C0005B0013440B4402339DF802201A7005E07D
:1057D0000723039300BF01E007230393039B1846AD
:1057E00004B07047EC07002082B003468DF8073004
:1057F0009DF8073003F1804303F5C043184602B01B
:105800007047000084B00190094A019B03F5A27320
:1058100052F8233043F0030303930549019B03F53A
:10582000A273039A41F8232000BF04B0704700BF61
:105830000060004084B00390029111461A460B4666
:105840008DF8073013468DF80630184A039B03F590
:10585000A27352F82330154923F4981323F4F85314
:10586000039A02F5A27241F82230104A039B03F515
:10587000A27352F82320029B1B0203F4F8519DF8F7
:1058800007301B0403F4403319439DF806301B0511
:1058900003F480130B4305491A43039B03F5A273DA
:1058A00041F8232000BF04B0704700BF00600040F3
:1058B00082B003468DF807309DF80730044A012175
:1058C00001FA03F3C2F8043500BF02B0704700BF0D
:1058D00000F0014084B00346029101928DF80F3030
:1058E00008499DF80F30A233029A41F83320054A47
:1058F0009DF80F30A233DB001344019A5A6000BFB9
:1059000004B0704700F0014082B001900B46ADF842
:105910000230BDF80230019A1344184602B07047B5
:1059200000B583B003468DF80730144A144BD31AE0
:10593000DB081B0443F003039DF8072011491846B8
:10594000FBF7C4F99DF807300E3B032B10D800F08D
:10595000CFF90A4A0A4BD31ADB081B0443F00300B1
:105960009DF80720084B1B780849FBF7C0F900E0B9
:1059700000BF00BF03B05DF804FB00BF3C72000035
:105980001C720000208000002008002028800000F9
:105990004FF080430022C3F800214FF080430122E2
:1059A0001A6000BF4FF08043D3F80031002BF9D0CC
:1059B0004FF080430122C3F818254FF080430022A6
:1059C000C3F804214FF0804301229A6000BF4FF0DA
:1059D0008043D3F80431002BF9D000BF704700009A
:1059E00010B58EB0554A09AB92E803001860043335
:1059F00019700023032218210320FFF71BFF032047
:105A0000FFF700FF0123032217210220FFF712FFF7
:105A10000220FFF7F7FE0023032216210120FFF7E3
:105A200009FF0120FFF7EEFE4FF4A8714448FFF78D
:105A30006BFF03461C460C20FFF7D6FE03461A46B2
:105A400021460020FFF746FF0020FFF731FF4FF40B
:105A5000A4713C48FFF758FF03461C460820FFF797
:105A6000C3FE03461A4621460A20FFF733FF0A20E9
:105A7000FFF71EFF4FF4A4713248FFF745FF0346BE
:105A80001C460420FFF7B0FE03461A4621460B20B1
:105A9000FFF720FF0B20FFF70BFF294B0493294B47
:105AA0000593294B0693294B079317238DF8203034
:105AB00000238DF80F3001238DF80A3002238DF872
:105AC0000B3003238DF80C3004238DF80D300523A3
:105AD0008DF80E3050238DF8043009A901AB013345
