:020000022000DC
:1060000000000120756302005D6302005F6302000F
:106010006163020063630200656302000000000028
:1060200000000000000000000000000067630200A4
:1060300069630200000000006B6302006D630200F0
:106040009D89020095A20200E18D02006F630200AB
:106050006F6302006F6302005D8C02006F630200D9
:106060006F6302006F6302006F6302006F630200E0
:106070006F6302006F6302006F6302006F630200D0
:106080006F630200197A02006F6302006F630200FF
:106090006F6302006F630200C9BD02008DA602009B
:1060A0006F6302006F6302006F6302006F630200A0
:1060B0006F6302006F630200000000000000000038
:1060C0006F6302006F6302006F6302006F63020080
:1060D0006F6302006F6302006F6302000000000044
:1060E00000000000000000000000000000000000B0
:1060F00000000000000000000000000000000000A0
:10610000000000000000000000000000000000008F
:10611000000000000000000000000000000000007F
:10612000000000000000000000000000000000006F
:10613000000000000000000000000000000000005F
:10614000000000000000000000000000000000004F
:10615000000000000000000000000000000000003F
:10616000000000000000000000000000000000002F
:10617000000000000000000000000000000000001F
:10618000000000000000000000000000000000000F
:1061900000000000000000000000000000000000FF
:1061A00000000000000000000000000000000000EF
:1061B00000000000000000000000000000000000DF
:1061C00000000000000000000000000000000000CF
:1061D00000000000000000000000000000000000BF
:1061E00000000000000000000000000000000000AF
:1061F000000000000000000000000000000000009F
:10620000354936480A1A02D0072291438D4634494F
:1062100034480A1A06D00722914381F309880222E2
:1062200082F3148830483149314A00F044F831484B
:106230003149324A00F03FF831483249324A00F0E1
:106240003AF832483249334A00F035F83248334997
:10625000334A00F030F833483349344A00F02BF821
:1062600033483449344A00F026F83448344900228F
:1062700000F02CF833483449002200F027F8334866
:106280003349091A082902DB002202604160314AC1
:1062900090471F481F49884205D00268043003B464
:1062A000904703BCF7E700208646EC46002000211B
:1062B000294A9047FEE7884207D0521A05D0037852
:1062C00001300B700131013AF9D17047884202D098
:1062D00002700130FAE770470000012000E0002062
:1062E00000000120000001203CDD0200D82A00202F
:1062F000682B0020D0630200D0630200A8CB02000C
:106300003CDD0200D82A0020D82A0020D0CC020090
:10631000D0CC0200D0CC0200D0CC0200D0CC020005
:10632000D0CC0200D0CC0200D0CC02003CDD020078
:10633000CCDD0200682B0020682B0020682B002099
:10634000543F0020543F0020543F0020543F002081
:10635000545F00209D630200299F0200FEE7FEE7D4
:10636000FEE7FEE7FEE7FEE7FEE7FEE7FEE7FEE705
:1063700000F002B8FFF7FCBF0F484FF00701884359
:1063800085460E4880470E48016841F4700101605F
:10639000BFF34F8FBFF36F8FFFF732BF09480A4932
:1063A0000A4A884207D0521A05D0037801300B7090
:1063B0000131013AF9D170470000012091830200B8
:1063C00088ED00E0D0CC0200D82A0020D82A002096
:1063D0007047000007B5044B0093044A402300F0C7
:1063E00032F803B05DF804FBF1630200692B002072
:1063F0002DE9F84389461446B2B10F4B0F4E0325E1
:10640000002743F00108224609EB0701002004F0B1
:10641000C3FA0744241A48B933782BB14FF47A40B1
:10642000C047013D02D13570BDE8F88301233370C8
:10643000002CE8D1F8E700BFD0CC0200682B002088
:10644000704704F0DDBAF0B595B01C461646084614
:106450000D4601F076FE1A9B0D93CDE908640024E9
:106460002346082205A928460A948DF82C400C944E
:1064700001F084FE079B0293069B03939DF8143062
:106480008DF8114003F00302012A1DD1BDF814401C
:10649000059EC3F3C203C4F383148DF81030A20029
:1064A00008230EA9284601F069FEC6F3952608AB1D
:1064B0000093224602AB0EA9304600F079FB284635
:1064C00001F043FE15B0F0BD022AF8D1BDF8164028
:1064D000C3F3C203A4098DF810300827082C264600
:1064E00028BF08263B4632460EA9284601F046FE44
:1064F000A41B08AB02AA31460EA8374400F0BCFB2F
:10650000002CEBD1DBE7000008B5FFF79AFF042170
:10651000034800F0BBFA034B01225A7108BD00BFCB
:10652000C0CC0200D82A0020037813F0040216D051
:1065300003F00303012B03D0022B09D00120704785
:106540000A6800880232C0F3831002440A60F5E74B
:106550000B684288023303EB92130B60EEE71046A0
:10656000704700002DE9F04F87B000230446851CDA
:106570000DF107000F4690468DF8073001F0E0F866
:10658000454806683E60D0E90132134401339B1B45
:10659000824600F21C4600F5836900F21447AB42C4
:1065A0001BD30022B8F1000F70D0052363F307025C
:1065B00064F38912DAF80010DAF808309DF8070061
:1065C0000B4003330D444AF82320CAF8005001F071
:1065D000DBF8012007B0BDE8F08F0121304601F063
:1065E000F4FA484601F007FB384601F004FBDAF8FC
:1065F0000400DAF808B0029000EA0B0003300AEB5E
:10660000800002A9FFF790FF029B50BB0BEA030238
:106610000AEB820203F1020CD2680392013303EA0F
:106620000B0B0AEB8B0B02F00302012ACDF808C01A
:10663000DBF80C1022D0022A16D08346384601F02F
:10664000DDFA10B1029BCAF804305946304601F019
:10665000BCFADAE901231344DAF8002001339B1A6B
:106660009DE70BEA0300C9E7BDF80E309B09033331
:106670004FEA114B0CEB93030293DFE7BDF80C30AC
:10668000C3F383134FEA114B6344F5E7062363F327
:10669000070264F39F528DE77C2C00200B4B0C48C3
:1066A000FF2210B59A600022C3F81824C3E9002223
:1066B000C3F8142483F8202401F0FCFC044610B92C
:1066C000044801F0A3FD204610BD00BF7C2C002033
:1066D00010CC0200F4CC020030B50A4C71B10A4A69
:1066E0000A49121BD20800239A4201D1002030BD72
:1066F00031F82350854202D00133F5E7034654F8C0
:106700003300F4E738CC0200C0CC0200D82A0020C5
:10671000094B013903EBC000032909D8DFE801F078
:106720000A020406042070470079704740797047D8
:10673000002070470220704738CC0200034BD3E999
:106740000030C31A58425841704700BF7C2C0020CB
:106750002DE9F04387B0FFF7F1FF0646002840F02F
:10676000FB807E4DC5F81804BFF34F8F6868AC6896
:1067700002902040033005EB800002A9FFF7D4FE11
:10678000029B18B1D5F81824002A5FD004EA03024E
:10679000991C013305EB8202234005EB8303D26889
:1067A000DB68049302F00303022B0392029162D18F
:1067B000BDF80E306A484FEA9318B8F1500FC14641
:1067C00028BF4FF0500969F38F1309F10801ADF8A4
:1067D0000E3001F087FC0746002800F0A88001F089
:1067E000B0FC03A900230822384601F0BDFC029941
:1067F00024EA01060136B600B14535D95FFA89F9B8
:106800007EB3F6B2A9EB0609214003315FFA89F4A1
:10681000B146544E05EB810108234A46384601F043
:10682000A3FC36B109F1080322463146384601F08F
:106830009BFC029B08F1030803EB98030293D5F835
:106840001834002B4BD1D5F810445BE02A689A42EB
:1068500004D86A60304607B0BDE8F08304EA03005C
:1068600088E740493446D7E72140033108234A46A8
:1068700005EB8101DAE7012B59D1BDF80C3038481E
:10688000C3F38311062928BF062161F3891302315E
:106890008900ADF80C3001F025FC0746002846D0F1
:1068A00001F04FFC0023082203A9384601F05CFCEC
:1068B0000026BDF80C20C2F38312B300964203F108
:1068C0000803BCD202994A1C21400331029205EB15
:1068D00081010422384601F047FC0136E9E73846D9
:1068E00001F033FCFFF72AFF80F00100C6B2B1E7E8
:1068F000E3685B7923B1236839461B6820469847D3
:10690000E3681C68002CF3D1384601F01EFC0DF141
:1069100007008DF8074000F013FFD5F818340BB9C5
:10692000029B6B609DF8070000F02EFFDAE7D5F8B8
:10693000104454B90C4B0D480D49C01AC00800044E
:1069400040F0020000F06EF8CCE7236820469B6818
:106950009847E3681C68ECE700267BE77C2C002066
:1069600010CC0200882C002038CC020060CC020041
:1069700000CD02002DE9F74F284C80460F46924685
:1069800001A9012218469B46D4F80890FFF7EAFDBA
:1069900080B3019D0026A91C5E4506EB010233D1A0
:1069A00000211F4801F0E6F880F310006A1C02EA9B
:1069B000090204EB8202000405EA0903033340EAFA
:1069C0001840D06014F8232068F3C50204F823208F
:1069D00034F8232066F3891224F8232054F8232066
:1069E00067F39F2244F8232002F0F80242F00102EC
:1069F00004F8232094F820341BB1FFF7A9FE0028E7
:106A0000FBD103B0BDE8F08F09EA020204EB820279
:106A10005AF82630D3600136BEE700BF7C2C002038
:106A20009830002000231A46FFF7A4BF07B50123C2
:106A3000019201AAFFF79EFF03B05DF804FB07B5C2
:106A4000CDE9002302236A46FFF794FF03B05DF807
:106A500004FB1FB5CDE90123069B039301AA032381
:106A6000FFF788FF05B05DF804FB7FB5CDE9012392
:106A7000089B0393099B04930A9B059301AA052392
:106A8000FFF778FF07B05DF804FB000030B50F4951
:106A9000D1F81024002314463CB9C468237152B9BC
:106AA000C1F810042260184630BDE46825799D4283
:106AB00006D02468F0E7D268116821601060F2E720
:106AC00001330A2BE7D14FF0FF33ECE77C2C002099
:106AD000094A38B50123D2F8104482F820341D4603
:106AE00004B938BDE3685D71236820465B68984748
:106AF000E3681C68F4E700BF7C2C0020037A052BB8
:106B000010B50C460FD0437A23B1084A08492046F5
:106B100001F0D7F80749204601F0D3F82046BDE838
:106B2000104001F0C3B8002AF8D0F3E74BCD0200C3
:106B300050CD020091D50200C38873B504460D46BE
:106B400033B1144A00921449144A284601F0B9F8A6
:106B5000217A05291CD0637A4BB1A088FFF7D8FDB4
:106B60000F4B104953F82020284601F0AAF8227A4A
:106B70000D4BA08853F822600021FFF7ADFD0B49B3
:106B800003463246284602B0BDE8704001F099B88D
:106B900002B070BD4BCD02005BCD020053CD0200B0
:106BA00018CD020050CD020080CD020073CD02004E
:106BB0002DE9F04385B01F460C9D002306460C4688
:106BC000904695F80C902B7329463846FFF7B4FF92
:106BD000B8F1060F09D8DFE808F00412181F2833AF
:106BE00040003146284601F06CF80022294638461C
:106BF000FFF784FF85F80C9005B0BDE8F0832268AC
:106C00003146284601F05DF8EFE7D4E9002331462C
:106C1000284601F056F8E8E7A36800933146D4E926
:106C20000023284601F04DF8DFE7E3680193A368ED
:106C300000933146D4E90023284601F042F8D4E716
:106C400023690293E3680193A36800933146D4E972
:106C50000023284601F035F8C7E7636903932369E9
:106C60000293E3680193A36800933146D4E90023BB
:106C7000284601F026F8B8E708292DE9F84F8046A4
:106C80000E4617461C463AD8002593F80C901D7303
:106C900019461046FFF750FFDFF884A0DFF884B0F4
:106CA000AE422ED918F805205946204601F009F8C1
:106CB0000135082DF4D11849DFF86CB0204601F0F9
:106CC00000F84FF0000A564520D918F80A507E2DDA
:106CD00003D8284605F0DEFA00B92E252A46594683
:106CE000204600F0EEFF0AF1010ABAF1080FEAD1DE
:106CF000012221463846FFF701FF84F80C90BDE8D9
:106D0000F88F5146204600F0DCFFD1E703492046CA
:106D100000F0D7FFE7E700BF46CD020044CD0200F8
:106D200042CD02003CCD020048CD0200C30710B5A1
:106D300007D4F0234008054A145C2340194311543A
:106D400010BD0901C9B20F23F4E700BF683100206C
:106D500030B5094B1C78094B196800239C4202DCB2
:106D60000022104630BD11F83350854201EBC302BA
:106D7000F7D00133F2E700BF38310020783100202E
:106D800070B504460D46FFF7E3FF30B1436823B109
:106D900029462046BDE87040184770BD034B0448A3
:106DA00019680022490800F0CEBA00BF3C3100202B
:106DB0004031002010B5C0B2FFF7CAFF044600788A
:106DC00001F042FF63785A1E53425341834208D177
:106DD000044BD3E90023134303D1BDE81040FFF770
:106DE000DDBF10BD6031002037B54308364AD35CA3
:106DF000C2074CBF1B0903F00F0304460D46042BCA
:106E000036D8DFE803F003262D393D0081B3012198
:106E1000FFF78CFF00230DF107008DF8073000F01D
:106E20008FFC0122A4F12003C4F12000274902FABB
:106E300003F322FA00F0034302FA04F4D1E900203C
:106E400014430343C1E900439DF8070000F09CFC94
:106E50000EE0002918BF02212046FFF767FF07E078
:106E600041B10321FFF762FF01212046FFF788FFB0
:106E700003B030BD0121EFE70029F9D10421EBE790
:106E800009B10321E8E7FFF751FF29462046FFF744
:106E900077FF0DF107008DF8075000F051FC01223B
:106EA000A4F12003C4F12000084902FA03F322FAF6
:106EB00000F0034302FA04F4D1E9002022EA0404BA
:106EC00020EA0303BEE700BF6831002060310020E4
:106ED0002DE9F041124E134F00243378A34208DC11
:106EE000114BD3E90023134318D0BDE8F041FFF75D
:106EF00055BF3D6805EBC40815F8340001F0A4FE49
:106F000098F801104B1E594259410A1A514215F87E
:106F100034005141FFF768FF0134DEE7BDE8F0813E
:106F2000383100207831002060310020092AF7B57F
:106F300005460C4616463DD901F0C4FDD8B11E4B9E
:106F40001E481D601E4B1F4F1C701F4B002110223E
:106F50001E6005F0FFF91D4B00200021C3E9000170
:106F6000013CE4B20326FF2C0BD1194A1948002139
:106F700000F0DEF903E001F06DFD0028DFD003B082
:106F8000F0BD20B29DF806308DF8046005EBC0021C
:106F900023F007038DF8063001A9937815F8300027
:106FA0008DF805303A4601F097FD013CE4B2002827
:106FB000D9D0E4E70720E2E77831002068310020EB
:106FC00038310020B56D02003C31002060310020D6
:106FD000D16E0200E8CD020070B5084D084E0024C5
:106FE0002B789C4201D3002070BD3368012113F837
:106FF000340001F0E5FD0134F2E700BF3831002034
:10700000783100201FB50021039001AA44F201004D
:10701000CDE9011100F03EF805B05DF804FB000079
:1070200082B001238DF807309DF80730114B1860AE
:10703000596044F2010188429A6012D044F2020180
:10704000884206D1DA60DA6812889A61DA68526892
:10705000DA6172B69DF80730002BFBD162B602B040
:1070600070471A611A6992685A611A6912689A61BE
:107070001A69ECE77C31002000B583B002900091E2
:10708000019244F2010071466A4600F003F803B031
:1070900000BD00002DE9FF4106460F46154672B6B9
:1070A000FFF716FDFFF754FB0028FBD1244B254CBE
:1070B000E41AE40841F2010324049E4244F001046E
:1070C00025D004D8012E1DD03A461F4921E044F2B4
:1070D00001039E4221D044F202039E42F4D12B8848
:1070E0006A681A492046FFF7AAFC194B1B68DB07A0
:1070F00000D500BE2A463946304604B0BDE8F0410E
:10710000FFF78EBF13492046FFF78CFCEDE71249CD
:107110002A462046FFF78AFCE7E7D5F80880404674
:1071200001F0D8F82B68029701936B6800930B4924
:10713000034642462046FFF798FC0949E3E700BFB3
:1071400038CC020060CC02008DCE020039CE0200A5
:10715000F0ED00E0F7CD020014CE020053CE0200A5
:1071600079CE020049B152B1531E1A4007D1826054
:1071700001608380C260104670470E20704709206E
:10718000704710B58468C2688388121B934208D385
:10719000C26813400268D154C3680133C360002041
:1071A00010BD0420FCE78268C3689A420AD0826856
:1071B000838813400268D35C0B708368013383605B
:1071C0000020704705207047D0E90223D1E9020171
:1071D000994208BF90422CBF012000207047000058
:1071E0002DE900480C4800F002FC0C4BD3E90023C9
:1071F00012EB000B43F1000C094BD3E900239C4533
:1072000008BF93455846614603D21BF180704CF18C
:107210000001BDE8008800BFE02A0020A031002066
:107220001832002037B505460C460A4801A900F07F
:1072300010FC60B10570446001A9064800F033FC01
:1072400018B1054800F0D8FB002003B030BD042081
:10725000FBE700BF04320020E02A0020194B1B7816
:107260002DE9304804461BB900252846BDE8308882
:107270000028F9D0037F03F0FF05002BF4D0FFF7BF
:10728000AFFFD4E90223994208BF904215D3236986
:1072900003B92377D4E90530984721690029E3D061
:1072A000237F03F0FF05002BDED0D4E9022312EB8D
:1072B000010B43F1000CC4E902BC2146024800F076
:1072C000C4FFD2E7A8310020ACCE020013B5114BA9
:1072D00011491868019008235822104800F0A6FBB5
:1072E000044698B90E4A0F4801A900F071FA044605
:1072F00060B901210B4800F05DFB01230A4A0948EF
:10730000194600F0C3FA094B01221A70204602B058
:1073100010BD00BFA6CE0200AC3100200432002018
:1073200091730200E02A0020FFFF7F00A8310020B7
:107330003AB103685A614A1E514251411961002015
:1073400070470720704738B5037F04460D4683B960
:107350008261FFF745FF421941F10003C4E90223AE
:10736000236903B1256121460020BDE83840FFF7BD
:1073700059BF002038BD0023014603770120FFF7E5
:1073800051BF0000014800F032BB00BFE02A0020DE
:107390002DE9F04F85B0074600F014FB40B1594A83
:1073A000D2E9003113F1807341F10001C2E90031EB
:1073B0000021384600F015FB38B1534C236823B147
:1073C0002068FFF74BFF002323600121384600F0BF
:1073D00008FB20B1FFF704FF4C4BC3E9000103A9F0
:1073E0004B48494D4B4C4C4E00F06DFB002845D1AD
:1073F000DFF820A1444CDFF828B1504600F03BFFF5
:107400002368002875D07BB12368D0E90201D3E955
:107410000223994208BF90422DD223681B7F1BB1E3
:107420002168504600F011FF504600F01EFFD0E9E1
:10743000026305460193FFF7D3FE019BB6EB0008FC
:1074400063EB0109B8F1010F79F1000344DB334E1E
:10745000B0453FD9FFF796FF82194FF496030021FC
:10746000584600F033FA00283ED1236813B9384655
:1074700000F004FA256005B0BDE8F08F0378012B19
:107480001DD05BB1022B11D14FF0000A204600F055
:10749000ECFE002833D080F81CA0F7E741680B7F92
:1074A00023B901230B77204600F0CFFE03A918482B
:1074B00000F034FB03A9164800F005FB96E741688D
:1074C0002B68994202D100232B60EFE7204600F0A1
:1074D000D5FEEBE7AA68C0E70021584600F077FA2E
:1074E0002846FFF7BBFE01E00D28F9D000232360FA
:1074F00083E7002BBFD1384600F0C4F9BBE7012376
:107500003370D3E7A0310020203200201832002051
:1075100004320020ACCE0200A8310020FFFFB400EE
:10752000E02A00200648074A03780749D35C012275
:1075300013B1043002F0B4B80C3001F077BE00BFD4
:10754000E82A0020943200204C3200200648074AE6
:1075500003780749D35C012213B1043002F04CB820
:107560000C3001F00DBE00BFE82A0020943200204C
:107570004D32002037B50578012D05D0002D32D0D1
:10758000022D25D003B030BD037A13B9FFF7CAFF2F
:10759000F8E743681A4C19782046FFF7F2FD80B1EE
:1075A0008DF800500190174B68461B689847A168FA
:1075B000E368A2885B1A9A42E8D2134B01221A7040
:1075C000E0E7A268E3689A42F1D08DF80000EAE7AC
:1075D000C3688DF800500193FFF7A4FF094B68467C
:1075E0001B689847CEE709490948FFF7DCFD10B949
:1075F000FFF7ACFFC6E703238DF80030EEE700BFCE
:107600002832002024320020383200204D32002061
:107610003C320020F0B51F46234B89B006461A6065
:107620000C4600293DD08A8820480968FFF79AFD5A
:10763000002834D1A289A1681D48FFF793FD0028D6
:107640002DD11C4D0FCD6C460FC495E80F0084E87A
:107650000F0073690693337C174A18488DF81C7025
:10766000003318BF01238DF81430737C002B14BF36
:107670000E2300238DF81530F3680293B36803934B
:107680003368019369467368009301F021F930B9BA
:107690000B4B18703368013301D0FFF743FF09B07B
:1076A000F0BD0720FBE700BF243200202832002075
:1076B0003C320020C4CE020075750200E82A00208A
:1076C0003832002070B5084C014608482678FFF78C
:1076D0006AFD054636B100232370FFF723FF08B18A
:1076E000FFF790FC284670BD383200202832002079
:1076F00010B501460E48FFF744FD0446A8B90D48F1
:107700000D4A0378D35C63B1043001F0BDFF60B96A
:107710000A490748FFF747FD38B9BDE81040FFF7B1
:1077200015BF0C3001F076FDF1E7204610BD00BF1B
:107730003C320020E82A0020943200204D32002004
:1077400070B5EFF3108672B60C4A946801239CB9A9
:1077500093600B4B0B4DD3F8801029401160C3F898
:107760008050D3F8841051604FF0FF32C3F884206A
:10777000047006B962B670BD0370FAE7503200209B
:1077800000E100E0FC06FFBD084B9A6810B55AB155
:1077900050B9EFF3108172B6054A1C6814605C683A
:1077A0005460986001B962B610BD00BF503200202D
:1077B00000E100E0435882B03BB1002343504358FE
:1077C0000193019B012002B070471846FBE70000BF
:1077D000F8B5224B4679224D43F82620214A224B08
:1077E000F7009B1AEA19DB0812791B0432B143F047
:1077F00002001E49FFF716F90820F8BD02680C8840
:10780000C2F8084590F904208978002AA8BF02F13F
:10781000604CD4B2BABF04F00F0EDFF858C00CF5BC
:10782000614C4FEA4111C9B2B4BF0CF80E108CF88C
:10783000001352090121DFF840C004F01F042F4457
:1078400001FA04F44CF82240397145F83600084931
:1078500043F00300FFF7E6F80020CEE76432002093
:107860005C32002038CC020070CC0200F6CE020060
:1078700018CF020014ED00E000E100E003680122EF
:107880001A607047036801225A60704773B501F1AE
:107890005005AD000068ADB24FF480348C40002636
:1078A000C0F80843C0F84843465101F5A87145594E
:1078B000019522F07F42019D40F82120C0F8444309
:1078C0000BB1C0F8044302B070BD00002DE9F74FC2
:1078D000884699464FF48036036808F150058E407B
:1078E0004FEA880AAD00C3F84863ADB2C3F8086335
:1078F000074603EB0A00D3F804154FF0000B22F003
:107900007F44D0F84025C0F8401543F805B05B59D6
:107910000093009B531A23F07F43012B0BD1244B80
:107920004FF4806043F0010398473B6843F805B08B
:107930005B590193019B3868D0F80455C0F8446343
:10794000631B23F07F43012B1AD108F5A878184B4D
:10795000013440F8284043F001034FF48060984719
:107960003B68D3F804359D4208D13B680020C3F83A
:107970004463C3F8046303B0BDE8F08F0D20FAE759
:107980008244C9F1FF19CAF84045D0F80435E21A1B
:10799000013A22F07F4209F57F499145EED3002A52
:1079A000E3D10134CAF84045D0F804259342DBE71F
:1079B000F0CE020003680222C3F8442309B1C3F8E1
:1079C000042370474FF482710068FFF7F3BE4FF451
:1079D000803303FA01F10368C3F84813C3F80813AE
:1079E00070475031890089B20068FFF7E3BE036831
:1079F000D3F804057047000090F9043001215A09BA
:107A000003F01F0301FA03F34032024941F8223028
:107A1000704700BF00E100E0024B034A1B6810689A
:107A2000184700BF643200205C32002010B561B1FD
:107A3000B2FBF3F403FB1424A4B244B9C0E900146C
:107A400084608281C381204610BD0E20FCE709209E
:107A5000FAE737B550E8013F9DB2C48925448489CF
:107A6000A54228BF2D1B0489A54202BFBFF32F8F5B
:107A7000002207E0C5EA030540E80154002CE9D1E3
:107A80004FF001028DF803200193019B9DF8032024
:107A90000B6002F0FF0322B10B880068184403B0AA
:107AA00030BD1846FBE70A884B889A4209D150E856
:107AB000012FC2EA024240E80123002BF7D1012046
:107AC00070470020704737B550E8023F1FFAA3F512
:107AD000C488A54202BFBFF32F8F00220DE0C489E6
:107AE00025448489A54228BF2D1BC3EA054540E8EB
:107AF0000254002CE8D14FF001028DF803200193CD
:107B0000019B9DF803200B6002F0FF0322B14B881C
:107B10000068184403B030BD1846FBE70A884B885C
:107B20009A4209D150E8022FC2EA224240E80223D9
:107B3000002BF7D1012070470020704701F01F0291
:107B40004B090121914000EB830000F01DB801F0CA
:107B50001F0301229A404B0900EB8300D14300F040
:107B600029B84B0901F01F0150F82300C84000F06C
:107B70000100704750E8002F0B4640E8003C9CF0A5
:107B8000000FF7D11046704750E8003F43EA01026A
:107B900040E8002C9CF0000FF6D11046704750E8EA
:107BA000002F02EA010340E8003C9CF0000FF6D1F0
:107BB0001046704750E8003F03EA010240E8002CFD
:107BC0009CF0000FF6D11046704750E8003F03EBE1
:107BD000010240E8002C9CF0000FF6D110467047DF
:107BE00050E8003FA3EB010240E8002C9CF0000F9E
:107BF000F6D1104670470121FFF7C6BF0021FFF7FD
:107C0000CEBF10B590B1D0E9012301689B1ADBB259
:107C10000A60013BDBB2FF2B026802D10020107129
:107C200010BD11684C1C14600B70F2E70E20F7E7D2
:107C300037B5054600240DF107008DF80740FFF722
:107C40007FFD2A686B68116899420ED9481E106042
:107C500011F8014CEB68298A01FB0434AB681179F7
:107C60001B1ADBB2994238BF13719DF80700FFF76A
:107C70008BFD204603B030BD37B5054600230DF11E
:107C800007000C468DF80730FFF75AFD2A68136885
:107C9000591C1160E968641A298AB4FBF1F41C705C
:107CA0009DF80700FFF770FD03B030BD826810B586
:107CB00004462AB143690168006998470023A3601C
:107CC00010BD0EB403B5039921B104AB01AA019311
:107CD00000F074F802B05DF804EB03B070470A29B5
:107CE00038B504460D4602D10D21FFF7F8FFA36811
:107CF0002268591CA160D554D4E901329A4204D3B8
:107D00002046BDE83840FFF7D1BF38BD2DE9F84F18
:107D10009946DDE90A431746824688460A46012607
:107D2000BA420FD24E4538BF4E4613F0010B01D177
:107D300064B900240125B9F1010F1AD909F1FF39FD
:107D40007D43F8E7B2FBF7F20136E9E79B070ED572
:107D5000B9F1000F0CBF30252025A642EAD2013C24
:107D600029465046FFF7BBFF002CF6D1E1E720255E
:107D7000F3E7B8FBF5F39F42E2D9DFF83C90B8FB9C
:107D8000F5F3504619F8031005FB1388FFF7A7FF1A
:107D9000B5FBF7F3BD4207D2BBF1000F02D00CB127
:107DA000A64203D3BDE8F88F1D46E8E720215046E0
:107DB000013CFFF794FFF2E72ACF02002DE9F74FCD
:107DC000054617468846002900F0308118F8011B47
:107DD00049B92B7B002B00F02981284603B0BDE870
:107DE000F04FFFF763BF252940F0C080002698F8C8
:107DF00000302D2B424608F1010823D0302B24D02F
:107E00002B2B25D000242A2B02F1010123D13B6822
:107E10001A1D1B683A601C440A4613782E2B26D183
:107E200001324FF00009104610F8011BA1F1300C8F
:107E3000BCF1090F1DD80A2303FB0913A3F1300974
:107E40000246F0E746F00106D1E746F00206CEE72B
:107E500046F00406CBE711F8013CA3F130000928F5
:107E6000DBD80A2202FB0434303C0A46CBE74FF051
:107E7000000912F8011B01F0FB0068289046F8D0B9
:107E800069290ED04AD8582964D006D825296DD042
:107E900098F80030002B99D19BE7632962D06429C0
:107EA000F6D13A68D2F800A0111D8AEAEA72396068
:107EB000A2EBEA724FF0010B092A5BDCCB4538BF1D
:107EC000CB462CB1BAF1000F01DB720700D5013CA3
:107ED000B30702D5B9F1000F04D0F00702D4002C8B
:107EE0004ED10024BAF1000F52DACAF1000A2D2156
:107EF0002846FFF7F4FE06F00302022A05D1B9F185
:107F0000000F02D1002C47D10024CDE900464B469A
:107F10000A2251462846FFF7F9FEB9E773294CD0EB
:107F200014D87029B4D13B681A1D3A603021284614
:107F30001C68FFF7D4FE78212846FFF7D0FE002208
:107F40000823CDE9003221461022E3E775292BD022
:107F500078299DD139680A1D3A60CDE900464B4623
:107F6000102228E03B681A1D19783A602846FFF76E
:107F7000B6FE8DE70A230BF1010BB2FBF3F29BE790
:107F8000A345AFD220212846013CFFF7A8FEA6E773
:107F90007107B0D52B21ABE7A345B6D230212846D7
:107FA000013CFFF79CFEADE73968CDE900460A1DAC
:107FB0003A604B460A220968ACE73B681A1D3A60F2
:107FC00016F00106D3F800A020D1BAF1000F03D0BB
:107FD000504604F014FA0646B44200D9C4B90AF176
:107FE000FF3A1EE028460136FFF779FE1AF8061020
:107FF0000029F7D1A642BFF44BAF002C3FF448AFA5
:1080000020212846013CFFF76AFEF3E70026EDE752
:1080100020212846013CFFF762FEDDE72846FFF7F6
:108020005EFE1AF8011F0029F8D131E703B0BDE860
:10803000F08F2DE9F047B0F806904479D2F800A00F
:108040009DF8208009FB04F4043C06460AEB03007B
:10805000A0420F4688BFA4EB030A191DC2F800A076
:10806000B1FBF9F509FB15114DB9A9EB0104544514
:1080700028BF5446BAF1000F04D1BDE8F087366836
:10808000013DF1E704317B1970182246B8F1000F69
:108090000ED001461846AAEB040A04F032F9D14585
:1080A000254436684C464FF0000128BF5446E1E7AE
:1080B0001946F0E7FFF7A5BDF8B546790146721EEF
:1080C0000546002393422D6803D30024A64202D81C
:1080D000F8BD0133F6E70F682846FFF7CDFD013400
:1080E0003946F3E72DE9F843068ACD1C0746FFF72A
:1080F0009FFD043E35440446B5FBF6F5F0B14FF460
:108100008073EDB28380C680013D076081464FF0E9
:108110000008A84512D23846FFF78AFD064648B146
:1081200063790133637108F10108C9F80000076041
:108130008146EEE72046FFF7BFFF34462046BDE804
:10814000F88301210430FFF740BD10B5012104463A
:108150000430FFF745FD10F0FF0F04D12046BDE8C5
:108160001040FFF7A9BF10BD1FB503920022009277
:1081700003AAFFF75EFF05B05DF804FB1FB503928D
:108180000122009203AAFFF754FF05B05DF804FB3B
:1081900041DF7047064B10B500241C70054B1C6076
:1081A000BFF35F8F0449054800F039F8204610BD41
:1081B00070320020743200203CCF02006832002070
:1081C00007B500230DF107008DF80730FFF7B8FA67
:1081D000F1EE103A23F09F03E1EE103ABFF35F8F08
:1081E000094B4022C3F884219DF80700FFF7CCFA21
:1081F00003F0D0FD20B1FFF7CBFF03B05DF804FB27
:1082000020BF40BF20BFF8E700E100E08368002204
:108210005A609A60C3E90422DA601A6070470B68FA
:108220004A684360934208BF0023016008BF43606F
:108230007047436843B10268916852680B449342A7
:10824000436004BF00234360704770B5446806462E
:108250000D46206818B1B3682946984718B92368B5
:108260002B60256070BD2468F3E74368186808B187
:1082700002681A6070474368186870474368186856
:1082800000B97047884203D102681A600120704724
:1082900003460068F4E7000010B50D49A1F594729B
:1082A000914201D800200FE08B1ADB1003EBD3734F
:1082B0005B1002EBC30452F83330834205D802D27C
:1082C00004F10802ECE7606810BD2146E8E700BF52
:1082D00098D0020008B5FFF7DFFF024B002808BF67
:1082E000184608BD5ACF020010B50446C0B2FFF7C9
:1082F000FFF9204610BD0000BFF34F8F0549064B24
:10830000CA6802F4E0621343CB60BFF34F8F00BF33
:10831000FDE700BF00ED00E00400FA050C4B1B7800
:10832000062B10D10B4B1B681A070CD10A4B18688F
:1083300000F0F003302B08D000F0E000A0F1400383
:10834000584258417047002070470120704700BFD5
:10835000E00F00F0E40F00F0E80F00F0094B1B788D
:10836000062B0CD1084B1B681A0708D1074B18685D
:1083700000F0F000A0F1300358425841704700204F
:10838000704700BFE00F00F0E40F00F0E80F00F0CE
:1083900008B5FFF7C3FF28B1894B8A4A1B68C3F3AE
:1083A00004231360FFF7DAFF10B1874B874A1A6086
:1083B000FFF7B4FF28B1864B864A1B68C3F34233EC
:1083C0001360FFF7CBFF20B1834AD36823F080739B
:1083D000D360FFF7A3FF40B14FF080430022C3F802
:1083E0000C21C3F81021C3F83825FFF7B7FF10B1EF
:1083F0007A4B03221A60FFF7B1FF40B1784B052298
:108400001A6001229A6700229A603F225A60754BD7
:108410001B78062B50D1744B1B6818074CD1734B3B
:108420001B6803F0F003502B46D14FF08052704B85
:10843000D2F80414C3F82015D2F80814C3F8241590
:10844000D2F80C14C3F82815D2F81014C3F82C1560
:10845000D2F81414C3F83015D2F81814C3F8341530
:10846000D2F81C14C3F84015D2F82014C3F84415F0
:10847000D2F82414C3F84815D2F82814C3F84C15C0
:10848000D2F82C14C3F85015D2F83014C3F8541590
:10849000D2F83414C3F86015D2F83814C3F8641550
:1084A000D2F83C14C3F86815D2F84014C3F86C1520
:1084B000D2F84424C3F87025FFF730FF28B14D4BA4
:1084C0004D4A1B6803F04F031360FFF727FF48B1C5
:1084D0004FF08043D3F80024D10744BF6FF001026E
:1084E000C3F80024454B1B68062B08D1444B1B687E
:1084F000062B01BF434A136843F480631360424A6A
:10850000D2F8883043F47003C2F88830BFF34F8F3D
:10851000BFF36F8F4FF01023D3F80C22D2071ED574
:108520003A4B0122C3F80425D3F80024002AFBD0DB
:108530004FF01022D2F80C3223F00103C2F80C32B3
:10854000324B1A46D3F800140029FBD00021C3F89F
:108550000415D2F80034002BFBD0FFF7CDFED3F882
:108560000022002A03DBD3F80432002B23DA274B46
:108570000122C3F80425D3F80024002AFBD04FF0D1
:1085800010221521C2F80012D3F80024002AFBD0D3
:108590004FF010231522C3F804221C4B1A46D3F8BF
:1085A00000140029FBD00021C3F80415D2F80034D0
:1085B000002BFBD0D1E7164B164A1A6008BD00BF4E
:1085C000240300104035014074C007400DF0ADBADF
:1085D000440200103C050040F0ED00E0A005004022
:1085E00010560040E00F00F0E40F00F0E80F00F03C
:1085F00000C0004058020010E40E0040300100109E
:10860000340100103C17004000ED00E000E00140A4
:10861000FC2A00200090D003054A4FF0A043105CD4
:10862000D3F8043523FA00F0C04300F0010070478E
:1086300056D40200044B1A5C012393404FF0A04231
:10864000C2F80835704700BF56D40200044B1A5CCC
:10865000012393404FF0A042C2F80C35704700BF91
:1086600056D4020008B50020FFF7F0FF0120FFF705
:10867000EDFF0220FFF7EAFF0320BDE80840FFF707
:10868000E5BF08B50020FFF7D5FF0120FFF7D2FFB7
:108690000220FFF7CFFF0320BDE80840FFF7CABF65
:1086A000074A4FF0A041105CD1F804350122824006
:1086B00022EA03001340C1F80805C1F80C357047E1
:1086C00056D40200054A4FF0A043105CD3F8103591
:1086D00023FA00F0C04300F00100704752D40200BA
:1086E0000A2809D00B2809D00C2809D00D280CBF66
:1086F00003204FF0FF307047002070470120704783
:1087000002207047014B185C704700BF52D4020032
:10871000C20708B501460CD54FF0A0430322C3F8A9
:108720003C27C3F84027C3F84427C3F84827FFF77E
:1087300099FF8B070AD54FF0A0430C22C3F82827D6
:10874000C3F82C27C3F83027C3F8342708BD00002E
:1087500038B5074C051E04F1080318BF1C462368F2
:108760002BB11A6822605B6828469847F7E738BD46
:108770008032002020B9054B01225A70FFF7E8BF74
:10878000012802D1014A9070F8E770477832002042
:1087900020B9034B01225A70FFF7DABF704700BFC0
:1087A0007832002038B50B4C237883B90A486360CF
:1087B000A3602361E36000F0C7F8054603F0EAFA1E
:1087C00008B900F0CDF801232370284638BD85256F
:1087D000FBE700BF783200207587020037B50B4CED
:1087E00000230DF107008DF80730FEF7A9FFE368BD
:1087F000013BE360E56815B900F0C4F8A5709DF889
:108800000700FEF7C1FF03B030BD00BF7832002083
:10881000012813B509D018B103281CD002B010BD2F
:108820000F4B0122C3F88020F8E70E4C00230DF116
:1088300007008DF80730FEF783FF23780BB9FFF7A9
:10884000B1FFE3689DF807000133E3600123A370E3
:10885000FEF79AFFE2E700F083F8FFF7BFFFDDE7DE
:1088600000E100E0783200201FB503788DF8003079
:108870004368019383688DF80830C3680393054A01
:10888000054B684653F8213052F82110984705B03F
:108890005DF804FB8C320020903200201FB5037875
:1088A0008DF800304368019383688DF80830C36801
:1088B0000393054A054B684653F8213052F82110BE
:1088C000984705B05DF804FB8C3200209032002000
:1088D000F0B5184B077891F81DE043F82720164BA8
:1088E00016460A6943F82720144B03F807E00C46A4
:1088F00084460FCC89B06D460FC594E80F0085E81B
:108900000F000497BEF1000F0AD0002E0C4A6946F2
:1089100008BF32460CF1040000F0A8FD09B0F0BD1C
:10892000002E084A694608BF32460CF10C0000F0E0
:108930006DFBF3E7903200208C320020943200204F
:10894000698802009D880200044A137923B9012135
:10895000106091801846704785207047983200203B
:10896000074B1A68D2075FBFC02283F80023012299
:108970001A604FF080430122C3F81825704700BFEA
:1089800000E100E0044B01221A604FF08042D2F86F
:108990001834DB03FBD470470C000040154B07B5BF
:1089A0001A687AB100221A601B680093009B4FF08E
:1089B00080430122C3F808230F4B587910B95A712C
:1089C0001B6898470D4B1A6882B100221A601B6819
:1089D0000193019B4FF080430222C3F80823064B0A
:1089E0001B68012003B05DF804EB184703B05DF885
:1089F00004FB00BF00010040983200200401004049
:108A000000F1804000F5C040002382B0036003689D
:108A10000193019B02B07047800000F1A040D0F8A4
:108A2000003723F44033C0F80037D0F8003743EA6A
:108A30000141C0F800177047054B4FF0FF3207287F
:108A400043F8202084BF1B1883F84820704700BFDC
:108A5000A032002010B5174C94F8583043BB04F1F5
:108A600030032021FF22013911F0FF0103F8012B0F
:108A7000F9D1C8B2FFF7E0FF01310C29F9D1042286
:108A800000210D4803F066FC0C4BC02283F806233E
:108A900040221A604FF4BE70FFF7B2FF084B4FF050
:108AA0000042C3F80423012384F85830002010BD8D
:108AB0000820FCE7A0320020F432002000E100E0B2
:108AC00000600040034B93F85800003018BF0120AD
:108AD000704700BFA0320020F0B5374B1C1894F946
:108AE0003040002C1C4664DA8D78C5F34005002D1B
:108AF0000BBF082300230C260826B34201D1042013
:108B0000F0BD54F8237001373FD1261844F82320D4
:108B100086F8303015B9E21882F848008A7855078F
:108B200013D4D60733D5820002F1A042D2F8005701
:108B300025F00205C2F80057204EC50800F00707CF
:108B40000122BA40775D3A4372558A780D7812F067
:108B5000020225D09B0003F1804303F5C0430202CB
:108B6000D3F8101521F4473121F44071C3F81015E2
:108B70002D04D3F8101502F4F85205F440352A43B9
:108B80000A43C3F810250020BAE70133B5E74D7852
:108B900000F5E0724FF0A046AD0046F82250CBE75A
:108BA000083B234493F8501041EA851583F8505050
:108BB000E9E70820A4E700BFA0320020F43200203B
:108BC00038B51F4C251895F93020072A17DD2244A7
:108BD00092F84810890903290CD14FF0A043D3F82B
:108BE0001035C34013F0010F08BF0221BDE8384023
:108BF000FFF712BF012914BF03210221F6E7D3B208
:108C0000072B1CD8930003F1804303F5C043D3F82E
:108C1000100540F00100C3F8100502F1400080008B
:108C200080B2FFF7EDFE51B195F9303054F82330A2
:108C30002BB1012303FA02F2024BC3F8042338BD1F
:108C4000A0320020006000404FF0A043D3F8103560
:108C500023FA00F000F00100704700002DE9F04F0A
:108C600085B000245A4D01944FF48072012102F125
:108C7000804303F5C04390B21B68012B06D1D5F8A1
:108C800004330B4202D0FFF7BBFE0C430432B2F5B3
:108C9000907F4FEA4101EAD14E4B1B68012B0AD16C
:108CA0004FF4BE70FFF7ACFE4FF0A04344F0004419
:108CB000D3F81035019314F0FF0F1AD0464F00255A
:108CC0000126344210D0AB0003F1804303F5C043CA
:108CD000D3F81005D3F8101557F8253023B1C1F398
:108CE0000141C0F3042098470135082D4FEA46069C
:108CF000E7D1002C64DA00224FF0FF33CDE90223E4
:108D0000354D01274FF0000A344E54464FF0A0482D
:108D100016F9012B531C46D0D2B222F0C0094FEAFB
:108D2000D90104A8084402F0070310F804CC07FA9C
:108D300003F31CEA030F36D005EB090C92099CF9EA
:108D400030C055F82CB0BBF1000F0AD1032A2AD14C
:108D50000DF1080E1EF801C04CEA030C0EF801C01C
:108D600001E0032AF4D009F5E07110F80C0C58F872
:108D700021101842C1F3014105D0022913D1032A61
:108D80000BD1114604E003290DD1032A05D102219C
:108D90004846FFF741FE0134E4B2BBF1000F02D0B8
:108DA00011464846D8470AF1010ABAF1040FAFD17B
:108DB00034B14FF0A043019AD3F81035934202D159
:108DC00005B0BDE8F08F0193029B03939AE700BFC3
:108DD000006000407C610040A0320020F0320020A2
:108DE000014B1B68184700BFFC3200200E4B984215
:108DF00037B50D4602D0002003B030BD00230DF181
:108E000007008DF80730FEF79BFC084B1C7914B95E
:108E100001221D601A719DF80700FEF7B5FC002CB9
:108E2000E9D01120E8E700BF00200040FC3200201C
:108E30000023435082B043580193019B02B0704716
:108E40000A4610B54FF48E71FFF7F2FF136A91686E
:108E5000C95C136A01331362C0F81C1510BD0246C9
:108E600008B54FF492710068FFF7E2FF4FF4847188
:108E70001068FFF7DDFF136801221A6008BD8B69D7
:108E80000A4610B54FF4847123B9FFF7D1FFD0F82B
:108E9000183510BDFFF7CCFF536AD168D0F818051C
:108EA000C854536A01335362F3E700001FB501232E
:108EB0008DF80030044BCDE90110D3E9001268466B
:108EC000904705B05DF804FB0433002030B54D4AEF
:108ED000D2F8043313F4007F85B015464FD0D2F892
:108EE0002431002B4BD04FF492711046FFF7A0FFB6
:108EF0004FF40173C2F80833434B93F8291009B9B2
:108F0000012151603F4902228DF80020D1F88024D0
:108F1000C1F8802403929A690292DA6801920022D1
:108F2000C3E906226846D3E9001290473548D0F8D5
:108F30001C315BB134494A690B6A9A420A464BD9E3
:108F400091F82830002B47D1FFF77AFF2D4AD2F84D
:108F5000443193B14FF4A2711046FFF769FF2A4BD9
:108F600093F8291009B1012111609A692AB10022F0
:108F70009A61586AD968FFF799FF05B030BDD5F8F6
:108F800004335B07D2D5D5F80831002BCED01E4C68
:108F90001C482146FFF773FF636AA2699A42234681
:108FA000C4D1E269E1684AB12369E3600023606AE1
:108FB000A261E3616362FFF779FFB7E794F82920C4
:108FC0000AB901226A600F4A4FF40170C2F808031F
:108FD00000229A61586AEEE74FF48E710948FFF754
:108FE00027FF5369002BB1D051690291002391688A
:108FF0008DF80030019153616846D2E9001398471B
:10900000A4E700BF00200040043300202DE9F8430E
:10901000564F047991462C2202FB0472064692F8C0
:109020002A200D46002A40F09A8051490068FFF737
:10903000DDFE8046002840F0958029683368481C92
:109040000BD04FF0A04001228A40C0F8082501F55E
:10905000E0724FF0030C40F822C06868421C1FBF4A
:1090600000F5E0724FF0A04C4FF0000E4CF822E0FB
:10907000AA6995F814C0C3F824256A7DBCF1010FD4
:109080004CEA0202C3F86C25C3F81405C3F80C15AA
:109090001DD1AA68511C1FBF02F5E0714FF0A0401E
:1090A0004FF0000C40F821C0E968481C0BD04FF08D
:1090B000A04C01208840CCF8080501F5E0704FF085
:1090C000030E4CF820E0C3F80815C3F810252C2334
:1090D0006343FA18C2F804902A69FA50B9F1000FF4
:1090E0002AD04FF48E7130682D7FFFF7A1FE3068D3
:1090F0004FF4A271FFF79CFE32681E4BC2F8043396
:10910000120B51B20029A8BF01F160404FEA45138C
:10911000BABF194802F00F0500F56140DBB2B4BFD9
:10912000435580F8003302F01F02012303FA02F2D4
:109130004909124B43F8212033680422C3F8002563
:109140002C2303FB04730022C3E9062283F82920A1
:109150005A61012283F82A204046BDE8F8834FF087
:109160000808F9E74FF01108F6E700BF04330020C4
:10917000CD8E02008000020014ED00E000E100E06E
:109180002DE9F84F224F06794FF02C0909FB0674A0
:1091900080466569002D38D16261A16025624FF477
:1091A0008E71006884F82850FFF742FED8F800005E
:1091B000012383602146FFF743FE6368A1469BB904
:1091C000D8F800A0D4F814B0236A9B4512D8D8F878
:1091D0000020D2F81C31002BFBD00123D3602C23BC
:1091E00003FB067300225A612846BDE8F88F94F805
:1091F000283043B9DAF81C31002BF8D049465046E4
:10920000FFF71EFEE0E70F25E9E71125ECE700BFB9
:10921000043300200379044A2C2101FB03235869FD
:10922000003018BF01207047043300202DE9F843B7
:10923000394E05792C2303FB056307465C6824B18E
:1092400003684FF40170C3F808032C2303FB056384
:10925000986950B1D86900283ED024B13B684FF4DA
:109260000172C3F80423112433E09A61D960586273
:10927000D8612C2303FB056393F829301BB910B97F
:109280003846FFF7ECFD4FF02C0909FB05683868FC
:10929000D8F80430002B34D14FF4A271FFF7C8FD89
:1092A000C1463868D0F82431D0F80821D0F84441BC
:1092B000B2B90CB9002BF4D02C2202FB05650022B8
:1092C000AA6123BB2CBB95F829103B680122B1B1E0
:1092D0001A602046BDE8F8831961DA610120C8E709
:1092E000002BE9D1002CE7D14946FFF7C8FDD8F89B
:1092F0002430D8F818209A42D3D82346DCE75A60A5
:10930000E7E74FF40173C0F804330024E1E70324D6
:10931000DFE70F24DDE700BF0433002000234350C4
:1093200082B043580193019B02B070471FB50123DF
:109330008DF80030044BCDE90110D3E900126846E6
:10934000904705B05DF804FB303300207FB5454AF7
:10935000D2F82461002E63D010464FF49271FFF7CB
:10936000DDFF02238DF80030D2F88034C2F880345B
:109370000393D2F83C3502933B4BDA68019200220A
:10938000C3E906226846D3E900129047354AD2F86D
:1093900044317BB14FF4A2711046FFF7BFFF324B4F
:1093A000996939B10021C3E90611D968D2F83C05A1
:1093B000FFF7BCFF2B4AD2F82031B3B14FF49071C4
:1093C0001046FFF7ABFF0123D360274B596961B10A
:1093D000D2F84C150291002299688DF80020019175
:1093E0005A616846D3E9001290471E4AD2F85831B4
:1093F000A3B14FF4AC711046FFF790FF1A4B5969B7
:1094000061B1D2F84C150291002299688DF80020C4
:1094100001915A616846D3E90012904704B070BDCB
:10942000D2F81031002BB1D04FF488711046FFF7FD
:1094300075FF0D4BD2F83C0599698842A6D1DC69CD
:10944000D96864B1D2F8005225F02005C2F8005264
:109450001A699C61DA60DE61FFF768FF96E79C613C
:10946000FAE700BF00200040303300202DE9F84328
:109470005C4F06799146242202FB0672044692F85C
:1094800020200D46002A40F0A78057490068FFF7CA
:10949000ADFC8046002840F0A28029682368481C63
:1094A0000BD04FF0A04001228A40C0F8082501F5FA
:1094B000E0724FF0030C40F822C06868421C1FBFE6
:1094C00000F5E0724FF0A04C4FF0000E4CF822E097
:1094D000AA6995F814C0C3F824256A7DBCF1010F70
:1094E0004CEA0202C3F86C25C3F80C15C3F8140546
:1094F0001DD1AA68511C1FBF02F5E0714FF0A040BA
:109500004FF0000C40F821C0E968481C0BD04FF028
:10951000A04C01208840CCF8080501F5E0704FF020
:10952000030E4CF820E0C3F80815C3F810252423D7
:109530007343FA18C2F804902A69FA50B9F1000F7F
:1095400039D04FF4887120682D7FFFF7E7FE4FF484
:1095500090712068FFF7E2FE4FF492712068FFF7E8
:10956000DDFE4FF4A2712068FFF7D8FE20684FF4AB
:10957000AC71FFF7D3FE22681C4BC2F80433120B08
:1095800051B20029A8BF01F160404FEA4513BABFAC
:10959000174802F00F0500F56140DBB2B4BF435538
:1095A00080F8003302F01F02012303FA02F2490996
:1095B000104B43F8212023680822C3F800252423F8
:1095C00003FB06730022C3E906225A61012283F8D5
:1095D00020204046BDE8F8834FF00808F9E74FF037
:1095E0001108F6E7303300204D93020010034200CB
:1095F00014ED00E000E100E001F06043B3F1005F32
:109600002DE9F041074638D11E4B0679242505FB8C
:10961000063598466C69002C31D16A61A9600068F2
:109620004FF49071FFF77AFE4FF4AC713868FFF792
:1096300075FE3B686A69A968C3F84415C3F84825F4
:1096400001229A606A68AAB9D3F82021D3F8584158
:109650001AB9002CF8D00F2407E0002CFBD101220E
:10966000DA60D3F85821002AFBD0242303FB0686B6
:10967000002373612046BDE8F0811024FAE711242D
:10968000F8E700BF303300200379044A242101FBAE
:1096900003235869003018BF012070473033002081
:1096A000F8B501F06043B3F1005F04460F465ED1A8
:1096B0000379304D242101FB0351486820B1216812
:1096C0004FF40476C1F80863242101FB03539E691B
:1096D00056B1D969002939D020B123684FF40472FA
:1096E000C3F80423112030E09A61DF60DE614FF49B
:1096F00088712068FFF712FE4FF4A2712068FFF70F
:109700000DFE2368C3F83475C3F8382516BB012253
:109710001A602179242202FB015252680ABBD3F855
:109720001041D3F84421D3F82401144302D1002876
:10973000F5D02246242303FB01550023984218BF8D
:1097400003209A42AB6118BF0F20F8BD1F61DA6198
:109750000126CCE7D3F8002242F02002C3F8002211
:10976000D7E74FF40472C3F804230020EDE710207C
:10977000EBE700BF303300200220FEF791BF00006E
:109780002DE9F04781460D46FEF7AAFF032804465F
:1097900004D8012D04D025B3022D2FD0BDE8F087C9
:1097A000194D47003A18A918AE5C4A7852B1DFF853
:1097B0006880164842464FF48041FDF7C4FD08B961
:1097C00088F800903B192B449A78114B1A55002EBB
:1097D000E4D0104B1B68002BE0D03046BDE8F047CA
:1097E00018470A48FDF7C7FD074B04EB4402134432
:1097F0009E78074B1B5DB342D0D1E8E7024B00EBEC
:1098000040041C446678E2E7B83300207833002037
:10981000D1330020CC3300205433002002210078C3
:10982000FFF7AEBF08B5094B1B7853B10020FEF718
:109830000DFF0120FEF70AFF0320BDE80840FEF7F8
:1098400005BFBDE80840FEF70DBF00BF553300203F
:10985000F8B5894C237805461BB100232370FFF728
:10986000E1FF172D00F2B780DFE815F018002300A4
:10987000230055006600770088009200A300A8002E
:10988000A300A800B000B700B700B700B700B7004A
:10989000E100E600EE00F60001010101FFF7C2FF62
:1098A0007648FDF768FD764B002204461A70204684
:1098B000F8BD0020FEF7B0FE00B30020FEF7C6FEA4
:1098C0000220FEF7B7FE022D22D14FF448716C4BF7
:1098D0001D704FF400404FF47A740025E0FB014501
:1098E0004FF4FA6200232046294602F0DDFB0022F5
:1098F00001466248BDE8F840FDF725BDFEF79AFE37
:109900000220FEF7A3FE022DDFD04FF4C871DEE780
:109910004FF47A61DBE70020FEF77EFE40B10020C5
:10992000FEF794FE4FF44871554B03221A70D0E7AE
:10993000FEF780FEC821F7E70020FEF76DFE38B184
:109940000020FEF783FE4FF47A614D4B0422EDE7D1
:10995000FEF770FE4FF4C871F7E70020FEF75CFEDB
:1099600048B10020FEF772FE454B05221A7040F602
:10997000CD410022BDE7FEF75DFEF5E70020FEF7D2
:109980008FFE3F4B06221A70002240F26661B0E75C
:109990000020FEF741FE38B10020FEF757FE4FF4DD
:1099A000FA71374B0722C1E7FEF744FE4FF47A7194
:1099B000F7E701202070FEF773FEE5E70120207035
:1099C000FEF76EFE00224FF4005192E7FEF759FEBB
:1099D0002B4B0C221A70002469E72A482A4EFDF707
:1099E000CAFCD5F1110504461CD0D8B9012D13D0FD
:1099F000C8235D434FF400474FF47A7000214FF4C1
:109A0000FA620023C7FB050102F04EFB2246014625
:109A10001C48FDF798FC04460220FEF70BFE0123CC
:109A2000337044E70220FEF711FE0023F8E7FFF74A
:109A3000F9FE134B1222CDE7FFF7F4FE0020FEF7EC
:109A4000F9FD0F4B1322C5E7FFF7ECFE0120FEF7EF
:109A5000F1FD0B4B1422BDE7FFF7E4FE0020FEF7FB
:109A6000E9FD0120FEF7E6FD054B1522B2E7FEF702
:109A700008FE034B1D70AEE7C8330020983300206A
:109A8000D03300205833002055330020044B1B688E
:109A9000DB0703D5034B1878FFF7DABE704700BF2A
:109AA000C4330020D0330020032801D8FEF70ABEBB
:109AB00000207047044B1B6813F0010301D0FFF72F
:109AC000C7BE1846704700BFC433002038B51C4BD2
:109AD00018601C4B10F00204054619601AD01A4B8E
:109AE0001A480E221A700F22DA7010229A7111226F
:109AF0005A72042140F23332FDF718FA044648B98D
:109B0000FDF76AFA044628B90146114A1148FDF7E3
:109B10000FFC0446EB0711D50120FEF7F9FD6CB9E7
:109B200021460D4A0D48FDF703FC044630B90C4AA6
:109B30000C480121BDE83840FDF7FABB204638BD8E
:109B4000C4330020CC330020B83300207CD4020082
:109B50001D980200A0D402008D9A0200A4D4020035
:109B6000799702009CD40200032813D8012A0BD154
:109B7000012908D100F10E02D2B200EB40000C4BDB
:109B80001A540020704700220129F6D04BB24BB185
:109B9000022901D007207047054B00EB4000184414
:109BA0004270EEE7024900EB400008448270E8E7AB
:109BB000B8330020032808B512D8FEF7A3FD8000B3
:109BC00000F1A040D0F8003723F44033C0F800374C
:109BD000D0F8003743F44033C0F80037002008BD08
:109BE0000620FCE708B5012202210020FFF7BCFF98
:109BF00008B1072810D1072202210120FFF7B4FF86
:109C000008B1072808D10A2202210020FFF7ACFF83
:109C100010B1072808BF002008BD00000388102BE2
:109C200010B502D0112B1ED010BD1A4C2068B0B94F
:109C300001220221FFF798FF08B1072824D107224B
:109C400002210120FFF790FF08B107281CD1042250
:109C500002210020FFF788FF08B1072814D12368EC
:109C600001332360E0E70B4A1368013B1360002BCC
:109C7000DAD1FFF7B7FF0028D6D0074B1B68002BBF
:109C8000D2D0BDE810401847034B1B68002BE6D02C
:109C90009847E4E7DC330020D833002008B50020E3
:109CA000FFF788FF08B1062806D10120FFF782FFE1
:109CB00010B1062808BF002008BD00000D4B10B5EC
:109CC00018600C4629B10120FFF7EEFE40B10223D7
:109CD0002370094B1B6853B9BDE81040FFF782BFE2
:109CE000FFF7E2FE08B10B23F2E72070F1E7002056
:109CF00010BD00BFD8330020DC33002076DF704772
:109D00008FDF704733DF7047FDF77CB90388212B65
:109D100007B52DD006D8102B0DD0112B1DD003B0B8
:109D20005DF804FB3B2B01D0562BF8D11321808822
:109D3000FFF7E4FF0CE0124B12481349C01AC008A9
:109D4000000440F00300FCF76DFE0720FFF7B2FEB1
:109D50000028E4D0FDF756F9E1E7094B09480B4923
:109D6000C01AC008000440F00300FCF75BFED6E711
:109D7000002301A98088ADF80430FFF7C1FFE7E7B1
:109D800038CC020060CC0200C5D40200CFD402005F
:109D900008B50020FFF78EFE08B1FDF733F9FFF795
:109DA0007DFF08B1FDF72EF9FFF7ACFF18B1BDE854
:109DB0000840FDF727B908BD38B50378012B19D045
:109DC00013B1022B16D038BD0D4C0E4D207828440F
:109DD000FDF778FC23780133DBB21D44237015F8BE
:109DE000012C0A2A03D00D2A01D0132BEBD9002312
:109DF0002370E8E74068BDE83840FDF703B900BFCD
:109E0000D4340020E03300200A2870B534D000D8C4
:109E100070BD0E380328FBD8194D1A4C2B781A4EFA
:109E2000DBB100232B70FEF71DFC00F02DFD08B107
:109E3000FDF7E8F8A01BC0081449000440F0030037
:109E4000FCF7F0FDA01BC00800042A78104940F080
:109E50000300BDE87040FCF7E9BD01232B70FEF75D
:109E600010FC642000F000FD08B1FDF7CBF8A01B4A
:109E7000C00800040749E1E7BDE87040FFF788BF6C
:109E8000242B002060CC020038CC0200DCD402007D
:109E900008D50200F2D4020008B548B103280BD15E
:109EA0000220FFF707FE38B1BDE80840FDF7AAB869
:109EB000BDE80840FFF76CBF08BD00002DE9F04188
:109EC0000578064645BB154C154BDFF85880E41A5B
:109ED000E408240444F00104B28A95420AD33369A9
:109EE000134413F8013C0D2B16D10A20FDF700FC9A
:109EF0001128F9E73369585DFDF7FAFB074648B1C9
:109F00001128F7D0024641462046FCF78FFD38461F
:109F1000FDF778F80135DFE7BDE8F08160CC02009D
:109F200038CC020094D5020000B56D4D0FCDB1B014
:109F300005AC0FC495E803006A4B6B4A01934FF4DC
:109F4000807384E80300CDE903230293674A072363
:109F500001A905A8FDF75EFB08B1FDF753F84FF422
:109F600080410020FCF79AFB08B1FDF74BF8FCF7A5
:109F7000CBFAFDF7ABF908B1FDF744F85C490320D3
:109F8000FFF7A4FD08B1FDF73DF805A90020FFF794
:109F900095FE08B1FDF736F8FEF7FCF808B1FDF7BD
:109FA00031F801F0B9FE08B1FDF72CF8002305A93E
:109FB0000120059301F03EFF08B1FDF723F805A845
:109FC00002F008F808B1FDF71DF84A4B4A4805931E
:109FD00005A901F0DFFC08B1FDF714F80422002107
:109FE0000DEB020002F0B6F9444B4548019301A97C
:109FF00001F0D2FD08B1FDF705F80021AC2205A85B
:10A0000002F0A8F902238DF814304FF4C063ADF8C4
:10A010001630012340218DF890300023CDE927131D
:10A020003848394B2E9305A900F07BFF08B1FCF7A7
:10A03000E9FF0121334800F071FF344B344A1868BE
:10A040001B798DF8083040F20123ADF81A30314BFE
:10A050000190CDE90723A3F58033099303F5E0438D
:10A060000A9303F5C0430B9317238DF83030052274
:10A07000502301A90DF115008DF8143002F041F9BB
:10A0800005A800F011FB08B1FCF7BCFF00F02EFBA7
:10A0900008B1FCF7B7FF204B204C2149E41AE40833
:10A0A000240444F003042046FCF7BCFC1D4802F0E5
:10A0B000F7F820461C49FCF7B5FCFEF7E2FA6420ED
:10A0C00000F0D2FB08B1FCF79DFF18492046FCF7D1
:10A0D000A9FCFCF73DFB0028FBD1FEF771F8F8E77F
:10A0E000A8D4020030390020303A0020B99D020087
:10A0F000099E0200099D020024390020BD9E020035
:10A10000002B0020D8340020999E0200C0D4020009
:10A110000304050000A0014038CC020060CC02001E
:10A1200013D5020034D5020046D502006FD50200D7
:10A1300032DF704742DF704748DF704749DF7047C2
:10A140004ADF70471D4B10B5002201240321C3F8DC
:10A150000C25C3F81045C3F85046C3F834156FF00A
:10A160007F41C3F83C151649C3F838151549C3F8A3
:10A170001425C3F818151449C3F804054878C3F822
:10A180002405D1F8020000BAC3F81C05C3F82C2539
:10A19000C3F830450978C3F808150421C3F80C1535
:10A1A000C3F80C214FF0FF32C3F808230822C3F88C
:10A1B0000423064B02221A6010BD00BF00100040AD
:10A1C00021100100090904013C3B002000E100E0EE
:10A1D0000C490D480A7AD30003F1804303F5F833A4
:10A1E000C3F81005C8684430C3F814050B69074963
:10A1F00002F51170443341F8203001239340C1F837
:10A20000043570473C3B00200411004000F0014041
:10A21000043808B504280ED8DFE800F003030E2444
:10A2200020001448FFF78CFF08B1FCF7EBFE124A40
:10A2300013680133136008BD104B11481149C01A4F
:10A24000C008000440F00100FCF7ECFB0E4A0F4888
:10A250004FF4F471BDE80840FCF70EBF0C4B002230
:10A260001A70E8E7FFF76AFF0028E4D0BDE808406D
:10A27000FCF7C8BE302B0020383B002038CC020051
:10A28000B8CC020009D6020038D602007856341243
:10A29000FF3B00202A4BF7B5D3F80C21002A4CD005
:10A2A0000022C3F80C21D3F80C21264A1178012989
:10A2B00040D11278012A3DD1D3F80024D20739D5F4
:10A2C000D3F80455204BD5F80560DA681B69D2F83D
:10A2D00044151E4A1E4C1160D3F844151D4BD5F889
:10A2E000017019601C4912681B68641AE408240490
:10A2F00044F0030420461949FCF7A1FB2A781849C9
:10A30000009733462046FCF7A4FB29461548FDF785
:10A31000B3FC1448FDF78CFC044608B9FCF772FE48
:10A32000074BC3F80445104B01221A700F4A1368FB
:10A3300001331360024B01229A6003B0F0BD00BFED
:10A34000001000405E3B00203C3B0020303B0020E2
:10A35000B8CC0200343B002038CC0200BFD502004C
:10A36000D7D5020024CC02005D3B0020603B0020DA
:10A3700010B5194B1A46D3F80C1141B30021C3F89C
:10A38000101101211961D2F8103113B3134B144885
:10A39000DB6801215965D3F85415124B1960D2F8C6
:10A3A0000415FDF769FC0E48FDF742FC044608B9A8
:10A3B000FCF728FE2046FFF7C5FE074B0124C3F833
:10A3C00000425C60FFF704FF074B1C7010BD00BF2C
:10A3D000D1E700BFD7E700BF001000403C3B0020A2
:10A3E00024CC02000C3C00205E3B00202DE9F04113
:10A3F000042800F21481DFE810F00500BD00F4002D
:10A400009400F700894B8A4D8A4E012100224FF4B7
:10A4100080305960D960C3F80425C3F84021C3F8DF
:10A420004421C3F8040341F29410C3F8400540F6F8
:10A43000CA00C3F844050220C3F808051960A3F553
:10A44000E0434FF48070C3F8FC1F7B4908607B49F0
:10A450007B480A60297800780131C9B229702978CF
:10A4600088426CD177490978002968D03178C9B21F
:10A47000012959D07448FDF7DBFB074608B9FCF702
:10A48000C1FD724C7249A27AD30003F1804303F5F7
:10A49000F83302F51170C3F81015E1684431C3F8C0
:10A4A000141523696B494FF00108443308FA02F28E
:10A4B00041F82030C1F804253846FFF743FE664BCB
:10A4C0000322C3F80022C3F80080D3F80021002A39
:10A4D00033D00022C3F80C21E3686049D3F8442547
:10A4E0005F4B604802F5E0721A602269D2F8442599
:10A4F000C7F8012009781A68C7F8052002223270CF
:10A50000594A39700121117058492A781B68401A3C
:10A51000C0080004564940F00300FCF790FAFFF72A
:10A5200027FF5448BDE8F081C3F810211961D3F822
:10A530001021002A9ED100BFF9E700BFC5E733789C
:10A54000012B04D1444BD3F85035032BE9D03E48BE
:10A55000FDF76EFB044608B9FCF754FD2046FFF7F3
:10A56000F1FD3D4B0124C3F800425C60FFF730FE73
:10A570003470D6E72D4BD3F84021002AD1D0D3F840
:10A580000423D203CDD5002401225A60C3F84041F0
:10A59000D3F84011C3F84441D3F844312E4B2A4834
:10A5A0001A614FF0FF31C3F808132849097A8A402D
:10A5B0002849C1F80825D3F80415FDF75DFB1F4BAA
:10A5C0001C601C4B1C702C4B1C602C4B1C60184BD3
:10A5D0001A78C82A03D11C70194B0A221A7028480D
:10A5E000A0E7FFF757FE9CE7104B002201215960BE
:10A5F000C3F84021C3F84421D3F8402502F2CF32FA
:10A60000C3F84025D3F8442502F2CF32C3F84425DD
:10A610000A4A1960136803F57A73136081E7194ACF
:10A62000194840F22F11FCF727FD7AE7008000401F
:10A630005C3B00205E3B002000E100E0003C00208D
:10A64000502B00206C3B002024CC02003C3B00201F
:10A650000011004000F0014000100040252B0020B8
:10A66000083C0020B8CC0200043C002038CC02009A
:10A67000F1D50200643B0020603B0020703B0020CD
:10A68000282B002038D6020078563412044AD2F81B
:10A69000003123B10023C2F80031024A1370704721
:10A6A00000700140FE3B002010B50D4C01462022F9
:10A6B000204601F026FEE3687BB163696BB1A269B5
:10A6C000084B9A4209D10848FDF79BFA034610B19E
:10A6D000FCF798FC0023184610BD0723FBE700BFDA
:10A6E0003C3B00200070014024CC0200F8B5524EE3
:10A6F0003378002B40F09E80FFF71CFD01460028B8
:10A7000040F08E80FFF714FD0146002840F088805D
:10A710004A48FFF711FD0146002840F08180484873
:10A72000FFF70EFD014600287AD1464D6C7AEB68A2
:10A73000E00000F1804000F5F83003F5A072C0F8A9
:10A7400010252A6902F10807C0F814754FF0010CB2
:10A750003D4804F511770CFA04F440F82710C0F8CE
:10A76000044595F91C40E7B207F01F000CFA00FC05
:10A770006009800000F1604000F56140002CC0F8E5
:10A7800080C14FDA314C07F00F073C44E0272776B1
:10A79000C0F800C0A8692E4F01244FF0FF35C0F863
:10A7A0000853C0F80443002038602A4F38702A4FFD
:10A7B0004FF0C80C387003275460D460C2F81005FD
:10A7C000C2F80445C2F80875C2F840C5DFF894C065
:10A7D000C2F848C54FF0040CC2F800C214605C60B7
:10A7E000DC60C3F810051D481D4AC3F80875834294
:10A7F000C3F84025C3F84455C3F84825C3F84C5561
:10A8000003D000F58050834205D1C3F850254FF0A6
:10A81000FF32C3F854250122C3F800221A603270B7
:10A820000846F8BD04F1604404F56144E02784F86B
:10A830000073ADE70821F3E7FF3B0020EDA3020022
:10A84000302B00203C3B002000F00140FCEC00E0FD
:10A85000383B00206C3B00205E3B002000A0014004
:10A8600080380100A0860100044B01221A70044BBD
:10A8700000201870034B1870704700BF6C3B00201D
:10A88000FE3B0020043C0020014B00201870704764
:10A890006C3B00200369C1688B429DBF8268D2185F
:10A8A00002F1FF3203F1FF3394BF501A581A704778
:10A8B0002DE9F041D0E9027405463E1B40689642FE
:10A8C00020448846144404D901F01BFDEC60BDE827
:10A8D000F0813246E41B01F014FD224608EB06012C
:10A8E0006868F1E72DE9F843C568064689461746CA
:10A8F0004FF000083469B3687068A54228BFE418B7
:10A90000013C621B5C1BBC4228BF3C46944228BFF2
:10A91000144649462844224601F0F3FCB368254416
:10A92000AB4208BF00253F1BA044A144F560E1D124
:10A930004046BDE8F883000010B5114C114AA261F1
:10A940000223C4E90433104BE361A2644FF40073A3
:10A950000E4A2362E264002310220D49A362E01D27
:10A960006362E362A3656365E365226501F025FD2B
:10A970000849204601F021FD2023A37110BD00BF2E
:10A98000103C00208CD60200983C0020883C00201F
:10A9900095D6020099D60200F8B5184C182300FB92
:10A9A000033503FB00402544C46A012C0F461646BC
:10A9B00011D024B1022C1BD000242046F8BD28461B
:10A9C000FFF768FFB042F8D3324639462846FFF712
:10A9D0006FFF3446F1E72846FFF75CFF86423446B6
:10A9E00028BF0446224639462846FFF761FFE4E7C0
:10A9F0002846BDE8F840FFF775BF00BF103C0020B7
:10AA0000FFF79ABF6DDF704779DF70477DDF7047D2
:10AA100064DF70472DE9F04F85B000250E9CBDF82E
:10AA20003CB027880191804691469A462E46B8F858
:10AA30000020B2420CDC3DB12288013AD21B92B216
:10AA4000FF2A3BD80AF80720002005B0BDE8F08FA8
:10AA5000D8F8042052F82600039000220DF10B01D3
:10AA600003A8FFF7D5FF0028EFD19DF80B204A453A
:10AA700022D12288002D14BF0020022002EB090100
:10AA8000014459451ADC45B9013292B2019B22803A
:10AA90000AF8023022880132228022880DF10B014F
:10AAA000524403A8FFF7B4FF0028CED121889DF8B7
:10AAB0000B200A44228001250136B8E70C20C4E7A8
:10AAC0002DE9F341089CBDF824501746CDE9004517
:10AAD000022206469846FFF79DFF50B943461022D2
:10AAE00039463046CDE9084502B0BDE8F041FFF7F0
:10AAF00091BF02B0BDE8F0812DE9F04F0023168828
:10AB0000138090F82D3085B007460D46144653B398
:10AB1000082E01D80C2027E102A8FFF773FF0028B8
:10AB200040F0228123880822EA54238801339BB213
:10AB30001B222380EA542088013080B22080062224
:10AB40000DF10901284401F0DCFB23889DF8082061
:10AB500006339BB212F0FE0218BF01222380EA5492
:10AB6000238801332380BB78FBB123880433B342AD
:10AB7000D0D802A8FFF748FF002840F0F5802388CE
:10AB80000322EA54238801339BB219222380EA541A
:10AB90002388BDF8082001339BB2E9182380EA54CA
:10ABA000120A4A70238802332380FA789AB12388E4
:10ABB000D91CB142AED80221E954238801339BB29B
:10ABC00001212380E95423880B449BB22380EA545B
:10ABD00023880B4423807A68AAB12388D91CB14208
:10ABE00098D8022192F90020E954238801339BB2BE
:10ABF0000A212380E954238801339BB22380EA543D
:10AC00002388013323803B89002B40F0A1803B8ABD
:10AC10005BB1CDE900462B460722032107F1100066
:10AC2000FFF74EFF002840F09F803B8B5BB1CDE9E2
:10AC300000462B461522142107F11800FFF740FFAC
:10AC4000002840F091803A6A002A40F09080D7F8BE
:10AC50002480B8F1000F30D0B8F804302188981C57
:10AC60008A1C0244B2423FF655AFFE283FF652AF6F
:10AC700003336B54238801339BB2FF222380EA54B1
:10AC8000238801339BB22380B8F80020EA54E918E6
:10AC9000120A4A702088023080B22080B8F804205E
:10ACA0005AB1D8F8081000296BD0284401F029FBCC
:10ACB0002388B8F804201344238097F82C30002B05
:10ACC00040F09A80387800284ED03B88012B58D02D
:10ACD000228802F1020CB4453FF61CAF012805D1D1
:10ACE0007B78023313449E42FFF414AF023EB61A3F
:10ACF000B6B202A905EB0C00ADF80860FFF786FEBE
:10AD000090BB3978BDF80820022900F0BA807B7822
:10AD1000934202D3B24240F2B280012940F0B380A4
:10AD20009BB29E42C0F0AF80ADF808300821BDF85C
:10AD30000830FE2B3FF6EEAE22880133AB5422885A
:10AD4000013292B22280A9542288134423800BE05E
:10AD5000CDE900462B460622022107F10800FFF745
:10AD6000AFFE00283FF453AF05B0BDE8F08FB4F854
:10AD700000C00CF10603B3423FF6CCAE11880529A2
:10AD800001D80720F0E76FF4486E01EB0E039BB289
:10AD90004FF27D3E7345F4D95388052BF1D96FF4FA
:10ADA0004860181880B27045EBD94FF6FF708142A9
:10ADB00003D0834201D09942E3D8052305F80C3033
:10ADC000238801339BB212212380E9542388013365
:10ADD0009BB223801188E954E818090A417023883E
:10ADE00002339BB223805288EA54E918120A4A704F
:10ADF0002388023323802AE7BB6A002BC1D04FF09F
:10AE000000094FF00C0A4FF0160B97F82C305FFA40
:10AE100089F293427FF656AFB96A0AFB02F201EB60
:10AE20000208B8F80430981CFE283FF673AE20885C
:10AE300003332B54238801339BB2238005F803B0DE
:10AE4000238801339BB223808A5AEA54E918120AF4
:10AE50004A702088023080B22080B8F804205AB1AD
:10AE6000D8F8081000298CD0284401F04AFA238829
:10AE7000B8F804201344238009F10109C5E709212A
:10AE800055E7B242FBD9ADF808604FE770B5E0B1C5
:10AE90004AB116880024B44203D305196D789D4247
:10AEA00008D0A14201D800200FE0055D01352C44F7
:10AEB000A4B2F0E7A142F6D9005DA31C01389BB211
:10AEC00080B21C188C42EEDC138070BD13B50023D9
:10AED000ADF8063013460DF106020446FFF7D6FF23
:10AEE00010B1BDF80600204402B010BD72DF7047FB
:10AEF00038B5012204460D46B0F81414D0F81004F9
:10AF0000FFF7E4FF00B1057004F13C0204F5826133
:10AF100004F15400BDE83840FFF7E8BF80F8301076
:10AF20007047F8B504460F46002975D0002873D045
:10AF300091F87A301BB191F89830002B6ED1D7F888
:10AF4000A030042B6AD0D7F89C30042B66D007F1D0
:10AF500078060FCE4FF0000C251D84F802C00FC5F7
:10AF60000FCE0FC596E8070085E8070084F830C0CB
:10AF7000D7F8A4306363D7F8A830A3634FF6FF7502
:10AF800004F58263C4F82034A4F8245407226146EF
:10AF900004F2264001F0DEF923780BB984F854500E
:10AFA00094F82430002B14BFEE231F2304F1550125
:10AFB000C4F81014A4F8143404F214423846FFF70D
:10AFC0009BFD40BB94F82430002B14BFEE231F23BD
:10AFD00004F23121C4F81814A4F81C3404F21C4201
:10AFE00007F13C00FFF788FDA8B9A369A4F8483031
:10AFF0004FF480730125A4F8503063692064014642
:10B0000084F83C50636404F13C0204F15400FFF7FF
:10B010006DFF00B92570F8BD0E20FCE70720FAE7A8
:10B02000F8B5077804460D46002F00F0FC8000F2CA
:10B030002646A17007220021304601F08BF9E388F3
:10B0400013B1A378012B04D0E3794BB1A378022B81
:10B0500006D1636BA3B1012284F82D240820984700
:10B06000334604F22C4113F8012F12B98B42FAD166
:10B0700017466B1E032B51D8DFE803F0050B0F12A8
:10B0800084F82D34ECE7A3791BB194F8243003B98C
:10B090005FB9E3790BB1002F42D1237A002B41D164
:10B0A000637A002B0CBF00250425636BA570002B71
:10B0B0003AD0033D012D37D86279AAB394F82E24F3
:10B0C00092BB84F83024012284F82F24072098476B
:10B0D00004F13C0518220021284601F03BF9E26A00
:10B0E000531E0121022B28BF0A4684F8512094F8F0
:10B0F000242084F83C1032B1A36A581E022828BFCD
:10B100000B4684F85230A178002384F8503004298B
:10B110001BD8DFE801F0770D223559000025C4E780
:10B120000225C2E70325C0E7002384F82F34CFE7C8
:10B13000C4F82034C4E910630223012284F83C30AF
:10B14000802384F83120A4F84830A378002B5CD108
:10B15000636B002B63D1002060E00223002A84F897
:10B16000313014BF0723032384F83C302369A4F84B
:10B1700048300023C4F82034E36826646364E4E7BD
:10B1800063696364A369A4F8483012B1062384F8A4
:10B190003C306379B3B194F82E349BB994F83034D1
:10B1A00083B1022384F8503004212046FFF7A0FE2B
:10B1B0000028CAD1052384F8313004F58263C4F82D
:10B1C0002034C2E70323F6E7E3696364236AA4F843
:10B1D000483012B1062384F83C30637983B194F887
:10B1E0002E346BB994F8303453B1022384F85030C4
:10B1F00004212046FFF77CFE0028A6D10623DAE7CB
:10B200000423D8E784F831309FE72A46D4F8201485
:10B2100004F15400FFF76AFE002899D0F8BD94F8B5
:10B220003100984797E70820F8E70388112B10B5FD
:10B230000C460AD0262B1FD0102B05D1C37B012B27
:10B2400002D18388A1F8243410BD0022838881F8BC
:10B250002E24B1F824249A42F6D10B79002BF3D195
:10B2600001212046FFF7DCFE0028EDD0A36B002B68
:10B27000EAD0BDE810401847037A013B012BE3D820
:10B28000897805230131B1FBF3F303EB8303C91A7A
:10B29000C9B2E6E7034B1A8882420CBF1846002069
:10B2A000704700BFB43E0020024B9B6903B11847B2
:10B2B000704700BF983E002013B50B46497A0F4CEB
:10B2C000024669B9D4E901101C7A002C18BF014666
:10B2D0005868FCF738F808B1FFF7E6FF02B010BD78
:10B2E000002119726369002BF8D00121ADF8060026
:10B2F0008DF8041001A89847F0E700BF983E0020A1
:10B300004B8802889A4213D842889A4210D3808888
:10B310008A8840F2F313984294BF031AC31A9342E7
:10B3200006D800F2F310904234BF0020012070478D
:10B33000002070470388112B70B5014648D002D811
:10B34000102B1ED070BD122B52D0502BFAD12F4B88
:10B35000C288DB899A42F5D1038A022BF2D1868812
:10B360003046FFF797FF05460028EBD001F11200A9
:10B3700000F03FF930BB6868FBF7FDFF0028E1D023
:10B3800009E0C37B012BDDD14FF6FF70FFF782FF91
:10B39000054620B90420BDE87040FFF785BF1C4A70
:10B3A0008E880680002303721368C5F80A300A30BD
:10B3B000536843601031FFF7A3FF144B6872DB89B9
:10B3C000002BBFD129463046BDE87040FFF774BF5F
:10B3D0008088FFF75FFF04460028B3D04068FBF782
:10B3E000CAFF08B1FFF760FF4FF6FF732380A9E79C
:10B3F00086883046FFF74EFF05460028A2D0083168
:10B400000A30FFF77DFF6872DCE700BF983E00203E
:10B41000C83E00200AB1FCF791BBFCF798BB73B59E
:10B420000191019C06466CB100252C46294601A8D5
:10B43000FCF797FB18B106EB440301349D800135FE
:10B44000142DF3D13046346002B070BD2DE9F047C1
:10B4500003888488103B8CB005460A2B1FD8DFE890
:10B4600003F0063F1E1E1E1E1E1E1E5F4400314EB0
:10B47000B368DB43009371686846FCF79BFB009957
:10B4800001A8FFF7CCFF0DF108094FF00008019B60
:10B49000984507D3132C13D90420FBF7B3FD0CB048
:10B4A000BDE8F08739F802AB00270137514606EBBB
:10B4B0008700FCF74CFB1E2FF7D108F10108E6E7E7
:10B4C00021461D48FCF73AFB21461C48FCF736FB99
:10B4D000EB7B012BE3D021461948FCF72FFBDEE77D
:10B4E00021461548FCF733FBD9E7057A15482D09A5
:10B4F000032D94BF002201222146FFF78BFF022D6E
:10B5000094BF0022012221460F48FFF783FF012D3F
:10B510000E4894BF002201222146FFF77BFFBEE7C1
:10B52000037A002BBBD1427A0648C2F3C0022146FF
:10B53000F3E700BFD03E0020D83E0020D43E0020DC
:10B54000DC3E0020E83E0020E43E0020E03E0020FB
:10B550001328014602D80248FCF703BB00207047BD
:10B56000D43E002010B50446FFF7F2FF002814BFB8
:10B570002046142010BD70B5054616460AB90E20A7
:10B5800070BD002313600028F9D00368002BF6D0AB
:10B59000C38813F003040FD10846FFF7E3FFC0B2DE
:10B5A00014280BD02B7983420AD9EB882A6800FB38
:10B5B000032333602046E3E70720E1E70520DFE7C8
:10B5C0000420DDE7AADF7047002301380B70042850
:10B5D00006D8DFE800F00306080A0C0011230B7000
:10B5E00070472123FBE73123F9E71223F7E72223F2
:10B5F000F5E7007800F001007047F0B58B7891B066
:10B60000002B0C4608BF01238DF80E3005460B8831
:10B61000ADF80C30002116466846032200F09AFE71
:10B620006946607CFFF7D0FF0DF10101A07CFFF7B8
:10B63000CBFF9DF80230E27B62F3C303227C62F30E
:10B640000413227B62F30003227D002A14BF02222E
:10B65000012262F3420300211C2209A88DF8023066
:10B6600000F078FE637B13F0300F15D002AF032299
:10B670000021384600F06EFE0DF10901E07CFFF775
:10B68000A3FF11238DF808309DF80A300E97012290
:10B6900062F342038DF80A30637B8DF82430142264
:10B6A000A37B8DF82530002104A800F053FE03ABE6
:10B6B0000493A388ADF81C30A368CDF814D01BB157
:10B6C000E288ADF818200893A369002B2ED001AFB3
:10B6D00003220021384600F03DFEA3691A88ADF828
:10B6E0002C205A88187BADF82E2039465A680A92C9
:10B6F0000D97FFF769FFA3690DF10501587BFFF76F
:10B7000063FFA2699DF80630917A61F3C303D17A91
:10B7100061F30413117A927B002A61F3000314BFD2
:10B720000222012262F342038DF80630E36903B17D
:10B730000C93334604AA09A92846FFF743FF11B02A
:10B74000F0BD90DF7047A5DF7047B5DF70470000A0
:10B750007FB50023ADF80810ADF80A106A4602A9BB
:10B76000064603930093ADF80430FFF7EAFF054661
:10B7700000B3124B124CE41AE408FCF7ABFD2404AE
:10B7800044F00104034632460E492046FBF757F9C0
:10B79000BDF80020BDF8023052EA030103D00A4987
:10B7A0002046FBF74CF9BDF804201AB107492046A2
:10B7B000FBF73CF9284604B070BD00BF38CC02004E
:10B7C00088CC0200A0D60200EAD6020029D70200E7
:10B7D00013B5034680880C46A0B91A88232A00F0C6
:10B7E000A48011D8102A22D0112A51D0A37A4BB1AB
:10B7F000E1880020FFF7A7FF002840F09C804FF46D
:10B800008073638102B010BD3A2A4AD0552A60D0B5
:10B81000242AEBD11A7A0B694A73002BE6D04DF635
:10B820007A21ADF8040000918DF8042079E0DB7BEB
:10B830000A790A73012B13D0022B14D0E1882389D3
:10B840008B4205D20020FFF77EFF70B90123E3721F
:10B85000217B637B8B42C9D20020FFF779FFC5E7CC
:10B860000B88E380EAE74B88FBE7112802D101232C
:10B87000A372EDE7FCF72EFD374A384B38499B1A87
:10B88000DB081B04024643F00100FBF7CFF8DFE7BB
:10B89000F723CB8017230B8141F6FB3348818B8143
:10B8A000A4E75B89CA88934228BF1346172B0A690D
:10B8B00038BF17230B814AB1C97A39B140F67721D5
:10B8C0000091ADF80430694620469047002363811B
:10B8D0008CE7DB88C988A072172B38BF17238B42EF
:10B8E00028BF0B462381FFF730FF60B1FCF7F2FC65
:10B8F000194A1A4B1B499B1ADB081B04024643F0EA
:10B900000100FBF793F8E37A002B7FF46FAF236914
:10B91000002B3FF46BAF40F6772200922289ADF8FE
:10B92000042069462046984760E7197A237B9942AC
:10B9300028BF194691E711283FF464AFFCF7CAFC11
:10B94000054A064B06499B1ADB081B04024643F0D6
:10B950000100FBF76BF855E738CC020088CC0200F9
:10B960007FD70200B0D70200B0DF704766DF7047B4
:10B9700010B5002104464088FFF7F8FF034608B9D8
:10B98000237210BD112801D10123F9E76368BDE8D6
:10B990001040184760B159B10378DE2B0AD00B680C
:10B9A0004360DE2303704FF6FF734380002070472F
:10B9B0000E20704708207047F0B5054685B00C464C
:10B9C000F1B1E8B10B78DE2B1AD182884B889A420C
:10B9D00004D10B7A13B10846FFF7CAFF2B88112B4D
:10B9E00032D0512B0ED0012B0AD12B7A012B07D14B
:10B9F000A9886288914203D123722046FFF7B8FFDD
:10BA000005B0F0BDAE886388B342F9D1AF79022F9B
:10BA1000F6D1AD7B2B1F022BF2D8002110226846F5
:10BA200000F098FC052D14BF4FF4C0730023694645
:10BA300030468DF80070ADF80430FFF795FF002810
:10BA4000DED063689847DBE76388AA889A4204BF20
:10BA50004FF6FF736380D3E7A8DF7047ADDF704711
:10BA600062DF704770B505468AB00C46002962D087
:10BA7000002860D00388502B37D0572B72D0102B62
:10BA800059D181886069002601AA0196FFF773FDEC
:10BA9000082231460DEB020000F05CFC022302AAF2
:10BAA0002189A888CDF80CD00293FFF7D7FF002892
:10BAB00041D1A369002B3ED00398FFF79AFD0028DF
:10BAC00039D0019B0BB101221A701822002104A861
:10BAD00000F040FC02238DF81030AB88ADF8183030
