:020000040000FA
:10000000482B0020C1030000C9030000CB030000FF
:10001000CD030000CF030000D1030000000000006A
:10002000000000000000000000000000D3030000FA
:10003000D503000000000000D7030000D903000032
:10004000DB030000C9060000390B0000DB030000E1
:10005000DB030000DB03000019050000DB030000E8
:10006000DB030000DB030000DB030000DB03000018
:10007000DB030000DB030000DB030000DB03000008
:10008000DB0300006D070000DB030000DB03000062
:10009000DB030000DB030000DB030000DD070000E2
:1000A000DB030000DB030000DB030000DB030000D8
:1000B000DB030000DB030000000000000000000084
:1000C000DB030000DB030000DB030000DB030000B8
:1000D000DB030000DB030000DB0300000000000086
:1000E0000000000000000000000000000000000010
:1000F0000000000000000000000000000000000000
:1001000000000000000000000000000000000000EF
:1001100000000000000000000000000000000000DF
:1001200000000000000000000000000000000000CF
:1001300000000000000000000000000000000000BF
:1001400000000000000000000000000000000000AF
:10015000000000000000000000000000000000009F
:10016000000000000000000000000000000000008F
:10017000000000000000000000000000000000007F
:10018000000000000000000000000000000000006F
:10019000000000000000000000000000000000005F
:1001A000000000000000000000000000000000004F
:1001B000000000000000000000000000000000003F
:1001C000000000000000000000000000000000002F
:1001D000000000000000000000000000000000001F
:1001E000000000000000000000000000000000000F
:1001F00000000000000000000000000000000000FF
:10020000DFF80CD000F076F900480047311B000001
:10021000482B002030B450E8012F93B2C489234406
:100220008489A34228BF1B1B0489A34202BFBFF3DA
:100230002F8F002007E0C3EA020340E80134002CBE
:10024000E9D14FF001000A6030BC704750E8012F3F
:10025000C2EA024240E801210029F7D1704730B4D8
:1002600050E8022F1FFAA2F3C488A34202BFBFF3D3
:100270002F8F00200DE0C48923448489A34228BF26
:100280001B1BC2EA034340E80234002CE8D14FF0C4
:1002900001000A6030BC704750E8022FC2EA2242D7
:1002A00040E802210029F7D17047034653E8022FA6
:1002B000D988B2EB324F4FF0000017BF92B241EA3B
:1002C000014142EA014104E05A68B2EB324F08BFF3
:1002D000012043E80212002AE8D1704730B40446F6
:1002E00054E8000F0D4644E80053002BF8D1156088
:1002F00030BC704730B4044654E8000F40EA0105B2
:1003000044E80053002BF7D1156030BC704730B47F
:10031000044654E8000F00EA010544E80053002BAE
:10032000F7D1156030BC704730B4044654E8000F74
:1003300080EA010544E80053002BF7D1156030BC7A
:10034000704730B4044654E8000F00EB010544E860
:100350000053002BF7D1156030BC704730B4044611
:1003600054E8000FA0EB010544E80053002BF7D13F
:10037000156030BC704770B404464FF0000054E87C
:10038000006F0D68AE4207BF44E80023012044E837
:1003900000630E60002B1CBF0020F0E770BC7047AC
:1003A00030B4044654E8000F88422CBF451A054675
:1003B00044E80053002BF5D1156030BC70470000B5
:1003C0000648804706480047FEE7FEE7FEE7FEE7EF
:1003D000FEE7FEE7FEE7FEE7FEE7FEE71D0800009A
:1003E000010200002DE9F05F0546002092469B4681
:1003F00088460646814640241BE02846414647463B
:10040000224600F067F853465A46C01A914110D36D
:1004100011461846224600F016F82D1A67EB01081F
:100420004F4622460120002100F00DF817EB00098D
:100430004E41201EA4F10104DFDC484631462A4625
:100440004346BDE8F09F202A04DB203A00FA02F17F
:10045000002070479140C2F1200320FA03F31943B2
:100460009040704700487047C836000040EA0103DA
:100470009B0703D009E008C9121F08C0042AFAD25A
:1004800003E011F8013B00F8013B521EF9D270471E
:10049000D2B201E000F8012B491EFBD270470022C6
:1004A000F6E710B513460A4604461946FFF7F0FF73
:1004B000204610BD421C10F8011B0029FBD1801AF8
:1004C0007047034611F8012B00F8012B002AF9D1DF
:1004D00018467047202A04DB203A21FA02F0002156
:1004E000704721FA02F3D040C2F120029140084344
:1004F00019467047064C074D06E0E06840F00103DE
:1005000094E8070098471034AC42F6D3FFF77CFE1E
:1005100094370000B43700002DE9F04700268AB078
:10052000DFF85091B0464FF48075012437460696A7
:10053000284601F0DDFD38B1D9F80403204203D08C
:10054000284601F0CBFD26432D1D64007F1CADB273
:10055000082FEDD34FF4BE74204601F0C9FD48B119
:10056000204601F0BBFD46F0004606AA012100200E
:1005700001F0A0FD404D16F0FF0F15D0012700241B
:1005800037420DD009EB8401D1F81005D1F81015D0
:10059000C0F3042055F82420C1F3014102B1904773
:1005A0007F00641C082CEBD3002E5FDA4FF0FF3085
:1005B000CDF8108054E0281910F8507F90F9000011
:1005C00027F0C008401C3BD007A9404601F019FCA9
:1005D00010B34FEA9719404600F084FF55F8207099
:1005E0001FB1B9F1030F03D006E0B9F1030F27D112
:1005F00004A9404601F00DFC4FF0A04101EB88003A
:10060000D0F8000706A9C0F3014A404601F0F9FB03
:1006100018B1BAF1020F03D012E0BAF1030F0FD1F3
:10062000B9F1030F08D1BAF1020F1DD002214046E3
:1006300001F023FD761CF6B217B149464046B84793
:10064000641C042CB7D3002E10D06A460121002070
:1006500001F030FD06990098884207D00690049872
:10066000002634460790A6E70321E0E70AB0BDE87C
:10067000F0870000006000400802002000F01F0228
:10068000012191404009800000F1E020C0F8801273
:10069000704700F01F02012191404009800000F1E5
:1006A000E020C0F8001170474907090E002806DA5B
:1006B00000F00F0000F1E02080F8141D704700F1F9
:1006C000E02080F8001470472DE9F0411C4CD4F86C
:1006D0000C01002832D00020C4F80C01D4F80C0121
:1006E00018484FF00108C068C0F85480D0F854058D
:1006F000154EF06115481649F269401AC0080321E9
:1007000001EB004013A101F0DFFE3079012813D185
:1007100013480068C0070FD0124F386802F01AFC67
:1007200038B1114801F021FB050001D100F03EFB7A
:100730003D60B068401CB060C4F80880BDE8F0813E
:10074000001000407801002004000020C4370000A1
:10075000C4370000726164696F3D25640A000000BF
:1007600000140040041500400C3800000249024803
:10077000091F0968006808478C00002000F0E2B9F2
:1007800070B50E46144900EB400001EBC00514465D
:10079000E86A183520B101280FD0022805D113E0EE
:1007A000284600F003FAA04201D2002411E02246BC
:1007B0003146284600F032FA0BE0284600F0F6F900
:1007C000A042F4D20446F2E73146284600F0F9F997
:1007D0000446204670BD0000BC0800200D4AD2F837
:1007E00000310D490020C9683BB1C2F80001C1F8D1
:1007F0004001D1F8400102F0D1BCD2F80431002B05
:1008000007D0C2F80401C1F84801D1F8480102F04C
:100810005BBD70470070014078010020F0B5B5481D
:100820000023021D0178101D01254FF08054062978
:100830000BD11678360708D10678C6F30316032EB7
:1008400006D0042E04D0052E02D0062907D00EE0D3
:10085000B4F82463A84FC6F304263E6002E016787D
:10086000360704D10678C6F30316032E02D00629F4
:1008700004D00FE0A24FA14E7E670EE01678360737
:1008800008D10678C6F30316032E06D0042E04D032
:10089000052E02D0062907D00EE0D4F84462994F05
:1008A000C6F342363E6002E01678360704D1067879
:1008B000C6F30316032E02D0062906D011E0924E8D
:1008C000376827F0807737600EE01678360708D152
:1008D0000678C6F30316032E06D0042E04D0052E88
:1008E00002D006290AD011E04FF08046C6F80C313C
:1008F000C6F81031834E361F336002E01678360793
:1009000004D10678C6F30316032E02D0062905D0BB
:100910000CE07C4F032664373E600AE01678360709
:1009200004D10678C6F30316032E02D006290DD093
:1009300014E0764F05263E60744E78363560734E6F
:10094000083633603F263F1D3E6002E016783607CA
:1009500004D10678C6F30316052E02D0062957D017
:1009600062E06B4E36686B4F3E60694E361D3668EE
:100970003F1D3E60664E083636683F1D3E60644E41
:100980000C3636683F1D3E60614E103636683F1D9E
:100990003E605F4E143636683F1D3E605C4E183632
:1009A00036685C4F20373E60594E1C3636683F1D16
:1009B0003E60574E203636683F1D3E60544E24360A
:1009C00036683F1D3E60524E283636683F1D3E60F9
:1009D0004F4E2C3636683F1D3E604D4E30363668E1
:1009E0004C4F40373E604A4E343636683F1D3E60BD
:1009F000474E383636683F1D3E60454E3C363668B9
:100A00003F1D3E60424E403636683F1D3E6002E06C
:100A10001678360708D10678C6F30316032E06D0DB
:100A2000042E04D0052E02D0062907D019E0D4F8F0
:100A30005812394A01F04F01116002E0117809079C
:100A40000FD10078C0F30310032803D0042801D08D
:100A5000052806D131480168C90702D06FF00101AD
:100A60000160D4F83001062808D1D4F834010628F2
:100A700004D12B48016841F4806101602248743838
:100A8000016841F470010160BFF34F8FBFF36F8FB6
:100A90004FF01021D1F80002002803DBD1F8040246
:100AA000002822DA1F4A15601F480468002CFCD079
:100AB0001524C1F800420568002DFCD0C1F804429D
:100AC00001680029FCD0136001680029FCD0BFF345
:100AD0004F8F0D48F0380168144A01F4E06111436A
:100AE0000160BFF34F8F00BFFDE712491048086057
:100AF000F0BD0000E00F00F0403501400DF0ADBA50
:100B000000C007403C050040FCED00E010560040EE
:100B10000404001020C50040E40E00400004004022
:100B20003C17004004E5014000E401400400FA05E0
:100B30000090D003F000002001480068004700004A
:100B40004000002010B5124C02202061606111A00D
:100B5000A06104F17800E0614FF400702062002091
:100B6000A06260620BA1A164E06204F51E71E16401
:100B70001021A065C4E91410E06509A1E01DFFF78C
:100B8000A0FC08A12046FFF79CFC2020A07110BD0E
:100B9000BC0800205465726D696E616C0000000035
:100BA0005254540053454747455200000269C168FA
:100BB0008A4203D88068401A104400E0501A401E50
:100BC00070472DE9F047C4681746894606464FF03E
:100BD00000083069A04201D9051B02E0B168201A63
:100BE0000D1AB0686D1E001BA84200D80546BD4214
:100BF00000D33D4670682A4620444946FFF736FC3C
:100C0000B0687F1B2C44A844A944A04200D1002412
:100C1000F460002FDDD14046BDE8F0872DE9F041BA
:100C200004468846D4E90207C51BE1686068164699
:100C30000844B54206D94146FFF718FCB819E060F0
:100C4000BDE8F0812A464146FFF710FC761B08EB11
:100C5000050132466068FFF709FCE660F0E702E054
:100C600008C8121F08C1002AFAD170477047002037
:100C700001E001C1121F002AFBD17047022000F0E1
:100C80003FB9000070B50024064D06E068680121F8
:100C900010F8340001F0E4FD641C28788442F5D398
:100CA000002070BD48000020F8B516460C460546E9
:100CB0000A2A01D20720F8BD01F0CCFE18B901F0D4
:100CC00093FE0028F7D1134F102113487D603C702C
:100CD000BE60FFF7E4FB0020C7E904000F4E0DE003
:100CE00005EBC4003168009181788DF8011000781F
:100CF0000B4A694601F006FE0028DCD1641EE4B20E
:100D0000EED2BDE8F84005480021064A001D00F07B
:100D10005FB800004800002088020020E435000091
:100D2000391900004115000072B601F073FC00BFD4
:100D300001F0AEFA0028FBD111481249401AC4084C
:100D4000012000EB044010A101F0BAFB114800683B
:100D5000C00700D000BE022000EB04400EA101F04D
:100D6000AFFBBFF34F8F0B48E43801680E4A01F424
:100D7000E06111430160BFF34F8F00BFFDE700004A
:100D800004380000C4370000466174616C2065724D
:100D9000726F7200F0ED00E053797374656D20722C
:100DA00065736574000000000400FA050EB50021AB
:100DB0000091CDE901106A4644F20100FFF7B4FF4B
:100DC0000EBD0000014800F022BC000068000020B9
:100DD0003AB100680129426100D000210161002080
:100DE000704707207047000038B511480823582283
:100DF000416800910F49006800F056FF002815D1A6
:100E00000D4A69460D4800F007FC04000ED101218F
:100E10000A4800F078FC0123094A1946074800F007
:100E2000CEFB0649012008390870204638BD000075
:100E3000EC350000A8020020452C000068000020CE
:100E4000FFFF7F0070B50446007F0D4608B100200B
:100E500070BDA26100F056FD401941F10001C4E9E6
:100E60000201206900B125612146BDE870400020E3
:100E700002F06CB9014600200877012002F066B943
:100E800000F002B800F008B872B602480168491CC8
:100E9000016070478400002003490868401E086014
:100EA00000D162B670470000840000202DE9FC41AB
:100EB0000646C0074FF000050ED0104F0024012257
:100EC000385D009500231146019501F0B2F8641CCD
:100ED000042CF4D300F046F8B0070DD5074E0024DB
:100EE000361D0022305D032300951146019501F067
:100EF000A0F8641C042CF4D3BDE8FC81AC350000E0
:100F000007490B5C4FF0A041D1F80425012098401F
:100F100020EA0203C1F808351040C1F80C057047FB
:100F2000AC3500000249085C012101F0B7B80000AF
:100F3000AC3500000249085C002101F0AFB80000A8
:100F4000AC3500000649095C4FF0A040D0F804051C
:100F5000C84010F0010000D0012080F0010070476F
:100F6000AC35000010B500242046FFF7DBFF641C01
:100F7000042CF9D310BD10B500242046FFF7DAFF8A
:100F8000641C042CF9D310BD10B50246064B4FF07B
:100F9000FF3000215C5C944201D1084610BD491C21
:100FA0000429F7D310BD0000B03500002DE9F0474B
:100FB0000D468146FFF7E8FF0446042836D2DFF8E5
:100FC00074801B481C4EA8F10C0725B3012D0ED0D0
:100FD000022D2BD104EB440030444578002D25D060
:100FE000B968002922D02846BDE8F047084704EB3D
:100FF0004401755C0E44717849B10E4A4FF480414A
:10100000093A8068FFF71EFF08B987F80390B178A6
:1010100008F80410E2E78068FFF72CFF04EB4401B6
:10102000314418F804008D78A842D7D0BDE8F08785
:10103000B43500003C000020D801002070B500232A
:10104000042810D20D4D00EB4004012A02D10129E1
:101050000CD00022094E00EB4000304461B1012960
:1010600006D0022906D00723184670BD0E30C2B242
:101070002A55F9E74270F7E78270F5E7D8010020BA
:1010800070B505460F4810492A46401AC10803208A
:1010900000EB014004460DA101F016FA0E2D05D01B
:1010A0000F2D03D0102D01D0112D0AD1FFF70CFB0D
:1010B000084920462A460B78BDE8704006A101F099
:1010C0000ABA70BD04380000C43700006576742584
:1010D000640A000000000020627574746F6E25645D
:1010E0003D25640A0000000070B506461E48002435
:1010F000C0E90161B00720D500250122114628462C
:10110000FFF79CFF6D1C0446042D02D2002CF4D086
:1011100013E094B940F2333204211448FFF7C4FDC0
:1011200004000AD1FFF7AEFD040006D10F48104AB3
:101130000021001FFFF74CFE0446F00712D00120EB
:10114000FFF7B4FE74B909480A4A00210C38FFF7CA
:101150003FFE040006D10548074A01210838FFF781
:1011600037FE0446204670BD30000020C035000028
:1011700039140000811A00007D0C00002DE9F05F99
:101180006E4C054600266078B34618B184F801B06D
:1011900000F05EFC6A4F4FF47A694FF4C87A4FF062
:1011A0000108182D69D2DFE805F00C1313384754F5
:1011B000696E727B727BC58484848484B3B6B9BC47
:1011C000C5C500F045FC3868FFF754FE06465CE0F4
:1011D0000020FFF7B7FE00284FF0000008D0FFF70F
:1011E000A1FE022D02D14FF4E16008E0484606E07E
:1011F000FFF7A0FE022D01D1C82000E05046410CAF
:10120000C0034FF47A72801841F10001257052003A
:101210000023FFF7E7F801462AE00020FFF792FEDF
:1012200000284FF0000004D0FFF77CFE4FF4487018
:10123000E5E7FFF77FFEDFE70020FFF783FE0028EA
:101240004FF0000002D0FFF76DFECFE7FFF772FE10
:10125000D4E70020FFF776FE00284FF0000002D010
:10126000FFF760FE01E0FFF765FE257040F6CD4117
:1012700000223868FFF7E6FD064646E00020FFF74B
:101280003FFE257008E0002051E025703DE084F825
:1012900001800120FFF734FE002240F26661E8E79A
:1012A00084F801800120FFF72BFE00224FF400514B
:1012B000DFE77868FFF7DEFD0646D5F1110000D0C4
:1012C0002EB10220FFF72EFE84F802B01DE00128A7
:1012D00016D980B2C8214843C117C90341EA504119
:1012E000C0034FF47A72801841F1000152000023CC
:1012F000FFF778F8014600227868FFF7A3FD06465D
:101300000220FFF717FE84F802803046BDE8F09F08
:1013100000F09EFBB9E700F09BFBB4E700F098FB00
:1013200004E000F095FB0020FFF704FE0120FFF72A
:1013300001FEAAE7FFF71FFEA7E70000300000202C
:10134000B43500002DE9F0470546861C90460F464F
:101350004FF001090020FFF793FD1B4C2068386017
:10136000D4E90001401AA16804F21C47081A0EE0F3
:101370000121384600F0DDFC00F08CFB01463846C8
:1013800000F0D7FCD4E90001401AA168081A401CFB
:101390008642EDD8B8F1000F03D0052065F389101F
:1013A00002E0062065F39F50A2682168114004EB1B
:1013B0008101C8602068304420600020FFF762FD92
:1013C0004846BDE8F08700009804002070B50D463F
:1013D00004460A2902D10D21FFF7F8FFA068226810
:1013E000411CA1601554D4E90101814204D3204677
:1013F000BDE8704000F024BD70BD0000034803C884
:10140000814201D1012070470020704798040020DC
:10141000034630B5074800210478426806E000BF63
:1014200002EBC10005789D4203D0491CA142F7DBC5
:10143000002030BD4800002000780221FFF7B6BD33
:1014400070B50B4D29680B4800F0AEFC094800F060
:101450008CFC040001D1FFF7A9FC2C600648002198
:10146000C0F80C11012141600448017170BD0000F9
:10147000041500400C38000000100040040000205B
:1014800005494FF0FF32082841F8202002D30844D4
:1014900080F848207047000008020020F0B54FF0A7
:1014A000FF3512B10023082601E008230C260C4C5E
:1014B00005E000BF54F823707F1C04D05B1CB342CE
:1014C000F8D32846F0BD26185DB286F8305044F8AF
:1014D0002310002AF5D1E11881F84800F1E7000057
:1014E000080200200249084490F9300070470000CB
:1014F000080200204FF080400022C0F800210121A6
:10150000C0F80010D0F80031002BFBD0054B19605B
:10151000C0F80421C0F80810D0F804110029FBD04D
:10152000704700001805004010B5D0E90234D1E939
:101530000220D11AA04101D3012010BD002010BD0E
:1015400070B500240F4D10E0686800EBC4063078D9
:1015500001F040FA7178012901D0012100E0002159
:101560004140307800F058F9641C28788442EBDB65
:10157000D5E90401084303D0BDE8704001F002BE84
:1015800070BD00004800002010B50021024800F0A6
:10159000DBFB80F3100010BDB40800204FF4803254
:1015A0008A400168C1F848230068C0F808237047E2
:1015B0004FF4A07202EB810189B200F099B92DE9D4
:1015C000F04105460E464FF4A07000EB860081B254
:1015D00028684FF48034B440984622F07F47C0F822
:1015E00008432868C0F84843286801F000F92868D3
:1015F00000EB8600C0F840752868C0F84443B8F195
:10160000000F02D02868C0F80443BDE8F0810068EC
:10161000D0F804057047000070B54379224C44F8B7
:1016200023204279241D04EBC202204B1579204A65
:101630009A1AD3082DB10824022000EB03401DA103
:101640002EE002680D88C2F8085590F904208978C8
:10165000002A4FEA411106DA02F00F0202F1E022FD
:1016600082F8141D03E002F1E02282F8001490F9E0
:101670000410012201F01F0502FA05F5490989004D
:1016800001F1E021C1F80051417904EBC1010A7177
:10169000417944F831000320002400EB03400EA1FF
:1016A00000F00EFF204670BD88000020F4370000D7
:1016B000C437000052544320696E7374616E6365D1
:1016C00020616C726561647920696E697469616C0E
:1016D000697A65642E0000005254433A20696E69AD
:1016E0007469616C697A65642E00000090F90400E9
:1016F000012100F01F0291404009800000F1E0202C
:10170000C0F8001270470A46022100F07BB84FF47F
:10171000827100F0EDB80068012101607047006837
:101720000121416070472DE9F05F07460C464FF4F8
:10173000A07000EB84001FFA80FA38684FF48036FE
:10174000A6409B4622F07F45C0F848633868C0F841
:1017500008633868D0F8048500EB8402D2F840951D
:10176000C2F840855146386801F041F8A9EB0800FD
:1017700020F07F40012806D1102001F069F8514681
:10178000386801F034F83868D0F80485C0F844634C
:10179000A5EB080121F07F413868012900EB8400A6
:1017A00010D0C0F840553868D0F804156FF07F4C61
:1017B0006A1A521E22F07F42ACEB0B03934217D3FE
:1017C00062B118E06D1CC0F84055102001F040F8DF
:1017D0003868D0F8040540450AD10CE000EB8400DD
:1017E0006D1CC0F840553868D0F80405884202D016
:1017F0000D20BDE8F09F01223146384600F002F886
:101800000020F6E70368C3F84413002A02D00068FA
:10181000C0F80413704700002DE9F0470E46324926
:10182000804601EB5001C007097801D00F0901E0A3
:1018300001F00F07424601200021FEF704FEDFF809
:10184000AC9004460D46052F4BD2DFE807F0031499
:1018500019262A00002E44D00121404601F0BAFA90
:101860000020FFF70DFB4846D0E904120C43154356
:10187000C9E9044530E00EB1022114E0002112E074
:101880004EB10321404601F0A5FA4046BDE8F047BD
:10189000012101F07BBE012105E0002E21D10421B0
:1018A00001E02EB103214046BDE8F04701F092BAB5
:1018B0000021404601F08EFA0021404601F066FE0C
:1018C0000020FFF7DDFA4A46E043D2E9043418402D
:1018D00024EA0501C9E90401BDE8F0470020FFF74B
:1018E000D1BABDE8F087000088020020480000203F
:1018F00010B5006842581AB100F079FF012010BD00
:10190000002010BD10B50B48FFF781FE094A083AC8
:10191000D2E90434C018D2E9063244F10001C31AF6
:1019200071EB020204D24FF08072801841F1000185
:1019300010BD00006800002010B5C0B2FFF768FDC0
:101940000446007801F046F801466078012801D08D
:10195000012000E0002090EA010F08D00449D1E9FD
:101960000401084303D1BDE8104001F00BBC10BDD9
:10197000480000202DE9FC5F0E008346DDE90C479E
:10198000C6F1000098469246814600D408460125DB
:1019900003E000BF90FBFAF06D1C5045FADAA84551
:1019A00000D9454624B1002E01DB780700D5641E1E
:1019B000B80702D5B8F1000F0AD0F80708D13CB13A
:1019C000A54205D220215846641EFFF7FFFCF6E72A
:1019D000002E02DA4E462D2102E0780703D52B2196
:1019E0005846FFF7F3FC07F0030002280BD1B8F1CB
:1019F000000F08D13CB1A54205D230215846641EE3
:101A0000FFF7E4FCF6E7CDE900474346524631468E
:101A1000584601F061FDBDE8FC9F024600201268B7
:101A2000530713D502F00300012802D002280CD17D
:101A300005E0C2F383100B68801C184404E0022305
:101A4000086803EB925210440860012070470000C0
:101A50000A4810B5807860B1002401E0022C06D05D
:101A60002046FFF75FFA641C042CF7D310BD032453
:101A7000F6E7BDE81040FFF775BA0000300000201F
:101A800003480179C90702D00078FFF777BB704798
:101A9000300000202DE9FF410026234800F046F9E0
:101AA0002148001F074600F041F9204C6068009073
:101AB000A56800E000986946284004EB80000C30DF
:101AC000FFF7ABFF0028F5D101AA009901EA050351
:101AD00004EB8303491CDB6842F82030401C009172
:101AE0000228F2D3019800F0030001280BD002284D
:101AF00010D10198032101EB90500099BDF80A60C4
:101B000001EB900005E00198BDF80A60C0F3831076
:101B100008440090384600F006F908B1009860606B
:101B200004B03046BDE8F081B008002098040020E1
:101B3000FFF7E0FCFFF758F908B1FFF737F94FF46A
:101B40008041002000F030FD08B1FFF72FF900F0D0
:101B500091FB13490320FFF7C7FA08B1FFF726F9F5
:101B600010481149401AC108032000EB0140044607
:101B70000EA100F0A5FC01F08BF9642001F0A4FC9B
:101B800008B1FFF713F9204611A100F099FC00BF3E
:101B900000F07EFB0028FBD120BF40BF20BFF7E74D
:101BA0008110000004380000C437000052616469ED
:101BB0006F207472616E736D6974746572206578DC
:101BC000616D706C6520737461727465642E0000C1
:101BD0005374617274696E672073796E63206265F5
:101BE00061636F6E207472616E736D697373696F78
:101BF0006E210D0A000000002DE9F047C5881E1D6A
:101C0000B6FBF5F78946B6FBF5F1044605FB176C04
:101C1000407916686843DDF820A0F718001F874256
:101C200000D9C61A166001E02468491E0029FBD1BC
:101C3000A5EB0C078846B74216D818E004EB0C0059
:101C4000001D09EB0803BAF1000F3A4602D0014625
:101C5000184600E01946FEF709FC2468F61B4FF011
:101C6000000CB844B54201D9374600E02F46002E9B
:101C7000E4D1BDE8F087000030B5024651B100F074
:101C8000B1FC0021074C08E034F821301568AB4264
:101C900002D11160002030BD491C8142F4D30520DF
:101CA00030BD00000000000010B531B1B2FBF3F40C
:101CB00003FB14241CB1092010BD0E2010BD0160CF
:101CC0000021416081608281C381084610BD70B5EA
:101CD0000C460546FEF79EFA002802D021882868A7
:101CE000084470BD10B50A8849888A4203D1FEF7BE
:101CF000D3FA012010BD002010BD70B50C4605467A
:101D0000FEF7ADFA002802D061882868084470BD4B
:101D100010B50A8849888A4203D1FEF797FA012054
:101D200010BD002010BD002100F009B8012100F015
:101D300010B808B56A46FEF704FB009808BD08B560
:101D40006A46FEF7E4FA08BD08B56A46FEF7C6FA29
:101D500008BD08B56A46FEF7CDFA009808BD08B57B
:101D60006A46FEF7FBFA009808BD70B504460025E8
:101D70002846FFF785F821686268086890420ED906
:101D8000401E08600178238AE26801FB0325227A5D
:101D90002168101AC0B20A79824200D2087100206C
:101DA000FFF770F8284670BD70B505460C46002058
:101DB000FFF766F8E868298A201AB0FBF1F12A6873
:101DC0001068431C13600170BDE870400020FFF7ED
:101DD00059B810B530B1017A42680368891AC9B29E
:101DE0001A6006E00E2010BD03681A68541C1C60BF
:101DF0001170491EC9B2F7D200680021017108466E
:101E000010BDC20800F007030120895C984008401B
:101E1000704710B5C20800F00703885C01249C409D
:101E20002043885410BD0FB408B50399002904D08D
:101E300004AA00926A4600F00FF801B05DF814FBA6
:101E400010B582680446002A05D0D4E9040321684D
:101E500098470020A06010BD2DE9FC4791460C007A
:101E6000804676D014F8011B39B125290ED04046A2
:101E7000FFF7ACFA20780028F4D198F80C0000287D
:101E800067D04046BDE8FC47FFF7DABF00200122DB
:101E900021782B291BD02D2902D0302908D102E02E
:101EA00040F0010001E040F00200641C002AEFD184
:101EB00000252A290ED02178A1F130020A2A11D258
:101EC00005EB850201EB4205641C303DF1E740F073
:101ED0000400EAE7D9F800100B1DC9F800300968C2
:101EE000641C0D44217800232E290BD114F8011F06
:101EF000A1F130020A2A05D203EB830201EB42036F
:101F0000303BF3E76C290DD068290BD0692921D02B
:101F10000BDC252918D0582931D063290ED064292B
:101F200015D117E014F8011FECE7702969D0732967
:101F300032D075291BD0782909D120E0D9F80000CA
:101F4000011DC9F8001001784046FFF73FFA641CF4
:101F500090E76CE0D9F800100A1DC9F80020096864
:101F6000CDE900500A224046FFF704FDEFE7D9F81B
:101F700000100A1DC9F8002009680A2206E0D9F8F5
:101F800000100A1DC9F8002009681022CDE9005090
:101F9000404601F0A1FADAE7D9F8001000270A1D3F
:101FA000C9F800200E68C00705D112E04046761C33
:101FB0007F1CFFF70BFA31780029F7D104E02021CC
:101FC00040466D1EFFF702FABD42C0D9002DF6D182
:101FD000BDE74EB13046FEF76DFA074604E020211A
:101FE00040466D1EFFF7F2F9BD4206D9002DF6D12D
:101FF00003E04046761CFFF7E9F931780029F8D173
:10200000A5E7D9F80000011DC9F8001005683021C6
:102010004046FFF7DBF978214046FFF7D7F9082063
:102020000021CDE90001034610222946B0E7BDE8B2
:10203000FC8770B541EA4201DDE904564FF0A04447
:1020400041EA830141EA052104EB800041EA0641AF
:10205000C0F8001770BD70B541EA4201DDE90456D1
:102060004FF0A04441EA830141EA052104EB8000DE
:1020700041EA0641C0F8001770BD4FF0A04202EBE4
:102080008000D0F8002722F44032C0F80027D0F8B2
:10209000002742EA0141C0F80017704701224FF0C3
:1020A000A043824011B1C3F808257047C3F80C253E
:1020B0007047000018B5084B6C4601441B6800933C
:1020C00006E000BF54F82030D3F81035401C08C299
:1020D0008142F7D818BD0000E0350000034908B57B
:1020E0000844002101600068009008BD00600040C5
:1020F00002494058012800D000207047006000408D
:1021000030B5154A01460020D2F8104423460AE0B3
:10211000DB681D79854205D1401C0A28F6DB4FF0AB
:10212000FF3030BD1B68002BF2D1431CF9D0CB68C7
:102130001871D2F8103443B1DB68CC681B68236097
:10214000D2F81024D268116030BDC2F81014C968EA
:1021500000220A6030BD0000980400207047FEF79E
:102160000DBB704708B5034A00924023024A00F0B5
:1021700005F808BD792D000000030020F0B595B0EA
:102180001C4615460F4608461A9E00F0FDFA182117
:1021900009A8FEF784F90E96CDE909540023082218
:1021A00003A9384600F005FB05980690BDF810001D
:1021B000ADF81C00BDF81200ADF81E0000208DF82F
:1021C00021000398082600F00300012802D002280D
:1021D00018D032E003983346850AC0F3C2008DF868
:1021E000200003980FA9C0F38314A200384600F022
:1021F000E0FA09A8009006AB22460FA9284600F095
:102200001FFA1AE00398840DC0F3C2008DF8200075
:10221000082C01D2254600E0082533462A460FA99E
:10222000384600F0C6FA2E44641B09AB06AA2946BC
:102230000FA800F061F9002CEAD1384600F0AAFAA4
:1022400015B0F0BD0A4A012902EBC00007D00229EF
:1022500007D0032907D0042907D0002070470220A7
:10226000704704207047007970474079704700003C
:10227000C437000010B5FFF772FF04210348FFF7D1
:102280003FFF02490120C968487110BDB437000002
:102290002DE9F0478CB0FFF7B1F818B100200CB071
:1022A000BDE8F0877D4C0020C4F81804BFF34F8FC1
:1022B00060680290A5684FF00008284004EB800099
:1022C0000CE000BFD4F8180470B92168029881426C
:1022D00001D86160E2E7284004EB80000C3002A9DD
:1022E000FFF79BFB0028EDD1002003AA029901EA29
:1022F000050304EB8303491CDB6842F82030401CD3
:1023000002910228F2D3039800F00300022802D0C1
:1023100001284DD0A7E003985022810D8946B2EBE9
:10232000905F00D850210E4666F39F50039008310D
:102330005B4800F0E0F9070078D000F025FA43464A
:10234000082203A9384600F03CFA029908F1080A6D
:102350002940681A8000001D864222D94F4D0C3555
:1023600030B1C2B204EB8101301A90460C3104E066
:102370002946F2B2002590462846C6B25346384652
:1023800000F01FFA0AEB080325B132462946384609
:1023900000F017FA029909F1030001EB9000029096
:1023A0003BE004EB81015346324638460C31EFE7FF
:1023B0000398C0F38310062800D30620039960F326
:1023C0008911C1F38310801C03918100344800F00F
:1023D00092F9070047D000F0D7F94346082203A935
:1023E000384600F0EEF908F1080800260FE00298E0
:1023F000434600EA0501401C04EB810102900422DF
:1024000038460C3100F0DDF908F10408761C039819
:10241000C0F38310B042EAD847B1D4F81054D4F8CE
:10242000180478B1384600F0B5F931E01BE0E868EF
:102430004079012804D12A68284639461268904715
:10244000E8680568002DF2D1384600F0A3F90020B5
:10245000FEF716FDD4F8180408B902986060002051
:10246000FEF710FD14E0D4F8104405E02168204682
:1024700089688847E0680468002CF7D109480A4950
:10248000401AC008022101EB004008A100F018F832
:10249000FEF7B4FF80F0010001E70000980400207F
:1024A0002038000004380000C43700004261636B2C
:1024B000656E647320666C75736865640000000067
:1024C00000231A4600F09EBC08B5012300926A461C
:1024D00000F098FC08BD1CB5CDE9002302236A4634
:1024E00000F090FC1CBD3EB5069C8DE81C0003234B
:1024F0006A4600F087FC3EBD2DE9F0470E46804657
:102500001C469246082940D894F80C90002020736D
:102510001946104600F0DEFA0025B54206D218F83A
:1025200005201BA12046FFF77EFC03E01AA12046F0
:10253000FFF779FC6D1C082DEFD318A12046FFF79B
:1025400072FC0025B54212D218F805707E2F08D80B
:10255000FDF788FF0068C05D10F03E0F01D03A46DD
:1025600000E02E220EA12046FFF75DFC03E00DA146
:102570002046FFF758FC6D1C082DE3D301222146AD
:10258000504600F089FA84F80C90BDE8F08700000E
:102590002025303278000000202020007C00000040
:1025A00025630000200000000B4810B5FF2181606A
:1025B000002101604160C0F81814C0F8141480F8BC
:1025C0002014064800F0E4F8002803D1044800F085
:1025D00000F9002010BD0000980400202038000001
:1025E0003836000002480349401AC008704700000E
:1025F0000C380000C437000013B56846FFF73CFBF9
:1026000008B100201CBD0248009950F831001CBDE3
:10261000C437000070B509480125D0F8104480F88F
:10262000205407E0E06845712168204649688847E2
:10263000E0680468002CF5D170BD0000980400200B
:102640002DE9FF4781460C9D00200C462F7B287307
:10265000984616462946184600F03CFA072E42D204
:10266000DFE806F004090F161F2A360049462846FF
:10267000FFF7D9FB37E0494628462268FFF7D3FB2E
:1026800031E0D4E9002349462846FFF7CCFB2AE095
:10269000A0680090D4E9002349462846FFF7C3FB11
:1026A00021E0D4E90201CDE90001D4E90023494643
:1026B0002846FFF7B8FB16E004F1080007C88DE8CC
:1026C0000700D4E9002349462846FFF7ACFB0AE09F
:1026D00004F108000FC88DE80F00D4E90023494633
:1026E0002846FFF7A0FB00222946404600F0D4F917
:1026F0002F73BDE8FF872DE9F041058A80462D1F25
:102700004819C01CB0FBF5F0C6B24046FFF72DFBE0
:10271000041E19D00020207101206071E58000277F
:102720002546761EC4F800800BE04046FFF71DFBEF
:1027300060B16179491C6171286005467F1CC0F851
:102740000080B742F1D32046BDE8F081204600F07A
:1027500002F80020F8E72DE9F041457901466B1EAB
:10276000002201E00968521C9A42FBD30F6801461F
:10277000002605E038460C68FFF716FB2146761C5C
:10278000AE42F7D3BDE8F0810121001DFFF7D1BAB9
:10279000FFF71FBB10B504460121001DFFF7DFFA4C
:1027A00010F0FF0F04D12046BDE81040FFF7D3BF63
:1027B00010BD1CB501920122009201AAFFF71CFA7C
:1027C0001CBD1CB501920022009201AAFFF714FA69
:1027D0001CBD82680021916082681161826851612C
:1027E0008268D1608268516080680160704708B576
:1027F000002242504058009008BD70B50D46064674
:10280000446804E0B2682946904718B124682068FB
:102810000028F7D120682860256070BD40680068F6
:10282000704741680868002801D002680A60704754
:1028300002460020526806E08B4203D1086810600F
:10284000012070471A461368002BF5D1704700002D
:10285000002802D001498001084770470136000076
:102860002DE9F0418846054600F0FEF8234E002889
:1028700028461AD0FEF736FE304490F8480080090A
:10288000032802D001280ED007E04FF0A040D0F876
:102890001005E84010F0010F05D003212846BDE8DF
:1028A000F041FFF7EABB0221F8E700F0E9F8002861
:1028B00022D02846FEF716FE04464FF4807000EB47
:1028C00084000F4F81B207EB8400D0F8102542F04E
:1028D0000102C0F810250846FFF700FCB8F1000F10
:1028E0000AD02846FEF7FEFD56F82000002803D047
:1028F0000120A040C7F80403BDE8F08108020020D1
:10290000006000402DE9FC41DFF8BC80044608EB84
:102910000400002790F930001346C0170E46401CF3
:1029200001D008274CE0B0781946C0F34002204699
:10293000FEF7B4FD0546401C41D0B078410719D4DC
:10294000C0070AD04FF0A04000EB8401D1F8000787
:1029500020F00200C1F8000707E00021737820464C
:1029600000910A460191FFF776FB17492046543142
:10297000FFF74FFAB078800718D51448317800EB8C
:102980008500D0F81025124B1A40C0F810254FF4DE
:10299000F8524FF4403302EA042203EA01410A43A9
:1029A000D0F810150A43C0F8102509E008EB05001F
:1029B000327810F8481F41EA8211017000E00427C4
:1029C0003846BDE8FC81000008020020006000409D
:1029D000FFE0FCFF4FF0A041D1F81015C14011F00D
:1029E000010000D00120704770B5174D95F85800D0
:1029F00008B1082070BD0020411E2A18401CC0B23A
:102A000082F830102028F8D300242046FEF738FD45
:102A1000641CE4B20C2CF8D300240C49C0206C6573
:102A200081F8000401264020891FC1F800014FF4FD
:102A3000BE70FFF753FB0649F007C1F8040385F8A1
:102A40005860204670BD00000802002006E000E04B
:102A500000600040034890F85800002800D0012092
:102A600070470000080200200449084490F9300033
:102A7000082801DB01207047002070470802002071
:102A80000449084490F93000082801D20120704719
:102A9000002070470802002010B50C46017A052975
:102AA00008D0407A38B1084808A102682046FFF7EC
:102AB000BAF900E01AB106A12046FFF7B4F92046A2
:102AC000BDE81040FFF7BCB9CC0000202573000022
:102AD0000D0A000038B5C3880D46044633B114A072
:102AE000009015A216A12846FFF79DF9217A052925
:102AF0001CD0607A48B1A088FFF7A4FB164951F8B2
:102B0000202016A12846FFF78EF9A0880021FFF7A4
:102B100073FD03461049207A143951F8202001B082
:102B20002846BDE830400EA1FFF77DB938BD000052
:102B30001B5B306D000000001B5B313B33316D00CF
:102B400025734C6F67732064726F70706564202802
:102B500025642925730D0A00CC0000202573000090
:102B60003C25733E2025733A200000002DE9F041FA
:102B70002949002008600125091D0D6027490D60C5
:102B80002549032628310E60234A6FF07F413032F9
:102B90001160121F224911601F49083108601E4A46
:102BA00020490C321160204C1B4A183261781160A8
:102BB000D4F80210627909BA21F0FF011143164AD4
:102BC00010321160144920310860081D0560124957
:102BD0002078091F0860154FA81EC7F808030820B1
:102BE000C7F80403012007F52377FDF752FD47F8E6
:102BF0008C6CE0684565D0F854050D49C8610D48F6
:102C00000D4ACB69801AC00806EB00408A78BDE8FF
:102C1000F0410AA1FFF75FBC0C15004050160040C0
:102C20002110010009090401780100200010004072
:102C300004000020C4370000C4370000743D256440
:102C40000A00000070B50546FEF761FD134C40B167
:102C5000D4E904024FF08071411842F10000C4E948
:102C6000041000212846FEF7A3FC30B1606820B1B3
:102C7000606800F003FA0020606001212846FEF73A
:102C800097FC18B1FEF73EFEC4E90601284600F0A5
:102C900021FA2846BDE8704000F034B860000020FA
:102CA00070B5054600200C460870FEF72BFED5E9EE
:102CB0000223101A63EB010300263146361A9941AC
:102CC00012DAB0F5350F03D3FEF77CF80B49421842
:102CD0004FF4960300210A48FEF725FD10B10D2898
:102CE00006D009E0012070BD00210548FEF756FC22
:102CF000284600F0C3F92070002070BDFFFFB4002B
:102D000068000020F8B51A4C074600261948FFF75E
:102D100085FDD0B1616871B1D0E902106268D2E975
:102D20000232C91A904120D26068007F18B16168F0
:102D30001048FFF762FD00F047F805466946FFF7C7
:102D4000AFFF98B1606840B10AE0606800280CD11C
:102D50003846BDE8F840FEF7E2BC3846FEF7DBFC3B
:102D600065609DF800000028D0D1F8BD6660CDE711
:102D700060000020F43500002DE9F0411400884681
:102D800018D000250E4F032608EB0501224600202F
:102D9000FDF7F6FC0544241A40B93878002809D01C
:102DA00008494FF47A408847761E05D001203870D4
:102DB000002CE9D1BDE8F08100203870FAE700006E
:102DC00094000020313600000148FFF72ABD0000C2
:102DD000F4350000C207002A03D000BF4FF00F02F5
:102DE00001E04FF0F00201D04FEA0111044B03EB78
:102DF0005003187800EA020040EA0100187070479A
:102E0000880200202DE9F84F204D9246894606465B
:102E10009846012269461846AF68FEF793FA58B300
:102E2000009800210446801C09E000BF00EA070367
:102E30005AF8212005EB8303401C491CDA60414508
:102E4000F4D34FEA164AFEF79FFB4AEA0041601CA2
:102E5000384005EB80003C4005EB8402C160D0683F
:102E600066F3C50068F3891069F39F2020F0030022
:102E7000401C20F00400D06095F8200402E000BF60
:102E8000FFF706FA0028FBD1BDE8F88F9804002070
:102E900010B51FA088B0016800791F4A03921F4A2D
:102EA00004921F4A05921F4A069217228DF81C2091
:102EB00000228DF80B2001228DF8062002228DF8C9
:102EC000072003248DF8084004228DF809200522EC
:102ED0008DF80A2050228DF80020CDF801108DF8D1
:102EE0000500684600F0D0FA08B1FDF75FFF00F07A
:102EF00039FA08B1FDF75AFF0B480C49401AC008CF
:102F000004EB00400AA1FFF7DBFA08B010BD000097
:102F1000DEADBEEF1900000000A0014000A000409F
:102F2000001001400070014004380000C437000068
:102F300053746172746564206C697374656E696E34
:102F40006720666F7220626561636F6E732E0D0A73
:102F5000000000002DE9F8430446D0F80580D0F8C1
:102F600001701348C168D1F84415124D69610069B8
:102F7000D0F84405A86110481049AB69401AC1084F
:102F8000032000EB014006466A690DA1FFF7A3FA92
:102F900000972278304643460FA1FFF7A4FA214656
:102FA00014482C62FEF700FF0120BDE8F883000002
:102FB0007801002004000020C4370000C43700005E
:102FC0007265636F72642C6375723D25642C636F48
:102FD000756E743D25640A00706565723D25642C2C
:102FE00074696D653D25642C636F756E743D256451
:102FF0000A0000000C3800001B4810B5C26801210F
:103000005160C268D160C0680022C0F81025032357
:10301000C0F80835C0F80425C0F84021C0F84821A0
:10302000124BC0F840358A1EC0F84425104CC0F839
:103030004845C0F84C250F4CA04202D00E4CA0428F
:1030400003D1C0F85035C0F85425C0F80012016013
:103050001A20FDF713FB03211A20FDF725FBBDE81D
:1030600010401A20FDF715BB7801002080380100C0
:103070004032010000A0014000B0014070B504469C
:10308000124800250078F8B1F4B1207FE0B1FEF7D6
:1030900039FCD4E90223801A994110D32069002613
:1030A00000B92677D4E905108847206960B1217FEF
:1030B00051B1D4E9022110187141C4E9020121463D
:1030C0000348FFF79AFB0125284670BD60000020E9
:1030D000F4350000F8B51B4C69462068FEF70DFE7C
:1030E00000260127184D29E0017821B101290CD0D3
:1030F00002291BD114E041680A7FBAB90F774168F1
:1031000010480830FFF779FB10E041686868814299
:1031100001D16E600AE00B480830FFF789FB05E03B
:10312000FFF752FE08B10677FAE72F70694620686C
:10313000FEF7D8FD69462068FEF7DFFD0028D3D1F1
:10314000F8BD0000EC35000060000020F8B50B4C25
:103150000D46064669462068FEF7B9FD58B106706F
:10316000456069462068FEF7D3FD10B10448FEF7BC
:10317000BDFA0020F8BD0420F8BD0000EC350000C9
:103180006800002003488068410803480022406826
:10319000FDF758BE48000020E43500002DE9F04757
:1031A0003E488178491C8170C188491CC180817862
:1031B000C278DFF8EC90002601253A4C914253D1B9
:1031C0000178E9B380460079012808D1C4F810617C
:1031D000256100E000BFD4F810010028FAD0324881
:1031E000FEF7C3FD070001D1FDF7E0FDC9F800704F
:1031F000C4F80C61C4F81061256000E000BFD4F889
:1032000000010028FAD0D8F8100041462748C268CB
:10321000D2F8442502F5E072C8F810200269D2F80D
:10322000442598F801303B70D8F81030C7F80530C5
:10323000C7F80120022288F80420C068456500E034
:1032400012E0D0F85405C86119481A4ACB69801AAF
:10325000C008032202EB00408A7817A1FFF73BF970
:10326000BDE8F047FEF7ECB880460079012804D1AC
:103270000B484C30006803280DD00B48FEF775FD55
:10328000070001D1FDF792FDC9F80070C4F80C6188
:10329000656088F80450BDE8F08700000400002055
:1032A00004150040001000400C3800007801002098
:1032B000C4370000C4370000703D25642C73656E70
:1032C000643D25640A00000070B50F4801680F488E
:1032D000FEF76AFD0E4C00252571A560A078C82870
:1032E0000CD1A5702820E0700A480B49401AC0088C
:1032F000032101EB004009A1FFF7E2F8E088B0F5F7
:10330000487F00D1E58070BD041500400C380000F6
:1033100004000020C4370000C4370000656E640A52
:10332000000000000D480121026951600269D1606E
:1033300000690022C0F81025C0F804150322C0F867
:103340000825C822C0F84025054AD268C0F848259B
:103350000422C0F8002201607047000078010020BC
:10336000040000202DE9F0413A4C3B48667AE168C0
:1033700000EBC60201F5A073C2F81035236903F112
:103380000805C2F8145500EB8602A569C2F8105969
:10339000324F012202FA06F63E60E67901F5A47C7E
:1033A00000EBC60ECEF810C52D1DCEF8145500EB5F
:1033B000860C0025CCF8105902FA06F63E60A67A73
:1033C000DFF89CE000EBC60CCCF810E54431CCF8FB
:1033D000141500EB860C4433CCF8103902FA06F6CB
:1033E0003E60267A0EF1040E00EBC60CCCF810E518
:1033F000CCF8141500EB8600C0F81039B2403A60E2
:10340000FFF790FFFFF7F8FDFFF7B0FB94F91C0002
:10341000FDF734F994F91C000721FDF745F994F9FB
:103420001C00FDF736F9A069691EC0F808130321D6
:10343000C0F804130B48057005710B480B4A801A3D
:10344000C00801EB00400AA1FFF73AF80020BDE8F0
:10345000F08100007801002000F0014004F50140F7
:103460000011004004000020C4370000C4370000F1
:1034700073796E6320696E69742066696E6973681A
:1034800065642E0A0000000010B5014620220B489A
:10349000FCF7ECFF0948C16831B1416921B180698D
:1034A00010B10749884201D0072010BD0548FEF73A
:1034B00090FC08B1FDF77AFC002010BD78010020D7
:1034C000007001400C380000024901200870002003
:1034D00070470000040000202DE9F05F8346DDE91D
:1034E0000A4A994690460D460846012703E000BF68
:1034F000B0FBF8F07F1C4045FAD2B94500D94F46E1
:103500005FEACA7012D18CB15FEA8A7002D5B9F154
:10351000000F01D0202607E0302605E0314658464E
:10352000641EFDF753FF0CB1A742F7D35FF001060D
:10353000B9F1010F02D9A9F1010903E0B5FBF6F0D9
:10354000404502D306FB08F6F2E7DFF83C9000BFE7
:10355000B5FBF6F000FB165519F800105846FDF7BC
:1035600035FFB6FBF8F6002EF2D15FEACA7009D03B
:10357000002C07D0A74205D220215846641EFDF733
:1035800025FFF5E7BDE8F09F0636000070B50C4654
:103590000546FDF73DFF002807D04268002A04D009
:1035A00021462846BDE87040104770BD1112131423
:1035B0000D0E0F1098010020B8010020E801002036
:1035C0000D000300AD0F00000E000300AD0F000062
:1035D0000F000300AD0F000010000300AD0F00004E
:1035E0000000005003000000680200209802002044
:1035F00001000600000000008000002029150000E6
:103600000338FDD8704730313233343536373839E6
:10361000414243444546000065210000632100000B
:103620005D2100000000000000000000000000001C
:103630000338FDD870470000000400207F00000020
:103640008004002000404040404040404040414114
:103650004141414040404040404040404040404067
:103660004040404040050202020202020202020201
:1036700002020202022020202020202020202002FE
:10368000020202020202909090909090101010108E
:10369000101010101010101010101010101010102A
:1036A00002020202020288888888888808080808BE
:1036B000080808080808080808080808080808088A
:1036C0000202020240000000453600007761726E7F
:1036D000696E670064656275670000001B5B313BC3
:1036E00033306D001B5B306D000000001B5B313B15
:1036F00033316D001B5B313B33326D001B5B313B63
:1037000033336D001B5B313B33346D001B5B313B4E
:1037100033356D001B5B313B33366D001B5B313B3A
:1037200033376D00696E666F000000006572726F5E
:103730007200000074696D655F73796E630000004C
:103740004750494F54450000505253005541525480
:103750000000000055415254450000006170705F48
:10376000627574746F6E00006170705F74696D656E
:1037700072000000736F72746C6973740000000053
:103780007274745F6C6F675F6261636B656E640017
:10379000617070003438000000000020F400000068
:1037A0005E0C000028390000F4000020542A0000BC
:1037B0006E0C00001836000000000000803700008A
:1037C0009800002034370000000004044037000057
:1037D0000000000048370000000000004C370000E7
:1037E0000000000054370000000000005C370000BB
:1037F000000000006837000000000000743700007F
:1038000000000000903700000000030328000020A3
:10381000F4000020FE000020000100200C00000049
:10382000A8000020A0000020A800002040030020E5
:103830001800000000000000000400280000000044
:1038400000000000A0860100000000000000000051
:103850000000000000000000000000000000000068
:103860000000000000000000000000000000000058
:103870000000000000000000000000000000000048
:103880000000000000000000000000000000000038
:1038900000000000000000000000000000100140D7
:1038A0001100040000000000000000000000000003
:1038B0000000000000000000000000000000000008
:1038C00000000000000000000000000000000000F8
:1038D000FF000000000000000000000000000000E9
:1038E00000000000000000000000000000000000D8
:1038F0002C370000CC36000024370000D4360000FE
:10390000E4360000DC360000EC360000F43600003F
:10391000FC360000043700000C37000014370000AC
:083920001C3700000090D003E9
:0400000500000201F4
:00000001FF
