:020000022000DC
:1060000000000120756302005D6302005F6302000F
:106010006163020063630200656302000000000028
:1060200000000000000000000000000067630200A4
:1060300069630200000000006B6302006D630200F0
:10604000E9BA0200D1FA020011C802006F6302002F
:106050006F6302006F63020031C502006F630200CC
:106060006F6302006F6302006F6302006F630200E0
:106070006F6302006F6302006F6302006F630200D0
:106080006F630200919302006F6302006F6302006E
:106090006F6302006F630200154D03009D0403004F
:1060A0006F6302006F6302006F6302006F630200A0
:1060B0006F6302006F630200000000000000000038
:1060C0006F6302006F6302006F6302006F63020080
:1060D0006F6302006F6302006F6302000000000044
:1060E00000000000000000000000000000000000B0
:1060F00000000000000000000000000000000000A0
:10610000000000000000000000000000000000008F
:10611000000000000000000000000000000000007F
:10612000000000000000000000000000000000006F
:10613000000000000000000000000000000000005F
:10614000000000000000000000000000000000004F
:10615000000000000000000000000000000000003F
:10616000000000000000000000000000000000002F
:10617000000000000000000000000000000000001F
:10618000000000000000000000000000000000000F
:1061900000000000000000000000000000000000FF
:1061A00000000000000000000000000000000000EF
:1061B00000000000000000000000000000000000DF
:1061C00000000000000000000000000000000000CF
:1061D00000000000000000000000000000000000BF
:1061E00000000000000000000000000000000000AF
:1061F000000000000000000000000000000000009F
:10620000354936480A1A02D0072291438D4634494F
:1062100034480A1A06D00722914381F309880222E2
:1062200082F3148830483149314A00F044F831484B
:106230003149324A00F03FF831483249324A00F0E1
:106240003AF832483249334A00F035F83248334997
:10625000334A00F030F833483349344A00F02BF821
:1062600033483449344A00F026F83448344900228F
:1062700000F02CF833483449002200F027F8334866
:106280003349091A082902DB002202604160314AC1
:1062900090471F481F49884205D00268043003B464
:1062A000904703BCF7E700208646EC46002000211B
:1062B000294A9047FEE7884207D0521A05D0037852
:1062C00001300B700131013AF9D17047884202D098
:1062D00002700130FAE770470000012000E0002062
:1062E0000000012000000120A0880300D82A00201F
:1062F000A82B0020D0630200D0630200806303005B
:10630000A0880300D82A0020D82A0020A86403000F
:10631000A8640300A8640300A8640300A864030041
:10632000A8640300A8640300A8640300A088030015
:1063300070890300A82B0020A82B0020A82B002088
:1063400074410020744100207441002074410020F9
:10635000746100209D63020011F90200FEE7FEE770
:10636000FEE7FEE7FEE7FEE7FEE7FEE7FEE7FEE705
:1063700000F002B8FFF7FCBF0F484FF00701884359
:1063800085460E4880470E48016841F4700101605F
:10639000BFF34F8FBFF36F8FFFF732BF09480A4932
:1063A0000A4A884207D0521A05D0037801300B7090
:1063B0000131013AF9D170470000012079A90200AA
:1063C00088ED00E0A8640300D82A0020D82A002025
:1063D00000B585B00190019B002B0AD0074B43F01C
:1063E00001030393019B9B010293039B029898472F
:1063F00000E000BF05B05DF804FB00BFC06403000F
:1064000000B583B00190019B002B0AD04FF47A7045
:10641000FFF7DEFF019B013B0193019B002BF5D1B0
:1064200000E000BF03B05DF804FB08B50BF058FDB9
:1064300000BF08BD00B589B0039002910192019B95
:10644000002B33D00023079303230693029A079B64
:106450001344019A194600200BF0F4FC0590079AAA
:10646000059B13440793019A059BD31A0193059B3F
:10647000002B13D10F4B1B7883F00103DBB2002BF1
:1064800013D10120FFF7BCFF069B013B0693069B3F
:10649000002B03D1074B00221A7007E0054B0122A5
:1064A0001A70019B002BD1D100E000BF00BF09B0E2
:1064B0005DF804FBA82B002000B585B00390029185
:1064C000054B00934023054A0299039800F012F807
:1064D00000BF05B05DF804FB35640200AC2B002062
:1064E00082B0019000BF02B0704782B0019000BF3F
:1064F00002B0704700B5A1B00590049103920293D9
:10650000049803F014FF039B1593029B169300233A
:10651000179300238DF8603000231993229B1A9360
:1065200000231F930FA91F9B0822049803F0D8FF94
:1065300008231F93119B1293BDF84030ADF84C30E7
:10654000BDF84230ADF84E3000238DF851309DF843
:106550003C3003F00303DBB2012B26D10F9BC3F3C6
:1065600095231D939DF83C30C3F3C203DBB28DF835
:106570005030BDF83C30C3F38313DBB21C931C9B3B
:106580009A0009A91F9B049803F0AAFF1C9B9B007B
:106590001F9A13441F9312AA09A915AB009313461F
:1065A0001C9A1D9800F01CFF2FE09DF83C3003F072
:1065B0000303DBB2022B28D1BDF83E30C3F38913AD
:1065C0009BB21E939DF83C30C3F3C203DBB28DF83F
:1065D00050301E9B082B28BF08231B9307A91F9B25
:1065E0001B9A049803F07CFF1F9A1B9B13441F9374
:1065F0001E9A1B9BD31A1E9315AB12AA07A81B99B0
:1066000000F090FF1E9B002BE3D1049803F09EFE48
:1066100000BF21B05DF804FB82B00190019BDB68F4
:1066200001225A7100BF02B07047000000B583B06C
:106630004FF0FF330193FFF7F8FE0421084800F004
:10664000EBFD0190019B002B03DA0649412008F085
:1066500007FC0348FFF7E0FF00BF03B05DF804FB51
:1066600098640300D864030000B583B001900091E2
:10667000019B1B681B6800990198984700BF03B0F5
:106680005DF804FB00B583B00190019B1B685B685B
:106690000198984700BF03B05DF804FB00B583B0D4
:1066A0000190019B1B689B680198984700BF03B04D
:1066B0005DF804FB82B001900B468DF80330019B1E
:1066C000DB689DF803201A7100BF02B0704782B0EA
:1066D0000190019BDB681B79184602B0704782B0BD
:1066E0000190019BDB6801225A7100BF02B0704724
:1066F00082B00190019BDB685B79184602B070475D
:1067000000B585B001900091154BFF229A60144BA3
:1067100000221A60124B00225A60114B0022C3F86B
:1067200018240F4B0022C3F814240D4B002283F8C9
:1067300020240C4803F060FD0390039B002B01D044
:10674000039B08E0084803F085FF084A084BD31A6A
:10675000DB0802930023184605B05DF804FB00BF78
:10676000542D0020E86303006C6503009864030067
:1067700010640300024A034BD31ADB081846704723
:10678000986403001064030000B587B001900B46C5
:106790008DF803309DF80330002B1FD0FFF7EAFF80
:1067A00004900023059313E0059B9B000E4A1344BD
:1067B0000393039B1B881A46019B1B689A4204D1D2
:1067C000019B059A1A60002309E0059B013305939C
:1067D000059A049B9A42E7D3052300E0002318465C
:1067E00007B05DF804FB00BFD82A002000B585B0D3
:1067F00001900B468DF803309DF8032001AB114644
:106800001846FFF7C1FF0346002B07D1019BDB00B1
:10681000054A13440393039B1B6800E000231846BA
:1068200005B05DF804FB00BF1064030084B0019064
:106830000B468DF80330019BDB00174A134402938B
:106840009DF80330013B032B1CD801A252F823F022
:106850006168020069680200716802007B680200DA
:1068600002238DF80F3011E004238DF80F300DE076
:10687000029B1B798DF80F3008E0029B5B798DF845
:106880000F3003E000238DF80F3000BF9DF80F306C
:10689000184604B0704700BF1064030084B0019034
:1068A000009100238DF80F30019B1B7803F0040347
:1068B000DBB2002B24D0019B1B78C3F30103DBB2B6
:1068C000012B02D0022B0CD017E0009B1B68019A11
:1068D0001288C2F38312D2B213449A1C009B1A602E
:1068E0000BE0009B1B68019A5288C2F3891292B296
:1068F00013449A1C009B1A6000BF01238DF80F30CF
:106900009DF80F30184604B07047000000B58BB0FA
:106910000023ADF826303E4802F020FF3D4802F04B
:106920001DFF3D4B5B6804933B4B9B680693049AA9
:10693000069B134002339B00374A134404330893E9
:1069400004AB19460898FFF7A9FF0346002B09D0AE
:10695000049A069B134002339B002F4A13440433CE
:106960000893EDE700BF0023079311E0049B5A1C36
:106970000492069A1340079A920001A90A442649F4
:1069800002339B000B445B681360079B0133079342
:10699000079B012BEAD99DF80430C3F30103DBB256
:1069A000012B10D0022B1CD1BDF80A30ADF82630D7
:1069B000BDF80630C3F389139BB203339A08049BD6
:1069C0001344049313E0BDF80A30ADF82630BDF847
:1069D0000430C3F38313DBB21A46049B13440493BD
:1069E00005E00E494FF4BF7008F03AFA00BF0948BD
:1069F00002F0C0FE0590059B002B02D0049B064AC6
:106A00005360BDF8263018460BB05DF804FB00BF9C
:106A10006C31002068310020542D00207C6503007B
:106A200000B585B00021074802F009FE0390039BE2
:106A30000293029B83F310030193019B184605B058
:106A40005DF804FB7031002000B589B0039002911D
:106A500001920093039B1B0C0793FFF7E1FF069045
:106A6000FFF788FE0246079B934204D3214940F278
:106A7000A31008F0F5F9069B1904009B5A1C0A9B09
:106A80001340079A0A431C4902339B000B445A6087
:106A9000009A0A9B134002339B00174A13440433A5
:106AA0000593039B03F00703D9B2059A137861F3AA
:106AB000C5031370019B03F00F03D9B2059A138825
:106AC00061F389131380029BC3F31501059A1368C0
:106AD00061F39F231360059A1378012161F3010389
:106AE0001370059A13786FF38203137000BF09B017
:106AF0005DF804FB7C650300542D002000B58DB0CB
:106B00000390029113468DF80730039B02330A93DA
:106B100001238DF8273000238DF81B300DF11B0366
:106B2000184602F021F8404B1A68029B1A603E4B4F
:106B30009A683D4B59683C4B1B68CB1A1344013390
:106B40000B9314E00121394802F0D8FDFFF7DEFE77
:106B500008900899354802F0D1FD334B9A68324BC2
:106B60005968314B1B68CB1A134401330B930A9AB3
:106B70000B9B9A42E6D89DF82730002B48D0002383
:106B800005939DF80730002B17D09DF81430012293
:106B900062F301038DF814309DF8143043F00403C0
:106BA0008DF81430039B03F00F03DAB2BDF81430F4
:106BB00062F38913ADF8143016E09DF81430022208
:106BC00062F301038DF814309DF8143043F0040390
:106BD0008DF81430039BC3F309039AB2BDF8163045
:106BE00062F38F13ADF816300F4B1A680E4B9B688B
:106BF000134002339B000C4A134404330793059A55
:106C0000079B1A60084B1A680A9B1344064A1360D4
:106C10009DF81B30184601F0BDFF9DF8273018463F
:106C20000DB05DF804FB00BF542D00207031002032
:106C300000B58BB005900491039202931F4B9B68A3
:106C4000079306AB012219460298FFF757FF034648
:106C5000002B24D0069B023309930023089311E0F4
:106C6000089B9B00039A1A44099B591C0991079998
:106C70000B401268114902339B000B445A60089B79
:106C800001330893089A029B9A42E9D3069A079B1C
:106C900000931346029A04990598FFF7D5FE074B17
:106CA00093F82034002B05D000BF00F0AFF8034666
:106CB000002BFAD100BF0BB05DF804FB542D00206F
:106CC00000B583B001900091002300220099019843
:106CD000FFF7AEFF00BF03B05DF804FB00B587B05F
:106CE000039002910192019B059305AA0123029949
:106CF0000398FFF79DFF00BF07B05DF804FB00B5E8
:106D000087B00390029101920093019B0493009B32
:106D1000059304AA022302990398FFF789FF00BF95
:106D200007B05DF804FB00B589B0039002910192B1
:106D30000093019B0593009B06930A9B079305AA6A
:106D4000032302990398FFF773FF00BF09B05DF8B2
:106D500004FB00B589B00390029101920093019B5E
:106D60000493009B05930A9B06930B9B079304AA2D
:106D7000042302990398FFF75BFF00BF09B05DF899
:106D800004FB00B58BB00390029101920093019B2C
:106D90000593009B06930C9B07930D9B08930E9BFA
:106DA000099305AA052302990398FFF741FF00BF45
:106DB0000BB05DF804FB00B58BB00390029101921B
:106DC0000093019B0493009B05930C9B06930D9BE2
:106DD00007930E9B08930F9B099304AA062302991D
:106DE0000398FFF725FF00BF0BB05DF804FB000020
:106DF000054B5A68044B1B689A420CBF01230023C1
:106E0000DBB21846704700BF542D002000B599B082
:106E1000FFF7EEFF0346002B01D00023BCE19A4BA5
:106E20000022C3F81824BFF34F8F974B5B6804937D
:106E3000954B9B681093049A109B134002339B0060
:106E4000914A13440433119300231793002316939C
:106E500000230F9304AB19461198FFF71FFD03465B
:106E6000002B19D0884BD3F81834002B14D1864B43
:106E70001A68049B9A4205D8834B1B68824A536068
:106E8000002389E1049A109B134002339B007E4A41
:106E9000134404331193DDE70023159311E0049BA1
:106EA0005A1C0492109A1340159A920001A90A44A0
:106EB000754902339B000B445B681360159B0133DB
:106EC0001593159B012BEAD99DF8043003F00303B9
:106ED000DBB2022B40F09C80BDF80630C3F389136F
:106EE0009BB20E93BDF80630C3F389139BB2502BAF
:106EF00028BF50239BB20D930D9BC3F309039AB295
:106F0000BDF8063062F38F13ADF806300D9B0833E1
:106F10000C939DF80430C3F3C203DBB20F930C99BA
:106F20005A4803F074F91790179B002B00F0D0809B
:106F3000179803F0FCF901A9169B0822179803F093
:106F4000B1FA169B08331693049BDA43109B134047
:106F500001339B000B930D9A0B9B9A4242D90B9BDA
:106F6000002B08D0049A109B134002339B00464A22
:106F70001344043300E0464B0A930B9B002B02D0D2
:106F80000B9BDBB201E00D9BDBB28DF827300B9B36
:106F9000002B01D03E4B00E0002308930B9B002BFD
:106FA00006D00D9BDAB20B9BDBB2D31ADBB200E04A
:106FB00000238DF81F309DF82720169B0A991798FB
:106FC00003F070FA9DF82730169A13441693089B25
:106FD000002B16D09DF81F20169B0899179803F0D8
:106FE00061FA0EE0049A109B134002339B00264A7C
:106FF000134404330693169B0D9A0699179803F0D1
:1070000051FA0E9B03339A08049B134404935FE0E8
:107010009DF8043003F00303DBB2012B58D1BDF817
:107020000430C3F38313DBB2062B28BF0623DAB286
:10703000BDF8043062F38913ADF80430BDF80430B4
:10704000C3F38313DBB2023305939DF80430C3F31B
:10705000C203DBB20F93059B9B0019460B4803F05C
:10706000D6F81790179B002B32D0179803F05FF9D2
:1070700001A9169B0822179803F014FA169B0833EF
:107080001693002315931AE0542D0020E8630300A3
:10709000602D0020049B5A1C0492109A1340023366
:1070A0009B003F4A1344191D169B0422179803F0B6
:1070B000F9F9169B04331693159B01331593BDF80C
:1070C0000430C3F38313DBB21A46159B9342E1D31A
:1070D000179B002B40D0324BD3F810341493304B15
:1070E000D3F81834002B1BD0179803F02FF94DE07C
:1070F00000238DF84F301498FFF7FAFA0346002B5F
:1071000002D001238DF84F309DF84F30002B03D073
:1071100017991498FFF7A8FA149BDB681B6814935F
:10712000149B002BE4D1179803F010F900238DF87D
:1071300003300DF10303184601F016FD184BD3F888
:107140001834002B02D1049B154A53609DF803307C
:10715000184601F01FFD19E0114BD3F810341293BB
:1071600006E01298FFF79AFA129BDB681B681293ED
:10717000129B002BF5D10B4A0B4BD31ADB081B04D7
:1071800043F0020309491846FFF79AFDFFF730FE66
:10719000034683F00103DBB2184619B05DF804FB27
:1071A000542D0020386403001064030008660300B7
:1071B00000B585B00023039323E0164BD3F81034B9
:1071C000029301238DF807300FE00298FFF77FFA52
:1071D00003461A46039B934203D100238DF80730E0
:1071E00006E0029BDB681B680293029B002BECD13C
:1071F0009DF80730002B01D0039B07E0039B013370
:107200000393039B092BD8DD4FF0FF33184605B0DD
:107210005DF804FB542D002000B585B001900B46AD
:107220008DF80330FFF7C4FF0390039BB3F1FF3FDA
:1072300001D1039B22E0039BDBB219460198FFF7C3
:1072400039FA104BD3F81034002B08D10D4A019BAA
:10725000C2F81034019BDB6800221A600DE0094B74
:10726000D3F81034DA68019BDB6812681A60054BAA
:10727000D3F81034DB68019A1A60039B184605B0F6
:107280005DF804FB542D002000B583B00C4BD3F8FF
:10729000103401930A4B012283F8202409E001985D
:1072A000FFF71DFA0198FFF7EDF9019BDB681B68FA
:1072B0000193019B002BF2D100BF03B05DF804FBEA
:1072C000542D002082B00190009100BF02B07047A1
:1072D00010B584B003900291039BDB88002B0AD089
:1072E000039BDB881A461F4B009313461E4A1F4917
:1072F000029802F07BFB039B1B7A052B2ED0039B8D
:107300005B7A002B12D0039B9B881A46039B1B7A47
:1073100019461046FFF78AFA03461A46144B53F8EB
:1073200022301A461349029802F060FB039B1B6847
:1073300019460298FFF7C6FF039B1B7A1A460E4BAD
:1073400053F82240039B9B8800211846FFF74EFA12
:10735000034622460949029802F048FB00BF04B0E8
:1073600010BD00BF3C6603004C660300846603004A
:10737000F42A00209C660300E02A0020A066030097
:1073800000B585B00390029113468DF80730039B3A
:107390001B7A052B0FD0039B5B7A002B06D00D4B7D
:1073A0001B681A460C49029802F020FB0B49029810
:1073B00002F01CFB07E09DF80730002B03D00749C3
:1073C000029802F013FB029802F0EEFA00BF05B03B
:1073D0005DF804FBF42A00209C660300AC66030001
:1073E00030B58BB007900691059204930E9B1B7BE2
:1073F0008DF827300E9B00221A730E990498FFF720
:1074000067FF059B062B7FD801A252F823F000BF2F
:107410002D74020037740200477402005B7402008E
:1074200079740200A1740200D174020007990E98C9
:1074300002F0DCFA69E0069B1B681A4607990E9871
:1074400002F0D4FA61E0069B1A68069B04331B68BD
:1074500007990E9802F0CAFA57E0069B1A68069B35
:1074600004331968069B08331B6800930B46079981
:107470000E9802F0BBFA48E0069B1968069B04339D
:107480001868069B08331B68069A0C321268019232
:10749000009303460A4607990E9802F0A7FA34E0D3
:1074A000069B1868069B04331C68069B08331B6800
:1074B000069A0C32126806991031096802910192FD
:1074C00000932346024607990E9802F08FFA1CE0BB
:1074D000069B1C68069B04331D68069B08331B68CB
:1074E000069A0C3212680699103109680698143011
:1074F000006803900291019200932B46224607995F
:107500000E9802F073FA00E000BF00220E99049872
:10751000FFF736FF0E9B9DF827201A7300BF0BB0B4
:1075200030BD00BF00B587B0039002910192009377
:10753000029B082B60D8009B1B7B8DF81330009BAF
:1075400000221A7300990198FFF7C2FE00230593E9
:1075500014E0059A029B9A4209D2039A059B1344B0
:107560001B781A462649009802F040FA03E02549A4
:10757000009802F03BFA059B01330593059B072B0E
:10758000E7D92149009802F031FA0023059326E05B
:10759000059A029B9A421BD2039A059B13441B78BF
:1075A0008DF812309DF812307E2B0AD89DF81230DB
:1075B00018460EF05BFA0346002B02D09DF81230FD
:1075C00000E02E231A461149009802F00FFA03E05A
:1075D0000F49009802F00AFA059B01330593059BB9
:1075E000072BD5D9012200990198FFF7C9FE009B0E
:1075F0009DF813201A7300E000BF07B05DF804FB8C
:10760000B0660300B8660300BC660300C0660300F2
:10761000C466030084B003468DF807309DF8073038
:107620005B08DBB21A460D4B9B5C8DF80F309DF862
:10763000073003F00103002B04D09DF80F301B0925
:10764000DBB204E09DF80F3003F00F03DBB28DF8DE
:107650000E309DF80E30184604B07047B03100204F
:1076600084B003460A468DF8073013468DF806307D
:107670009DF8073003F00103002B01D00F2300E039
:10768000F0238DF80F309DF8073003F00103002B35
:1076900004D09DF806301B01DBB201E09DF80630F6
:1076A0008DF80E309DF807305B08DBB21A46114B9F
:1076B0009A5C9DF807305B08DBB219469DF80F30E5
:1076C0001340DAB20B4B5A549DF807305B08DBB21B
:1076D0001A46084B9A5C9DF807305B08DBB21946E6
:1076E0009DF80E301343DAB2024B5A5400BF04B077
:1076F000704700BFB031002000B585B003468DF85B
:1077000007300023039310E00F4B1A68039BDB0044
:1077100013440293029B1B789DF807209A4201D1E3
:10772000029B0DE0039B01330393084B1B781A4621
:10773000039B9342E8DB0649882007F091FB002376
:10774000184605B05DF804FB783100207C3100203C
:10775000D466030000B585B003460A468DF80730AD
:1077600013468DF806309DF807301846FFF7C4FF22
:107770000390039B002B0BD0039B5B68002B07D06F
:10778000039B5B689DF806109DF8072010469847FC
:1077900000BF05B05DF804FB2DE9F04F87B003464C
:1077A0000A468DF80F3013468DF80E309DF80F30D5
:1077B0001846FFF72FFF0346042B00F2C38001A2F7
:1077C00052F823F0D97702004F7802006B7802005C
:1077D0009B780200B17802009DF80E30002B00F07B
:1077E000AE809DF80F3001211846FFF739FF0023C6
:1077F0008DF817300DF11703184601F0B5F99DF813
:107800000F204FF001034FF00004A2F12000C2F15D
:10781000200104FA02F703FA00F0074323FA01F10A
:107820000F4303FA02F6494BD3E9003446EA030258
:10783000009247EA04030193444BDDE90012C3E9D7
:1078400000129DF81730184601F0A4F977E09DF872
:107850000E30002B01D0022200E000229DF80F30F4
:1078600011461846FFF7FCFE6CE09DF80E30002B29
:107870000CD09DF80F3003211846FFF7F1FE9DF85C
:107880000F3001211846FFF765FF5BE09DF80F30D0
:1078900001211846FFF7E4FE54E09DF80E30002B5E
:1078A0004FD19DF80F3004211846FFF7D9FE48E06C
:1078B0009DF80E30002B06D09DF80F30032118469E
:1078C000FFF7CEFE3EE09DF80F3000211846FFF78F
:1078D000C7FE9DF80F3000211846FFF73BFF00233D
:1078E0008DF816300DF11603184601F03DF99DF89C
:1078F0000F104FF001024FF00003A1F12006C1F17B
:10790000200003FA01F502FA06F6354322FA00F0E8
:10791000054302FA01F46FEA04086FEA05090B4B0C
:10792000D3E9003408EA030A09EA040B074BC3E968
:1079300000AB9DF81630184601F02CF902E000BFAC
:1079400000E000BF00BF07B0BDE8F08FA831002005
:1079500000B583B00648074B1B685B080022194638
:1079600000F008FE019000BF03B05DF804FB00BF0B
:10797000883100208031002010B586B001900023AE
:10798000059328E01C4B1A68059BDB001344049305
:10799000049B1B78184604F0B1FD03468DF80F30A8
:1079A000049B5B78012B0CBF01230023DBB21A463A
:1079B0009DF80F309A420CBF012300238DF80E3042
:1079C000049B1B789DF80E2011461846FFF7E4FE35
:1079D000059B01330593094B1B781A46059B93427F
:1079E000D0DB074BD3E90034234301D0FFF7B0FFCE
:1079F00000BF06B010BD00BF783100207C310020F0
:107A0000A831002010B584B001900B468DF80330EA
:107A1000019BDBB21846FFF76FFE0390039B1B78B8
:107A2000184604F06BFD03468DF80B30039B5B7822
:107A3000012B0CBF01230023DBB21A469DF80B304B
:107A40009A420CBF012300238DF80A309DF80A30BA
:107A5000002B06D0044BD3E90034234301D1FFF7B8
:107A600077FF00BF04B010BDA831002010B58AB068
:107A700003900B4601928DF80B30019B092B01D826
:107A8000072367E004F02CFC034683F00103DBB21C
:107A9000002B09D004F0D2FB0990099B0893089BA6
:107AA000002B01D0089B55E02C4A039B13602C4A05
:107AB0009DF80B3013702B4A019B1360102200219C
:107AC00029480EF033F8294A4FF000034FF0000424
:107AD000C2E9003431E09DF80B30DB00039A134417
:107AE000079303238DF8143000238DF815309DF88B
:107AF00016306FF300038DF816309DF816306FF3D3
:107B000041038DF816309DF816306FF382038DF81F
:107B10001630079B9B788DF81530079B1B7818460D
:107B200005AB134A194604F0E7FB0990099B06933D
:107B3000069B002B01D0069B0CE09DF80B305A1ED3
:107B40008DF80B20002BC6D10A4A00210A4800F00C
:107B5000DDFC034618460AB010BD00BF7831002096
:107B60007C31002080310020B0310020A83100207D
:107B7000057A0200797902005867030000B583B0E6
:107B8000114B1B68002B04D1104940F2351007F04F
:107B900067F9002301930CE00B4B1A68019BDB0093
:107BA00013441B780121184604F020FC019B01338B
:107BB0000193074B1B781A46019B9342ECD3002399
:107BC000184603B05DF804FB78310020D46603004A
:107BD0007C31002086B003900291019201238DF840
:107BE00017309DF81730204A039B13601E4A029BF2
:107BF00053601D4A019B9360039B44F20102934230
:107C000013D0039B44F20202934221D1019B164AF6
:107C1000D360154BDB681B881A46134B9A61124BD5
:107C2000DB685B68104AD36112E0019B0E4A136166
:107C30000D4B1B699B680C4A53610B4B1B691B68FE
:107C4000094A9361084B1B695B68074AD36100BF0F
:107C500072B600BF9DF81730DBB2002BFAD162B6C6
:107C600000BF06B0704700BFC031002000B583B030
:107C700002900091019244F2010071466A4600F0C0
:107C800003F803B000BD00BF30B58BB0079006917C
:107C9000059272B6FFF7F8FA00BFFFF7B7F8034690
:107CA000002BFAD1079B41F2010293421FD0079BA0
:107CB00041F20102934203D8079B012B0BD061E0F4
:107CC000079B44F2010293422FD0079B44F2020229
:107CD000934218D056E0394A394BD31ADB081B04BB
:107CE00043F0010337491846FEF7EAFF57E0334AED
:107CF000334BD31ADB081B0443F001033249184607
:107D0000FEF7DEFF4BE0059B09932C4A2C4BD31A60
:107D1000DB081B0443F00100099B5B681A46099BC2
:107D20001B882A49FEF7EBFF39E0059B0893234A9D
:107D3000234BD31ADB081B0443F00104089B9D6806
:107D4000089B9B68184602F0A5FD03461846089B51
:107D50005B681946089B1B68069A02920193009182
:107D600003462A461A492046FFF70BF8134A144BDC
:107D7000D31ADB081B0443F0010316491846FEF72B
:107D80009FFF0CE00D4A0E4BD31ADB081B0443F097
:107D90000103069A10491846FEF7A0FF00BF0F4BDB
:107DA0001B6803F00103002B00D000BE059A069962
:107DB0000798FFF70FFF00BF0BB030BD386403001A
:107DC000106403005C6703007C670300A067030086
:107DD000BC670300E4670300F8670300F0ED00E010
:107DE00084B00190019B9B680393019BDA68039B1D
:107DF000D31A184604B0704782B001900B468DF834
:107E00000330019B1A68019BDB68019989880B404C
:107E100013449DF803201A70019BDB685A1C019BD8
:107E2000DA6000BF02B0704784B003900B46019245
:107E3000ADF80A30039B1A68039B9968BDF80A30B5
:107E40000B44039989880B4013441A78019B1A70DC
:107E500000BF04B0704700B583B001900091009A54
:107E600000210198FFF7E0FF019B9B685A1C019BD2
:107E70009A6000BF03B05DF804FB84B003900291E8
:107E80001346ADF80630029B002B01D10E231DE0F6
:107E9000BDF80630002B07D0BDF806305A1EBDF8DD
:107EA00006301340002B01D009230FE0039B029AF8
:107EB0001A60BDF80630013B9AB2039B9A80039B7F
:107EC00000229A60039B0022DA600023184604B067
:107ED000704700B583B001900B468DF803300198D0
:107EE000FFF77EFF0246019B9B889A4207D89DF8C8
:107EF000033019460198FFF77FFF002300E00423B9
:107F0000184603B05DF804FB00B583B00190009102
:107F10000198FFF765FF0346002B05D000990198F3
:107F2000FFF799FF002300E00523184603B05DF832
:107F300004FB00002DE9F04182B0134801F00EFA75
:107F4000034619464FF00002104BD3E90034CF1816
:107F500042EB0408CDE900780D4BD3E90034DDE9AC
:107F60000012A24208BF994207D2DDE9003413F1A2
:107F7000807544F10006CDE90056DDE9003418466D
:107F8000214602B0BDE8F081182B0020E831002026
:107F9000F031002010B489B001900091019B07934B
:107FA000009B0693079BD3E90234CDE90434069B7A
:107FB000D3E90234CDE90234DDE90434DDE902120B
:107FC000A24208BF99422CBF01230023DBB218460E
:107FD00009B05DF8044B704770B584B00190019B07
:107FE0005B69002B03D12B49A22006F039FF002347
:107FF0008DF80F30284B1B78002B46D0019B002BAF
:1080000043D0019B1B7FDBB2002B3ED0FFF792FFDA
:108010000A460146019BD3E90234A24208BF9942B5
:108020002BD3019B1B69002B02D1019B00221A77E5
:10803000019B5B69019A926910469847019B1B69F5
:10804000002B22D0019B1B7FDBB2002B1DD0019B9C
:10805000D3E90212019B1B694FF00004CD1842EBDB
:108060000406019BC3E90256019B19460B4802F026
:108070006BFB01238DF80F3007E0019B1946074881
:1080800002F062FB01238DF80F309DF80F30184687
:1080900004B070BD1C680300E4310020A468030034
:1080A000F0B589B0019000910D230793009B002249
:1080B0001A70019BD3E90245FFF73CFF02460B46CD
:1080C000A61A65EB0307CDE90467DDE90434012B4B
:1080D00074F100031ADB049BB3F5350F05D300F0F0
:1080E000A9FA0246154B134402E0019BD3E902347E
:1080F00003934FF49603039A0021114801F030F8DE
:108100000790079B002B05D1012313E000210C48A9
:1081100001F0FEF8079B0D2B07D10198FFF75CFFDC
:1081200003461A46009B1A7003E00649F52006F044
:1081300097FE0023184609B0F0BD00BFFFFFB40052
:10814000182B00201C68030000B583B0044802F01F
:1081500035FB0190019B184603B05DF804FB00BF9E
:10816000A468030000B583B0044802F049FB019005
:10817000019B184603B05DF804FB00BFA468030030
:1081800000B583B0FFF7E0FF0190019B002B02D008
:10819000019B00221A77019B002BF3D100BF03B093
:1081A0005DF804FB10B4074BD3E9003413F1807180
:1081B00044F10002034BC3E9001200BF5DF8044B19
:1081C000704700BFE831002010B582B00190134B1A
:1081D0001B68002B1ED0019801F0C0F802460F4B1F
:1081E0001B68D3E9023423F07F431946104600F0A0
:1081F00015FA0346B3F5960F04D3094940F22B1044
:1082000006F02EFE054B1B681846FFF7E5FE034BF4
:1082100000221A6000BF02B010BD00BFE031002094
:108220001C68030010B582B00190FFF783FE03467F
:108230000C46034AC2E9003400BF02B010BD00BFC3
:10824000F031002010B586B00190FFF78BFF04904D
:1082500000238DF81730049B002B48D02B4B1B6854
:10826000002B03D101238DF8173019E0049BD3E9CB
:108270000212264B1B68D3E90234A24208BF99427E
:108280000ED201238DF81730204B1B681B7FDBB209
:10829000002B05D01D4B1B6819461D4802F054FAEF
:1082A0009DF81730002B2AD0FFF74EFF04900DF1F8
:1082B0000F0319460498FFF7F3FE0346002B12D074
:1082C000124B1B68002B02D1019800F055FE0F4A9B
:1082D000049B13609DF80F3083F00103DBB2002B89
:1082E000B3D000BF0EE0094B00221A60ADE7074B88
:1082F0001B68002B05D1019800F054FE01E000BF7F
:1083000000E000BF00BF06B010BD00BFE03100209C
:10831000A468030000B587B001902A4A03AB194650
:10832000104601F018F9059045E0059B1B78012BDC
:1083300017D0022B29D0002B2DD1059B5B681B7F0A
:10834000DBB283F00103DBB2002B26D0059B5B6818
:1083500001221A77059B5B6819461B4802F0F4F965
:108360001BE0059B5A68194B1B689A4203D1174BB7
:1083700000221A6012E0059B5B681946124802F061
:1083800053FA03468DF8133008E0FFF7F9FE104B5F
:1083900001221A7002E000BF00E000BF094A03ABEF
:1083A0001946104601F0F0F8064A03AB194610468C
:1083B00001F0D1F80590059B002BB6D100BF07B0A6
:1083C0005DF804FB50320020A4680300E031002077
:1083D000E431002000B583B00190019800F08BFFDC
:1083E0000346002B01D0FFF7DDFE0021019800F0CD
:1083F000A0FF0346002B02D00198FFF7E5FE012104
:10840000019800F096FF0346002B02D00198FFF779
:1084100009FF0198FFF77EFF0198FFF713FF00BFE8
:1084200003B05DF804FB000008B5024800F0A3FFAC
:1084300000BF08BD182B002000B585B00346009191
:108440008DF80730114A02AB1946104601F056F874
:108450000390039B002B13D0039B9DF807201A70F9
:10846000039B009A5A60094A02AB1946104601F074
:108470005EF80346002B01D0FFF7D6FF002300E093
:108480000423184605B05DF804FB00BF50320020FD
:1084900000B583B0164B1B6800931648082358227A
:1084A000154900F0F8FF0190019B002B01D0019BC2
:1084B00019E06B46114A1946114800F0DFFC0190A3
:1084C000019B002B01D0019B0DE001210C4800F025
:1084D00001FF01230B4A0121094800F079FD0A4BF5
:1084E00001221A70019B184603B05DF804FB00BF1F
:1084F000A068030050320020F8310020D58302002C
:10850000182B0020FFFF7F00E431002000B587B06A
:1085100003900B4601928DF80B30039B002B04D186
:10852000134940F22E2006F09BFC019B002B04D146
:108530000F4940F22F2006F093FC019B002B01D144
:10854000072310E0039B1B680593059B019A5A6162
:108550009DF80B30012B0CBF01230023DBB21A4620
:10856000059B1A610023184607B05DF804FB00BFA5
:108570001C68030070B586B0039002910192039BC2
:10858000002B04D1164940F23E2006F069FC039B03
:108590000593059B1B7FDBB2002B01D000231BE062
:1085A000059B019A9A61FFF7C5FC0A460146029BAA
:1085B0004FF00004CD1842EB0406059BC3E90256B8
:1085C000059B1B69002B02D0059B029A1A61059935
:1085D0000020FFF731FF0346184606B070BD00BF0C
:1085E0001C68030000B585B00190019B002B04D1ED
:1085F00009494FF4157006F033FC019B0393039B6C
:1086000000221A7703990120FFF716FF0346184648
:1086100005B05DF804FB00BF1C68030082B0019048
:108620000091019A009BD31A23F07F43184602B0B1
:108630007047000008B5034800F090FE0346184656
:1086400008BD00BF182B002000B587B00390029131
:1086500013468DF8073000230593039B1B781A46B9
:10866000114B9B5C002B09D0039B04339DF8072022
:108670000299184605F07CFA05900FE0039B1B78E1
:108680001A46094B9B5C002B08D1039B0C339DF8C9
:1086900007200299184604F03BFC0590059B1846FC
:1086A00007B05DF804FB00BFD432002000B585B0F0
:1086B000019000238DF80F30019B1B781A46114B57
:1086C0009B5C002B08D0019B0433184605F00EFB81
:1086D00003468DF80F300EE0019B1B781A46094BBC
:1086E0009B5C002B07D1019B0C33184604F098FCCF
:1086F00003468DF80F309DF80F30184605B05DF831
:1087000004FB00BFD432002000B587B00390029173
:1087100013468DF8073000230593039B1B781A46F8
:10872000114B9B5C002B09D0039B04339DF8072061
:108730000299184605F0F2FA05900FE0039B1B78AA
:108740001A46094B9B5C002B08D1039B0C339DF808
:1087500007200299184604F0BBFC0590059B1846BB
:1087600007B05DF804FB00BFD432002084B0019054
:10877000019B9B680393019BDA68039BD31A1846FD
:1087800004B0704700B587B001900091019B1B7841
:10879000012B04D0022B42D0002B51D066E0019B6C
:1087A0001B7A002B05D1012232493348FFF7ACFF79
:1087B0005CE0019B5B681B7819463048FFF789FB3A
:1087C0000590059B002B0AD001238DF80C30059BEA
:1087D00004932B4B1B6803AA104698470DE02748CB
:1087E000FFF7C4FF0346002B07D000238DF80C30A1
:1087F000234B1B6803AA104698472048FFF7B6FF93
:1088000002461E4B9B889A4205D8012219491A48F4
:10881000FFF77AFF2AE01B4B01221A7026E00223A1
:108820008DF80C30019BDB6804930122114912483A
:10883000FFF76AFF124B1B6803AA1046984715E022
:1088400011491248FFF760FB0346002B05D10122B6
:108850000D490948FFF7F8FE07E003238DF80C30B7
:10886000074B1B6803AA1046984700BF00BF07B01C
:108870005DF804FB6C320020202B002070320020B9
:10888000643200206D3200206832002080320020E7
:1088900030B591B00390029101928DF803303C4ABB
:1088A000019B1360029B002B01D107236DE0029B0B
:1088B0001968029B5B689BB21A463648FFF7DDFADF
:1088C0000F900F9B0E930E9B002B01D00E9B5CE034
:1088D000029B9968029BDB689BB21A462E48FFF701
:1088E000CCFA0F900F9B0D930D9B002B01D00D9B8D
:1088F0004BE02A4B04AC1D460FCD0FC495E80F008A
:1089000084E80F00039B5B690A93039B1B7C002B8D
:1089100014BF01230023DBB28DF824309DF803300F
:108920008DF82C30039B5B7C002B01D00E2300E0E4
:1089300000238DF82530039BDB680693039B9B681F
:108940000793039B1B680593039B5B68049304AB2D
:10895000134A1946134802F0EFFE0F900F9B0C9339
:108960000C9B002B01D00C9B0FE00F4B00221A70C8
:10897000039B1B68B3F1FF3F06D001220B49094856
:10898000FFF7C2FE034600E00023184611B030BDD9
:10899000643200207032002080320020B068030072
:1089A00085870200202B00206D3200206C320020D1
:1089B00000B587B00190019B002B03D11449CA2058
:1089C00006F04EFA134B1B788DF8173001991248B8
:1089D000FFF79AFA04909DF81730002B12D00D4B38
:1089E00000221A7001220D490D48FFF78DFE0390F9
:1089F000039B0293029B002B04D0054AD6210298C8
:108A0000FFF734F9049B184607B05DF804FB00BF7C
:108A1000D06803006D320020703200206C320020DC
:108A2000202B002000B585B003468DF807309DF857
:108A3000073019461048FFF74CFA0390039B002BB0
:108A400015D10E48FFF732FE034683F00103DBB277
:108A5000002B0CD00A490848FFF756FA0346002BB2
:108A600005D1012206490548FFF7EEFD0390039B5F
:108A7000184605B05DF804FB80320020202B002052
:108A80006832002082B0EFF310830093009B0193C3
:108A900072B6019B184602B0704762B600BF7047BD
:108AA00000B585B00190FFF7EDFF0390164B9B6872
:108AB000002B1BD1144B01229A60144BD3F8802059
:108AC000134B1340104A1360104B114AC3F8802017
:108AD0000E4BD3F884300C4A53600C4B4FF0FF32EE
:108AE000C3F88420019B00221A7002E0019B01223E
:108AF0001A70039B002B01D1FFF7CFFF002318460C
:108B000005B05DF804FB00BF9032002000E100E0FA
:108B1000FC06FFBD00B585B003468DF80730104B4D
:108B20009B68002B16D09DF80730002B12D1FFF761
:108B3000A9FF03900B4A0A4B1B681360094A084BB4
:108B40005B685360064B00229A60039B002B01D1A7
:108B5000FFF7A3FF0023184605B05DF804FB00BF34
:108B60009032002000E100E000B583B0019000F0F9
:108B70002BF80346012B03D00549432006F070F97A
:108B80000198FFF78DFF00BF03B05DF804FB00BF45
:108B90005869030000B583B003468DF8073000F034
:108BA00013F80346012B03D00649512006F058F96B
:108BB0009DF807301846FFF7ADFF00BF03B05DF822
:108BC00004FB00BF5869030084B0EFF305830193F1
:108BD000019BC3F308030393039B002B0DD1EFF319
:108BE00014830093009B0293029B03F00103002B6C
:108BF0000CBF01230023DBB200E00123184604B0C0
:108C00007047000082B003468DF807309DF80730AA
:108C100003F01F0205499DF907305B09012000FAA6
:108C200002F241F8232000BF02B0704700E100E0EB
:108C300082B003468DF807309DF8073003F01F021D
:108C400006499DF907305B09012000FA02F2403322
:108C500041F8232000BF02B0704700BF00E100E0F0
:108C600082B0034600918DF807309DF90730002B44
:108C70000CDA009BDAB20C499DF8073003F00F03C1
:108C8000043B5201D2B20B441A7609E0009BDAB2DF
:108C900006499DF907305201D2B20B4483F80023F4
:108CA00000BF02B0704700BF00ED00E000E100E04F
:108CB00000B583B003460A468DF8073013468DF899
:108CC00006309DF80630012B03D99DF80630032BA2
:108CD0000BD99DF80630042B03D99DF80630072BDD
:108CE00003D908496B2006F0BBF89DF806209DF9D2
:108CF000073011461846FFF7B3FF00BF03B05DF819
:108D000004FB00BFE469030000B583B003468DF89F
:108D100007309DF907301846FFF774FF00BF03B016
:108D20005DF804FB00B585B00190019B002B0AD0D3
:108D3000074B43F001030393019B9B010293039BA9
:108D40000298984700E000BF05B05DF804FB00BF43
:108D5000106B030084B0039002910192039B029A6E
:108D600002F5A872019943F8221000BF04B07047C1
:108D700082B001900091019B009A02F5A87253F80D
:108D80002230184602B0704782B001900091019BDA
:108D9000009AC3F8042300BF02B0704782B001906C
:108DA0000091019B009AC3F8082300BF02B07047EE
:108DB00082B001900B46ADF80230BDF80230019A46
:108DC00013441B68184602B0704784B001900B46EC
:108DD000ADF80230BDF80230019A134400221A6047
:108DE000BDF80230019A13441B680393039B00BF34
:108DF00004B0704782B00190019BD3F80435184647
:108E000002B0704700B583B001900091009BB3F5AC
:108E1000805F04D306494FF4BE7006F021F8019B31
:108E2000009AC3F8082500BF03B05DF804FB00BF3B
:108E3000146A030082B001900B468DF803309DF850
:108E40000320019B13441A460123136000BF02B0A4
:108E5000704782B001900091019B009AC3F84423AF
:108E600000BF02B0704782B001900091019B009A50
:108E7000C3F8482300BF02B07047000000B587B0B8
:108E8000039002910192039B002B03D1334955209B
:108E900005F0E6FF029B002B03D13049562005F078
:108EA000DFFF019B002B03D12C49572005F0D8FF91
:108EB000039B5B7919462A4A019B42F82130039BA8
:108EC0005B79284ADB0013441B79002B0ED0082362
:108ED0000593254A254BD31ADB081B0443F00203F4
:108EE00023491846FDF7ECFE059B32E0039B1A6808
:108EF000029B1B8819461046FFF784FF039B93F9DA
:108F00000420029B9B7819461046FFF7D1FE039B75
:108F100093F904301846FFF7F7FE039B5B79114A7B
:108F2000DB00134401221A71039B5B7919460D4A39
:108F3000039B42F83130002305930B4A0B4BD31AA5
:108F4000DB081B0443F003030A491846FDF7B8FE8B
:108F5000059B184607B05DF804FB00BF446A030098
:108F60009C320020A03200204864030010640300FB
:108F7000C46A0300E86A030000B583B00190019B56
:108F8000002B03D10649872005F06AFF019B1B686F
:108F900000211846FFF74EFF00BF03B05DF804FB49
:108FA000446A030000B583B00190019B002B03D1FC
:108FB00006498D2005F054FF019B1B6804211846CB
:108FC000FFF738FF00BF03B05DF804FB446A0300FD
:108FD00000B587B00390029101928DF80330039B96
:108FE000002B03D12149962005F03AFF4FF480323F
:108FF000029B02FA03F30593029B50339BB29B0042
:10900000ADF81230019B23F07F430193039B1B6853
:1090100005991846FFF7C2FE039B1B680599184681
:10902000FFF721FF039B1B68BDF81220114618466D
:10903000FFF7CBFE039B1B68019A02991846FFF7C6
:1090400089FE039B1B6805991846FFF702FF9DF8F0
:109050000330002B05D0039B1B6805991846FFF7CA
:1090600093FE00BF07B05DF804FB00BF446A030035
:1090700000B585B00390029113468DF80730039B2D
:10908000002B03D10B49A92005F0EAFE039B1B68C6
:1090900002991846FFF7DDFE9DF80730002B05D03A
:1090A000039B1B6802991846FFF76EFE00BF05B0D0
:1090B0005DF804FB446A030000B583B001900091A1
:1090C000019B002B03D10A49B32005F0C9FE019B87
:1090D0001B6800991846FFF7C6FE019B1B680099A4
:1090E0001846FFF75BFE00BF03B05DF804FB00BF4E
:1090F000446A030000B583B001900B46ADF802301E
:10910000019B002B03D10F49BA2005F0A9FE019B5A
:109110001B68BDF8022011461846FFF749FE0346BA
:10912000002B09D0019B1B68BDF802201146184690
:10913000FFF74BFE012300E00023184603B05DF863
:1091400004FB00BF446A030082B001900091019AC1
:10915000009BD31A23F07F43184602B070470000EB
:1091600000B58BB00390029101920093039B002BFA
:1091700003D15749CD2005F073FE4FF48032029B96
:1091800002FA03F30993029B50339BB29B00ADF8A4
:109190002230019B23F07F43019309990398FFF745
:1091A0008BFF039B1B681846FFF724FE0790039B69
:1091B0001B6802991846FFF7DBFD0690039B1B68AE
:1091C000079A02991846FFF7C5FD039B1B68BDF877
:1091D000222011461846FFF7F8FD07990698FFF779
:1091E000B3FF0346012B0AD11020FFF79BFD039B21
:1091F0001B68BDF8222011461846FFF7E6FD039BC9
:109200001B681846FFF7F6FD079007990198FFF7CE
:109210009BFF0590039B1B6809991846FFF719FEF1
:10922000059B012B15D1039B1868019B01331A463E
:109230000299FFF78FFD1020FFF774FD039B1B6859
:109240001846FFF7D7FD0246079B934235D00D2302
:1092500039E0039B1B68019A02991846FFF77AFDD3
:10926000039B1B681846FFF7C5FD0790019B013B58
:1092700007991846FFF768FF0590009BC3F1FF139D
:1092800003F57F43059A9A4201D90D231BE0059B04
:10929000002B12D1039B1868019B01331A460299D7
:1092A000FFF758FD039B1B681846FFF7A3FD024616
:1092B000079B934201D00D2305E0012209990398F1
:1092C000FFF7D6FE002318460BB05DF804FB00BF85
:1092D000446A030000B583B001900B468DF803305B
:1092E0009DF803301A4602210198FFF7C1FE00BF26
:1092F00003B05DF804FB00B583B001904FF48271B8
:109300000198FFF7F7FE0346184603B05DF804FB2B
:1093100000B583B0019000914FF48032009B02FAB7
:1093200003F319460198FFF7C7FE00BF03B05DF8CD
:1093300004FB00B585B001900091009B50339BB2B7
:109340009B00ADF80E30BDF80E3019460198FFF7BE
:10935000D1FE0346184605B05DF804FB00B583B0A6
:109360000190019B1B681846FFF744FD0346184611
:1093700003B05DF804FB00B583B00190019B93F945
:1093800004301846FFF754FC00BF03B05DF804FB3F
:1093900008B5044B1B68044A12681046984700BF82
:1093A00008BD00BF9C320020A032002086B0019092
:1093B0000091019B53E8011F8AB2D8890244988921
:1093C000824228BF121A1889824202BFBFF32F8F30
:1093D000002307E0C2EA010243E801200028E9D1A6
:1093E0004FF001038DF80F30059002910492029A1C
:1093F000009B1A609DF80F30DBB2184606B070472C
:1094000084B00190019951E8013FC3EA034341E868
:109410000132002AF7D10392029300BF04B07047D3
:1094200086B001900091019B53E8021F1FFAA1F240
:10943000D888824202BFBFF32F8F00230DE0D88966
:1094400002449889824228BF121AC1EA024243E8C4
:1094500002200028E8D14FF001038DF80F3005906D
:1094600002910492029A009B1A609DF80F30DBB2C1
:10947000184606B0704784B00190019951E8023F48
:10948000C3EA234341E80232002AF7D10392029350
:1094900000BF04B0704784B00390029111461A4691
:1094A0000B46ADF806301346ADF80430029B002B96
:1094B00001D10E231FE0BDF80630BDF80420B3FB38
:1094C000F2F102FB01F29B1A9BB2002B01D009239F
:1094D00011E0039B029A1A60039B00225A60039BCF
:1094E00000229A60039BBDF806209A81039BBDF879
:1094F0000420DA810023184604B0704700B585B017
:1095000001900091009B19460198FFF74FFF034619
:10951000002B07D0019B1B68009A12881344039309
:10952000039B00E00023184605B05DF804FB00B57E
:1095300083B001900091009B1A88009B5B889A423F
:1095400004D10198FFF75CFF012300E000231846D7
:1095500003B05DF804FB00B585B001900091009B5D
:1095600019460198FFF75CFF0346002B07D0019BCB
:109570001B68009A528813440393039B00E0002366
:10958000184605B05DF804FB00B583B0019000916A
:10959000009B1A88009B5B889A4204D10198FFF7D0
:1095A0006AFF012300E00023184603B05DF804FBC6
:1095B00000B585B001900091009B5B099B00019A6A
:1095C000D018009B03F01F03012202FA03F319468F
:1095D00000F04CF8039000BF05B05DF804FB00B547
:1095E00085B001900091009B5B099B00019AD01807
:1095F000009B03F01F03012202FA03F3DB43194629
:1096000000F064F8039000BF05B05DF804FB82B081
:1096100001900091009B5B099B00019A13441A681A
:10962000009B03F01F0322FA03F303F00103002B56
:1096300014BF01230023DBB2184602B0704710B4F8
:1096400087B001900091019B009A53E8004F1046AB
:1096500043E8000191F0000FF7D1059404900391C5
:10966000059B184607B05DF8044B704710B487B0EF
:1096700001900091019B009A53E8004F44EA0200D8
:1096800043E8000191F0000FF6D105940490039196
:10969000049B184607B05DF8044B704710B487B0C0
:1096A00001900091019B009A53E8004F04EA0200E8
:1096B00043E8000191F0000FF6D105940490039166
:1096C000059B184607B05DF8044B704710B487B08F
:1096D00001900091019B009A53E8004F04EA0200B8
:1096E00043E8000191F0000FF6D105940490039136
:1096F000049B184607B05DF8044B704710B487B060
:1097000001900091019B009A53E8004F04EB020086
:1097100043E8000191F0000FF6D105940490039105
:10972000049B184607B05DF8044B704710B487B02F
:1097300001900091019B009A53E8004FA4EB0200B6
:1097400043E8000191F0000FF6D1059404900391D5
:10975000049B184607B05DF8044B704700B583B012
:10976000019001210198FFF781FF0346184603B0DD
:109770005DF804FB00B583B0019000210198FFF76C
:109780008DFF0346184603B05DF804FB00B583B0B7
:1097900001900B468DF80330019B002B03D1084943
:1097A000E82005F05DFB019BDA689DF80330019924
:1097B000098A01FB03F31344184603B05DF804FB68
:1097C000186B030000B583B001900091019B002B42
:1097D00003D10849F52005F043FB009B019AD268AC
:1097E0009B1A019A128AB3FBF2F3DBB2184603B05C
:1097F0005DF804FB186B030000B585B00190019B78
:10980000002B01D10E234CE0019B1B68002B03D1E0
:109810002649FF2005F024FB019B5B68002B04D147
:1098200022494FF4807005F01BFB019B9B68002BC5
:1098300004D11E4940F2011005F012FB019BDB68C8
:10984000002B04D119494FF4817005F009FB019BED
:109850001B8A002B04D1154940F2031005F000FBD0
:10986000019B9A68019B5B68D31A8DF80F30019BAE
:109870001B68019A52681A6007E0019B1A68136816
:10988000591C11609DF80F201A709DF80F305A1E58
:109890008DF80F20002BF0D1019B1B6800221A715C
:1098A0000023184605B05DF804FB00BF186B0300E9
:1098B00000B585B00190019B002B04D11F494FF4E6
:1098C000927005F0CDFA0023039300238DF80A303F
:1098D0000DF10A031846FFF747F9019B1B681A6848
:1098E000019B5B689A421FD9019B1B681A68013A69
:1098F0001A601B681B7819460198FFF747FF039011
:10990000019B9A68019B1B681B68D31A8DF80B306A
:10991000019B1B681B799DF80B209A4204D9019B7F
:109920001B689DF80B201A719DF80A301846FFF746
:1099300031F9039B184605B05DF804FB186B030072
:1099400010B584B001900091019B002B04D1154902
:1099500040F2471005F084FA009B002B04D1114916
:109960004FF4A47005F07CFA009B039300238DF85C
:109970000B300DF10B031846FFF7F6F8019B1B683F
:109980001C68621C1A6003990198FFF71BFF0346CD
:1099900023709DF80B301846FFF7FCF800BF04B0A9
:1099A00010BD00BF186B030000B583B00190019B90
:1099B000002B03D10C49312005F052FA019B9B6822
:1099C000002B0CD0019B5B69019A1069019A116808
:1099D000019A92689847019B00229A6000E000BFBC
:1099E00003B05DF804FB00BF9C6B03000EB400B530
:1099F00084B00190019B002B03D11849422005F04F
:109A00002FFA019B5B69002B03D11449432005F019
:109A100027FA019B1B68002B03D11049442005F055
:109A20001FFA019B5B68002B03D10C49452005F010
:109A300017FA059B002B0AD00023039306AB039370
:109A400003AB1A460599019800F0B8F900E000BF91
:109A500004B05DF804EB03B0704700BF9C6B0300DB
:109A600000B583B001900B468DF803309DF80330AC
:109A70000A2B03D10D210198FFF7F2FF019B1A6811
:109A8000019B9B68581C0199886013449DF8032032
:109A90001A70019B9A68019B5B689A4202D30198F5
:109AA000FFF782FF00BF03B05DF804FB00B587B08D
:109AB000039002910192009300230593009B03F011
:109AC0000103002B24D00BE0029B01330293059B82
:109AD000013305939DF8133019460398FFF7C0FF33
:109AE000029B1B788DF813309DF81330002BEBD1BF
:109AF00006E0019B013B019320210398FFF7B0FF93
:109B0000019A059B9A422ED9019B002BF1D12AE0A4
:109B1000029B002B0BD002980CF05DF8059006E03C
:109B2000019B013B019320210398FFF799FF019AC4
:109B3000059B9A420FD9019B002BF1D10BE0029BB0
:109B400001330293059B013305939DF813301946A9
:109B50000398FFF785FF029B1B788DF813309DF863
:109B60001330002BEBD100BF07B05DF804FB000001
:109B700000B589B00390029101920093029B079374
:109B80000123069307E0079A019BB2FBF3F30793C7
:109B9000069B01330693079A019B9A42F3D2009ADF
:109BA000069B9A4201D9009B06930B9B03F001038D
:109BB000002B22D10A9B002B1FD00B9B03F002032A
:109BC000002B06D0009B002B03D130238DF81730DB
:109BD00002E020238DF8173008E00A9B013B0A932E
:109BE0009DF8173019460398FFF73AFF0A9B002BA0
:109BF00003D0069A0A9B9A42EFD301230793009B56
:109C0000012B03D9009B013B009309E0029A079BBB
:109C1000B2FBF3F30493049A019B9A4200D205E04D
:109C2000079B019A02FB03F30793E8E7029A079B5D
:109C3000B2FBF3F30493049B079A02FB03F3029A2B
:109C4000D31A0293154A049B13441B7819460398B0
:109C5000FFF706FF079A019BB2FBF3F30793079BFD
:109C6000002BE3D10B9B03F00103002B11D00A9BC7
:109C7000002B0ED006E00A9B013B0A93202103989B
:109C8000FFF7EEFE0A9B002B03D0069A0A9B9A422E
:109C9000F1D300BF09B05DF804FB00BF9C6C03006A
:109CA00000B589B00590049103920293049B002BA8
:109CB000B8BF5B4206930123079307E0039B069A14
:109CC00092FBF3F30693079B01330793039B069ADA
:109CD0009A42F3DA029A079B9A4201D9029B0793B0
:109CE0000A9B002B0AD0049B002B04DB0B9B03F088
:109CF0000403002B02D00A9B013B0A930B9B03F049
:109D00000203002B02D0029B002B16D00B9B03F00A
:109D10000103002B11D10A9B002B0ED006E00A9BF9
:109D2000013B0A9320210598FFF79AFE0A9B002B1E
:109D300003D0079A0A9B9A42F1D3049B002B07DABF
:109D4000049B5B4204932D210598FFF789FE08E0F0
:109D50000B9B03F00403002B03D02B210598FFF786
:109D60007FFE0B9B03F00203002B19D00B9B03F02B
:109D70000103002B14D1029B002B11D10A9B002B55
:109D80000ED006E00A9B013B0A9330210598FFF7AD
:109D900067FE0A9B002B03D0079A0A9B9A42F1D3D5
:109DA00004990B9B01930A9B0093029B039A0598CD
:109DB000FFF7DEFE00BF09B05DF804FB00B58FB011
:109DC000059004910392059B002B04D1C84940F2F1
:109DD000522005F045F8059B5B69002B04D1C4496E
:109DE0004FF4157005F03CF8059B1B68002B04D15F
:109DF000BF4940F2552005F033F8059B5B68002B06
:109E000004D1BB4940F2562005F02AF8049B002BF0
:109E100000F0ED81049B1B788DF83730049B0133F3
:109E200004939DF83730002B00F0D8819DF837302F
:109E3000252B40F0C78100230A9301230C93049B38
:109E40001B788DF837309DF837302D2B04D0302B10
:109E50000AD02B2B10D017E00A9B43F001030A9382
:109E6000049B0133049312E00A9B43F002030A931C
:109E7000049B013304930AE00A9B43F004030A9312
:109E8000049B0133049302E000230C9300BF0C9B5E
:109E9000002BD4D1002309939DF837302A2B0CD105
:109EA000039B1B68191D039A11601B68099A1344D0
:109EB0000993049B013304931AE0049B1B788DF8EB
:109EC00037309DF837302F2B12D99DF83730392B8A
:109ED0000ED8049B01330493099A13469B00134444
:109EE0005B001A469DF837301344303B0993D3E7A3
:109EF00000230B93049B1B788DF837309DF8373087
:109F00002E2B1DD1049B01330493049B1B788DF8E9
:109F100037309DF837302F2B12D99DF83730392B39
:109F20000ED8049B013304930B9A13469B001344F1
:109F30005B001A469DF837301344303B0B93E4E73F
:109F4000049B1B788DF837309DF837306C2B03D08D
:109F50009DF83730682B07D1049B01330493049B91
:109F60001B788DF83730EFE79DF83730253B532BC2
:109F700000F2238101A252F823F000BFB1A1020038
:109F8000BBA10200BBA10200BBA10200BBA1020059
:109F9000BBA10200BBA10200BBA10200BBA1020049
:109FA000BBA10200BBA10200BBA10200BBA1020039
:109FB000BBA10200BBA10200BBA10200BBA1020029
:109FC000BBA10200BBA10200BBA10200BBA1020019
:109FD000BBA10200BBA10200BBA10200BBA1020009
:109FE000BBA10200BBA10200BBA10200BBA10200F9
:109FF000BBA10200BBA10200BBA10200BBA10200E9
:10A00000BBA10200BBA10200BBA10200BBA10200D8
:10A01000BBA10200BBA10200BBA10200BBA10200C8
:10A02000BBA10200BBA10200BBA10200BBA10200B8
:10A03000BBA10200BBA10200BBA10200BBA10200A8
:10A04000BBA10200BBA102003DA10200BBA1020016
:10A05000BBA10200BBA10200BBA10200BBA1020088
:10A06000BBA10200BBA10200BBA10200BBA1020078
:10A07000BBA10200CDA00200F5A00200BBA102001E
:10A08000BBA10200BBA10200BBA10200F5A002001F
:10A09000BBA10200BBA10200BBA10200BBA1020048
:10A0A000BBA10200BBA102007DA10200BBA1020076
:10A0B000BBA1020061A10200BBA1020019A1020024
:10A0C000BBA10200BBA102003DA10200039B1B68D3
:10A0D000191D039A11601B680C930C9B8DF823309B
:10A0E0009DF8233019460598FFF7BAFC66E000BFDB
:10A0F000186C0300039B1B68191D039A11601B68F1
:10A100000C930A9B0193099B00930B9B0A220C99C9
:10A110000598FFF7C5FD51E0039B1B68191D039AC5
:10A1200011601B680C930C990A9B0193099B009387
:10A130000B9B0A220598FFF71BFD3FE0039B1B6862
:10A14000191D039A11601B680C930C990A9B0193CB
:10A15000099B00930B9B10220598FFF709FD2DE04A
:10A16000039B1B68191D039A11601B6807930A9BC8
:10A17000099A07990598FFF799FC1FE0039B1B6854
:10A18000191D039A11601B680C9330210598FFF785
:10A1900067FC78210598FFF763FC0C990023019375
:10A1A00008230093082310220598FFF7E1FC05E03F
:10A1B00025210598FFF754FC00E000BF049B013304
:10A1C000049305E09DF8373019460598FFF748FCE1
:10A1D000049B1B78002B7FF41DAE00E000BF059BA5
:10A1E0001B7B002B04D00598FFF7DEFB00E000BFCF
:10A1F0000FB05DF804FB00BF00B583B0019001987B
:10A20000FFF7FAFA0346184603B05DF804FB00B501
:10A210008BB001900091019B1B8A043B0793009A2D
:10A22000079B1344DA1C079BB2FBF3F38DF81B303A
:10A230000198FFF73DFB0590059B002B01D1002302
:10A2400038E0059B00221A71059B01225A71079B79
:10A250009AB2059BDA80059B09939DF81B30013B60
:10A260000493099B019A1A60002308931DE001984A
:10A27000FFF71EFB0390039B002B0ED0059B5B7921
:10A280000133DAB2059B5A71099B039A1A60039B4A
:10A29000019A1A60039B099304E0059800F00EF8F8
:10A2A000002307E0089B01330893089A049B9A4215
:10A2B000DDD3059B18460BB05DF804FB00B58BB0F1
:10A2C0000190019B0793079B5B798DF81B30019BE5
:10A2D00008939DF81B30013B05930023099305E08B
:10A2E000089B1B680893099B01330993099A059BF6
:10A2F0009A42F5D3089B1B680493019B08930023A3
:10A3000009930BE0089B1B68039308990498FFF7D7
:10A3100017FB039B0893099B013309939DF81B309E
:10A32000099A9A42EED300BF0BB05DF804FB00B56A
:10A3300085B00190019B0393039B043301211846D0
:10A34000FFF7DCF900BF05B05DF804FB00B587B08E
:10A350000190019B0593059B043301211846FFF7EB
:10A36000E5F90346039303AB0493049B1B78002B8E
:10A3700002D10198FFF7A2FF00BF07B05DF804FB10
:10A3800000B591B00390029101920093039B002BC2
:10A3900003D14349B62004F063FD039B0993039B5B
:10A3A0000F93099BDB881A46099B5B7903FB02F339
:10A3B000043B0893009A089B9A4203D33849C4206F
:10A3C00004F04EFD099BDB880793009B1A1D079B39
:10A3D000B2FBF3F30E93009B0433079AB3FBF2F244
:10A3E000079901FB02F29B1A0D93019B1A68009BCF
:10A3F0001344089A9A4203D2089A009BD31A01E0A8
:10A40000019B1B680C93019B0C9A1A6005E00F9B43
:10A410001B680F930E9B013B0E930E9B002BF6D1F6
:10A4200000230B93079A0D9BD31A0A930A9A0C9B4D
:10A43000934228BF13460A932AE0029A0B9B1344C7
:10A4400006930F9A0D9B1344043305939DF84830EF
:10A45000002B05D00A9A059906980BF03EFB04E004
:10A460000A9A069905980BF038FB00230D930F9B71
:10A470001B680F930C9A0A9BD31A0C930B9A0A9B96
:10A4800013440B93079A0C9B934228BF13460A93DD
:10A490000C9B002BD1D100BF11B05DF804FB00BFB5
:10A4A000AC6C030000B589B005900491039202934F
:10A4B000039B079307AA00230093029B0499059826
:10A4C000FFF75EFF079B039A9A4203D00349F620E9
:10A4D00004F0C6FC00BF09B05DF804FBAC6C0300DF
:10A4E00000B589B00590049103920293039B0793F2
:10A4F00007AA01230093029B04990598FFF740FFE8
:10A50000079B039A9A4204D004494FF4807004F0E8
:10A51000A7FC00BF09B05DF804FB00BFAC6C0300F2
:10A5200082B003468DF807309DF8073003F01F0214
:10A5300006499DF907305B09012000FA02F26033F9
:10A5400041F8232000BF02B0704700BF00E100E0E7
:10A5500000B583B00190019B002B03D10649722006
:10A5600004F07EFC019B00221A60BFF35F8F00BFE6
:10A5700003B05DF804FB00BF846D030041DF70474A
:10A5800000BF184600B585B000238DF803300DF1EB
:10A5900003031846FEF7E8FAF1EE103A0193019B27
:10A5A0000393039B23F09F030293029BE1EE103A77
:10A5B000BFF35F8F2620FFF7B3FF9DF803301846E7
:10A5C000FEF7E8FA039B03F00703002B03D00449CE
:10A5D0007D2004F045FC00BF05B05DF804FB00BF22
:10A5E000C86D030008B5064B00221A700548FFF736
:10A5F000AFFF0549054800F04BF80023184608BD99
:10A60000AC320020A8320020506E0300B03200208F
:10A6100000B583B0FFF7B6FF0AF050FB0346002BEE
:10A620000ED0FFF7ABFF0190019B002B0BD0019BDD
:10A63000022B08D006494FF4B07004F011FC02E080
:10A6400020BF40BF20BF00BF03B05DF804FB00BFC8
:10A65000C86D030082B00190019B9B6800229A6044
:10A66000019B9B6800221A61019B9B6800225A6132
:10A67000019B9B680022DA60019B9B6800225A6064
:10A68000019B9B6800221A6000BF02B07047000067
:10A6900000B583B001900091019B002B03D11049BC
:10A6A000502004F0DDFB009B002B03D10C4951200E
:10A6B00004F0D6FB019B009A1A60019B1B681A6884
:10A6C000019B5A60019B5A68019B1B685B689A4218
:10A6D00002D1019B00225A6000BF03B05DF804FB69
:10A6E0005C6E030000B583B00190019B002B03D189
:10A6F0001449632004F0B4FB019B1B68002B03D1B9
:10A700001049642004F0ACFB019B5B68002B14D063
:10A71000019B5B681A46019B1B689B6813441A46A1
:10A72000019B5A60019B5A68019B1B685B689A42B7
:10A7300004D1019B00225A6000E000BF03B05DF825
:10A7400004FB00BF5C6E030000B585B00190009172
:10A75000019B002B03D118493A2004F081FB009B98
:10A76000002B03D114493B2004F07AFB019B5B686A
:10A7700003930FE0019B9B68039A126800991046AF
:10A780009847034683F00103DBB2002B07D1039BFC
:10A790001B680393039B1B68002BEBD100E000BFF9
:10A7A000039B1A68009B1A60039B009A1A6000BF03
:10A7B00005B05DF804FB00BF086F030000B585B06D
:10A7C0000190019B002B03D10C49512004F048FB60
:10A7D000019B5B681B680393019B5B681B68002BF4
:10A7E00006D0019B5B681A68019B5B6812681A605F
:10A7F000039B184605B05DF804FB00BF086F03001B
:10A8000000B583B00190019B002B03D105495D2069
:10A8100004F026FB019B5B681B68184603B05DF8DB
:10A8200004FB00BF086F030000B585B001900091E4
:10A83000019B002B03D11649692004F011FB009BFA
:10A84000002B03D112496A2004F00AFB00238DF883
:10A850000F30019B5B6802930FE0029B1B68009A1C
:10A860009A4207D1009B1A68029B1A6001238DF857
:10A870000F3006E0029B1B680293029B1B68002BB3
:10A88000EBD19DF80F30184605B05DF804FB00BF12
:10A89000086F030000B585B00190019800F00EF834
:10A8A0000390039B002B01D0039B00E0024B184652
:10A8B00005B05DF804FB00BF906F030086B0019007
:10A8C000164B0593164B04931FE0049A059BD31A6D
:10A8D000DB10DA0F13445B10DB00059A134403937B
:10A8E000039B1B680293029A019B9A4202D9039B25
:10A8F00004930AE0029A019B9A4203D2039B083315
:10A90000059302E0039B5B6804E0059A049B9A426E
:10A91000DBD30023184606B0704700BF90730300D6
:10A92000B874030000B583B001900091019BDBB2C5
:10A930001846FEF777F8019B184603B05DF804FB54
:10A94000BFF34F8F054BDB6803F4E0620349044B10
:10A950001343CB60BFF34F8F00BFFDE700ED00E076
:10A960000400FA05024B034A1A6000BF704700BF9B
:10A97000342B00200090D00308B500F067F903469F
:10A98000002B06D09F4B1B681B0A9F4A03F01F0336
:10A99000136000F087F90346002B02D09B4B9C4AC2
:10A9A0001A6000F09BF90346002B06D0994B1B68F8
:10A9B0005B0B994A03F00703136000F0BBF90346F1
:10A9C000002B05D0954BDB68944A23F08073D3604D
:10A9D00000F0CCF90346002B0ED04FF0804300224C
:10A9E000C3F80C214FF080430022C3F810214FF030
:10A9F00080430022C3F8382500F0E4F90346002B19
:10AA000002D0874B03221A6000F0F8F90346002BAE
:10AA10000BD0844B05221A60834B01221A60834BB2
:10AA200000221A60824B3F221A6000F003FA0346AC
:10AA3000002B76D04FF080537E4AD3F80434C2F80E
:10AA400020354FF080537B4AD3F80834C2F82435C0
:10AA50004FF08053774AD3F80C34C2F828354FF0C2
:10AA60008053744AD3F81034C2F82C354FF0805319
:10AA7000704AD3F81434C2F830354FF080536D4A21
:10AA8000D3F81834C2F834354FF08053694AD3F8FC
:10AA90001C34C2F840354FF08053664AD3F8203456
:10AAA000C2F844354FF08053624AD3F82434C2F8D8
:10AAB00048354FF080535F4AD3F82834C2F84C35FC
:10AAC0004FF080535B4AD3F82C34C2F850354FF026
:10AAD0008053584AD3F83034C2F854354FF080537D
:10AAE000544AD3F83434C2F860354FF08053514A99
:10AAF000D3F83834C2F864354FF080534D4AD3F858
:10AB00003C34C2F868354FF080534A4AD3F8403499
:10AB1000C2F86C354FF08053464AD3F84434C2F83B
:10AB2000703500F0A3F90346002B05D0424B1B689B
:10AB3000424A03F04F03136000F0C4F90346002BB0
:10AB40000DD04FF08043D3F8003403F00103002B05
:10AB500005D04FF080436FF00102C3F8002400F0ED
:10AB6000DDF90346002B05D0354B1B68344A43F40E
:10AB700080631360334BD3F88830324A43F4700358
:10AB8000C2F88830BFF34F8FBFF36F8F4FF01023A1
:10AB9000D3F80032002B05DB4FF01023D3F804323A
:10ABA000002B2BDA284B0122C3F8042500BF264BCB
:10ABB000D3F80034002BFAD04FF010231522C3F83D
:10ABC000002200BF204BD3F80034002BFAD04FF006
:10ABD00010231522C3F8042200BF1B4BD3F8003406
:10ABE000002BFAD0184B0022C3F8042500BF164BE7
:10ABF000D3F80034002BFAD0FFF7A2FEFFF7B2FE25
:10AC000000BF08BD240300104035014074C0074058
:10AC10000DF0ADBA440200103C050040F0ED00E03C
:10AC2000A0050040105600408856004018560040CD
:10AC30001456004000C0004058020010E40E0040CE
:10AC40003C17004000ED00E000E00140124B1B68A3
:10AC5000DBB2062B1DD1114B1B6803F00F03002B39
:10AC600017D10F4B1B6803F0F003302B01D10123E8
:10AC700010E00B4B1B6803F0F003402B01D10123C4
:10AC800008E0074B1B6803F0F003502B01D10123B0
:10AC900000E0002318467047E00F00F0E40F00F0DA
:10ACA000E80F00F00A4B1B68DBB2062B0DD1094BF5
:10ACB0001B6803F00F03002B07D1074B1B6803F041
:10ACC000F003302B01D1012300E000231846704728
:10ACD000E00F00F0E40F00F0E80F00F0124B1B68EB
:10ACE000DBB2062B1DD1114B1B6803F00F03002BA9
:10ACF00017D10F4B1B6803F0F003302B01D1012358
:10AD000010E00B4B1B6803F0F003402B01D1012333
:10AD100008E0074B1B6803F0F003502B01D101231F
:10AD200000E0002318467047E00F00F0E40F00F049
:10AD3000E80F00F00A4B1B68DBB2062B0DD1094B64
:10AD40001B6803F00F03002B07D1074B1B6803F0B0
:10AD5000F003302B01D1012300E000231846704797
:10AD6000E00F00F0E40F00F0E80F00F0124B1B685A
:10AD7000DBB2062B1DD1114B1B6803F00F03002B18
:10AD800017D10F4B1B6803F0F003302B01D10123C7
:10AD900010E00B4B1B6803F0F003402B01D10123A3
:10ADA00008E0074B1B6803F0F003502B01D101238F
:10ADB00000E0002318467047E00F00F0E40F00F0B9
:10ADC000E80F00F00A4B1B68DBB2062B0DD1094BD4
:10ADD0001B6803F00F03002B07D1074B1B6803F020
:10ADE000F003302B01D1012300E000231846704707
:10ADF000E00F00F0E40F00F0E80F00F00A4B1B68D2
:10AE0000DBB2062B0DD1094B1B6803F00F03002B9F
:10AE100007D1074B1B6803F0F003302B01D101234E
:10AE200000E0002318467047E00F00F0E40F00F048
:10AE3000E80F00F00A4B1B68DBB2062B0DD1094B63
:10AE40001B6803F00F03002B07D1074B1B6803F0AF
:10AE5000F003502B01D1012300E000231846704776
:10AE6000E00F00F0E40F00F0E80F00F0124B1B6859
:10AE7000DBB2062B1DD1114B1B6803F00F03002B17
:10AE800017D10F4B1B6803F0F003302B01D10123C6
:10AE900010E00B4B1B6803F0F003402B01D10123A2
:10AEA00008E0074B1B6803F0F003502B01D101238E
:10AEB00000E0002318467047E00F00F0E40F00F0B8
:10AEC000E80F00F0124B1B68DBB2062B1DD1114BB3
:10AED0001B6803F00F03002B17D10F4B1B6803F007
:10AEE000F003302B01D1012310E00B4B1B6803F062
:10AEF000F003402B01D1012308E0074B1B6803F04E
:10AF0000F003502B01D1012300E0002318467047C5
:10AF1000E00F00F0E40F00F0E80F00F0064B1B68B4
:10AF2000062B05D1054B1B68062B01D1012300E040
:10AF300000231846704700BF300100103401001094
:10AF400000B583B00190019B1B681F2B04D90549F4
:10AF500040F2CD1003F084FF4FF0A043184603B039
:10AF60005DF804FBB874030000B585B00190084695
:10AF700011461A4603468DF803300B468DF8023011
:10AF800013468DF8013001AB1846FFF7D9FF039047
:10AF90009DF803209DF802305B001A439DF80130B4
:10AFA0009B001A439DF818301B0242EA03019DF8EA
:10AFB0001C301B04019A1943039B02F5E07243F80D
:10AFC000221000BF05B05DF804FB00B585B003900A
:10AFD0000023019300230093002301220121039801
:10AFE000FFF7C2FF00BF05B05DF804FB00B585B0F8
:10AFF00003900B468DF80B309DF80B200023019336
:10B00000002300931346002200210398FFF7ACFFB2
:10B0100000BF05B05DF804FB00B585B0019001AB41
:10B020001846FFF78DFF0390019B012202FA03F3FC
:10B030001946039800F086F800BF05B05DF804FBE0
:10B0400000B585B0019001AB1846FFF779FF03907A
:10B05000019B012202FA03F31946039800F07CF8E1
:10B0600000BF05B05DF804FB00B585B0019001ABF1
:10B070001846FFF765FF0390039BD3F8043502934E
:10B08000029BDA43019B012101FA03F31A40039B5F
:10B09000C3F80825019B01229A40029B1A40039B9A
:10B0A000C3F80C2500BF05B05DF804FB00B583B004
:10B0B00001900091009B002B03D10198FFF7C0FF86
:10B0C00002E00198FFF7A8FF00BF03B05DF804FBA2
:10B0D00000B585B0019001AB1846FFF731FF039032
:10B0E000039800F01FF80246019B22FA03F303F0D5
:10B0F0000103184605B05DF804FB00B585B001906A
:10B1000001AB1846FFF71CFF0390039800F012F8FC
:10B110000246019B22FA03F303F00103184605B02F
:10B120005DF804FB82B00190019BD3F810351846FE
:10B1300002B0704782B00190019BD3F804351846E5
:10B1400002B0704782B001900091019B009AC3F851
:10B15000082500BF02B0704782B001900091019BAA
:10B16000009AC3F80C2500BF02B0704700B585B047
:10B170000190019B032B03D911493A2003F070FE83
:10B18000104A019B13441B781846FFF7B6FF03468D
:10B19000002B14BF012300238DF80F309DF80F30D2
:10B1A000002B14BF01230023DBB283F00103DBB2C9
:10B1B00003F00103DBB2184605B05DF804FB00BFE5
:10B1C000E87403006075030000B583B00190019B33
:10B1D000032B03D90749412003F042FE064A019B95
:10B1E00013441B7801211846FFF760FF00BF03B02E
:10B1F0005DF804FBE87403006075030000B583B0DC
:10B200000190019B032B03D90749472003F028FE37
:10B21000064A019B13441B7800211846FFF746FF9E
:10B2200000BF03B05DF804FBE87403006075030021
:10B2300000B583B00023019305E00198FFF7DEFF1E
:10B24000019B01330193019B032BF6D900BF03B08F
:10B250005DF804FB00B583B00023019305E001987D
:10B26000FFF7B2FF019B01330193019B032BF6D93A
:10B2700000BF03B05DF804FB00B583B00190019BF3
:10B28000032B03D907495F2003F0EAFD064A019B1F
:10B2900013441B781846FFF7E7FE00BF03B05DF8C4
:10B2A00004FB00BFE87403006075030000B583B0C1
:10B2B0000023019309E0094A019B13441B781846B7
:10B2C000FFF783FE019B01330193019B032BF2D90E
:10B2D000FFF7AEFF00BF03B05DF804FB607503002D
:10B2E00000B585B00190019B032B03D91149AC2017
:10B2F00003F0B6FD104A019B13441B781846FFF774
:10B30000E7FE0346002B14BF012300238DF80F3006
:10B310009DF80F30002B14BF01230023DBB283F014
:10B320000103DBB203F00103DBB2184605B05DF8A0
:10B3300004FB00BFE87403006475030000B583B02C
:10B34000002301930AE0094A019B13441B7803215F
:10B350001846FFF74BFE019B01330193019B032B22
:10B36000F1D900BF03B05DF804FB00BF64750300B2
:10B3700084B001904FF0FF330293002303930DE05C
:10B380000A4A039B13441B781A46019B934202D13D
:10B39000039B029305E0039B01330393039B032B61
:10B3A000EED9029B184604B0704700BF64750300D5
:10B3B00000B583B00190019B032B03D90549CB2035
:10B3C00003F04EFD044A019B13441B78184603B05A
:10B3D0005DF804FBE87403006475030000B583B0F6
:10B3E0000190019B03F00103002B01D0FFF75EFFEA
:10B3F000019B03F00203002B01D0FFF79FFF00BF6A
:10B4000003B05DF804FB000082B003468DF80730FE
:10B410009DF8073003F01F0206499DF907305B09CC
:10B42000012000FA02F2203341F8232000BF02B0CD
:10B43000704700BF00E100E008B509F03FFC03469B
:10B4400083F00103DBB2002B03D10549792003F01F
:10B4500007FD00F031FB034B00229A7000BF08BDCE
:10B4600070750300B832002000B583B0002301934B
:10B47000144B1B78002B02D0852301931CE0114B49
:10B4800000229A600F4B00225A600E4B00221A6174
:10B490000C4B0022DA600C4800F0D4FA019009F05D
:10B4A0000DFC034683F00103DBB2002B01D000F05A
:10B4B000EFFA044B01221A70019B184603B05DF8A5
:10B4C00004FB00BFB8320020A1B5020084B0019097
:10B4D000019B1B680393039B002B03D0039B1A68FB
:10B4E000019B1A60039B184604B0704700B583B0F7
:10B4F000164B1B78002B04D115494FF4857003F0CF
:10B50000AFFC124BDB68002B04D1114940F20B1049
:10B5100003F0A6FC00238DF807300DF10703184651
:10B52000FDF722FB094BDB68013B084AD360074B60
:10B53000DB68002B01D1FFF77FFF9DF8073018462D
:10B54000FDF728FB00BF03B05DF804FBB832002014
:10B550007075030000B585B003468DF807309DF87F
:10B560000730002B02D10C4B039301E00B4B0393EC
:10B570000398FFF7ABFF0290029B002B06D0029BC3
:10B580005B689DF8072010469847F1E700BF00BFB1
:10B5900005B05DF804FB00BFC0320020C8320020B7
:10B5A00000B583B003468DF807309DF80730002BB7
:10B5B00005D10A4B01225A700020FFF7CBFF9DF8FE
:10B5C0000730012B05D1054B01229A700120FFF7AE
:10B5D000C1FF00BF03B05DF804FB00BFB83200201C
:10B5E00000B583B001900091019B002B05D1054B64
:10B5F00001225A700020FFF7ADFF00BF03B05DF8D5
:10B6000004FB00BFB832002000B585B003460091AE
:10B610008DF807309DF80730012B07D0032B24D07D
:10B62000002B30D10020FFF7EFFE2DE000238DF836
:10B630000F300DF10F031846FDF796FA144B1B78E7
:10B6400083F00103DBB2002B01D0FFF70DFF104B9D
:10B65000DB6801330E4AD3600D4B01229A709DF8CE
:10B660000F301846FDF796FA0EE0094B1B78002BB9
:10B6700004D1084940F2452003F0F2FB00F008FA3B
:10B68000FFF734FF00E000BF00BF05B05DF804FB2A
:10B69000B83200207075030000B589B001900091A8
:10B6A000009B0793019B1B788DF80C30019B5B6816
:10B6B0000493019B9B68DBB28DF81430019BDB681F
:10B6C0000693074A079B52F823300649079A51F818
:10B6D000221003AA1046984700BF09B05DF804FB8A
:10B6E000CC320020D032002000B589B0019000910A
:10B6F000009B0793019B1B788DF80C30019B5B68C6
:10B700000493019B9B68DBB28DF81430019BDB68CE
:10B710000693074A079B52F823300649079A51F8C7
:10B72000221003AA1046984700BF09B05DF804FB39
:10B73000CC320020D032002030B58FB0039002917F
:10B740000192039B1B780C9326490C9B019A41F8AC
:10B750002320029B1A6924490C9B41F82320029B59
:10B760005B7F1946214A0C9B13440A461A70029BC0
:10B7700004AC1D460FCD0FC495E80F0084E80F0000
:10B780000C9B089300230D93039B1B781A46174BC1
:10B790009B5C002B0DD0039B181D019B002B01D03F
:10B7A000134A00E0002204AB194602F07BF90D9029
:10B7B00014E0039B1B781A460C4B9B5C002B0DD1AD
:10B7C000039B03F10C00019B002B01D0094A00E010
:10B7D000002204AB194601F0E7FA0D900D9B1846C4
:10B7E0000FB030BDCC320020D0320020D432002047
:10B7F00099B60200E9B6020082B003468DF8073020
:10B800009DF8073003F01F0205499DF907305B09D9
:10B81000012000FA02F241F8232000BF02B0704775
:10B8200000E100E082B0034600918DF807309DF9F9
:10B830000730002B0CDA009BDAB20C499DF8073078
:10B8400003F00F03043B5201D2B20B441A7609E015
:10B85000009BDAB206499DF907305201D2B20B447F
:10B8600083F8002300BF02B0704700BF00ED00E086
:10B8700000E100E082B00190019B1B0B5BB2184617
:10B8800002B0704700B583B003460A468DF8073012
:10B8900013468DF806309DF80630012B03D99DF82C
:10B8A0000630032B0BD99DF80630042B03D99DF8E5
:10B8B0000630072B03D908496B2003F0D1FA9DF815
:10B8C00006209DF9073011461846FFF7ABFF00BF71
:10B8D00003B05DF804FB00BFF475030000B583B04E
:10B8E00003468DF807309DF907301846FFF784FFAF
:10B8F00000BF03B05DF804FB82B003468DF807304B
:10B900000F4A9DF90730002B00DA1F335B115BB241
:10B9100052F823209DF90730594203F01F0301F02C
:10B920001F0158BF4B425BB222FA03F303F001033D
:10B93000002B14BF01230023DBB2184602B070476E
:10B9400000E100E082B001904FF08042019BC2F81C
:10B95000083300BF02B0704782B003468DF807304D
:10B960009DF8073003F1804301221A6000BF02B046
:10B97000704784B00346ADF80630BDF8063003F1D9
:10B98000804300221A60BDF8063003F180431B6833
:10B990000393039B00BF04B0704782B00346ADF829
:10B9A0000630BDF8063003F180431B68002B14BF3E
:10B9B00001230023DBB2184602B0704782B0019029
:10B9C0004FF08042019BC2F8183500BF02B07047AB
:10B9D0004FF08043D3F818341B0C03F00103002B05
:10B9E00014BF01230023DBB21846704700B583B0B3
:10B9F00006238DF807304FF08040FFF73BFF0346EA
:10BA00001846FFF779FF034683F00103DBB2002BF2
:10BA100013D04FF08040FFF72DFF03461A469DF8E4
:10BA2000073019461046FFF72DFF4FF08040FFF713
:10BA300021FF03461846FFF751FF00BF03B05DF832
:10BA400004FB000000B585B00190019B002B03D1E1
:10BA50000D49A42003F004FA002303930B4B1B7938
:10BA6000002B02D08523039308E0084A019B136052
:10BA7000064B01221A71054B00225A71039B18468E
:10BA800005B05DF804FB00BF2C760300D83200201F
:10BA900008B5074B1B79002B03D10649BD2003F0E5
:10BAA000DFF9FFF7A3FF0120FFF788FF00BF08BD04
:10BAB000D83200202C76030008B5094B1B79002BE7
:10BAC00003D10849F72003F0CBF90C20FFF744FF1E
:10BAD00000BFFFF77DFF0346002BFAD100BF08BD72
