:1000000000000120750300005D0300005F03000095
:1000100061030000630300006503000000000000AE
:100020000000000000000000000000006703000066
:1000300069030000000000006B0300006D03000076
:100040006F03000099390000BD2400006F03000019
:100050006F0300006F030000392300006F030000EE
:100060006F0300006F0300006F0300006F030000C8
:100070006F0300006F0300006F0300006F030000B8
:100080006F030000851800006F0300006F0300007D
:100090006F0300006F0300006F030000693500006C
:1000A0006F0300006F0300006F0300006F03000088
:1000B0006F0300006F03000000000000000000005C
:1000C0006F0300006F0300006F0300006F03000068
:1000D0006F0300006F0300006F03000000000000CA
:1000E0000000000000000000000000000000000010
:1000F0000000000000000000000000000000000000
:1001000000000000000000000000000000000000EF
:1001100000000000000000000000000000000000DF
:1001200000000000000000000000000000000000CF
:1001300000000000000000000000000000000000BF
:1001400000000000000000000000000000000000AF
:10015000000000000000000000000000000000009F
:10016000000000000000000000000000000000008F
:10017000000000000000000000000000000000007F
:10018000000000000000000000000000000000006F
:10019000000000000000000000000000000000005F
:1001A000000000000000000000000000000000004F
:1001B000000000000000000000000000000000003F
:1001C000000000000000000000000000000000002F
:1001D000000000000000000000000000000000001F
:1001E000000000000000000000000000000000000F
:1001F00000000000000000000000000000000000FF
:10020000354936480A1A02D0072291438D463449AF
:1002100034480A1A06D00722914381F30988022242
:1002200082F3148830483149314A00F044F83148AB
:100230003149324A00F03FF831483249324A00F041
:100240003AF832483249334A00F035F832483349F7
:10025000334A00F030F833483349344A00F02BF881
:1002600033483449344A00F026F8344834490022EF
:1002700000F02CF833483449002200F027F83348C6
:100280003349091A082902DB002202604160314A21
:1002900090471F481F49884205D00268043003B4C4
:1002A000904703BCF7E700208646EC46002000217B
:1002B000294A9047FEE7884207D0521A05D00378B2
:1002C00001300B700131013AF9D17047884202D0F8
:1002D00002700130FAE770470000012000E00020C2
:1002E0000000012000000120E85A0000000000206A
:1002F0004C000020D0030000D00300005654000042
:10030000E85A00000000002000000020F054000027
:10031000F0540000F0540000F0540000F0540000CD
:10032000F0540000F0540000F0540000E85A0000BF
:10033000345B00004C0000204C0000204C000020EA
:10034000300E0020300E0020300E0020300E002035
:10035000302E00209D03000011320000FEE7FEE772
:10036000FEE7FEE7FEE7FEE7FEE7FEE7FEE7FEE765
:1003700000F002B8FFF7FCBF0F484FF007018843B9
:1003800085460E4880470E48016841F470010160BF
:10039000BFF34F8FBFF36F8FFFF732BF09480A4992
:1003A0000A4A884207D0521A05D0037801300B70F0
:1003B0000131013AF9D17047000001209148000055
:1003C00088ED00E0F0540000000000200000002054
:1003D0007047000007B5044B0093044A402300F027
:1003E00032F803B05DF804FBF10300004D0000207B
:1003F0002DE9F84389461446B2B10F4B0F4E032541
:10040000002743F00108224609EB0701002004F011
:10041000CFF90744241A48B933782BB14FF47A4006
:10042000C047013D02D13570BDE8F8830123337028
:10043000002CE8D1F8E700BFF05400004C00002089
:10044000704704F0E9B9F0B595B01C461646084669
:100450000D4601F07CFD1A9B0D93CDE90864002444
:100460002346082205A928460A948DF82C400C94AE
:1004700001F08AFD079B0293069B03939DF81430BD
:100480008DF8114003F00302012A1DD1BDF814407C
:10049000059EC3F3C203C4F383148DF81030A20089
:1004A00008230EA9284601F06FFDC6F3952608AB78
:1004B0000093224602AB0EA9304600F0FBFB284613
:1004C00001F049FD15B0F0BD022AF8D1BDF8164083
:1004D000C3F3C203A4098DF810300827082C264660
:1004E00028BF08263B4632460EA9284601F04CFD9F
:1004F000A41B08AB02AA31460EA8374400F03EFC0C
:10050000002CEBD1DBE70000014B01221A70704791
:10051000CE0000207047000070B50E4D06460FCD8E
:1005200088B06C460FC495E80F00002E84E80F00D9
:100530004FF00603084A0948009308BF00226946A5
:1005400001F090FD08B100F061FE054B1E7008B08F
:1005500070BD00BF04550000090500000000002028
:100560008D00002007B5044B0093044A4023FFF799
:100570006AFF03B05DF804FB810500008E000020D7
:1005800038B50D4B0D4D002018700D4804782D5DC9
:10059000D2B21C4665B1043002F0E8FB08B100F0AD
:1005A00035FE084B1A7812B12378002BFBD038BDEA
:1005B0000C3002F0ADF9F1E7CE0000204407002036
:1005C000000000208D00002008B50848084A037884
:1005D000D35C3BB1043002F053FB0020BDE808407F
:1005E000FFF79ABF0C3002F02FF9F6E70000002069
:1005F000440700200120FFF78FBF000038B50A4DE7
:10060000FFF71FFF0421284600F0C2FA074B012420
:100610005C71FFF7EFFF042105F1100000F0B8FA5C
:10062000034B5C7138BD00BFA854000014000020CB
:100630001C000020037813F0040216D003F003031B
:10064000012B03D0022B09D0012070470A680088D3
:100650000232C0F3831002440A60F5E70B68428857
:10066000023303EB92130B60EEE710467047000075
:100670002DE9F04F044685B0851C00200F469046BA
:1006800000F0CAFF454806683E60D0E901321344D5
:1006900001339B1B824600F21C4600F5836900F281
:1006A0001447AB421AD30022B8F1000F6FD00523D4
:1006B00063F3070264F38912DAF80010DAF80830FD
:1006C0000B4003330D444AF823200020CAF80050A1
:1006D00000F0A4FF012005B0BDE8F08F01213046F5
:1006E00001F082F9484601F095F9384601F092F997
:1006F000DAF80400DAF808B0009000EA0B000330E2
:100700000AEB80006946FFF795FF009B50BB0BEAA0
:1007100003020AEB820203F1020CD2680192013358
:1007200003EA0B0B0AEB8B0B02F00302012ACDF854
:1007300000C0DBF80C1022D0022A16D083463846BF
:1007400001F06BF910B1009BCAF8043059463046ED
:1007500001F04AF9DAE901231344DAF80020013301
:100760009B1A9EE70BEA0300C9E7BDF806309B0918
:1007700003334FEA114B0CEB93030093DFE7BDF813
:100780000430C3F383134FEA114B6344F5E70623A8
:1007900063F3070264F39F528EE700BFA0010020BD
:1007A0000B4B0C48FF2210B59A600022C3F81824A6
:1007B000C3E90022C3F8142483F8202401F080FB4D
:1007C000044610B9044801F0E9FB204610BD00BF03
:1007D000A0010020C85400005455000030B50A4C58
:1007E00071B10A4A0A49121BD20800239A4201D168
:1007F000002030BD31F82350854202D00133F5E7A7
:10080000034654F83300F4E758540000A85400009D
:1008100000000020094B013903EBC000032909D86F
:10082000DFE801F00A0204060420704700797047EF
:1008300040797047002070470220704758540000EC
:10084000034BD3E90030C31A58425841704700BFE8
:10085000A00100202DE9F04385B0FFF7F1FF064627
:10086000002840F0F7807C4DC5F81804BFF34F8F87
:100870006868AC6800902040033005EB8000694652
:10088000FFF7D8FE009B18B1D5F81824002A5FD0D6
:1008900004EA0302991C013305EB8202234005EBB5
:1008A0008303D268DB68029302F00303022B0192F8
:1008B000009162D1BDF8063068484FEA9318B8F14C
:1008C000500FC14628BF4FF0500969F38F1309F14B
:1008D0000801ADF8063001F00BFB0746002800F0D8
:1008E000A48001F034FB01A900230822384601F05E
:1008F00041FB009924EA01060136B600B14535D91D
:100900005FFA89F97EB3F6B2A9EB060921400331FB
:100910005FFA89F4B146524E05EB810108234A463D
:10092000384601F027FB36B109F10803224631466B
:10093000384601F01FFB009B08F1030803EB980306
:100940000093D5F81834002B4BD1D5F810445BE058
:100950002A689A4204D86A60304605B0BDE8F08340
:1009600004EA030088E73E493446D7E721400331D3
:1009700008234A4605EB8101DAE7012B55D1BDF882
:1009800004303648C3F38311062928BF062161F3DA
:10099000891302318900ADF8043001F0A9FA074645
:1009A000002842D001F0D3FA0023082201A93846DA
:1009B00001F0E0FA0026BDF80420C2F38312B30070
:1009C000964203F10803BCD200994A1C214003312E
:1009D000009205EB81010422384601F0CBFA013682
:1009E000E9E7384601F0B7FAFFF72AFF80F0010087
:1009F000C6B2B1E7E3685B7923B1236839461B6867
:100A000020469847E3681C68002CF3D1384601F073
:100A1000A2FA204600F000FED5F818340BB9009B6E
:100A20006B60002000F0FAFDDEE7D5F8104454B901
:100A30000C4B0D480D49C01AC008000440F00200DC
:100A400000F06EF8D0E7236820469B689847E3687B
:100A50001C68ECE700267FE7A0010020C8540000D6
:100A6000AC0100205854000078540000605500008C
:100A70002DE9F74F284C80460F46924601A90122E6
:100A800018469B46D4F80890FFF7F2FD80B3019D0D
:100A90000026A91C5E4506EB010233D100211F4848
:100AA00000F082FF80F310006A1C02EA090204EBE6
:100AB0008202000405EA0903033340EA1840D060CB
:100AC00014F8232068F3C50204F8232034F8232007
:100AD00066F3891224F8232054F8232067F39F2219
:100AE00044F8232002F0F80242F0010204F8232027
:100AF00094F820341BB1FFF7ADFE0028FBD103B002
:100B0000BDE8F08F09EA020204EB82025AF82630AF
:100B1000D3600136BEE700BFA0010020BC05002065
:100B200000231A46FFF7A4BF07B50123019201AACB
:100B3000FFF79EFF03B05DF804FB07B5CDE9002386
:100B400002236A46FFF794FF03B05DF804FB1FB56C
:100B5000CDE90023069B0293079B03936A46042377
:100B6000FFF786FF05B05DF804FB7FB5CDE90023F4
:100B7000089B0293099B03930A9B04930B9B059389
:100B80006A460623FFF774FF07B05DF804FB000018
:100B900030B50F49D1F81024002314463CB9C4687D
:100BA000237152B9C1F810042260184630BDE468C0
:100BB00025799D4206D02468F0E7D268116821604B
:100BC0001060F2E701330A2BE7D14FF0FF33ECE777
:100BD000A0010020094A38B50123D2F8104482F858
:100BE00020341D4604B938BDE3685D712368204692
:100BF0005B689847E3681C68F4E700BFA001002029
:100C0000037A052B10B50C460FD0437A23B1084A5E
:100C10000849204600F05BFF0749204600F057FFD7
:100C20002046BDE8104000F047BF002AF8D0F3E7A7
:100C3000AB550000B0550000A7570000C38873B53E
:100C400004460D4633B1144A00921449144A28460A
:100C500000F03DFF217A05291CD0637A4BB1A088B2
:100C6000FFF7D8FD0F4B104953F82020284600F01D
:100C70002EFF227A0D4BA08853F822600021FFF747
:100C8000ADFD0B4903463246284602B0BDE8704030
:100C900000F01DBF02B070BDAB550000BB55000099
:100CA000B355000078550000B0550000E055000035
:100CB000D35500002DE9F04385B01F460C9D00235D
:100CC00006460C46904695F80C902B7329463846FC
:100CD000FFF7B4FFB8F1060F09D8DFE808F00412F7
:100CE000181F283340003146284600F0F0FE00224D
:100CF00029463846FFF784FF85F80C9005B0BDE81B
:100D0000F08322683146284600F0E1FEEFE7D4E99F
:100D100000233146284600F0DAFEE8E7A368009396
:100D20003146D4E90023284600F0D1FEDFE7E3682E
:100D30000193A36800933146D4E90023284600F0CC
:100D4000C6FED4E723690293E3680193A368009386
:100D50003146D4E90023284600F0B9FEC7E76369AD
:100D6000039323690293E3680193A36800933146D8
:100D7000D4E90023284600F0AAFEB8E708292DE9A7
:100D8000F84F80460E4617461C463AD8002593F881
:100D90000C901D7319461046FFF750FFDFF884A032
:100DA000DFF884B0AE422ED918F805205946204607
:100DB00000F08DFE0135082DF4D11849DFF86CB034
:100DC000204600F084FE4FF0000A564520D918F85E
:100DD0000A507E2D03D8284604F08AFA00B92E2541
:100DE0002A465946204600F072FE0AF1010ABAF17D
:100DF000080FEAD1012221463846FFF701FF84F8A7
:100E00000C90BDE8F88F5146204600F060FED1E717
:100E10000349204600F05BFEE7E700BFA65500004F
:100E2000A4550000A25500009C550000A8550000E4
:100E3000054A4FF0A043105CD3F8043523FA00F0C4
:100E4000C04300F0010070473F560000044B1A5C9D
:100E5000012393404FF0A042C2F80C35704700BF09
:100E60003F560000044B1A5C012393404FF0A04210
:100E7000C2F80835704700BF3F56000008B5002093
:100E8000FFF7F0FF0120FFF7EDFF0220FFF7EAFF79
:100E90000320BDE80840FFF7E5BF08B50020FFF7D5
:100EA000D5FF0120FFF7D2FF0220FFF7CFFF03207D
:100EB000BDE80840FFF7CABF074A4FF0A041105CE9
:100EC000D1F804350122824022EA03001340C1F820
:100ED0000805C1F80C3570473F5600000D2809D0B1
:100EE0000E2809D00F2809D010280CBF03204FF07E
:100EF000FF30704700207047012070470220704784
:100F0000C20708B501460CD54FF0A0430322C3F831
:100F10004427C3F84827C3F84C27C3F85027FFF7E6
:100F2000ADFF8B070AD54FF0A0430C22C3F834273E
:100F3000C3F83827C3F83C27C3F8402708BD000092
:100F4000C30710B507D4F0234008054A145C2340BA
:100F50001943115410BD0901C9B20F23F4E700BFB2
:100F60009006002030B5094B1C78094B1968002306
:100F70009C4202DC0022104630BD11F833508542FD
:100F800001EBC302F7D00133F2E700BF5C0600209B
:100F9000A006002070B504460D46FFF7E3FF30B110
:100FA000436823B129462046BDE87040184770BD0C
:100FB000034B044819680022490800F02CBA00BF0E
:100FC000600600206806002010B5C0B2FFF7CAFF17
:100FD0000446007801F0A6F963785A1E5342534143
:100FE000834208D1044BD3E90023134303D1BDE866
:100FF0001040FFF7DDBF10BD8806002038B5344A29
:1010000043080446D35CC2074CBF1B0903F00F031F
:101010000D46042B5BD8DFE803F003232B373A009F
:10102000002954D00121FFF78BFF002000F0F4FAD3
:101030000122A4F12003C4F12000264902FA03F39F
:1010400022FA00F0034302FA04F4D1E90020144329
:101050000343C1E900430020BDE8384000F0DEBA98
:10106000002918BF02212046BDE83840FFF768BFBD
:1010700041B10321FFF764FF20460121BDE838405C
:10108000FFF788BF0121EEE709BB0421EBE709B1B7
:101090000321E8E7FFF754FF29462046FFF77AFFD0
:1010A000284600F0B9FA0122A4F12003C4F120007F
:1010B000084902FA03F322FA00F0034302FA04F4A7
:1010C000D1E9002022EA040420EA0303C1E738BD85
:1010D00090060020880600202DE9F041124E134FA3
:1010E00000243378A34208DC114BD3E900231343D7
:1010F00018D0BDE8F041FFF75BBF3D6805EBC408C1
:1011000015F8340001F00EF998F801104B1E594201
:1011100059410A1A514215F834005141FFF76EFF48
:101120000134DEE7BDE8F0815C060020A006002067
:1011300088060020092AF7B505460C4616463DD913
:1011400001F02EF8D8B11E4B1E481D601E4B1F4FDC
:101150001C701F4B002110221E6004F0F7F81D4B7D
:1011600000200021C3E90001013CE4B20326FF2C6A
:101170000BD1194A1948002100F042F903E000F0B0
:10118000D7FF0028DFD003B0F0BD20B29DF80630B5
:101190008DF8046005EBC00223F007038DF80630DC
:1011A00001A9937815F830008DF805303A4601F022
:1011B00001F8013CE4B20028D9D0E4E70720E2E7D7
:1011C000A0060020900600205C060020C90F000049
:1011D0006006002088060020D91000004456000058
:1011E00070B5084D084E00242B789C4201D3002096
:1011F00070BD3368012113F8340001F04FF8013459
:10120000F2E700BF5C060020A00600201FB5002109
:10121000039001AA44F20100CDE9011100F004F8A5
:1012200005B05DF804FB000010B572B6FFF7D2FC04
:10123000FFF710FB0028FBD1104B114C1149E41AA9
:10124000E408240444F00100FFF76AFC0E4B1B681D
:10125000DB0700D500BE0D4944F00200FFF760FC3B
:10126000BFF34F8F0A490B4BCA6802F4E062134385
:10127000CB60BFF34F8F00BFFDE700BF58540000A5
:101280007854000053560000F0ED00E05F56000077
:1012900000ED00E00400FA05D0E90223D1E90201E3
:1012A000994208BF90422CBF0120002070470000E7
:1012B0002DE900480C4800F0D0FA0C4BD3E900238C
:1012C00012EB000B43F1000C094BD3E900239C45C2
:1012D00008BF93455846614603D21BF180704CF11C
:1012E0000001BDE8008800BF24000020A8060020FF
:1012F0002007002037B505460C460A4801A900F032
:10130000DEFA60B10570446001A9064800F001FBF7
:1013100018B1054800F0A6FA002003B030BD042043
:10132000FBE700BF0C07002024000020194B1B78AE
:101330002DE9304804461BB900252846BDE8308811
:101340000028F9D0037F03F0FF05002BF4D0FFF74E
:10135000AFFFD4E90223994208BF904215D3236915
:1013600003B92377D4E90530984721690029E3D0F0
:10137000237F03F0FF05002BDED0D4E9022312EB1C
:10138000010B43F1000CC4E902BC2146024800F005
:101390000EFED2E7B00600207056000013B5114BC8
:1013A00011491868019008235822104800F074FA77
:1013B000044698B90E4A0F4801A900F03FF90446C7
:1013C00060B901210B4800F02BFA01230A4A0948B1
:1013D000194600F091F9094B01221A70204602B01B
:1013E00010BD00BF6C560000B40600200C070020A2
:1013F0006114000024000020FFFF7F00B0060020E1
:101400003AB103685A614A1E5142514119610020A4
:1014100070470720704738B5037F04460D4683B9EF
:101420008261FFF745FF421941F10003C4E902233D
:10143000236903B1256121460020BDE83840FFF74C
:1014400059BF002038BD0023014603770120FFF774
:1014500051BF0000014800F000BA00BF2400002086
:101460002DE9F04F85B0074600F0E2F940B1594A46
:10147000D2E9003113F1807341F10001C2E900317A
:101480000021384600F0E3F938B1534C236823B10A
:101490002068FFF74BFF002323600121384600F04E
:1014A000D6F920B1FFF704FF4C4BC3E9000103A9B3
:1014B0004B48494D4B4C4C4E00F03BFA002845D16F
:1014C000DFF820A1444CDFF828B1504600F085FD3C
:1014D0002368002875D07BB12368D0E90201D3E9E5
:1014E0000223994208BF90422DD223681B7F1BB173
:1014F0002168504600F05BFD504600F068FDD0E9E1
:10150000026305460193FFF7D3FE019BB6EB00088B
:1015100063EB0109B8F1010F79F1000344DB334EAD
:10152000B0453FD9FFF796FF82194FF4960300218B
:10153000584600F001F900283ED1236813B9384617
:1015400000F0D2F8256005B0BDE8F08F0378012BDC
:101550001DD05BB1022B11D14FF0000A204600F0E4
:1015600036FD002833D080F81CA0F7E741680B7FD8
:1015700023B901230B77204600F019FD03A9184871
:1015800000F002FA03A9164800F0D3F996E7416883
:101590002B68994202D100232B60EFE7204600F030
:1015A0001FFDEBE7AA68C0E70021584600F045F9A7
:1015B0002846FFF7BBFE01E00D28F9D00023236089
:1015C00083E7002BBFD1384600F092F8BBE7012338
:1015D0003370D3E7A806002028070020200700204A
:1015E0000C07002070560000B0060020FFFFB4007A
:1015F0002400002072B6024A13680133136070475A
:101600002C070020034A1368013B136003B962B63C
:10161000704700BF2C070020FFF7ECBFFFF7F2BFB9
:10162000435882B03BB10023435043580193019B80
:10163000012002B070471846FBE70000F8B5224BC6
:101640004679224D43F82620214A224BF7009B1A67
:10165000EA19DB0812791B0432B143F002001E497B
:10166000FFF75EFA0820F8BD02680C88C2F808454A
:1016700090F904208978002AA8BF02F1604CD4B206
:10168000BABF04F00F0EDFF858C00CF5614C4FEAFA
:101690004111C9B2B4BF0CF80E108CF800135209F6
:1016A0000121DFF840C004F01F042F4401FA04F4C4
:1016B0004CF82240397145F83600084943F00300E0
:1016C000FFF72EFA0020CEE7380700203007002071
:1016D000585400008854000096560000B856000088
:1016E00014ED00E000E100E0036801221A60704799
:1016F000036801225A60704773B501F15005AD00CF
:101700000068ADB24FF480348C400026C0F8084326
:10171000C0F84843465101F5A8714559019522F09A
:101720007F42019D40F82120C0F844430BB1C0F82E
:10173000044302B070BD00002DE9F74F884699467A
:101740004FF48036036808F150058E404FEA880A4E
:10175000AD00C3F84863ADB2C3F80863074603EBB6
:101760000A00D3F804154FF0000B22F07F44D0F8A4
:101770004025C0F8401543F805B05B590093009B25
:10178000531A23F07F43012B0BD1244B4FF480607D
:1017900043F0010398473B6843F805B05B59019358
:1017A000019B3868D0F80455C0F84463631B23F0EC
:1017B0007F43012B1AD108F5A878184B013440F863
:1017C000284043F001034FF4806098473B68D3F80A
:1017D00004359D4208D13B680020C3F84463C3F838
:1017E000046303B0BDE8F08F0D20FAE78244C9F12D
:1017F000FF19CAF84045D0F80435E21A013A22F040
:101800007F4209F57F499145EED3002AE3D10134A7
:10181000CAF84045D0F804259342DBE79056000013
:1018200003680222C3F8442309B1C3F804237047B4
:101830004FF482710068FFF7F3BE4FF4803303FA70
:1018400001F10368C3F84813C3F808137047503117
:10185000890089B20068FFF7E3BE0368D3F8040586
:101860007047000090F9043001215A0903F01F036A
:1018700001FA03F34032024941F82230704700BFB9
:1018800000E100E0024B034A1B681068184700BFE4
:10189000380700203007002010B561B1B2FBF3F427
:1018A00003FB1424A4B244B9C0E90014846082810B
:1018B000C381204610BD0E20FCE70920FAE737B5AA
:1018C00050E8013F9DB2C48925448489A54228BFC0
:1018D0002D1B0489A54202BFBFF32F8F002207E012
:1018E000C5EA030540E80154002CE9D14FF001029C
:1018F0008DF803200193019B9DF803200B6002F0FB
:10190000FF0322B10B880068184403B030BD1846AD
:10191000FBE70A884B889A4209D150E8012FC2EAB6
:10192000024240E80123002BF7D10120704700203C
:10193000704737B550E8023F1FFAA3F5C488A542A7
:1019400002BFBFF32F8F00220DE0C4892544848994
:10195000A54228BF2D1BC3EA054540E80254002CD0
:10196000E8D14FF001028DF803200193019B9DF80F
:1019700003200B6002F0FF0322B14B88006818447B
:1019800003B030BD1846FBE70A884B889A4209D15C
:1019900050E8022FC2EA224240E80223002BF7D18E
:1019A000012070470020704750E8002F0B4640E8A8
:1019B000003C9CF0000FF7D11046704750E8003F04
:1019C00043EA010240E8002C9CF0000FF6D11046DB
:1019D000704750E8002F02EA010340E8003C9CF009
:1019E000000FF6D11046704750E8003F03EB0102AC
:1019F00040E8002C9CF0000FF6D11046704750E8EC
:101A0000003FA3EB010240E8002C9CF0000FF6D150
:101A1000104670470121FFF7D1BF0021FFF7D9BF62
:101A200010B590B1D0E9012301689B1ADBB20A60BE
:101A3000013BDBB2FF2B026802D10020107110BD08
:101A400011684C1C14600B70F2E70E20F7E738B5F4
:101A500004460020FFF7E0FD2268636811689942A0
:101A600013D9481E106011F8015CE368218A01FB5C
:101A70000535A36811791B1ADBB2994200D21371A4
:101A80000020FFF7CBFD284638BD0025F8E738B524
:101A9000054600200C46FFF7BFFD2A681368591C55
:101AA0001160E968641A298AB4FBF1F41C70002003
:101AB000BDE83840FFF7B2BD826810B504462AB1D0
:101AC00043690168006998470023A36010BD0EB404
:101AD00003B5039921B104AB01AA019300F074F896
:101AE00002B05DF804EB03B070470A2938B504462C
:101AF0000D4602D10D21FFF7F8FFA3682268591C9B
:101B0000A160D554D4E901329A4204D32046BDE8FD
:101B10003840FFF7D1BF38BD2DE9F84F9946DDE9D0
:101B20000A431746824688460A460126BA420FD221
:101B30004E4538BF4E4613F0010B01D164B9002465
:101B40000125B9F1010F1AD909F1FF397D43F8E7F1
:101B5000B2FBF7F20136E9E79B070ED5B9F1000FAA
:101B60000CBF30252025A642EAD2013C294650462A
:101B7000FFF7BBFF002CF6D1E1E72025F3E7B8FB28
:101B8000F5F39F42E2D9DFF83C90B8FBF5F35046FD
:101B900019F8031005FB1388FFF7A7FFB5FBF7F350
:101BA000BD4207D2BBF1000F02D00CB1A64203D355
:101BB000BDE8F88F1D46E8E720215046013CFFF7BD
:101BC00094FFF2E7CA5600002DE9F74F0546174685
:101BD0008846002900F0308118F8011B49B92B7B99
:101BE000002B00F02981284603B0BDE8F04FFFF735
:101BF00063BF252940F0C080002698F800302D2BC7
:101C0000424608F1010823D0302B24D02B2B25D0BD
:101C100000242A2B02F1010123D13B681A1D1B6805
:101C20003A601C440A4613782E2B26D101324FF01D
:101C30000009104610F8011BA1F1300CBCF1090F8E
:101C40001DD80A2303FB0913A3F130090246F0E76C
:101C500046F00106D1E746F00206CEE746F004065C
:101C6000CBE711F8013CA3F130000928DBD80A22A8
:101C700002FB0434303C0A46CBE74FF0000912F86F
:101C8000011B01F0FB0068289046F8D069290ED0AE
:101C90004AD8582964D006D825296DD098F8003044
:101CA000002B99D19BE7632962D06429F6D13A6869
:101CB000D2F800A0111D8AEAEA723960A2EBEA723A
:101CC0004FF0010B092A5BDCCB4538BFCB462CB16A
:101CD000BAF1000F01DB720700D5013CB30702D552
:101CE000B9F1000F04D0F00702D4002C4ED100242B
:101CF000BAF1000F52DACAF1000A2D212846FFF787
:101D0000F4FE06F00302022A05D1B9F1000F02D158
:101D1000002C47D10024CDE900464B460A2251460B
:101D20002846FFF7F9FEB9E773294CD014D870297B
:101D3000B4D13B681A1D3A60302128461C68FFF771
:101D4000D4FE78212846FFF7D0FE00220823CDE9F3
:101D5000003221461022E3E775292BD078299DD146
:101D600039680A1D3A60CDE900464B46102228E04A
:101D70003B681A1D19783A602846FFF7B6FE8DE7D2
:101D80000A230BF1010BB2FBF3F29BE7A345AFD2A1
:101D900020212846013CFFF7A8FEA6E77107B0D531
:101DA0002B21ABE7A345B6D230212846013CFFF7F3
:101DB0009CFEADE73968CDE900460A1D3A604B4606
:101DC0000A220968ACE73B681A1D3A6016F0010662
:101DD000D3F800A020D1BAF1000F03D0504603F091
:101DE0000AFB0646B44200D9C4B90AF1FF3A1EE024
:101DF00028460136FFF779FE1AF806100029F7D1B8
:101E0000A642BFF44BAF002C3FF448AF2021284638
:101E1000013CFFF76AFEF3E70026EDE720212846A4
:101E2000013CFFF762FEDDE72846FFF75EFE1AF889
:101E3000011F0029F8D131E703B0BDE8F08F2DE98B
:101E4000F047B0F806904479D2F800A09DF82080C1
:101E500009FB04F4043C06460AEB0300A0420F46CB
:101E600088BFA4EB030A191DC2F800A0B1FBF9F565
:101E700009FB15114DB9A9EB0104544528BF54467F
:101E8000BAF1000F04D1BDE8F0873668013DF1E7F3
:101E900004317B1970182246B8F1000F0ED00146AC
:101EA0001846AAEB040A03F028FAD14525443668FF
:101EB0004C464FF0000128BF5446E1E71946F0E7D1
:101EC000FFF7AEBDF8B546790146721E0546002300
:101ED00093422D6803D30024A64202D8F8BD0133F3
:101EE000F6E70F682846FFF7D2FD01343946F3E7DD
:101EF0002DE9F843068ACD1C0746FFF7A8FD043EEE
:101F000035440446B5FBF6F5F0B14FF48073EDB2FD
:101F10008380C680013D076081464FF00008A845D8
:101F200012D23846FFF793FD064648B16379013374
:101F3000637108F10108C9F8000007608146EEE707
:101F40002046FFF7BFFF34462046BDE8F883012155
:101F50000430FFF749BD10B5012104460430FFF7F6
:101F60004EFD10F0FF0F04D12046BDE81040FFF7F2
:101F7000A9BF10BD1FB503920022009203AAFFF76C
:101F80005EFF05B05DF804FB1FB5039201220092CD
:101F900003AAFFF754FF05B05DF804FB8368002235
:101FA0005A609A60C3E90422DA601A60704770B51B
:101FB000446806460D46206818B1B368294698471C
:101FC00018B923682B60256070BD2468F3E7436867
:101FD000186808B102681A6070474368186870474B
:101FE0004368186800B97047884203D102681A60D4
:101FF0000120704703460068F4E700001FB503782E
:102000008DF800304368019383688DF80830C36809
:102010000393054A054B684653F8213052F82110C6
:10202000984705B05DF804FB3C07002040070020FE
:102030001FB503788DF800304368019383688DF8ED
:102040000830C3680393054A054B684653F82130AE
:1020500052F82110984705B05DF804FB3C070020BA
:1020600040070020F0B5184B077891F81DE043F8C1
:102070002720164B16460A6943F82720144B03F80D
:1020800007E00C4684460FCC89B06D460FC594E836
:102090000F0085E80F000497BEF1000F0AD0002E54
:1020A0000C4A694608BF32460CF1040000F022FDDC
:1020B00009B0F0BD002E084A694608BF32460CF14F
:1020C0000C0000F007FBF3E7400700203C0700206E
:1020D00044070020FD1F00003120000000F1804077
:1020E00000F5C040002382B0036003680193019BA8
:1020F00002B07047800000F1A040D0F8003723F410
:102100004033C0F80037D0F8003743EA0141C0F847
:1021100000177047054B4FF0FF32072843F8202087
:1021200084BF1B1883F84820704700BF4807002071
:1021300010B5174C94F8583043BB04F130032021FC
:10214000FF22013911F0FF0103F8012BF9D1C8B2C8
:10215000FFF7E0FF01310C29F9D1042200210D48DD
:1021600003F0F4F80C4BC02283F8062340221A60D7
:102170004FF4BE70FFF7B2FF084B4FF00042C3F8B8
:102180000423012384F85830002010BD0820FCE708
:10219000480700209C07002000E100E000600040AC
:1021A000034B93F85800003018BF0120704700BF60
:1021B00048070020F0B5374B1C1894F93040002C2C
:1021C0001C4664DA8D78C5F34005002D0BBF08234B
:1021D00000230C260826B34201D10420F0BD54F898
:1021E000237001373FD1261844F8232086F8303079
:1021F00015B9E21882F848008A78550713D4D60733
:1022000033D5820002F1A042D2F8005725F0020532
:10221000C2F80057204EC50800F007070122BA4057
:10222000775D3A4372558A780D7812F0020225D014
:102230009B0003F1804303F5C0430202D3F810155D
:1022400021F4473121F44071C3F810152D04D3F85F
:10225000101502F4F85205F440352A430A43C3F836
:1022600010250020BAE70133B5E74D7800F5E0729C
:102270004FF0A046AD0046F82250CBE7083B234480
:1022800093F8501041EA851583F85050E9E708208B
:10229000A4E700BF480700209C07002038B51F4C6A
:1022A000251895F93020072A17DD224492F84810A6
:1022B000890903290CD14FF0A043D3F81035C3404E
:1022C00013F0010F08BF0221BDE83840FFF712BF2D
:1022D000012914BF03210221F6E7D3B2072B1CD832
:1022E000930003F1804303F5C043D3F8100540F099
:1022F0000100C3F8100502F14000800080B2FFF732
:10230000EDFE51B195F9303054F823302BB1012353
:1023100003FA02F2024BC3F8042338BD4807002039
:10232000006000404FF0A043D3F8103523FA00F0CE
:1023300000F00100704700002DE9F04F85B0002447
:102340005A4D01944FF48072012102F1804303F54C
:10235000C04390B21B68012B06D1D5F804330B4261
:1023600002D0FFF7BBFE0C430432B2F5907F4FEA78
:102370004101EAD14E4B1B68012B0AD14FF4BE70CC
:10238000FFF7ACFE4FF0A04344F00044D3F8103503
:10239000019314F0FF0F1AD0464F00250126344256
:1023A00010D0AB0003F1804303F5C043D3F8100510
:1023B000D3F8101557F8253023B1C1F30141C0F30C
:1023C000042098470135082D4FEA4606E7D1002C36
:1023D00064DA00224FF0FF33CDE90223354D0127A7
:1023E0004FF0000A344E54464FF0A04816F9012B26
:1023F000531C46D0D2B222F0C0094FEAD90104A83A
:10240000084402F0070310F804CC07FA03F31CEAAF
:10241000030F36D005EB090C92099CF930C055F832
:102420002CB0BBF1000F0AD1032A2AD10DF1080EFE
:102430001EF801C04CEA030C0EF801C001E0032AAB
:10244000F4D009F5E07110F80C0C58F8211018427E
:10245000C1F3014105D0022913D1032A0BD1114642
:1024600004E003290DD1032A05D102214846FFF7D4
:1024700041FE0134E4B2BBF1000F02D011464846E0
:10248000D8470AF1010ABAF1040FAFD134B14FF0C5
:10249000A043019AD3F81035934202D105B0BDE8AC
:1024A000F08F0193029B03939AE700BF0060004006
:1024B0007C6100404807002098070020014B1B6802
:1024C000184700BFA407002038B50B4B98420D46B3
:1024D00001D0002038BD0020FFF79EF8074B1C7983
:1024E00014B901221D601A710020FFF797F8002C23
:1024F000EFD01120EEE700BF00200040A40700202D
:10250000034B984201BF034B00221A601A717047B7
:1025100000200040A40700200023435082B043580D
:102520000193019B02B070470A4610B54FF48E71BB
:10253000FFF7F2FF136A9168C95C136A01331362F3
:10254000C0F81C1510BD8B690A4610B54FF4847194
:1025500023B9FFF7E1FFD0F8183510BDFFF7DCFF16
:10256000536AD168D0F81805C854536A01335362CE
:10257000F3E700001FB501238DF80030044BCDE9CF
:102580000110D3E900126846904705B05DF804FBDE
:10259000AC07002030B54D4AD2F8043313F4007F65
:1025A00085B015464FD0D2F82431002B4BD04FF4D4
:1025B00092711046FFF7B0FF4FF40173C2F8083371
:1025C000434B93F8291009B9012151603F49022278
:1025D0008DF80020D1F88024C1F8802403929A69F4
:1025E0000292DA6801920022C3E906226846D3E922
:1025F000001290473548D0F81C315BB134494A6924
:102600000B6A9A420A464BD991F82830002B47D1E1
:10261000FFF78AFF2D4AD2F8443193B14FF4A271EB
:102620001046FFF779FF2A4B93F8291009B10121D1
:1026300011609A692AB100229A61586AD968FFF735
:1026400099FF05B030BDD5F804335B07D2D5D5F876
:102650000831002BCED01E4C1C482146FFF773FFDB
:10266000636AA2699A422346C4D1E269E1684AB129
:102670002369E3600023606AA261E3616362FFF79C
:1026800079FFB7E794F829200AB901226A600F4A56
:102690004FF40170C2F8080300229A61586AEEE70D
:1026A0004FF48E710948FFF737FF5369002BB1D003
:1026B00051690291002391688DF8003001915361B6
:1026C0006846D2E900139847A4E700BF0020004005
:1026D000AC0700202DE9F843564F047991462C228F
:1026E00002FB0472064692F82A200D46002A40F0AA
:1026F0009A8051490068FFF7E7FE8046002840F0C5
:10270000958029683368481C0BD04FF0A040012207
:102710008A40C0F8082501F5E0724FF0030C40F83C
:1027200022C06868421C1FBF00F5E0724FF0A04C49
:102730004FF0000E4CF822E0AA6995F814C0C3F8D7
:1027400024256A7DBCF1010F4CEA0202C3F86C2516
:10275000C3F81405C3F80C151DD1AA68511C1FBF7E
:1027600002F5E0714FF0A0404FF0000C40F821C09E
:10277000E968481C0BD04FF0A04C01208840CCF8F1
:10278000080501F5E0704FF0030E4CF820E0C3F8A7
:102790000815C3F810252C236343FA18C2F80490D7
:1027A0002A69FA50B9F1000F2AD04FF48E713068BF
:1027B0002D7FFFF7B1FE30684FF4A271FFF7ACFE3A
:1027C00032681E4BC2F80433120B51B20029A8BF65
:1027D00001F160404FEA4513BABF194802F00F05F6
:1027E00000F56140DBB2B4BF435580F8003302F01E
:1027F0001F02012303FA02F24909124B43F8212078
:1028000033680422C3F800252C2303FB0473002241
:10281000C3E9062283F829205A61012283F82A207D
:102820004046BDE8F8834FF00808F9E74FF011087B
:10283000F6E700BFAC0700209525000080000200ED
:1028400014ED00E000E100E0F8B5047900682D4DDA
:102850000023C0F800352C2303FB04535B6873B1DD
:10286000294BC0F80833020B53B201215B0902F077
:102870001F0201FA02F22033244941F82320D0F844
:102880000C65D0F81415D0F80835D0F810254FF0A5
:10289000FF37BE42C0F8147518BF06F5E076C0F8E1
:1028A0000C75C0F80875C0F810751EBF4FF0A04732
:1028B0004FF0020C47F826C04E1C1FBF4FF0A04639
:1028C00001F5E071022746F82170511C1FBF4FF03F
:1028D000A04102F5E072022641F822605A1C1FBF97
:1028E00003F5E0734FF0A042022142F82310FFF7F6
:1028F00007FE2C2303FB0454002384F82A30636072
:10290000F8BD00BFAC0700208402020000E100E037
:102910002DE9F84F224F06794FF02C0909FB067478
:1029200080466569002D38D16261A16025624FF44F
:102930008E71006884F82850FFF7EEFDD8F800008B
:10294000012383602146FFF7EFFD6368A1469BB931
:10295000D8F800A0D4F814B0236A9B4512D8D8F850
:102960000020D2F81C31002BFBD00123D3602C2394
:1029700003FB067300225A612846BDE8F88F94F8DD
:10298000283043B9DAF81C31002BF8D049465046BC
:10299000FFF7CAFDE0E70F25E9E71125ECE700BFE7
:1029A000AC0700200023435082B043580193019BA1
:1029B00002B070471FB501238DF80030044BCDE9FC
:1029C0000110D3E900126846904705B05DF804FB9A
:1029D000D80700207FB5454AD2F82461002E63D085
:1029E00010464FF49271FFF7DDFF02238DF800309F
:1029F000D2F88034C2F880340393D2F83C35029385
:102A00003B4BDA6801920022C3E906226846D3E90B
:102A100000129047354AD2F844317BB14FF4A2718D
:102A20001046FFF7BFFF324B996939B10021C3E966
:102A30000611D968D2F83C05FFF7BCFF2B4AD2F843
:102A40002031B3B14FF490711046FFF7ABFF012373
:102A5000D360274B596961B1D2F84C15029100221D
:102A600099688DF8002001915A616846D3E90012F7
:102A700090471E4AD2F85831A3B14FF4AC711046BA
:102A8000FFF790FF1A4B596961B1D2F84C150291CA
:102A9000002299688DF8002001915A616846D3E9B7
:102AA0000012904704B070BDD2F81031002BB1D0A5
:102AB0004FF488711046FFF775FF0D4BD2F83C05B7
:102AC00099698842A6D1DC69D96864B1D2F800520C
:102AD00025F02005C2F800521A699C61DA60DE61B7
:102AE000FFF768FF96E79C61FAE700BF002000400F
:102AF000D80700202DE9F8435C4F0679914624223F
:102B000002FB0672044692F820200D46002A40F08F
:102B1000A78057490068FFF7D7FC8046002840F09F
:102B2000A28029682368481C0BD04FF0A0400122E6
:102B30008A40C0F8082501F5E0724FF0030C40F818
:102B400022C06868421C1FBF00F5E0724FF0A04C25
:102B50004FF0000E4CF822E0AA6995F814C0C3F8B3
:102B600024256A7DBCF1010F4CEA0202C3F86C25F2
:102B7000C3F80C15C3F814051DD1AA68511C1FBF5A
:102B800002F5E0714FF0A0404FF0000C40F821C07A
:102B9000E968481C0BD04FF0A04C01208840CCF8CD
:102BA000080501F5E0704FF0030E4CF820E0C3F883
:102BB0000815C3F8102524237343FA18C2F80490AB
:102BC0002A69FA50B9F1000F39D04FF488712068A2
:102BD0002D7FFFF7E7FE4FF490712068FFF7E2FECC
:102BE0004FF492712068FFF7DDFE4FF4A271206868
:102BF000FFF7D8FE20684FF4AC71FFF7D3FE2268D0
:102C00001C4BC2F80433120B51B20029A8BF01F1CA
:102C100060404FEA4513BABF174802F00F0500F5B0
:102C20006140DBB2B4BF435580F8003302F01F02AD
:102C3000012303FA02F24909104B43F821202368CB
:102C40000822C3F80025242303FB06730022C3E9EE
:102C500006225A61012283F820204046BDE8F8830D
:102C60004FF00808F9E74FF01108F6E7D807002001
:102C7000D52900001003420014ED00E000E100E05F
:102C8000F8B5374D0479242303FB045306465B68EB
:102C9000006873B1334BC0F80833020B53B2012103
:102CA0005B0902F01F0201FA02F220332E4941F8BB
:102CB0002320D0F80032012223F02003C0F8003294
:102CC0004FF4AC714260FFF76DFE3068C260D0F81F
:102CD0005831002BFBD00023C0F80035D0F80C652C
:102CE000D0F81415D0F80835D0F810254FF0FF377C
:102CF000BE42C0F80C7518BF06F5E076C0F8147532
:102D0000C0F80875C0F810751EBF4FF0A0474FF00F
:102D1000020C47F826C04E1C1FBF4FF0A04601F51D
:102D2000E071022746F82170511C1FBF4FF0A041EF
:102D300002F5E072022641F822605A1C1FBF03F51B
:102D4000E0734FF0A042022142F82310FFF7D8FBB6
:102D5000242303FB0454002384F820306360F8BD6F
:102D6000D80700201003420000E100E001F06043BA
:102D7000B3F1005F2DE9F041074638D11E4B0679CB
:102D8000242505FB063598466C69002C31D16A6113
:102D9000A96000684FF49071FFF704FE4FF4AC7126
:102DA0003868FFF7FFFD3B686A69A968C3F84415F6
:102DB000C3F8482501229A606A68AAB9D3F820218D
:102DC000D3F858411AB9002CF8D00F2407E0002C92
:102DD000FBD10122DA60D3F85821002AFBD024234A
:102DE00003FB0686002373612046BDE8F0811024B2
:102DF000FAE71124F8E700BFD80700200220FEF709
:102E00005BB800002DE9F04781460D46FEF766F8F5
:102E10000328044604D8012D04D025B3022D2FD059
:102E2000BDE8F087194D47003A18A918AE5C4A78FA
:102E300052B1DFF86880164842464FF48041FEF7F1
:102E4000EAFA08B988F800903B192B449A78114B9C
:102E50001A55002EE4D0104B1B68002BE0D03046F2
:102E6000BDE8F04718470A48FEF7EDFA074B04EBB8
:102E7000440213449E78074B1B5DB342D0D1E8E770
:102E8000024B00EB40041C446678E2E76008002037
:102E9000200800207908002074080020FC0700208A
:102EA00002210078FFF7AEBF08B5094B1B7853B17C
:102EB0000020FDF7D7FF0120FDF7D4FF0320BDE878
:102EC0000840FDF7CFBFBDE80840FDF7D7BF00BF02
:102ED000FD070020F8B57B4C237805461BB1002385
:102EE0002370FFF7E1FF172D00F28880DFE805F07F
:102EF0000C17174354657680888D888D959A9A9A19
:102F00009A9AC4C9D1D9E4E4FFF7CEFF6E48FEF720
:102F10009AFA6E4B002204461A702046F8BD002033
:102F2000FDF786FFF8B10020FDF79CFF022D0CBFD6
:102F30004FF4E1614FF47A61644B1D704FF400402F
:102F40004FF47A740025E0FB01454FF4FA62002348
:102F50002046294602F00CF9002201465A48BDE8F5
:102F6000F840FEF758BAFDF771FF022D0CBFC821DB
:102F70004FF4C871E0E70020FDF75AFF40B1002090
:102F8000FDF770FF4FF44871504B03221A70D5E7DC
:102F9000FDF75CFFC821F7E70020FDF749FF38B1D6
:102FA0000020FDF75FFF4FF47A61484B0422EDE704
:102FB000FDF74CFF4FF4C871F7E70020FDF738FF2D
:102FC00048B10020FDF74EFF404B05221A7040F635
:102FD000CD410022C2E7FDF739FFF5E70020FDF7FC
:102FE0006BFF3A4B06221A70002240F26661B5E789
:102FF0000020FDF72BFF354B07221A7000248CE7C9
:1030000001202070FDF758FFEEE701202070FDF74A
:1030100053FF00224FF40051A0E7FDF73EFF2B4B7A
:103020000C22EAE72A482B4EFEF70DFAD5F11105DE
:1030300004461CD0D8B9012D13D0C8235D434FF4EA
:1030400000474FF47A7000214FF4FA620023C7FB67
:10305000050102F08DF8224601461D48FEF7DBF916
:1030600004460220FDF7F2FE0123337055E70220EB
:10307000FDF7F8FE0023F8E7FFF716FF134B1222C7
:10308000BBE7FFF711FF0020FDF7E0FE0F4B132217
:10309000B3E7FFF709FF0120FDF7D8FE0B4B142221
:1030A000ABE7FFF701FF0020FDF7D0FE0120FDF7A1
:1030B000CDFE064B1522A0E7FDF7EFFE034B1D707A
:1030C0009CE700BF7008002040080020780800201E
:1030D00000080020FD070020044B1B68DB0703D518
:1030E000034B1878FFF7F6BE704700BF6C0800204E
:1030F0007808002038B51C4B18601C4B10F00204F7
:10310000054619601AD01A4B1A480E221A700F225F
:10311000DA7010229A7111225A72042140F233326D
:10312000FEF708F8044648B9FEF75AF8044628B9ED
:103130000146114A1148FEF763F90446EB0711D521
:103140000120FDF7DDFE6CB921460D4A0D48FEF762
:1031500057F9044630B90C4A0C480121BDE8384003
:10316000FEF74EB9204638BD6C08002074080020D8
:1031700060080020FC560000A12E0000205700002F
:10318000D930000024570000FD2D00001C5700001E
:1031900070B50E4B0E4C0F49E41AE408240444F0B9
:1031A0000304054602462046FDF7BEFCA5F10E03CA
:1031B000032B09D800F0F0FB2A46204600230649DD
:1031C000BDE87040FDF7B9BC70BD00BF58540000A9
:1031D000785400002D570000345700004FF0804312
:1031E0000022C3F8002101221A60D3F80021002A2E
:1031F000FBD001220021C3F81825C3F804119A60FE
:103200004FF08042D2F80431002BFBD07047000011
:1032100010B58AB0FFF7E2FFFEF7C0F808B1FDF77E
:10322000F5FF4FF480410020FDF7BAFA08B1FDF731
:10323000EDFFFDF7E3F95A490320FFF75BFF08B103
:10324000FDF7E4FF574B584C5849E41AE4082404AE
:1032500044F003042046FDF763FC554B55491868BC
:103260001B798DF80430544B0090D3F81C250A408C
:10327000C3F81C25D3F81C2542F4433242F40072F3
:10328000C3F81C25D3F81C2542F00302C3F81C2503
:10329000D3F818250A40C3F81825D3F8182542F4A6
:1032A000981242F47062C3F81825D3F8182542F03A
:1032B0000302C3F81825D3F814250A40C3F81425CF
:1032C000D3F814253D4942F4443242F48072C3F8E5
:1032D0001425D3F8142542F00302C3F8142503F58E
:1032E000C833374AC3F81025A2F5A032A2F5A2725E
:1032F000C3F814250122C3F80425324AC3F8602517
:10330000C3F864154FF48061C3F80415C3F8682549
:10331000A2F58242443AC3F86C254FF40062C3F828
:10332000042540F20123ADF80E30274A274BCDE9A2
:103330000423A3F58033069303F5E043079303F5D5
:10334000C043089317238DF8243005225023694683
:103350000DF109008DF8083001F0CFFF02A801F04F
:103360009BF808B1FDF752FF01F0B8F808B1FDF77E
:103370004DFF20461649FDF7D3FB642001F08AF982
:1033800008B1FDF743FF13492046FDF7C9FBFDF7E0
:1033900061FA0028FBD120BF40BF20BFF7E700BF84
:1033A000913100005854000078540000415700004B
:1033B00028570000FFE0ECFF00600040086000407C
:1033C00050A1014048A100400304050000A00140B5
:1033D00064570000855700000C490D480A7AD30055
:1033E00003F1804303F5F833C3F81005C86844308F
:1033F000C3F814050B69074902F51170443341F80D
:10340000203001239340C1F804357047480900205B
:103410000411004000F001400D4B0E494FF07E5268
:103420001A601A615A611A620B4ADA600B4B012268
:103430001A601A615A610A4B0A4A1A6059604FF0C1
:1034400087419960084B1A604FF089425A60704773
:10345000800800200000C84600409C47A4080020C7
:103460000809002077CC2B30F8080020234B0122DC
:103470000020032110B4C3F80C05C3F81025C3F8CD
:103480005026C3F834156FF07F41C3F83C151C4932
:10349000C3F838151B49C3F81405C3F818151A49A1
:1034A0004C78C3F82445D1F8024024BAC3F81C452F
:1034B000C3F82C05C3F830250878C3F808054FF089
:1034C000FF30C3F808030820C3F804030F4B5DF86E
:1034D000044B02201860CB680D485A650D49D3F89B
:1034E00054250D4B401A1A60C0080C4A0C4912783A
:1034F0001B68000440F00300FDF71FBB00100040F4
:1035000021100100292904014809002000E100E000
:10351000A0540000585400007C0B002068090020D3
:103520006658000038B50D4C0D48D4F80415FEF768
:10353000AEFA0B48FEF78BFA054608B9FDF766FEB2
:10354000C4F8045500230125C4F80C31C4F8005216
:103550006560FFF741FF034B1D7038BD0010004050
:10356000DC540000690900202DE9F843B44BD3F87E
:103570000041002C00F02C81B24EB34DB34FDFF868
:1035800028830022C3F80021F368C3F84021D3F850
:1035900040312B780133DBB22B703B8801339BB277
:1035A0003B80AB4B2A7819789142994605D03B88ED
:1035B0009BB2B3F5487F40F0EB80A64B1B78002B05
:1035C00000F0E68098F80020D2B2012A00F097803F
:1035D000A148FEF73CFA044608B9FDF717FEB17A98
:1035E0009E4A9F48CB0003F1804303F5F833C3F8AC
:1035F0001025F2684432C3F81425336901F51172BD
:10360000443340F822300122964B02FA01F1C0F80F
:1036100004150021C3F80445C3F80C110321C3F8B5
:1036200000121A60D3F80021002A74D08E4AF16883
:103630004FF0000EC3F80CE1D2F800C0D1F84435C9
:1036400003F5E0731360336999F80060D3F84435EB
:103650002878B04261D0388880B2B0F5487F5CD11C
:10366000052020706FF07F0084F82500382084F852
:103670002600012084F8270084F828E01068C4F8A8
:103680000D007A48DFF82CE20068C4F80100DEF88B
:103690000000C4F805007648764F0068C4F81900A9
:1036A0007548C4F809300068C4F81D003868C4F8CB
:1036B00011007248C4F821C0D0F80090C4F81590E9
:1036C000022488F800402C78A64233D16C4B0122AA
:1036D0001A7001234B65D1F854256A486A496B4B2F
:1036E000401AC0081A6000042A7869491B6840F033
:1036F0000300FDF722FABDE8F843FFF713BF594B6B
:103700000021C3F810111A61D3F81021002A7FF4A8
:103710005FAF00BFF8E700BF84E75E480078207025
:10372000002084F8250084F8260084F8270084F817
:103730002800A3E7DEF8006097ED007A1468D0ED6A
:10374000007A55489B1B03F5C333A033B3FBF0F25B
:1037500000FB12335148F0EE006A00FB034376EEA3
:10376000C76A07EE103AF8EEE77AB8EE477AE6EE67
:10377000877A9FED4B7A77EE877AFDEEE77A17EE40
:10378000903A93FBF0F200FB1233464A1360A0E735
:1037900098F80030012B04D1324BD3F85035032B6D
:1037A00014D02D48FEF753F9044608B9FDF72EFD55
:1037B0002C4B0022C3F804450124C3F80C21C3F8A4
:1037C00000425C60FFF708FE88F80040BDE8F8831F
:1037D000D3F80421002AF9D0C3F80441194B1E483C
:1037E000DB68C3F84841D3F8482101225A65D3F871
:1037F0005425264B1A601B4BD3F80415FEF747F9E6
:10380000294B1C70294B1C600F4B1A78C82A0DD10C
:103810001C700F4B1B48264928221A701A4BC01ADD
:10382000C008000440F00300FDF77AF9074A138846
:103830009BB2B3F5487F04BF00231380C6E700BFE7
:10384000007001404809002068090020400900205C
:103850002D00002070090020DC5400000011004001
:1038600000F0014000100040780B0020740B002095
:10387000700B0020300000206C0B0020400B00205B
:10388000680B0020A0540000585400007C0B00205E
:10389000535800002C000020A08601008038010051
:1038A00000409C4714090020690900206C09002091
:1038B000615800002C09002030B5114B11491B78CC
:1038C000114CDBB2013851F82320104A15682560ED
:1038D00051F823300E490F4C09680B4413601368EC
:1038E00003F59C338033B3FBF4F104FB1133136015
:1038F000094B126843F82020084B00221A7030BD93
:1039000018090020800B0020700B0020740B002091
:103910001C0900208038010030090020680B0020BD
:103920002DE9F0470468054620468A4601F0BAFBB7
:10393000064650460F4601F0C9FB13A3D3E9002306
:103940008046894601F0F4F902460B463046394676
:1039500001F08CFB18B154442C60BDE8F0870CA337
:10396000D3E900234046494601F0E2F902460B46FE
:103970003046394601F05EFB0028EED0A4EB0A0485
:10398000EAE700BFAFF30080CDCCCCCCCCCCECBF11
:10399000CDCCCCCCCCCCEC3F2DE9F04F644D2DED13
:1039A000088BD5F80C319DB0002B00F0B6800023B9
:1039B000604EC5F80C31D5F80C31F3685E4C5F49A8
:1039C00001225A65D3F854255D4B1A605D4AA41A4A
:1039D000E408240444F003041A682046FDF7A4F820
:1039E000594B1B78012B304640F09480D5F80034B9
:1039F00013F00103099300F08D80D5F80475D7F812
:103A00000D300593D7F8113097F800B0D7F8218022
:103A100008EE903AD7F815300AEE103A4B4B1B7867
:103A2000002B7FD1D7F80110F7EE087AF4EEE78A81
:103A3000F1EE10FA78DCB6EE007AF4EE478AF1EE99
:103A400010FAB7EE007A48BFF0EE478A404B93ED8C
:103A5000007AB4EEE77AF1EE10FA08DC93ED007A22
:103A6000F6EE007AB4EEE77AF1EE10FA02D54FF0F6
:103A70007E521A60C2680069D2F84455354A156012
:103A8000354A364D16682E60D0F84405344E106025
:103A900016F80B0003289FBF16F80B000130C0B2C8
:103AA00006F80B002F48006800286BD107EE901A2B
:103AB0004FF07E52F8EE677A1A600022C3ED017A69
:103AC0009A602949294A0B78DBB252F8233033B186
:103AD0000B78DBB252F82320254B9A4205D1254BB7
:103AE00025491A782046FDF71FF85846FFF7E4FEEF
:103AF00039462248FDF7CBFF2048FDF7A8FF0446D2
:103B000008B9FDF783FB0A4B1D4AC3F80445136847
:103B100001331360064B01229A601DB0BDEC088B87
:103B2000BDE8F08F41467FE7F7EE008A8EE700BFE1
:103B30000010004048090020A0540000AA570000CF
:103B40007C0B00205854000069090020680B0020FD
:103B5000900B00201C0900202C0900206C0B002079
:103B600024090020740B002018090020800B00207D
:103B700080380100680900203D580000DC54000036
:103B80006C09002013682A68D14DD24EDFF880A35B
:103B9000DFF88093DAED006A03F5C333A0339B1A94
:103BA000CD4AB3FBF2F002FB10330793059BCB4ADF
:103BB0005B1A0893059BCA4903F5740303F5105378
:103BC00007EE903A079BB0EE009A39EE688A6B4395
:103BD000F8EE677AF8EECAAA0693E8EE27AA3368E9
:103BE000D2ED007A069A134407EE103A79EE666A2F
:103BF000B8EE477AF8EEE77AFCEEEAAAE6EE877AC4
:103C00000CA81AEE902AFCEEE77A17EE903A1344CD
:103C10000BF1FF325B0809EE903A336851F822103D
:103C2000D9F800205B1A9B1A29460C93FFF778FEFF
:103C3000059B2946A3EB08030DA80D93FFF770FE23
:103C4000DDED0C7ADFEDA76AB8EEE77ADDED0D7AEF
:103C5000F8EEE77A37EE267A77EEA67AC7EE277A7D
:103C600017EE900A01F040FACDE90A0118EE900A29
:103C700001F03AFA02460B46DDE90A0101F058F874
:103C800001F04CFA089B96ED00BA9749974A03F564
:103C9000740303F5105307EE903A954BF8EE677AEC
:103CA00008EE900AC3ED037A93ED037AD9ED007A1A
:103CB000DAED006AF8EEE77A39EE669A29EE679A4D
:103CC000A8EE079A83ED039A93ED036AD1ED006A9B
:103CD000D1ED017A91ED027A0B681360E6EE267A57
:103CE00077EE877AFDEEE77A17EE903A93FBF5F0E0
:103CF00005FB103507EE905AF8EEE77AC2ED017A2F
:103D00008B6893607B4B13F80B30022B0AD14FF07A
:103D10007E531360D6ED007AF8EE677A0023C2ED89
:103D2000017A93602422002113A801F00FFBDFF831
:103D3000C0817148DFF8E0912422002101F006FBE8
:103D4000002313AE3046002203EB430E02EB420188
:103D5000194408EB8101D1ED006A054600210EEB04
:103D6000010C09EB8C0CD5ED007A9CED007AE6EEA7
:103D7000877A01310329E5EC017AF0D10132032A77
:103D800000F10C00E2D10133032BDAD1DFF86081BE
:103D9000594DB6460020F4460022DCED006A0023AF
:103DA00002EB420903EB4301014408EB810191ED71
:103DB000007A09EB030105EB8101D1ED007AE6EE13
:103DC000877A0133032BC1ED007AEBD10132032A4C
:103DD0000CF10C0CE1D1013003280EF1040EDAD104
:103DE000DFF838A19FED459ADAED007A95ED007A7B
:103DF00067EE897A8DED0A7A17EE900A01F074F970
:103E000031A3D3E9002301F02FF880460A988946B0
:103E100001F06AF902460B464046494600F066FE4C
:103E200001F07CF928609AED017AD5ED047A344BE3
:103E30003448E7EE097A0022B7EE008AC5ED047A2D
:103E4000DAED027A95ED087A77EE877AC5ED087A91
:103E5000D5ED047A95ED056A95ED057AD5ED086AFC
:103E60001A6037EE267A77EE867A274A77EE877AD7
:103E70000025C3ED017A92ED007AC8EE077A294653
:103E8000CDE9105587EE897AC7EE097ACDED0F7A24
:103E9000D3ED017A92ED017AE7EE097A182288EEE5
:103EA000277A8DED127A01F051FA2946242213A8BF
:103EB00001F04CFA2946DFF840E0144D3346002269
:103EC00001F1030C2CE000BF000000000088C3409B
:103ED000803801001C090020A0860100400B002052
:103EE000300900200024744B900B00209C0B002014
:103EF0008008002024090020440B002000004843D3
:103F000000090020BC080020F8080020A4080020B8
:103F10003000002020090020D408002008090020DB
:103F200002EB420008440EEB8000D0ED006A55F829
:103F30002100D3ED007A07EE100AB8EE477A55F863
:103F40002C00E6EE877A0132032A07EE100AC3ED51
:103F5000007AB8EE477AD3ED017AE6EE877A03F17C
:103F60000C0343ED027ADBD101310329A6D1DFF83E
:103F700070810FAA30464FF0000E454692ED006A60
:103F8000D2ED016A84460023614691ED007A08EB88
:103F9000C301D1ED007AE7EE067A0133032B0CF171
:103FA0000C0CC1ED007AD1ED017AE7EE267AC1ED75
:103FB000017AE9D108320430BEF1000F02D1DDF8F8
:103FC00024E0DBE7DFF81C814249D8ED017AB8EE46
:103FD0004BBA0EA83BEE67BABDEECBBA8DED0EBA6A
:103FE000FFF79EFCDDED0E7A98ED027A3A4BF8EE83
:103FF000E77A77EEC77A98ED007AD8F800201A6051
:10400000FDEEE77AD8F804205A60CDED0E7A38EE4E
:10401000C77AF8EEE77AD8F808209A608DED137A1F
:10402000CDED147A002205EBC20191ED006A03EB9D
:104030008201D1ED006AE6EE076A0132032AC1ED82
:10404000006AF0D12449002305EBC302D2ED016AD6
:1040500001EB830292ED007AA7EEA67A0133032BDF
:1040600082ED007AF0D1242200211C48DFF878800C
:1040700001F06CF92422002113A801F067F9DFF8A0
:1040800060E0002358003546002200EB030A03EBF2
:1040900042010EEB8101D1ED006AAC460021F1EE48
:1040A000666A0AEB0109DCED007A58F8290007EE90
:1040B000100AB8EE477A0131E6EE877A0329ECEC74
:1040C000017AEED10132032A05F10C05DFD16BB97B
:1040D0000123D7E780380100900B0020D40800208E
:1040E000BC0800209C0B0020A4080020DDED137A02
:1040F000DFF894E3DFF8948377EE887A0023CDED40
:10410000137ADDED177A77EE887ACDED177ADDED4B
:104110001B7A37EE888A8DED1B8A3546002203EB29
:10412000430CD5ED006A002102EB42090CEB0100C3
:104130000EEB800090ED007A09EB010008EB8000A7
:10414000D0ED007AE6EE877A01310329C0ED007ADE
:10415000ECD10132032A05F10C05E2D10133032B26
:1041600006F10406D9D1B74DB74BD5ED017AB74862
:10417000DFF81CE3DFF81C93FDEEE77AB0EE007A7F
:1041800017EE902A92FBF3F103FB112202F59C3209
:104190008032B2FBF3F103FB112207EE902AF8EE16
:1041A000E77AF8EEE99AC5ED017AD5ED027AFDEEEF
:1041B000E77AF04617EE901A91FBF3F203FB121226
:1041C00007EE902AF8EEE77AA14AC5ED027A29684F
:1041D0001160D5ED027A0699FDEEE77AF8EE6AAA4B
:1041E000C0ED007AD2ED006ADEF800600E4407EE02
:1041F000906A77EE666AF8EE677A964EE6EEE79A90
:10420000FDEEE99AC6ED009A0068D6F800C000EB12
:10421000D0700CEB60003060D6F800C09CFBF3F06F
:1042200003FB10C333608C4BD2ED007AD5ED016AED
:1042300096ED008A1A780132D2B21A7037EE677A98
:1042400007EE901A1A788549F8EE677A042A77EE15
:10425000A67A08BF0022B8EEC88A08BF1A70A7EE77
:10426000278A204695ED017ADEED007A1B78F8EE7C
:10427000677ADBB277EE677A38EE6A8AFDEEE77A24
:10428000BDEEC88A17EE902A49F82320FCF748FCB7
:10429000734B74491A782046FCF746FCC8230193F7
:1042A0008DED00AA089B059A6F492046FCF74FFC4C
:1042B000D5ED016A95ED026AD5ED007AF5EEC07A8A
:1042C000F1EE10FAFCEEE66ABDEEC66A40F1B4808B
:1042D00095ED007AFFEE007AB4EEE77AF1EE10FA8F
:1042E00040F3AA80614AD5ED007A9FED619A079963
:1042F000FDEEE77A204617EE903AD5ED007A95ED7F
:10430000007AF5EEC07AD5ED007A0391F1EE10FA5D
:10431000CBBFFDEEE77ABDEEC77AF8EEE77AB8EEEE
:10432000C77ACDE9002337EE677A16EE103A27EE0A
:10433000097A16EE902ABDEEC77A4E498DED027AC3
:10434000FCF713FC444A33681278F5EEC08AD2B207
:10435000F1EE10FA59F8221070D5FFEE007AF4EE63
:10436000E78AF1EE10FA69DD404AFDEEE87AF5EEF3
:10437000C08AB8EEE77AF1EE10FACCBF38EEC77A11
:1043800037EE687ACDE9001227EE097ACDED027A90
:10439000BDEEC77A18EE102A37498DED037A204614
:1043A000FCF7E3FB354BD8F80020D3ED016AD3EDE1
:1043B000027AFDEEE77AFCEEE66A17EE901AD3ED8C
:1043C000007AF5EEC07AF1EE10FA39D593ED007A65
:1043D000FFEE007AB4EEE77AF1EE10FA30DD234D0D
:1043E000D3ED007AFDEEE77A17EE900AD3ED007A6E
:1043F000F5EEC07AD3ED007A93ED007A0091F1EEFC
:1044000010FACBBFBDEEC77AFDEEE77AB8EEC77AF9
:10441000F8EEE77ACDE9015077EEC77A16EE903ADA
:1044200067EE897A1649FDEEE77A2046CDED037AEC
:10443000FCF79BFBFFF745BB124A54E7114A94E790
:10444000104DCDE7900B002080380100200900209E
:1044500030000020400B002018090020A757000062
:1044600068090020B4570000BA570000D357000075
:104470000000C842D5570000F75700009C0B0020F1
:1044800019580000A9570000440B0020D408002050
:104490001C090020800B002010B50D4C0146202285
:1044A000204600F02AFFE3687BB163696BB1A26923
:1044B000084B9A4209D10848FDF7B2FA034610B1F9
:1044C000FCF7A4FE0023184610BD0723FBE700BF3E
:1044D0004809002000700140DC540000F8B55E4C33
:1044E0002269012100200325C8235160D160C2F850
:1044F0001005C2F80415C2F80855C2F84035574BEC
:10450000C2F848350423C2F80032E36811605960EC
:10451000D960C3F810055249C3F80855C3F804051B
:10452000504DC3F84001C3F848014FF0FF30C3F8C5
:104530004015C3F84405C3F84855C3F84C054A482C
:10454000834203D000F58050834205D1C3F8501553
:104550004FF0FF31C3F85415444E01254FF08061F0
:104560006020C3F800521D60C6F8801186F81A0357
:104570003160607AD4F818C0C10001F1804101F5C2
:10458000F83103F5A0770832C1F81075C1F8142589
:10459000374F00F5117205FA00F047F822C0C7F84E
:1045A0000405E179CA0002F1804202F5F83203F510
:1045B000A473C2F810350CF10403C2F8143501F5E8
:1045C0001173002205FA01F147F82320C7F80415FA
:1045D000FEF74CFF94F91C20D1B201F01F03002A12
:1045E00005FA03F54FEA52134FEA8303BCBF214A91
:1045F00001F00F0103F16043B4BF5218B61803F580
:104600006143B4BFE021E022C3F88051B4BF11760A
:1046100086F800231D60A3694FF0FF32C3F808231A
:104620000322C3F80423144B00241C60134B1C709A
:10463000134B1C70134B01221A70FEF7EDFE124B48
:1046400012481349C01AC008000440F00300FCF7E8
:1046500067FA2046F8BD00BF48090020A086010087
:1046600080380100E028010000A0014000E100E0E6
:1046700000F00140FCEC00E044090020700900203B
:10468000690900203E0B002058540000A05400008F
:1046900076580000034B01221A70034B002018705B
:1046A000704700BF70090020680B00200369C168D3
:1046B0008B429DBF8268D21802F1FF3203F1FF33B3
:1046C00094BF501A581A70472DE9F041D0E902748E
:1046D00005463E1B4068964220448846144404D94F
:1046E00000F00BFEEC60BDE8F0813246E41B00F008
:1046F00004FE224608EB06016868F1E72DE9F8435D
:10470000C5680646894617464FF000083469B36805
:104710007068A54228BFE418013C621B5C1BBC42C8
:1047200028BF3C46944228BF1446494628442246A6
:1047300000F0E3FDB3682544AB4208BF00253F1BF2
:10474000A044A144F560E1D14046BDE8F8830000F3
:1047500010B5114C114AA2610223C4E90433104B75
:10476000E361A2644FF400730E4A2362E264002303
:1047700010220D49A362E01D6362E362A3656365D5
:10478000E365226500F015FE0849204600F011FEA1
:104790002023A37110BD00BFA80B00209458000077
:1047A000300C0020200C00209D580000A158000073
:1047B000F8B5184C182300FB033503FB00402544D3
:1047C000C46A012C0F46164611D024B1022C1BD00E
:1047D00000242046F8BD2846FFF768FFB042F8D312
:1047E000324639462846FFF76FFF3446F1E7284640
:1047F000FFF75CFF8642344628BF0446224639460E
:104800002846FFF761FFE4E72846BDE8F840FFF7D8
:1048100075BF00BFA80B0020FFF79ABF0C4B1B7899
:10482000062B10D10B4B1B681A070CD10A4B1868CA
:1048300000F0F003302B08D000F0E000A0F14003BE
:10484000584258417047002070470120704700BF10
:10485000E00F00F0E40F00F0E80F00F0094B1B78C8
:10486000062B0CD1084B1B681A0708D1074B186898
:1048700000F0F000A0F1300358425841704700208A
:10488000704700BFE00F00F0E40F00F0E80F00F009
:1048900008B5FFF7C3FF28B17D4B7E4A1B68C3F301
:1048A00004231360FFF7DAFF10B17B4B7B4A1A60D9
:1048B000FFF7B4FF28B17A4B7A4A1B68C3F342333F
:1048C0001360FFF7CBFF20B1774AD36823F08073E2
:1048D000D360FFF7A3FF40B14FF080430022C3F83D
:1048E0000C21C3F81021C3F83825FFF7B7FF10B12A
:1048F0006E4B03221A60FFF7B1FF40B16C4B0522EB
:104900001A6001229A6700229A603F225A60694B1E
:104910001B78062B50D1684B1B6819074CD1674B8D
:104920001B6803F0F003502B46D14FF08052644BCC
:10493000D2F80414C3F82015D2F80814C3F82415CB
:10494000D2F80C14C3F82815D2F81014C3F82C159B
:10495000D2F81414C3F83015D2F81814C3F834156B
:10496000D2F81C14C3F84015D2F82014C3F844152B
:10497000D2F82414C3F84815D2F82814C3F84C15FB
:10498000D2F82C14C3F85015D2F83014C3F85415CB
:10499000D2F83414C3F86015D2F83814C3F864158B
:1049A000D2F83C14C3F86815D2F84014C3F86C155B
:1049B000D2F84424C3F87025FFF730FF28B1414BEB
:1049C000414A1B6803F04F031360FFF727FF48B10C
:1049D0004FF08043D3F80024D20744BF6FF00102A8
:1049E000C3F80024394B1B68062B08D1384B1B68D1
:1049F000062B01BF374A136843F480631360364ABD
:104A0000D2F8883043F47003C2F88830BFF34F8F78
:104A1000BFF36F8F4FF01023D3F80022002A03DB7F
:104A2000D3F80432002B2FDA2C4B0122C3F80425D3
:104A3000D3F80024002AFBD04FF010221521C2F831
:104A40000012D3F80024002AFBD04FF010231522C7
:104A5000C3F80422214B1A46D3F800140029FBD0D6
:104A60000021C3F80415D2F80034002BFBD0BFF3AB
:104A70004F8F19491A4BCA6802F4E0621343CB60A6
:104A8000BFF34F8F00BFFDE7164B174A1A6008BDF2
:104A9000240300104035014074C007400DF0ADBA4A
:104AA000440200103C050040F0ED00E0A00500408D
:104AB00010560040E00F00F0E40F00F0E80F00F0A7
:104AC00000C0004058020010E40E00403001001009
:104AD000340100103C17004000ED00E000E0014010
:104AE0000400FA05340000200090D00330B591EAAC
:104AF000030F00F18480841A71EB030C05D21219A4
:104B000053EB0C03001B71EB0C0140F2000CCFF6D1
:104B1000E07C1CEA430F54D0BCEB410F61D90C0D73
:104B2000A4EB135E31EA0C0141F4801133EA0C036B
:104B300043F48013DEF1200C2AD303FA0CF540195C
:104B400041F1000122FA0EF5401923FA0EF56941F0
:104B500012FA0CF2CD0208D349085FEA30005FEA8E
:104B6000320228BF42F001020134013C5FEA500CDE
:104B700072F1004250F1000051EB04514FF4001368
:104B800013EB410F38BF30BD090D0905002030BDC2
:104B9000BEF1200EBEF1200F1ED223FA0EF54019F1
:104BA00041F10001CEF1200C124218BF012203FA9C
:104BB0000CF52A43CEE711EA5C0F04BF0020002168
:104BC00030BD1CEA410F04BF01F00041002030BDA0
:104BD00001F00041002030BD21F4801101EB0451AF
:104BE00030BD004218BF41F00101BCEB410F08BFCE
:104BF00030BD4FF0FE4141F47801002030BD83F01C
:104C00000043841A71EB030E07D28EF0004E001B96
:104C100071EB0E01121953EB0E0340F2000CCFF6AC
:104C2000E07C1CEA430FC6D0BCEB410F72D90C0DDF
:104C3000A4EB135EC90241EA5051C00241F00041A9
:104C4000DB0243EA5253D20243F00043DEF1200C70
:104C500041D312FA0CF522FA0EF203FA0CF542EAED
:104C6000050218BF42F0010223FA0EF3801A99419F
:104C7000E30AC4F30A0411F0404F03D418D0013CF6
:104C800040004941013C23D44205C00A40EA41505A
:104C9000C90A51EAC3715FEA500C72F1004250F147
:104CA000000051EB045130BD01002FD00020203C0A
:104CB0000029F9D0B1FA81FCDCF1200E11FA0CF1D7
:104CC00030FA0EF510FA0CF02943A4EB0C04D9E7E6
:104CD0000020D90730BDAEF1200EBEF1200F0DD25D
:104CE000CEF1200C03FA0CF533FA0EF32A4318BF69
:104CF00043F00103C01A61F10001B9E721F000415E
:104D0000C00A40EA4150C90A01EB045130BD0020FD
:104D1000002130BD004218BF41F00101BCEB410F42
:104D20007FF467AFBCEB430F3FF463AF30BD00BF10
:104D3000F0B540F2FF7681EA030C16EA115E1EBF61
:104D4000B64516EA1355B5425AD021EA465141F408
:104D50008011A1FB024723EA465343F48013AE447B
:104D6000A0FB03650CF0004C36197D41A1FB034705
:104D700047F10003A0FB0217F619654153F1000348
:104D8000094218BF46F0010640F2FE74B3F5007FF9
:104D900013D2AEF5806EA6452BD24CEA0331280320
:104DA00041EA155140EA16503203450872F10042BB
:104DB00050F1000051EB0E51F0BDAEF2FF3EA645A2
:104DC00017D24CEAC321E80241EA555140EA565055
:104DD000F202450872F1004250F1000051EB0E5111
:104DE000F0BD0CF0004141F0FE4141F470010020A3
:104DF000F0BD1EEA0E0FF4D50CF000410020F0BD0E
:104E000016EA115F04BF01F000410020004218BF04
:104E100041F0010116EA135F04BF03F000430022D2
:104E2000124218BF43F0010306EA1354B44218BFFC
:104E30009EEA060F03D00CF000410020F0BD21F0E7
:104E4000004123F00043B1EB065F06D8B3EB065FE9
:104E500003D8002918BF002BC3D140F20001C7F6C8
:104E6000F8710020F0BD00BF2DE9F04391EA030E78
:104E70000EF0004E40F20007CFF6E07717EA41054A
:104E80001EBF95EA070F17EA430595EA070F00F0E2
:104E9000A1807F0D17EA135623EA475343F480138A
:104EA00017EA115521EA475141F48011AD1B05F273
:104EB000FD354FEAD31C1CF1010C4FF00047B7FB46
:104EC000FCF77F01A2FB079C0024E3FB07C4DCF195
:104ED000000CD9F100097CF1000CA0FB0762002056
:104EE000E1FB072000275FEAC628E0FB0987760D73
:104EF00046EAC226520DF61900277A41E0FB0C6201
:104F00005FEAC823E2FB09375FEA585848EAC62837
:104F1000760D18EB070800214E41E2FB0C8602EBF0
:104F2000C020DA02E6FB09215B0D43EAC8235FEAF1
:104F300058585B18002758EB0708E6FB0C38D102DD
:104F4000E8FB0917520D42EAC3225B0DD219002774
:104F50007B41E8FB0C2308EBC6265FEAC128E3FB94
:104F60000987490D41EAC221520DC91942F10002D7
:104F7000E3FB0C12470019EB08095CEB010C72EB28
:104F8000040453EBC62047EB56530026B3F5000F3D
:104F90007641AD190236D6F1200910FA09F4F04035
:104FA00013FA09F21043F340E40F001943F1000330
:104FB000B3F5001F24BF5B08013540F2FE77BD4208
:104FC00004D24EEA05511944BDE8F0832D4224D5A0
:104FD000714626E0004218BF41F00101124218BF9D
:104FE00043F00103B7EB410F2CBFB7EB430F1BE0BE
:104FF000B7EB410F04BFB7EB430F15E017EA410FC2
:1050000004BF17EA430F0FE017EA410FE0D017EA99
:10501000430F02D0B7EB430FDAD04EF0FE4141F41C
:1050200070010020BDE8F08340F20001C7F6F8717E
:10503000F7E700BF4FF4001C1CEB410F98BF1CEBBF
:10504000430F11D851EA030C50EA4C0C5CEA020CF5
:105050000AD004D282428B41804140427047904244
:105060009941804140427047002070474FF4001C36
:105070001CEB410F98BF1CEB430F11D851EA030CF6
:1050800050EA4C0C5CEA020C0AD004D290429941DE
:1050900080414042704782428B418041404270478C
:1050A0000020704780B110F0004248BFD0F10000EE
:1050B000120D02F21D42B0FA80F18840521AC30A62
:1050C000400503EB025170470100704750B140F2B8
:1050D0001D42B0FA80F18840521AC30A400503EB22
:1050E0000251704701007047C0F3C75191B14200AF
:1050F0004FEA40704FEAD2014FEA310101F16051AD
:10510000B2F17F4F38BF704701F1605118BF41F4D1
:105110000021704710F000410020704701F000426C
:105120008B1AA3F16051B1F5801F0ADBB1F17F6FDB
:1051300009D242EAC102C10071F1004142EB507054
:1051400070471046704701285B4113F5001F04D8D3
:1051500042F0FE4040F400007047C90041EA507040
:1051600040EA020040F4800040F08040704700BFF9
:1051700053EA020C61D02DE9F04BB3FA83F51E001F
:1051800007BFB2FA82F502FA05F403FA05F41646EF
:10519000C5F120051EBF22FA05F73C43203556EA2B
:1051A000044C4FEA144418BF0134A3464FF00009E1
:1051B000C846904271EB030C39D3094207BFB0FADD
:1051C00080F700FA07F6B1FA81F701FA07F6C7F19E
:1051D00020071EBF20FA07FC46EA0C062037B6FB64
:1051E000FBFC7F1B103F07F01F04C4F120060CFAE4
:1051F00004F42CFA06F644BF34460026202FA4BF40
:105200002646002454EA060C08BF012418EB0408C3
:1052100049EB0609A4FB027CC01B06FB02CC04FB85
:1052200003CC71EB0C01904271EB030CC5D20B4621
:10523000024649464046BDE8F08BB2FBF3F200005F
:105240007F2805D8034B185C034B5B5C1840704704
:1052500000207047A858000028590000A0F1610301
:10526000192B98BF20387047A0F14103192B98BF24
:10527000203070477F2805D8034B185C034B5B5CDC
:105280001840704700207047A858000028590000B7
:10529000A0F16103192B98BF20387047A0F141039A
:1052A000192B98BF203070477F299ABF01700120C9
:1052B0006FF02E0070475AB10A787F2A0AD800B1E1
:1052C0000260002119605960501A18BF0120704710
:1052D000002070476FF02E007047000008B5034BA8
:1052E0005B689B681B68984708BD00BF38000020BA
:1052F00008B50921FFF7F2FF08BD844640EA010323
:1053000013F0030F18D18446202A0BD32DE9F007A0
:10531000B1E8F807A0E8F807A2F12002202AF7D2A6
:10532000BDE8F007042A07D351F8043B40F8043BDA
:10533000A2F10402042AF7D2002A05D011F8013B99
:1053400000F8013B013AF9D1604670478446002AD3
:105350002DD010F0030F04D000F8011B013A26D025
:10536000F7E7C9B241EA012141EA0141202A12D3FB
:10537000A2F120022DE9F0030B460C460D460E4625
:105380000F4688468946A0E8FA03203AFBD2BDE8DA
:10539000F00320320BD0042A05D340F8041B043A52
:1053A00005D0042AF9D200F8011B013AFBD160466E
:1053B0007047024610F0030F16D111F0030F13D1FE
:1053C0002DE9F0004FF001374FF0803351F8044BD6
:1053D000A4EB070525EA04051D4002D142F8044B61
:1053E000F4E7A1F10401F0BC11F8013B02F8013B24
:1053F000002BF9D1704700F1010110F0030F11D01B
:1054000010F8012B002A23D010F0030F0AD010F857
:10541000012B002A1CD010F0030F03D010F8012B31
:10542000002A15D02DE970004FF001324FF0803383
:1054300050F8044BA4EB020525EA04051D4000D1F9
:10544000F6E7A0F1040070BC10F8012B002AFBD194
:06545000A0EB0100704713
:10545800E356000000000000EA56000000000000CB
:10546800EE56000000000000F356000000000000A7
:1054780071550000000003034856000000000000BA
:105488007C560000000000008B580000000000005F
:10549800DA560000000000006C5800000000040408
:1054A800F8540000000000004155000014000020DE
:1054B8002455000000000000305500001C000020AA
:1054C800D000002098010020A0010020D800002072
:1054D8001800000074090020340B00203E0B002047
:0854E8007C0900202C000000EB
:1054F0000338FDD870470000D503000041040000C8
:10550000D1030000FFFFFFFFFFFFFFFFFFFFFFFFD3
:10551000FFFFFFFF00000000000000000000D601B8
:105520000601000065050000C90500001505000022
:10553000756172745F6C6F675F6261636B656E64E7
:10554000007274745F6C6F675F6261636B656E6439
:1055500000000000C40500207F0000004406002079
:105560004261636B656E647320666C757368656415
:105570000061707000000000AB550000F4550000A1
:10558000B3550000FC550000045600000C56000006
:10559000145600001C56000024560000202530320E
:1055A0007800202020007C002563001B5B306D000C
:1055B0002573001B5B313B33316D0025734C6F67E6
:1055C000732064726F7070656420282564292573C8
:1055D0000D0A003C25733E2025733A200000000090
:1055E00000000000595600002C5600003456000000
:1055F000395600001B5B313B33306D001B5B313B88
:1056000033326D001B5B313B33336D001B5B313B31
:1056100033346D001B5B313B33356D001B5B313B1D
:1056200033366D001B5B313B33376D007761726E33
:10563000696E6700696E666F006465627567001168
:1056400012131400680600206170705F6275747434
:105650006F6E00466174616C206572726F720053E8
:10566000797374656D2072657365740001000600BE
:1056700000000000A4060020991200006170705F15
:1056800074696D65720000000000000000000000F9
:105690000338FDD8704752544320696E7374616EAD
:1056A000636520616C726561647920696E697469F3
:1056B000616C697A65642E005254433A20696E69C0
:1056C0007469616C697A65642E0030313233343527
:1056D00036373839414243444546736F72746C69BA
:1056E0007374004750494F54450050525300554180
:1056F0005254005541525445000000000D00030073
:10570000052E00000E000300052E00000F00030010
:10571000052E000010000300052E000000080020E8
:105720002008002040080020DEADBEEF1965767429
:1057300025640A00627574746F6E25643D25640AE1
:1057400000526164696F207472616E736D69747464
:105750006572206578616D706C6520737461727418
:1057600065642E0053746172746564206C6973748F
:10577000656E696E6720666F7220626561636F6E29
:10578000732E0D0A005374617274696E6720737909
:105790006E6320626561636F6E207472616E736DFB
:1057A000697373696F6E210D0A00726164696F3DE0
:1057B00025640A00703D25640A0070743D25642C40
:1057C00070693D25642C706F3D25642C70763D25F5
:1057D000640A002D007865323D25642C643D256403
:1057E0002C736B65773D257325642E253032642C30
:1057F0006C763D25640A006572723D25642C6F66E7
:10580000733D25642C63633D25642C7A313D2573FB
:1058100025642E253032640A006375723D25642CA0
:105820007870323D25642C7870333D25642C787077
:10583000313D257325642E253032640A00703D25E4
:10584000642C416C726561647920696E2073796E95
:10585000630A00703D25642C73656E643D25640AFF
:1058600000656E640A00743D25640A0074696D6504
:105870005F73796E630073796E6320696E6974205B
:1058800066696E69736865642E0A007077725F6D71
:10589000676D74005465726D696E616C005254548A
:1058A000005345474745520020202020202020203B
:1058B0002068282828282020202020202020202080
:1058C0002020202020202020481010101010101020
:1058D0001010101010101010848484848484848428
:1058E0008484101010101010108181818181810139
:1058F0000101010101010101010101010101010198
:105900000101011010101010108282828282820226
:105910000202020202020202020202020202020267
:1059200002020210101010200007032004170201C9
:105930000857104080000000DC5A0000A059000009
:10594000B45A000053756E004D6F6E0054756500BB
:1059500057656400546875004672690053617400AD
:10596000000000004A616E00466562004D617200F1
:10597000417072004D6179004A756E004A756C0085
:1059800041756700536570004F6374004E6F760079
:105990004465630000000000414D00504D000000D0
:1059A000D85A0000D45A0000D45A0000D45A00003B
:1059B000D45A0000D45A0000D45A0000D45A00002F
:1059C000D45A0000D45A0000FFFFFFFFFFFFFFFF83
:1059D000FFFFFFFFFFFF0000145A000044590000C2
:1059E000505A00006459000098590000F85900000E
:1059F000A85A0000045A0000256D2F25642F257930
:105A00000000000025612025622025652025542006
:105A10002559000053756E646179004D6F6E6461A5
:105A2000790054756573646179005765646E6573B8
:105A300064617900546875727364617900467269B3
:105A400064617900536174757264617900000000CB
:105A50004A616E756172790046656272756172792C
:105A6000004D6172636800417072696C004D61792C
:105A7000004A756E65004A756C79004175677573EB
:105A8000740053657074656D626572004F63746F66
:105A9000626572004E6F76656D6265720044656383
:105AA000656D62657200000025483A254D3A255320
:105AB00000000000415200005D52000069520000E9
:105AC00075520000915200009D520000A952000042
:105AD000B7520000000000002E000000430000004C
