:020000040002F8
:10600000B8600020DD630200E5630200E763020080
:10601000E9630200EB630200ED6302000000000090
:10602000000000000000000000000000EF6302001C
:10603000F163020000000000F3630200F563020058
:106040002D67020085670200416C0200F7630200C1
:10605000F7630200F76302008D650200F763020038
:10606000F7630200F7630200F7630200F7630200C0
:10607000F7630200F7630200F7630200F7630200B0
:10608000F763020049680200F7630200F763020049
:10609000F7630200F7630200B9680200BD680200FE
:1060A000F7630200F7630200F7630200F763020080
:1060B000F7630200F7630200000000000000000028
:1060C000F7630200F7630200F7630200F763020060
:1060D000F7630200F7630200F763020000000000AC
:1060E00000000000000000000000000000000000B0
:1060F00000000000000000000000000000000000A0
:10610000000000000000000000000000000000008F
:10611000000000000000000000000000000000007F
:10612000000000000000000000000000000000006F
:10613000000000000000000000000000000000005F
:10614000000000000000000000000000000000004F
:10615000000000000000000000000000000000003F
:10616000000000000000000000000000000000002F
:10617000000000000000000000000000000000001F
:10618000000000000000000000000000000000000F
:1061900000000000000000000000000000000000FF
:1061A00000000000000000000000000000000000EF
:1061B00000000000000000000000000000000000DF
:1061C00000000000000000000000000000000000CF
:1061D00000000000000000000000000000000000BF
:1061E00000000000000000000000000000000000AF
:1061F000000000000000000000000000000000009F
:10620000DFF80CD000F084F90048004799920200B2
:10621000B860002000B583B002900091019244F272
:10622000010071466A4600F053FE03B000BD000055
:1062300030B450E8012F93B2C48923448489A34227
:1062400028BF1B1B0489A34202BFBFF32F8F00206E
:1062500007E0C3EA020340E80134002CE9D14FF023
:1062600001000A6030BC704750E8012FC2EA0242C8
:1062700040E801210029F7D1704730B450E8022FDF
:106280001FFAA2F3C488A34202BFBFF32F8F0020DE
:106290000DE0C48923448489A34228BF1B1BC2EAA2
:1062A000034340E80234002CE8D14FF001000A60BB
:1062B00030BC704750E8022FC2EA224240E8022177
:1062C0000029F7D17047034653E8022FD988B2EB73
:1062D000324F4FF0000017BF92B241EA014142EA4B
:1062E000014104E05A68B2EB324F08BF012043E895
:1062F0000212002AE8D1704730B4044654E8000F77
:106300000D4644E80053002BF8D1156030BC7047AF
:1063100030B4044654E8000F40EA010544E8005355
:10632000002BF7D1156030BC704730B4044654E8F8
:10633000000F00EA010544E80053002BF7D1156077
:1063400030BC704730B4044654E8000F80EA0105C1
:1063500044E80053002BF7D1156030BC704730B4CF
:10636000044654E8000F00EB010544E80053002BFD
:10637000F7D1156030BC704730B4044654E8000FC4
:10638000A0EB010544E80053002BF7D1156030BCA9
:10639000704770B404464FF0000054E8006F0D6879
:1063A000AE4207BF44E80023012044E800630E60CA
:1063B000002B1CBF0020F0E770BC704730B40446CF
:1063C00054E8000F88422CBF451A054644E80053A4
:1063D000002BF5D1156030BC70470000064880479F
:1063E00006480047FEE7FEE7FEE7FEE7FEE7FEE7BA
:1063F000FEE7FEE7FEE7FEE7FD680200016202003D
:106400002DE9F05F0546002092469B4688460646E9
:10641000814640241BE0284641464746224600F07C
:1064200067F853465A46C01A914110D31146184690
:10643000224600F016F82D1A67EB01084F46224657
:106440000120002100F00DF817EB00094E41201E3D
:10645000A4F10104DFDC484631462A464346BDE844
:10646000F09F202A04DB203A00FA02F10020704756
:106470009140C2F1200320FA03F319439040704782
:1064800000487047ECD2020040EA01039B0703D0AA
:1064900009E008C9121F08C0042AFAD203E011F863
:1064A000013B00F8013B521EF9D27047D2B201E025
:1064B00000F8012B491EFBD270470022F6E710B509
:1064C00013460A4604461946FFF7F0FF204610BD62
:1064D000421C10F8011B0029FBD1801A70470346AB
:1064E00011F8012B00F8012B002AF9D1184670474A
:1064F000202A04DB203A21FA02F00021704721FA19
:1065000002F3D040C2F1200291400843194670477F
:10651000064C074D06E0E06840F0010394E80700F0
:1065200098471034AC42F6D3FFF76EFEB0DA0200A3
:10653000D0DA020070B58C1810F8015B15F0070373
:1065400001D110F8013B2A1106D110F8012B03E00C
:1065500010F8016B01F8016B5B1EF9D12B0705D414
:106560000023521E0DD401F8013BFAE710F8013B5D
:10657000CB1A921C03E013F8015B01F8015B521E79
:10658000F9D5A142D8D3002070BD00002DE9F04715
:1065900000268AB0DFF85091B0464FF48075012490
:1065A00037460696284603F089FC38B1D9F804032B
:1065B000204203D0284603F077FC26432D1D6400BB
:1065C0007F1CADB2082FEDD34FF4BE74204603F00C
:1065D00075FC48B1204603F067FC46F0004606AA69
:1065E0000121002003F04CFC404D16F0FF0F15D0A8
:1065F0000127002437420DD009EB8401D1F81005A2
:10660000D1F81015C0F3042055F82420C1F301413E
:1066100002B190477F00641C082CEBD3002E5FDA98
:106620004FF0FF30CDF8108054E0281910F8507F5B
:1066300090F9000027F0C008401C3BD007A9404655
:1066400003F0D0F810B34FEA9719404602F05AF819
:1066500055F820701FB1B9F1030F03D006E0B9F16E
:10666000030F27D104A9404603F0C4F84FF0A0411E
:1066700001EB8800D0F8000706A9C0F3014A4046A4
:1066800003F0B0F818B1BAF1020F03D012E0BAF17A
:10669000030F0FD1B9F1030F08D1BAF1020F1DD0CA
:1066A0000221404603F0D0FB761CF6B217B14946F2
:1066B0004046B847641C042CB7D3002E10D06A465D
:1066C0000121002003F0DCFB06990098884207D0E6
:1066D00006900498002634460790A6E70321E0E7D9
:1066E0000AB0BDE8F087000000600040D03600200E
:1066F00000F01F02012191404009800000F1E020DC
:10670000C0F8001170470000BFF34F8F05480168C3
:10671000054A01F4E06111430160BFF34F8F00BFF0
:10672000FDE700000CED00E00400FA0570B54FF441
:106730008076304603F07DF9114CB50560B13046E6
:1067400003F07EF90120C5F80803607920B9012023
:1067500060712168002088474FF48276304603F04C
:1067600068F900280AD0304603F06AF90220C5F81B
:1067700008032168BDE870400120084770BD000093
:10678000C42B00202DE9F047214ED6F80C0100283B
:106790003BD00020C6F80C01D6F80C011D4CE17965
:1067A0001E481F4A1C4F801AC008032202EB0045F6
:1067B000012904D13A6828461AA103F08FFDE07937
:1067C0004FF0010901281ED13868C0071BD0DFF83F
:1067D0005C80D8F80070284615A13B683A7903F030
:1067E00084FD384605F00EFC50B1164802F0A8FFB3
:1067F000050001D100F022FCC8F8005084F8029096
:10680000A069401CA061C6F80890BDE8F0870000B0
:1068100000100040042B002000140040E0DA0200C9
:10682000E0DA02004352433D25640A0004150040AB
:106830006E616D653D307825782C7365713D3078DB
:1068400025780A0068DB020002490248091F09682E
:1068500000680847342C002000F0F8B970B50E46E7
:10686000144900EB400001EBC0051446E86A1835F6
:1068700020B101280FD0022805D113E0284600F0EE
:1068800019FAA04201D2002411E0224631462846DE
:1068900000F048FA0BE0284600F00CFAA042F4D2CF
:1068A0000446F2E73146284600F00FFA0446204637
:1068B00070BD00002C3E002004F08CB80A49D1F8CD
:1068C000000100280FD00020C1F80001074A084B42
:1068D0000121D27A03EBC202516006494870896CEB
:1068E000054802F04FBF704700700140643400203B
:1068F00000F00140042B002068DB02002DE9F0418C
:10690000BE4ABF494FF080561368D6F83001097867
:10691000D6F83421441CC1F3031106D08446012467
:106920000025BCF1060F0BD102E003F0FF0CF6E7E7
:10693000B6F82473DFF8CCC2C7F30427CCF8007094
:10694000DFB2062F06D1032904D1DFF8C0C2AE4F53
:10695000CCF87470471C05D04FEA000CBCF1060F50
:106960000BD102E003F0FF0CF8E7D6F84472DFF831
:10697000A0C2C7F34237CCF80070DFB2062F08D1AF
:10698000032906D1A34FD7F800C02CF0807CC7F8AC
:1069900000C0471C04D08446BCF1060F0CD102E0B5
:1069A00003F0FF0CF8E74FF08047C7F80C51C7F829
:1069B0001051974F3F1F3D60DFB2062F08D10329CA
:1069C00006D1DFF84CC203270CF1640CCCF8007040
:1069D000DFB2062F11D103290FD1DFF83CC2052702
:1069E000CCF800708C4F78373C608B4F08373D6097
:1069F0000CF1040C3F27CCF80070471C06D08446ED
:106A00004FEA0207BCF1060F7ED103E003F0FF0C52
:106A10000F46F7E7032F7DD0042F7BD07F4F3F68D1
:106A2000DFF8FCC1CCF800707C4F3F1D3F680CF1D3
:106A3000040CCCF80070794F08373F680CF1040C57
:106A4000CCF80070754F0C373F680CF1040CCCF893
:106A50000070724F10373F680CF1040CCCF80070D6
:106A60006E4F14373F680CF1040CCCF800706B4F7C
:106A700018373F68DFF8A8C10CF1200CCCF8007083
:106A8000664F1C373F680CF1040CCCF80070634F64
:106A900020373F680CF1040CCCF800705F4F2437AE
:106AA0003F680CF1040CCCF800705C4F28373F684D
:106AB0000CF1040CCCF80070584F2C373F680CF1E7
:106AC000040CCCF80070554F30373F68DFF850C1E8
:106AD0000CF1400CCCF80070504F34373F680CF18B
:106AE000040CCCF800704D4F38373F680CF1040CA3
:106AF000CCF80070494F3C373F680CF1040CCCF8DF
:106B00000070464F403700E004E03F680CF1040C91
:106B1000CCF80070471C05D04FEA000CBCF1060F02
:106B200009D102E003F0FF0CF8E7D6F858623D4FB8
:106B300006F04F063E60461C03D00346062B09D1E3
:106B400001E0DBB2FAE738490B68DB0702D06FF0EF
:106B500001030B6006280AD1032A08D0042A06D0B4
:106B6000052A04D03148016841F480610160294858
:106B70007438016841F470010160BFF34F8FBFF3B7
:106B80006F8F4FF01021D1F80C02294AC307294812
:106B900011D014600368002BFCD0D1F80C3223F024
:106BA0000103C1F80C3201680029FCD015600168AE
:106BB0000029FCD01AE0D1F80032002B03DBD1F819
:106BC0000432002B14DA14600368002BFCD0152368
:106BD000C1F800320468002CFCD0C1F8043201680E
:106BE0000029FCD0156001680029FCD0FFF78CFD5E
:106BF000124911480860BDE8F0810000E00F00F084
:106C0000E80F00F0403501400DF0ADBA00C007407C
:106C10003C050040FCED00E010560040040400106C
:106C200020C50040E40E0040000400403C17004036
:106C300004E5014000E401400090D003A82C0020AE
:106C40000148006800470000CC2B002010B5124C12
:106C500002202061606111A0A06104F17800E06170
:106C60004FF4007020620020A06260620BA1A1645A
:106C7000E06204F51E71E1641021A065C4E91410FE
:106C8000E06509A1E01DFFF72AFC08A12046FFF7F7
:106C900026FC2020A07110BD2C3E00205465726D92
:106CA000696E616C00000000525454005345474720
:106CB000455200000269C1688A4203D88068401AC0
:106CC000104400E0501A401E70472DE9F047C46898
:106CD0001746894606464FF000083069A04201D9A0
:106CE000051B02E0B168201A0D1AB0686D1E001B6A
:106CF000A84200D80546BD4200D33D4670682A46EA
:106D000020444946FFF7C0FBB0687F1B2C44A844D1
:106D1000A944A04200D10024F460002FDDD14046F8
:106D2000BDE8F0872DE9F04104468846D4E9020722
:106D3000C51BE168606816460844B54206D941465D
:106D4000FFF7A2FBB819E060BDE8F0812A46414692
:106D5000FFF79AFB761B08EB050132466068FFF7E8
:106D600093FBE660F0E70000014A024900F026B814
:106D7000F58E0200442C002002E008C8121F08C152
:106D8000002AFAD170477047002001E001C1121FAC
:106D9000002AFBD1704700000121202803DA81403E
:106DA0000548014003E0402802DA2038814009B15B
:106DB0000120704700207047FC06FFBD2DE9F0411F
:106DC00016460F460446002503E03946B047641CCA
:106DD0006D1C20780028F8D12846BDE8F08190F895
:106DE0002400012801D01F207047EE20704710B505
:106DF00001220221002001F00FFA08B1072810D16A
:106E000007220221012001F007FA08B1072808D162
:106E10000A220221002001F0FFF908B1072800D161
:106E2000002010BD022001F0BDB8000070B50024A4
:106E3000064D06E06868012110F8340003F0D0FE2A
:106E4000641C28788442F5D3002070BDD82B002024
:106E5000F8B516460C4605460A2A01D20720F8BDA9
:106E600003F0B8FF18B903F07FFF0028F7D1134FE4
:106E7000102113487D603C70BE60FFF71EFB0020B0
:106E8000C7E904000F4E0DE005EBC4003168009126
:106E900081788DF8011000780B4A694603F0F2FE04
:106EA0000028DCD1641EE4B2EED2BDE8F84005480B
:106EB0000021064A001D00F02DB90000D82B00204B
:106EC000A0370020DCCF0200398F0200D18A0200F7
:106ED000FEB515460E46074672B603F0ABFA00BF84
:106EE00003F0DEF80028FBD12349244A0120891A47
:106EF000C90800EB0144012F15D06FF480503818F9
:106F000014D0B0F5405F17D06FF44051C84206D19D
:106F10002B8820461AA16A6803F0E7F91EE0204694
:106F200032461EA105E0204622A115E020462A4651
:106F300028A103F0D3F911E0A86803F0EFFD0346A0
:106F4000D5E90001CDE90010029620462BA1AA68E0
:106F500003F0D3F9204633A103F0BCF936480068AA
:106F6000C00700D000BE2A4603B031463846BDE80F
:106F7000F04000F06FB8000048DB0200E0DA0200E9
:106F8000415353455254494F4E204641494C454484
:106F90002061742025733A2575000000554E4B4E34
:106FA0004F574E204641554C54206174203078256F
:106FB00030385800534F46544445564943453A20CB
:106FC000415353455254494F4E204641494C454444
:106FD00000000000534F46544445564943453A206B
:106FE000494E56414C4944204D454D4F5259204140
:106FF00043434553532C2578000000004552524F1F
:1070000052202575205B25735D2061742025733A1D
:1070100025750D0A50432061743A203078253038A8
:1070200078000000456E64206F66206572726F7292
:10703000207265706F727400F0ED00E00EB50021F3
:107040000091CDE901106A4644F20100FFF740FFCC
:107050000EBD000008B501238DF800309DF800300A
:10706000144B186059609A606FF48041401807D043
:1070700001280FD1DA60D86800889861D86807E0E5
:107080001A61186980685861186900689861186900
:107090004068D861186858689868D868186958694D
:1070A0009869D86972B600BF9DF800000028FBD12E
:1070B00062B608BDB037002010B58268C36893423D
:1070C00003D001F0EBFE002010BD052010BD29B15A
:1070D00012B1531E134203D0092070470E2070478F
:1070E0000160838000218160C1600846704710B54F
:1070F0008268C3689A1A83889A4203D801F0D8FE3E
:10710000002010BD042010BD014801F048BD000062
:10711000F82B00203AB100680129426100D000211B
:1071200001610020704707207047000038B5114802
:1071300008235822416800910F49006802F079FA4B
:10714000002815D10D4A69460D4801F02DFD0400B7
:107150000ED101210A4801F09EFD0123094A19467A
:10716000074801F0F4FC0649012008390870204660
:1071700038BD0000E4CF0200E037002035B902003E
:10718000F82B0020FFFF7F0070B50446007F0D46FE
:1071900008B1002070BDA26101F0B4FE401941F1B8
:1071A0000001C4E90201206900B125612146BDE862
:1071B0007040002005F0F2B8014600200877012059
:1071C00005F0ECB870B50A4E01460A48B578FFF7ED
:1071D00073FF04464DB10020B070711C0122C81D20
:1071E00002F09EFC08B1FFF729FF204670BD0000A9
:1071F000142C002038380020F0B5244E89B01F46EA
:107200000D00044672603FD0A888296882B22048E9
:10721000FFF75DFF002835D1A889A96882B21C4814
:107220001030FFF754FF00282CD12022194968465E
:10723000FFF72AF960690690207C00B101208DF8E3
:1072400014008DF81C70607C00B10E208DF81500C4
:10725000E0680290A0680390206801906068009048
:107260000A480D4A6946083002F026FC002809D178
:10727000B0702068401C05D004490122491CC81D7B
:1072800002F04EFC09B0F0BD0720FBE7142C0020F3
:1072900038380020F8CF020055C9020010B5014669
:1072A0001048FFF724FF040019D10F480F4A017856
:1072B000515C19B1001D04F01DF802E00C3003F020
:1072C000F3FE60B9084907480839FFF7F5FE30B901
:1072D000054901220839044802F032FC04462046E0
:1072E00010BD0000483800201C2C0020B82B0020C6
:1072F00030B5EFF3108172B60D4A9468012324B1C2
:107300000370002900D162B630BD93604FF0E023D6
:10731000D3F88051074C25401560C3F88041D3F85D
:10732000844154605A17C3F8842100220270E8E7B0
:1073300058380020FC06FFBD0B498A68002A11D08E
:1073400000280FD1EFF3108072B60B684FF0E022E7
:10735000C2F800314B68C2F8043100228A6000286C
:1073600000D162B670470000583800202DE9F04186
:10737000064608680C46411C4FF0A0474FF0010537
:1073800006D005FA00F1C7F80815206802F048FD9C
:107390006068411C02D0002102F030FD3168A06914
:1073A000C1F82405607D227D31681043C1F86C0569
:1073B000D4E900123068C0F81425C0F80C15207DFF
:1073C000012815D1A068411C02D0002102F016FD51
:1073D000E068411C05D08540C7F80855E06802F018
:1073E0001FFDD4E902123068C0F80825C0F8101556
:1073F000BDE8F0812DE9F041064608680C46411CC5
:107400004FF0A0474FF0010506D005FA00F1C7F88C
:107410000815206802F00EFD6068411C02D00021B2
:1074200002F0F5FC3168A069C1F82405607D217D7A
:1074300032680843C2F86C05D4E900123068C0F81D
:107440000C15C0F81425207D012815D1A068411C19
:1074500002D0002102F0DBFCE068411C05D0854031
:10746000C7F80855E06802F0E5FCD4E9021230687C
:10747000C0F80825C0F81015BDE8F08170B51500FA
:10748000044609D00020286034B1206820B1A079DA
:10749000800703D0072070BD0E2070BD084600F0A5
:1074A000C7FAC0B2142804D02179814203D804203D
:1074B00070BD052070BDE288216800FB02102860C5
:1074C000002070BD2DE9FC47002517880646158071
:1074D00090F82D001446894630B13A462146484678
:1074E00000F0BAFA051E09D1B0784FF00C0A18B3B3
:1074F0002088C846001DB84202D95046BDE8FC8726
:10750000684679DF0028F9D12088032108F80010A7
:1075100020881921401C80B2208008F800102088A3
:10752000401C80B2208000EB0801BDF8000005F08F
:10753000B2FB218808442080F0780222C8B121885B
:1075400096F9033001F1030C4846BC45D5D84254A6
:1075500021884FF0010C491C89B2218000F801C03C
:107560002188491C89B2218009F801302088401CFB
:1075700020807068B8B1218890F9003001F1030CC7
:107580004846BC45B9D8425421880A22491C89B2D0
:10759000218042542188491C89B2218009F8013098
:1075A0002088401C2080308950B1CDE900474B46EF
:1075B0000622022106F1080005F04CFC051E9DD1B3
:1075C000308A50B1CDE900474B460722032106F12E
:1075D000100005F03FFC051E90D1308B50B1CDE975
:1075E00000474B461522142106F1180005F032FC25
:1075F000051E83D1306A30B13B462246494601F030
:107600009EF9051EDBD1706A30B13B4622464946E1
:1076100001F032FF051ED2D196F82C0038B13B465E
:1076200022464946304604F0E5FA051EC7D13078B7
:1076300038B13B4622464946304601F0A7FF051EB9
:10764000BDD128465AE718B504460020ADF8000021
:1076500013466A46204600F006F8002802D0BDF81E
:107660000000204418BD70B5C8B1C2B1002415880F
:1076700003E0065D641C3444A4B2A54203D8061995
:1076800076789E4201D08C42F3D38C4207D2005DC3
:10769000A31C401E9BB280B21C188C4201D9002052
:1076A00070BD138070BD80F8301070472DE9F04137
:1076B0000D00044606D02CB195F87A00002601286A
:1076C00003D006E00E20BDE8F08195F8980001286F
:1076D00029D0D5F8A000042825D0D5F89C0004288E
:1076E00021D04FF00108A6702C2205F17801201D51
:1076F000FEF7CAFE84F83060D5F8A4006063D5F8C0
:10770000A800A0634FF6FF70A4F8240404F582607B
:10771000C4F82004C4F82664A4F82A6484F82C640D
:10772000207810B104E00720CDE7FF2084F8540052
:1077300004F155072046C4F81074FFF750FBA4F875
:10774000140404F2144239462846FFF7BBFE002811
:10775000B9D104F23120C4F818042046FFF73FFBEA
:10776000A4F81C0404F21C4205F13C00D4F81814DF
:10777000FFF7A8FE0028A6D184F85180208BA4F83A
:10778000480084F83C80266484F8506060690021D9
:107790006064454604F13C02781E72DF002892D1F5
:1077A000257090E710B50288102A1BD0112A20D02E
:1077B000262A1DD1007A0C46012801D0022817D1B3
:1077C000A0780521401CB0FBF1F201FB120120461C
:1077D00000F01DF800280BD0A16B002908D0BDE8EF
:1077E00010400847C27B012A02D18088A1F82404F6
:1077F00010BD0C46002184F82E148088B4F824149F
:107800008842F5D120790028F2D10121DFE72DE966
:10781000F05F044600780F4698B1A7700025C4F8C1
:107820002654A4F82A5484F82C54A079012608B1CF
:10783000012F09D0E07980B1012F05D0022F03D0AC
:107840000BE00820BDE8F09F616B21B184F82D6446
:107850000820884701E084F82D5404F227410020D5
:107860000A5C0AB1304603E0401C0628F8D3002029
:107870004FF002084FF0030B012F06D0022F0CD05F
:10788000032F0FD0042F15D110E0A17929B194F85E
:10789000241011B908B130460DE0E17911B108B1F9
:1078A000404608E0207A08B1584604E0607A08B102
:1078B000042000E02846A070616B41B1032801D08C
:1078C000042804D1607910B194F82E0498B184F89A
:1078D0002F5404F13C0018210746FEF7EEFD84F812
:1078E0003C6004F12C0003F093FE58B194F82C0096
:1078F00084F8510008E084F8305484F82F6407209D
:107900008847E6E784F8516094F8240058B104F100
:10791000280003F07DFE20B194F8280084F852007E
:1079200001E084F8526084F85050A27804F22641B5
:1079300004F582694FF0060A052A64D2DFE802F0F6
:1079400075030F22420084F83160C4F82054C4E962
:10795000101584F83C808020A4F8480055E084F895
:10796000318094F82420384612B10722027001E0D9
:1079700080F800B0228A8281C4F820544160E16816
:10798000B96042E06069B860208BB88194F8240047
:107990003D460028204602D084F83CA001E084F84F
:1079A0003C6005F029FA50B185F814800421204686
:1079B00001F08CFA38BB052184F8311021E084F8FD
:1079C00031B01EE0E069B860208CB88194F82400E2
:1079D0003D460028204602D084F83CA001E084F80F
:1079E0003C6005F009FA48B185F81480042120466E
:1079F00001F06CFA38B984F831A002E0042084F870
:107A00003100C4F82094A07840B13A4604F1540003
:107A1000D4F8201472DF00287FF414AF616B11B129
:107A200094F83100884700200CE784F83150F5E7DE
:107A300010B5044600F006F808B1204610BD142029
:107A400010BD0000142801D30020704701460148F2
:107A500001F039BE443600207CB5054608880C4646
:107A60000930904201D90C207CBD68466DDF0028AA
:107A7000FAD121880820685420881B21401C80B23C
:107A8000208029542088401C80B220802844DDF8C2
:107A900001100160BDF8051081802088801D80B232
:107AA00020809DF80010490800D001212954208829
:107AB000401C208000207CBD08B50288212A24D0EB
:107AC00012DC1B481B49102AA0EB01004FEAD00032
:107AD0004FF0030101EB004010D0112A1ED1BDE888
:107AE000084015A102F0F6BB3B2A18D0522A15D047
:107AF000562A13D18088132176DF13E012A102F0F9
:107B0000E9FB072000F0AAFB0CE00021009180882F
:107B100069468FDF002801D0FFF790FA08BD808802
:107B2000132176DF0028F9D0BDE80840FFF786BAB8
:107B300048DB0200E0DA0200446973636F6E6E6531
:107B40006374656400000000436F6E6E6563746566
:107B50006400000010B51A4C0188606810290ED02E
:107B600011292BD1401E606028D1FFF740F9002871
:107B700024D02168002921D0BDE810400847D0B9A1
:107B800001220221002000F047FB08B107280FD195
:107B900007220221012000F03FFB08B1072807D18E
:107BA00004220221002000F037FB20B1072802D078
:107BB000216801B188476068401C606010BD00000A
:107BC000A82B00202DE9F04701883B4E40F2F31925
:107BD0004FF6FF7510291BD011293ED0122954D021
:107BE000502946D1C188F289841D914241D16189D1
:107BF00002293ED18688304601F0BCF9050038D014
:107C000004F10C0000F08AF9A8B3294630464EE092
:107C1000C17B8788044601292BD1A846284601F05C
:107C2000A9F9050017D02F80002028722348434669
:107C30004A460168C5F80A104068C5F80E0004F10C
:107C4000100105F10A0001F04FFA6872F08900286E
:107C50000FD129462AE0042013E0808801F08AF938
:107C6000040006D06068FFF7A7FA08B103F092FF9E
:107C70002580BDE8F087FFE76868FFF79DFA0028D8
:107C8000F7D0BDE8F04703F085BF87880646384641
:107C900001F070F90400ECD02B464A4606F10801C9
:107CA00004F10A0001F020FA607221463846BDE86E
:107CB000F04700F089BE000024360020B02B0020E1
:107CC0002DE9F04F044686880188424897B08346E4
:107CD00010290CD0112950D0103019296AD01A2936
:107CE00074D1217A0C09042C4DD301224CE0394D7A
:107CF000083DA868C0430B9069680BA801F004FD1B
:107D00000B990CA800F0FCFD2C220CA96846FEF78C
:107D1000BBFB0027E946A84610E000BF09EB47007F
:107D20005FF00005B0F804A008EB85005146001D87
:107D300001F0BEFC6D1C1E2DF6D37F1C0098B842CE
:107D4000ECD8142E05D317B00420BDE8F04FFFF790
:107D500075B93146584601F0C1FC314608F10400BE
:107D600001F0BCFCE07B012830D017B03146BDE803
:107D7000F04F1848001D01F0B1BC17B03146BDE806
:107D8000F04F01F095BC0022314601F09AF8032C27
:107D900001D3012200E000220E4831460C3001F0F0
:107DA00090F8022C01D3012200E00022094831465C
:107DB000083006E0217A002908D1617AC1F3C002B7
:107DC000314617B0BDE8F04F01F07BB817B0BDE801
:107DD000F08F00004836002070B5334D04008EB09F
:107DE0002DCD08AE86E82D005BD0E9B30868A06110
:107DF000214608A862DF002851D1207801258DF89E
:107E00003200ADF83050A21C0CA92846A8DF00288B
:107E100045D120216846FEF750FB0220ADF8000056
:107E200020788DF802008DF80C509DF80D00F42696
:107E3000ADF8046040F00C008DF81150ADF806501C
:107E40008DF80D008DF81250608804F10C0269461F
:107E500000F060FC002822D120216846FEF72DFBAF
:107E60000320ADF8000000E01BE020788DF8020050
:107E70008DF80C509DF80D008DF81150ADF8046090
:107E800040F010008DF81250ADF806508DF80D003E
:107E90008DF813506088221D694600F03BFC0EB03F
:107EA00070BD0E20FBE70000C0CF020070B588B0A7
:107EB0000446002924D0002C22D00846218810290D
:107EC00020D0502924D057291AD10546A1884069CD
:107ED00006AAFFF7D3FA002812D1069E30780028B0
:107EE0000ED018216846FEF7E8FA01208DF8000050
:107EF0000195A088ADF808000396A96968468847EF
:107F000008B070BD08B02146BDE8704003F05EBA0D
:107F100008B02146BDE8704003F038BB007800F09F
:107F2000010070470149085C7047000078CF0200EB
:107F30000649095C4FF0A040D0F81005C84010F089
:107F4000010000D0012080F00100704778CF0200CE
:107F50002DE9FC410646C0074FF000050ED0104F3A
:107F600000240122385D009500231146019501F09F
:107F7000FDFE641C042CF4D300F046F8B0070DD5C8
:107F8000074E0024361D0022305D03230095114664
:107F9000019501F0EBFE641C042CF4D3BDE8FC81D8
:107FA00074CF020007490B5C4FF0A041D1F80425C3
:107FB0000120984020EA0203C1F808351040C1F8BA
:107FC0000C05704774CF02000249085C002101F0E3
:107FD0004CBF000074CF02000249085C012101F08F
:107FE00044BF000074CF02000649095C4FF0A04076
:107FF000D0F80405C84010F0010000D0012080F046
:108000000100704774CF020010B500242046FFF72E
:10801000DBFF641C042CF9D310BD10B500242046EE
:10802000FFF7DAFF641C042CF9D310BD10B502462B
:10803000064B4FF0FF3000215C5C944201D10846B2
:1080400010BD491C0429F7D310BD000078CF0200F1
:1080500070B50C4E0C004FF0000530600BD00120C5
:1080600000F06AF808B1022004E0002000F064F893
:1080700000B10B202070706810B9FEF7B8FE0546FD
:10808000284670BDA82B002010B5002000F032FA61
:1080900008B1062806D1012000F02CFA08B1062804
:1080A00000D1002010BD00002DE9F0470D468146AB
:1080B000FFF7BCFF0446042836D2DFF874801B4863
:1080C0001C4EA8F10C0725B3012D0ED0022D2BD18B
:1080D00004EB440030444578002D25D0B9680029D0
:1080E00022D02846BDE8F047084704EB4401755C00
:1080F0000E44717849B10E4A4FF48041093A8068C4
:10810000FFF742F808B987F80390B17808F804102F
:10811000E2E78068FFF750F804EB4401314418F8B7
:1081200004008D78A842D7D0BDE8F0877CCF02004C
:10813000A42B0020C0350020042801D2FFF7F8BE90
:108140000020704770B5011F0E293FD2DFE801F013
:10815000363E3E3E3E3E323E3E3E070707071D4846
:108160001D491B4D401AC0082A78032101EB004429
:108170005AB100202870FFF747FF04F087FB08B1D1
:10818000FEF75CFF204615A10BE001202870FFF7E9
:1081900044FF642004F064FB08B1FEF74FFF204663
:1081A00014A102F097F820462A78BDE8704017A184
:1081B00002F094B8BDE8704003F078BD082805D0FF
:1081C000002803D0BDE87040FEF738BF70BD000046
:1081D000E02A002048DB0200E0DA020053746F70EE
:1081E00070696E672073796E6320626561636F6E7C
:1081F0000A0000005374617274696E672073796EAF
:108200006320626561636F6E0A00000062757474BA
:108210006F6E3D25640A000070B50023042810D25B
:108220000D4D00EB4004012A02D101290CD000229F
:10823000094E00EB4000304461B1012906D002290B
:1082400006D00723184670BD0E30C2B22A55F9E792
:108250004270F7E78270F5E7C0350020044A014616
:1082600000201279D20702D0084600F04DB87047BE
:10827000982B002070B506461E480024C0E9016115
:10828000B00720D50025012211462846FFF7C4FF7C
:108290006D1C0446042D02D2002CF4D013E094B9D6
:1082A00040F2333204211448FEF7D2FD04000AD113
:1082B000FEF7BCFD040006D10F48104A0021001F44
:1082C000FEF728FF0446F00712D00120FFF740FE1A
:1082D00074B909480A4A00210C38FEF71BFF040054
:1082E00006D10548074A01210838FEF713FF044666
:1082F000204670BD982B002088CF0200F98502002F
:10830000D1910200256E02002DE9F05F774C054601
:108310000026607818B10020607000F041FF744FB3
:108320004FF448794FF47A6A4FF4C87B4FF0010854
:10833000182D5ED2DFE805F00C13132E3C495E6366
:10834000818A818AD79595959595C4C7CBCED7D785
:1083500000F026FF3868FEF72FFF06467FE000207A
:10836000FFF742FE00284FF0000008D0FFF72CFE78
:108370000220FFF731FE022D08D050464FE0FFF7F4
:108380002BFE0220FFF720FE022D01D1484646E0D9
:10839000584644E00020FFF727FE00284FF0000079
:1083A00002D0FFF711FEF1E7FFF716FEC82036E016
:1083B0000020FFF719FE00284FF0000002D0FFF761
:1083C00003FEDAE7FFF708FEE2E70020FFF70CFE06
:1083D00000284FF0000002D0FFF7F6FD01E0FFF7A4
:1083E000FBFD257040F6CD4100223868FEF7CCFE3B
:1083F000064662E00020FFF7D5FD257022E0002050
:10840000FFF7F2FD00284FF0000004D0FFF7DCFD7D
:108410004FF4FA7003E0FFF7DFFD4FF47A70410C80
:10842000C0034FF47A72801841F1000125705200A8
:108430000023FDF7E5FF0146D6E784F8018001201F
:10844000FFF7B0FD002240F26661CEE784F80180BC
:108450000120FFF7A7FD00224FF40051C5E725706A
:108460002BE07868FEF7A8FE0646D5F1110000D093
:108470002EB10220FFF7A8FD0020A0701DE001280A
:1084800016D980B2C8214843C117C90341EA5041F7
:10849000C0034FF47A72801841F1000152000023AA
:1084A000FDF7AEFF014600227868FEF76DFE064636
:1084B0000220FFF791FD84F802803046BDE8F09F6E
:1084C00000F06EFECBE700F06BFE002008E000F04D
:1084D00067FE04E000F064FE0020FFF77DFD012050
:1084E000FFF77AFDBBE7FFF798FDB8E7982B002070
:1084F0007CCF0200012104F014BD00002DE9F843F7
:108500000546861C00208DF8000090460F464FF06F
:1085100001096846FEF7ECFE1B4C20683860D4E980
:108520000001401AA16804F21C47081A0EE001215C
:10853000384601F0E3F800F061FE0146384601F0EC
:10854000DDF8D4E90001401AA168081A401C8642EF
:10855000EDD8B8F1000F03D0052065F3891002E0D3
:10856000062065F39F50A2682168114004EB810149
:10857000C8602068304420609DF80000FEF7DCFEF3
:108580004846BDE8F8830000083A002070B50D4663
:1085900004460A2902D10D21FFF7F8FFA0682268DE
:1085A000411CA1601554D4E90101814204D3204645
:1085B000BDE8704001F0E1BA70BD0000034803C897
:1085C000814201D10120704700207047083A002005
:1085D000034630B5074800210478426806E000BF32
:1085E00002EBC10005789D4203D0491CA142F7DB94
:1085F000002030BDD82B002000780221FFF754BDA9
:1086000070B51C4C00E000BFD4F80C010028FAD073
:108610000020C4F810010125256100E000BFD4F856
:1086200010010028FAD01448C0684565D0F85425D8
:1086300012481349401AC008032101EB004011A160
:1086400001F04CFE13480168134801F09BF81248F2
:1086500001F076F8060001D1FEF7F0FC304604F098
:1086600079FBC4F80052656003F012F80B48C5713D
:1086700070BD00000010004064340020E0DA020009
:10868000E0DA0200545820746F205258203D2564CF
:108690000A0000000415004068DB0200042B0020E3
:1086A00005494FF0FF32082841F8202002D3084442
:1086B00080F8482070470000D0360020F0B54FF019
:1086C000FF3512B10023082601E008230C260C4CCC
:1086D00005E000BF54F823707F1C04D05B1CB3423C
:1086E000F8D32846F0BD26185DB286F8305044F81D
:1086F0002310002AF5D1E11881F84800F1E70000C5
:10870000D03600200249084490F93000704700003C
:10871000D03600202DE9F0438146887891B090460C
:108720000C4600B901208DF83E002088ADF83C00D1
:1087300000250095607C694603F0A0FA6E46A07C97
:10874000711C03F09BFAE07B00289DF8020002D028
:1087500040F0080001E020F008008DF80200217CC4
:1087600011B140F0100001E020F010008DF802007F
:10877000217B11B140F0010001E020F001008DF8F3
:108780000200217D09B1022100E0012161F34200D4
:108790008DF802001C2102A8FDF78FFE607BC10648
:1087A00001D4800617D50E950EAFE07C791C03F03E
:1087B00065FA9DF83800079720F00F00401C20F064
:1087C000F00010308DF838009DF83A0020F00600D7
:1087D000801C8DF83A00607B8DF80800A07B8DF836
:1087E0000900142109A8FDF768FE0FA8CDE90906C4
:1087F000A088ADF83000A06820B1E088ADF82C006A
:10880000A0680D90A06998B301950088ADF810009C
:10881000A06901AD01A94088ADF81200A0694068C7
:1088200006950390A069007B03F028FAA069691CF3
:10883000407B03F023FAA069807A00289DF80600A7
:1088400002D040F0080001E020F008008DF806009A
:10885000A169C97A11B140F0100001E020F01000C8
:108860008DF80600A169097A19B140F0010002E013
:108870000DE020F001008DF80600A169897B09B1A7
:10888000022100E0012161F342008DF80600E06959
:1088900000B10590434609AA02A94846AADF11B0D3
:1088A000BDE8F08370B5084C050009D0103421688C
:1088B000002907D008682060496828468847F6E7FD
:1088C0000834F4E770BD0000BC360020054A0121E1
:1088D00020B1012805D19170FFF7E4BF517000204D
:1088E000FAE77047BC36002010B5D0E90234D1E970
:1088F0000220D11AA04101D3012010BD002010BDDB
:1089000073B58CB00646002000900D9880B100240D
:108910006D4621460DA800F0D6FE30B1009805EB5B
:10892000400084800098401C0090641C142CF0D3FC
:108930002C2269463046FDF7A7FD0EB070BD2DE92B
:10894000F04117880646B81D14460D46984202D9D4
:108950000C20BDE8F0813188072206290AD34FF4A4
:10896000486C4FF6FF73614501D9994202D1708876
:10897000062801D21046ECE7604501D99842F9D1AA
:10898000994203D0984201D08142F3D80520E8559E
:1089900020881221401C80B2208029542088401C4D
:1089A00080B220804119308804F075F9218808448C
:1089B00080B220804119708804F06DF92188084444
:1089C00020800020C5E7000038B54A7A0F4B62B11D
:1089D00000220A725969002906D001228DF8002070
:1089E000ADF802006846884738BD0A7A62B19B68D4
:1089F0004C68024619462046FEF7C6FB0028F3D015
:108A0000BDE8384003F0C6B85B68F1E724360020C3
:108A100070B588B00646002005900690ADF8141099
:108A2000ADF816100190029001AA05A9304690DF1A
:108A3000050021D002F072F8034611481149324670
:108A4000401AC108012000EB014004460E4901F024
:108A50004CFCBDF8042012B9BDF8060028B1BDF8E1
:108A60000630204609A101F040FCBDF808201AB1EB
:108A70002046164901F032FC08B0284670BD0000BF
:108A8000E8DA0200E0DA020034D30200546865201C
:108A90007265717565737465642054582F5258203F
:108AA0007061636B6574206C656E677468206973B0
:108AB00020746F6F206C6F6E672062792025752F90
:108AC0002575206F63746574732E000080D30200D7
:108AD00070B500240F4D10E0686800EBC4063078D4
:108AE00002F038F97178012901D0012100E000215C
:108AF0004140307800F058F9641C28788442EBDB60
:108B0000D5E90401084303D0BDE8704003F062BC1E
:108B100070BD0000D82B002010B50021024800F0E5
:108B2000FEFD80F3100010BD243E00204FF4803283
:108B30008A400168C1F848230068C0F808237047DC
:108B40004FF4A07202EB810189B200F09DB92DE9CA
:108B5000F04105460E464FF4A07000EB860081B24E
:108B600028684FF48034B440984622F07F47C0F81C
:108B700008432868C0F84843286801F081FD286848
:108B800000EB8600C0F840752868C0F84443B8F18F
:108B9000000F02D02868C0F80443BDE8F0810068E7
:108BA000D0F804057047000070B54379224C44F8B2
:108BB00023204279241D04EBC202204B1579204A60
:108BC0009A1AD3082DB10824022000EB03401DA1FE
:108BD0002EE002680D88C2F8085590F904208978C3
:108BE000002A4FEA411106DA02F00F0202F1E022F8
:108BF00082F8141D03E002F1E02282F8001490F9DB
:108C00000410012201F01F0502FA05F54909890047
:108C100001F1E021C1F80051417904EBC1010A7171
:108C2000417944F831000320002400EB03400EA1F9
:108C300001F050FB204670BD302C002030DB0200DC
:108C4000E0DA020052544320696E7374616E63650A
:108C500020616C726561647920696E697469616C08
:108C6000697A65642E0000005254433A20696E69A7
:108C70007469616C697A65642E00000090F90400E3
:108C8000012100F01F0291404009800000F1E02026
:108C9000C0F8001270470A46022100F07BB84FF47A
:108CA000827100F0F1B8006801210160704700682E
:108CB0000121416070472DE9F05F07460C464FF4F3
:108CC000A07000EB84001FFA80FA38684FF48036F9
:108CD000A6409B4622F07F45C0F848633868C0F83C
:108CE00008633868D0F8048500EB8402D2F8409518
:108CF000C2F840855146386801F0C2FCA9EB080073
:108D000020F07F40012806D1102001F061FF51467C
:108D1000386801F0B5FC3868D0F80485C0F84463C1
:108D2000A5EB080121F07F413868012900EB8400A0
:108D300010D0C0F840553868D0F804156FF07F4C5B
:108D40006A1A521E22F07F42ACEB0B03934217D3F8
:108D500062B118E06D1CC0F84055102001F038FFDA
:108D60003868D0F8040540450AD10CE000EB8400D7
:108D70006D1CC0F840553868D0F80405884202D010
:108D80000D20BDE8F09F01223146384600F002F880
:108D90000020F6E70368C3F84413002A02D00068F5
:108DA000C0F80413704700002DE9F84F0E4634490F
:108DB000804601EB5001C007097801D00F0901E09E
:108DC00001F00F074FF00009424601204946FDF728
:108DD00048FBDFF8B0A004460D46052F4ED2DFE871
:108DE00007F003161B282C00002E47D00121404617
:108DF00002F0AEFF8DF800906846FEF779FA504613
:108E0000D0E904120C431543CAE9044532E00EB11F
:108E1000022114E0002112E04EB10321404602F08D
:108E200097FF4046BDE8F84F012104F003B8012147
:108E300005E0002E22D1042101E02EB1032140469D
:108E4000BDE8F84F02F084BF0021404602F080FFE9
:108E50000021404603F0EEFF8DF800906846FEF7D3
:108E600047FA5046E243D0E904341A4024EA0501A7
:108E7000CAE904219DF80000FEF75EFABDE8F88F0C
:108E8000A0370020D82B002010B5006842581AB136
:108E900001F0F6FB012010BD002010BD8268838820
:108EA0001A4003689A5C0A708168491C81607047A7
:108EB000C26883881A4003689954C168491CC1601C
:108EC00070470AB100F00ABC00F0F2BB70B50D4665
:108ED0000446B0F81414D0F810040122FEF7B3FBD6
:108EE00000B1057004F13C0204F5826104F1540004
:108EF00072DF70BD10B50446C0B2FEF7CFF9204650
:108F000010BD000010B50B48FFF749FE094A083AAA
:108F1000D2E90434C018D2E9063244F10001C31A80
:108F200071EB020204D24FF08072801841F100010F
:108F300010BD0000F82B002010B5C0B2FFF748FBB1
:108F40000446007801F006FF01466078012801D050
:108F5000012000E0002090EA010F08D00449D1E987
:108F60000401084303D1BDE8104003F033BA10BD3B
:108F7000D82B00200146034802888A4200D00020F6
:108F800070470000103600202DE9FC5F0E0083467C
:108F9000DDE90C47C6F1000098469246814600D4B0
:108FA0000846012503E000BF90FBFAF06D1C504518
:108FB000FADAA84500D9454624B1002E01DB78072E
:108FC00000D5641EB80702D5B8F1000F0AD0F80723
:108FD00008D13CB1A54205D220215846641EFFF7B6
:108FE000D5FAF6E7002E02DA4E462D2102E0780788
:108FF00003D52B215846FFF7C9FA07F003000228D2
:109000000BD1B8F1000F08D13CB1A54205D23021F7
:109010005846641EFFF7BAFAF6E7CDE90047434623
:1090200052463146584603F03BFEBDE8FC9F000027
:1090300070B50D46044600684FF4887101F08EFD4E
:109040004FF49071206801F089FD4FF4927120680F
:1090500001F084FD4FF4A271206801F07FFD4FF410
:10906000AC71206801F07AFD20681149C0F8041342
:109070002068690740F30730090E002806DA00F07F
:109080000F0000F1E02080F8141D03E000F1E02063
:1090900080F800142068012140F3073000F01F021F
:1090A00091404009800000F1E020C0F8001170BD3F
:1090B00010034200024600201268530713D502F045
:1090C0000300012802D002280CD105E0C2F383106E
:1090D0000B68801C184404E00223086803EB9252DA
:1090E0001044086001207047F0B58488A5189442A8
:1090F00000D82246A41AC288D6189A4200D813462D
:10910000D21A4B880788BB420CD34088834209D8C7
:109110008888A04206D3A84204D8C888904201D3C8
:10912000B04201D90020F0BD0120F0BD1548B7EED6
:10913000000ADFED150A80ED000AC0ED030A80ED9C
:10914000040A80ED050A80ED080A0E490120243149
:109150000860086148619FED0D0A01F11800DFED1C
:109160000C0A80ED000AC0ED010ADFED0A0AC0ED2D
:10917000020A094880ED000A9FED080A80ED010A05
:10918000704700001C34002000803B4700000000B6
:109190000000804500008043582B002000008044E0
:1091A0000A4810B5807860B1002401E0022C06D096
:1091B0002046FEF709FF641C042CF7D310BD0324DE
:1091C000F6E7BDE81040FEF71FBF0000982B002017
:1091D00003480179C90702D00078FFF795B87047B6
:1091E000982B0020F7210180172141800021017177
:1091F0004171FB2181711B21C17170472DE9FF4134
:109200000026234800F077FA2148001F074600F0A7
:1092100072FA204C60680090A56800E000986946EA
:10922000284004EB80000C30FFF744FF0028F5D104
:1092300001AA009901EA050304EB8303491CDB68DA
:1092400042F82030401C00910228F2D3019800F02F
:10925000030001280BD0022810D10198032101EB53
:1092600090500099BDF80A6001EB900005E001986C
:10927000BDF80A60C0F3831008440090384600F03F
:1092800037FA08B10098606004B03046BDE8F0815C
:10929000203E0020083A0020ACB018225049684611
:1092A000FDF7F2F84F4806904F494FF48070CDE932
:1092B0000701099007234D4A06A96846FDF79CFF60
:1092C00008B1FDF7BBFE4FF48041002001F07CF8AF
:1092D00008B1FDF7B3FE00F0D5FEFDF727FF08B19A
:1092E000FDF7ACFE42490320FEF7C4FF08B1FDF7CD
:1092F000A5FE69460020FEF7ABFE08B1FDF79EFE15
:1093000001F078F908B1FDF799FE01F029FB08B1E9
:10931000FDF794FE002469460120009401F0C0F995
:1093200008B1FDF78BFE684601F052FA08B1FDF76F
:1093300085FE3048019001A92F4800F00DFB08B1CF
:10934000FDF77CFE2D48009069462D48FEF744FD50
:1093500008B1FDF773FEAC216846FDF7AEF80220B8
:109360008DF800008DF8024006208DF803000120E2
:109370008DF87C004020CDE92204224829901E4827
:1093800069460C30FEF792F908B1FDF757FE1A480E
:1093900001210C30FEF787F902F07CFD1AA0FDF7E1
:1093A000E3FC1E481E49401AC108032000EB01409F
:1093B00004461CA100F08EFFFEF72FFE642003F090
:1093C0004FFA08B1FDF73AFE204621A100F082FFD6
:1093D00000F066FE0028FBD101F020F9F8E700005C
:1093E0005CCF0200A02D0020A02E0020EDC80200BE
:1093F0004581020061A60200A02F002011B30200E7
:10940000E42A0020A9B302000D0A554152542073EA
:109410007461727465642E0D0A00000048DB02005E
:10942000E0DA02004465627567206C6F6767696EF9
:109430006720666F722055415254206F7665722006
:1094400052545420737461727465642E00000000DD
:109450005374617274696E672073796E63206265FC
:1094600061636F6E207472616E736D697373696F7F
:109470006E210D0A0000000070B5144682880E4669
:1094800005462088111D0144921C994201D8FE2AEC
:1094900001D90C2070BD521C32542088FF21401C81
:1094A00080B2208031542088401C80B220808119F5
:1094B000288803F0F0FB2188084480B22080AA8825
:1094C00042B1A96841B13044FCF7DEFF2088A98889
:1094D00008442080002070BD072070BD2DE9F047B2
:1094E000C5881E1DB6FBF5F78946B6FBF5F10446A7
:1094F00005FB176C407916686843DDF820A0F71863
:10950000001F874200D9C61A166001E02468491E70
:109510000029FBD1A5EB0C078846B74216D818E006
:1095200004EB0C00001D09EB0803BAF1000F3A46EA
:1095300002D00146184600E01946FCF7A5FF246852
:10954000F61B4FF0000CB844B54201D9374600E095
:109550002F46002EE4D1BDE8F087000030B502466A
:1095600051B100F04FFF0021074C08E034F82130E2
:109570001568AB4202D11160002030BD491C814208
:10958000F4D3052030BD000000000000F8B50F4600
:10959000017814460546012901D1687830B1208848
:1095A000821C9A4232D8012902D006E00720F8BD79
:1095B00069780144891C994228D8181A801E86B2FD
:1095C000ADF800602188B81C084469467DDF00289A
:1095D000EDD12978022904D06878BDF800209042A6
:1095E00005D3BDF80000B04201D809200AE00820E8
:1095F000012905D16978B14202D8ADF8001001E027
:10960000ADF80060BDF80010FE2901D90C20F8BDAE
:109610002288491CB9542188491C89B22180785478
:109620002088401C2080BDF80010084420800020C5
:10963000F8BD10B531B1B2FBF3F403FB14241CB137
:10964000092010BD0E2010BD016000214160816025
:109650008281C381084610BD70B50C460546FCF7F3
:10966000E7FD002802D021882868084470BD10B5A5
:109670000A8849888A4203D1FCF71CFE012010BDEC
:10968000002010BD70B50C460546FCF7F6FD00281D
:1096900002D061882868084470BD10B50A884988DE
:1096A0008A4203D1FCF7E0FD012010BD002010BD6F
:1096B00001F01F0301229A40D243490900EB8100C7
:1096C000114600F021B84A0950F8220001F01F02AB
:1096D00001219140084000D00120704701F01F0394
:1096E00001229A40490900EB8100114600F01CB8A4
:1096F000002100F00FB8012100F016B808B56A4645
:10970000FCF72DFE009808BD08B56A46FCF70DFE73
:10971000009808BD08B56A46FCF707FE08BD08B505
:109720006A46FCF7E9FD08BD08B56A46FCF7F0FD9E
:10973000009808BD08B56A46FCF71EFE009808BDF3
:1097400038B5044600258DF800506846FDF7D0FD79
:1097500021686268086890420ED9401E086001784E
:10976000238AE26801FB0325227A2168101AC0B21D
:109770000A79824200D208719DF80000FDF7DCFDF5
:10978000284638BD38B5054600208DF800000C4647
:109790006846FDF7ADFDE868298A201AB0FBF1F1B3
:1097A0002A681068431C136001709DF80000FDF7E3
:1097B000C3FD38BD10B530B1017A42680368891A1B
:1097C000C9B21A6006E00E2010BD03681A68541C66
:1097D0001C601170491EC9B2F7D2006800210171E6
:1097E000084610BDC20800F007030120895C9840BC
:1097F0000840704710B5C20800F00703885C0124D8
:109800009C402043885410BDF0B5858893B00C4629
:10981000002D39D1018800263F4F24293BD006DC9A
:10982000102909D011290CD0232958D14FE03A2909
:109830000BD0552953D129E00146204601F0FCFD0B
:109840004DE0A01DFFF7CEFC49E02246408934F8E8
:10985000061F814200D808466080172800D21720D2
:109860006080106970B1607960B1D7E90001CDE91D
:109870000301ADF80E506088ADF81000136903A91C
:10988000104698476671267113B0F0BD0146204618
:1098900001F026FE23E0011D2C2206A8FCF7F4FDB2
:1098A000BDF81800BDF81C2004EBC0014A73226902
:1098B000AAB1D7E90423CDE90423ADF81200487B0F
:1098C0008DF814002269204604A9904707E0017A28
:1098D000207B884200D201462846FFF799F8A07AFB
:1098E0000028D1D0E1882846A5DF012580B11128C4
:1098F000CAD001F013F902460848094913B0401ACA
:10990000C00805EB0040BDE8F04006A100F0E6BC51
:10991000A672E572B8E70000A8CF0200E8DA0200FC
:10992000E0DA020073645F626C655F6761747463A0
:109930005F65786368616E67655F6D74755F72659A
:10994000717565737428292072657475726E65640B
:109950002025732E0000000060B159B10278DE2A84
:109960000AD009684160DE2101704FF6FF71418025
:10997000002070470E207047082070477FB50546CD
:1099800000294DD0002D4BD008780C46DE2847D159
:10999000A8886188884202D1204603F039FA2888D5
:1099A000012825D002283BD011283AD0512837D1A0
:1099B00035F8040F6188884232D1A978A81C0229A1
:1099C0002ED1017A042903D0062901D0052927D1F7
:1099D0000021009102228DF8002001914FF4C07205
:1099E00002910391ADF80420007A05280FD010E011
:1099F000297A2046012913D1A988428891420FD1A2
:109A00000121017204B0BDE8704003F001BAADF865
:109A1000041028886946B0DF002801D061688847B3
:109A20007FBDA88861888842FAD14FF6FF706080B8
:109A30007FBD00F180400068002800D00120704701
:109A400008B500F18040002101600068009008BD69
:109A500070B50B4C207808B185250FE00020A06080
:109A600060602061E060074801F094F8054600F06E
:109A7000C3FF08B901F078F801202070284670BDB6
:109A8000BC360020CD88020038B500258DF8005086
:109A90006846FDF72DFC074CE068401EE060E0687A
:109AA00010B901F087F8A5709DF80000FDF744FC9F
:109AB00038BD0000BC360020F0B5054604781548D6
:109AC00089B0164640F82420124A0869121DA2F1F6
:109AD000080742F82400487F385520226846FCF7E2
:109AE000D3FC04942878385C48B10EB10A4A00E0EF
:109AF00000226946281D01F0EFFA09B0F0BD0EB151
:109B0000064A00E00022694605F10C0001F09AF9CE
:109B1000F3E70000BC2B002055CB0200F9C902007E
:109B200030B40378054CE35C1BB130BC001D01F080
:109B300009BB30BC0C3001F0EDB90000B82B00209F
:109B400030B40378054CE35C1BB130BC001D01F060
:109B50007BBB30BC0C3001F053BA0000B82B0020A6
:109B60000FB408B50399002904D004AA00926A46EC
:109B700000F00FF801B05DF814FB10B582680446E0
:109B8000002A05D0D4E90403216898470020A0608A
:109B900010BD2DE9FC4791460C00804676D014F8A4
:109BA000011B39B125290ED04046FEF7EFFC207885
:109BB0000028F4D198F80C00002867D04046BDE892
:109BC000FC47FFF7DABF0020012221782B291BD0A8
:109BD0002D2902D0302908D102E040F0010001E037
:109BE00040F00200641C002AEFD100252A290ED083
:109BF0002178A1F130020A2A11D205EB850201EB8E
:109C00004205641C303DF1E740F00400EAE7D9F872
:109C100000100B1DC9F800300968641C0D44217840
:109C200000232E290BD114F8011FA1F130020A2ABA
:109C300005D203EB830201EB4203303BF3E76C29CF
:109C40000DD068290BD0692921D00BDC252918D02B
:109C5000582931D063290ED0642915D117E014F8A2
:109C6000011FECE7702969D0732932D075291BD008
:109C7000782909D120E0D9F80000011DC9F80010A9
:109C800001784046FEF782FC641C90E76CE0D9F84E
:109C900000100A1DC9F800200968CDE900500A2209
:109CA0004046FFF771F9EFE7D9F800100A1DC9F82F
:109CB000002009680A2206E0D9F800100A1DC9F838
:109CC000002009681022CDE90050404602F0E8FF6C
:109CD000DAE7D9F8001000270A1DC9F800200E683D
:109CE000C00705D112E04046761C7F1CFEF74EFCF3
:109CF00031780029F7D104E0202140466D1EFEF79F
:109D000045FCBD42C0D9002DF6D1BDE74EB130466D
:109D1000FCF7DEFB074604E0202140466D1EFEF7FF
:109D200035FCBD4206D9002DF6D103E04046761C35
:109D3000FEF72CFC31780029F8D1A5E7D9F800000E
:109D4000011DC9F80010056830214046FEF71EFCD1
:109D500078214046FEF71AFC08200021CDE90001D9
:109D6000034610222946B0E7BDE8FC8770B541EAFA
:109D70004201DDE904564FF0A04441EA830141EA83
:109D8000052104EB800041EA0641C0F8001770BDD0
:109D900070B541EA4201DDE904564FF0A04441EAC2
:109DA000830141EA052104EB800041EA0641C0F845
:109DB000001770BD70B541EA4201DDE904564FF06D
:109DC000A04441EA830141EA052104EB800041EA15
:109DD0000641C0F8001770BD70B541EA4201DDE9E7
:109DE00004564FF0A04441EA830141EA052104EB07
:109DF000800041EA0641C0F8001770BD1CB5002282
:109E00000B46009211460192FFF7D4FF1CBD1CB512
:109E100000220B46009211460192FFF7DDFF1CBDA8
:109E20001CB5002100910B46012201911146FFF75C
:109E3000C1FF1CBD1CB5002100910B460122019100
:109E40001146FFF7C9FF1CBD4FF0A04202EB800096
:109E5000D0F8002722F44032C0F80027D0F80027BD
:109E600042EA0141C0F80017704701224FF0A043B9
:109E7000824011B1C3F808257047C3F80C2570471C
:109E800018B5084B6C4601441B68009306E000BF00
:109E900054F82030D3F81035401C08C28142F7D85E
:109EA00018BD0000D0CF0200034908B508440021C6
:109EB00001600068009008BD006000400249405801
:109EC000012800D0002070470060004030B58400B9
:109ED0000D482044D0F810450C4D2C40C0F81045DA
:109EE000D0F810454FF4F85505EA01210C434FF422
:109EF000403101EA02414FF4801202EA0352114359
:109F00000C43C0F8104530BD00600040FFE0ECFF9E
:109F100030B5154A01460020D2F8104423460AE025
:109F2000DB681D79854205D1401C0A28F6DB4FF01D
:109F3000FF3030BD1B68002BF2D1431CF9D0CB6839
:109F40001871D2F8103443B1DB68CC681B68236009
:109F5000D2F81024D268116030BDC2F81014C9685C
:109F600000220A6030BD0000083A00207047FCF76C
:109F700073BC704708B5034A00924023024A00F0C0
:109F800005F808BDA5BB020070380020F0B595B0FB
:109F90001C4615460F4608461A9E00F005FB182180
:109FA00009A8FCF78AFA0E96CDE909540023082285
:109FB00003A9384600F00DFB05980690BDF8100087
:109FC000ADF81C00BDF81200ADF81E0000208DF8A1
:109FD00021000398082600F00300012802D002287F
:109FE00018D032E003983346850AC0F3C2008DF8DA
:109FF000200003980FA9C0F38314A200384600F094
:10A00000E8FA09A8009006AB22460FA9284600F0FE
:10A0100027FA1AE00398840DC0F3C2008DF82000DF
:10A02000082C01D2254600E0082533462A460FA910
:10A03000384600F0CEFA2E44641B09AB06AA294626
:10A040000FA800F069F9002CEAD1384600F0B2FA06
:10A0500015B0F0BD0A4A012902EBC00007D0022961
:10A0600007D0032907D0042907D000207047022019
:10A0700070470420704700797047407970470000AE
:10A08000E0DA020010B5FFF772FF04210348FFF782
:10A090003FFF02490120C968487110BDD0DA0200B3
:10A0A0002DE9F04F8DB0FEF789FA18B100200DB000
:10A0B000BDE8F08F7E4C4FF0000BC4F818B4BFF32E
:10A0C0004F8F60680290A568D846284004EB800056
:10A0D0000CE000BFD4F8180470B9216802988142DE
:10A0E00001D86160E2E7284004EB80000C3002A94F
:10A0F000FEF7E0FF0028EDD1002005AA029901EA51
:10A10000050304EB8303491CDB6842F82030401C44
:10A1100002910228F2D3059800F00300022802D031
:10A1200001284DD0AAE005985022810D8946B2EB56
:10A13000905F00D850210E4666F39F50059008317D
:10A140005C4800F0E8F9070078D000F02DFA4346AB
:10A15000082205A9384600F044FA029908F1080AD5
:10A160002940681A8000001D864222D9504D0C35C6
:10A1700030B1C2B204EB8101301A90460C3104E0D8
:10A180002946F2B2002590462846C6B253463846C4
:10A1900000F027FA0AEB080325B132462946384673
:10A1A00000F01FFA029909F1030001EB9000029000
:10A1B0003BE004EB81015346324638460C31EFE771
:10A1C0000598C0F38310062800D30620059960F394
:10A1D0008911C1F38310801C05918100354800F07E
:10A1E0009AF907004AD000F0DFF94346082205A992
:10A1F000384600F0F6F908F1080800260FE002984A
:10A20000434600EA0501401C04EB81010290042250
:10A2100038460C3100F0E5F908F10408761C059881
:10A22000C0F38310B042EAD847B1D4F81054D4F840
:10A23000180478B1384600F0BDF934E01EE0E86853
:10A240004079012804D12A68284639461268904787
:10A25000E8680568002DF2D1384600F0ABF98DF8BA
:10A2600000B06846FDF744F8D4F8180408B902981D
:10A2700060609DF80000FDF75FF814E0D4F810442A
:10A2800005E02168204689688847E0680468002C5A
:10A29000F7D109480949401AC008022101EB0040E2
:10A2A00007A100F017F8FEF789F980F00100FEE63B
:10A2B000083A00207CDB020048DB0200E0DA020002
:10A2C0004261636B656E647320666C757368656468
:10A2D0000000000000231A4601F052BD08B501231A
:10A2E00000926A4601F04CFD08BD1CB5CDE9002383
:10A2F00002236A4601F044FD1CBD70B586B00DF125
:10A30000280C9CE870008DE87C0005236A4601F06B
:10A3100037FD06B070BD00002DE9F0470E468046BF
:10A320001C469246082940D894F80C9000202073CF
:10A330001946104601F00CFA0025B54206D218F86D
:10A3400005201BA12046FFF70BFC03E01AA12046C5
:10A35000FFF706FC6D1C082DEFD318A12046FFF770
:10A36000FFFB0025B54212D218F805707E2F08D8E1
:10A37000FCF786F80068C05D10F03E0F01D03A4649
:10A3800000E02E220EA12046FFF7EAFB03E00DA11C
:10A390002046FFF7E5FB6D1C082DE3D30122214683
:10A3A000504601F057F984F80C90BDE8F0870000A2
:10A3B0002025303278000000202020007C000000A2
:10A3C00025630000200000000B4810B5FF218160CC
:10A3D000002101604160C0F81814C0F8141480F81E
:10A3E0002014064800F0E4F8002803D1044800F0E7
:10A3F00039F9002010BD0000083A00207CDB020083
:10A40000B8D1020002480349401AC0087047000052
:10A4100068DB0200E0DA020013B56846FFF79EF839
:10A4200008B100201CBD0248009950F831001CBD45
:10A43000E0DA020070B509480125D0F8104480F830
:10A44000205407E0E0684571216820464968884744
:10A45000E0680468002CF5D170BD0000083A0020C7
:10A460002DE9FF4781460C9D00200C462F7B287369
:10A47000984616462946184601F06AF9072E42D238
:10A48000DFE806F004090F161F2A36004946284661
:10A49000FFF766FB37E0494628462268FFF760FB76
:10A4A00031E0D4E9002349462846FFF759FB2AE06A
:10A4B000A0680090D4E9002349462846FFF750FBE6
:10A4C00021E0D4E90201CDE90001D4E900234946A5
:10A4D0002846FFF745FB16E004F1080007C88DE8A1
:10A4E0000700D4E9002349462846FFF739FB0AE074
:10A4F00004F108000FC88DE80F00D4E90023494695
:10A500002846FFF72DFB00222946404601F0A2F81D
:10A510002F73BDE8FF872DE9F041058A80462D1F86
:10A520004819C01CB0FBF5F0C6B24046FFF708F969
:10A53000041E19D00020207101206071E5800027E1
:10A540002546761EC4F800800BE04046FFF7F8F879
:10A5500060B16179491C6171286005467F1CC0F8B3
:10A560000080B742F1D32046BDE8F081204600F0DC
:10A5700002F80020F8E72DE9F041457901466B1E0D
:10A58000002201E00968521C9A42FBD30F68014681
:10A59000002605E038460C68FFF7F4F82146761CE3
:10A5A000AE42F7D3BDE8F0810121001DFFF7A6B848
:10A5B000FFF700B910B504460121001DFFF7BAF8F6
:10A5C00010F0FF0F04D12046BDE81040FFF7D3BFC5
:10A5D00010BD1CB501920122009201AAFEF77EFF78
:10A5E0001CBD1CB501920022009201AAFEF776FF65
:10A5F0001CBD0000064910B500204870091D086008
:10A60000BFF35F8F0349044800F01AFA002010BD21
:10A610003C2C002050D002006438002008B50020F7
:10A620008DF800006846FCF763FEF1EE100A20F09A
:10A630009F00E1EE100ABFF35F8F08494020C1F888
:10A6400080029DF80000FCF777FE00F0D5F908B114
:10A6500041DF08BD20BF40BF20BF08BD04E000E0CF
:10A66000FCF7ECBC8268002191608268116182680D
:10A6700051618268D1608268516080680160704772
:10A6800008B5002242504058009008BD20B103494F
:10A6900009680160002070470E2070473CD202001C
:10A6A0002DE9FE4307460E460846FFF7EFFF002858
:10A6B0007CD100240094019406208DF800704FF0A6
:10A6C0000108ADF8040002948DF80280694620204C
:10A6D000326869DF3649374A891AC908012202EB14
:10A6E000014530B100F01AFA024628463249FFF718
:10A6F000F5FD00948DF801808DF8024001940294DC
:10A700008DF8034069464020326869DF30B100F0BF
:10A7100005FA024628462949FFF7E0FD00948DF826
:10A720000070F720ADF802000194029469462320DE
:10A73000326869DF30B100F0F1F90246284620495D
:10A74000FFF7CCFD0094019402948DF800806946D7
:10A750000120326869DF30B100F0E0F90246284696
:10A760001849FFF7BBFD4FF4B060009001940294CC
:10A770006946A120326869DF30B100F0CFF90246A6
:10A7800028461149FFF7AAFD0094019402948DF820
:10A7900000406946A020326869DF30B100F0BEF9A0
:10A7A000024628460949FFF799FD0020BDE8FE83CF
:10A7B00058DB0200E0DA020020D9020068D902006A
:10A7C000B4D9020080D80200CCD802002CD80200F4
:10A7D0002DE9F0410546076860DF804619491A48AF
:10A7E0002A68081AC608BA4219D9022000EB0644A2
:10A7F00016A12046FFF76EFD20463A461FA12B68A2
:10A80000FFF773FD4FF08050D0F80C0129688002EB
:10A8100000F10050421A204625A1FFF75FFDB8F174
:10A8200000004FF001040AD000F078F9024604EB72
:10A8300006402AA1FFF752FD4046BDE8F0812F48AF
:10A840000470F9E758DB0200E0DA0200496E737524
:10A850006666696369656E742052414D20616C6C57
:10A860006F636174656420666F722074686520533D
:10A870006F66744465766963652E00004368616E97
:10A880006765207468652052414D2073746172744D
:10A89000206C6F636174696F6E2066726F6D20301B
:10A8A00078257820746F20307825782E00000000FD
:10A8B0004D6178696D756D2052414D2073697A65DF
:10A8C00020666F72206170706C69636174696F6E6D
:10A8D00020697320307825782E00000073645F6251
:10A8E0006C655F656E61626C6528292072657475A0
:10A8F000726E65642025732E00000000A72C0020D6
:10A9000030B51548ADF5017D0078002821D04FF411
:10A91000FA7500BFADF8005280A9684661DF38B112
:10A92000052816D00DF5017DBDE83040FCF786BB4B
:10A930006C460A497DA800F083F806E0D0E90021C2
:10A94000204690477DA800F092F87F980028E1D03B
:10A95000F4E70DF5017D30BDA72C002040D20200A8
:10A960007CB5194C207808B108207CBD0120A0706E
:10A97000002001F0E1F8112819D0002001F0F4F8CE
:10A9800012480026006801908DF800606846FCF7C8
:10A99000AFFC0F4901A810DF05000AD0002020708D
:10A9A0009DF80000FCF7C8FC2DB128467CBD0020B6
:10A9B0007CBD0120F3E7A670667001F097F90120D5
:10A9C00001F0D2F8F3E70000A42C0020D4D102005B
:10A9D000D16E02000EB50749684600F031F805E077
:10A9E000D0E900108847684600F041F80298002836
:10A9F000F6D10EBDF0D1020001480078704700008A
:10AA0000A42C00201FB568464BDF30B1052814D0B8
:10AA100004B0BDE81040FCF711BB084901A800F0E4
:10AA20000FF806E0D0E900210098904701A800F057
:10AA30001EF803980028E6D0F4E71FBD5CD20200A0
:10AA4000016009684160AFF3008010B5D0E90021D2
:10AA50005368994201D1002104E0D1E90034A342B6
:10AA600002D01946816010BD08314160F0E781686D
:10AA700000290BD0026892680A44826041684B68E2
:10AA80009A4203D108314160FFF7DFBF704770B5CC
:10AA90000D460646446804E0B2682946904718B15E
:10AAA000246820680028F7D120682860256070BDE0
:10AAB00040680068704741680868002801D0026853
:10AAC0000A60704702460020526806E08B4203D1BC
:10AAD00008681060012070471A461368002BF5D1F2
:10AAE000704700000C4A10B502F594730EE0991AF5
:10AAF000C91001EBD171491002EBC1010C6884420D
:10AB000001D90B4602E005D201F108029A42EED3C8
:10AB1000002010BD486810BD70D0020000B5FFF7DE
:10AB2000E1FF002800D1014800BD00005CD0020018
:10AB30004058002800D00120704708B5002242503C
:10AB40004058009008BDD0F80403084000D0012010
:10AB500070474058002800D00120704708B50022F7
:10AB600042504058009008BD08480068012110F08C
:10AB7000010F06D14FF0E020C02280F80024C0F879
:10AB800000110349012008607047000000E100E067
:10AB9000180500400649024600200B790BB18520BC
:10ABA00070470A6001220A7100224A717047000052
:10ABB000C42B002004490120086004480168C1F347
:10ABC00000410029FAD170470C00004018040040F1
:10ABD000002802D0014980010847704721D00200B7
:10ABE0002DE9F0418846054600F01CFD234E002863
:10ABF00028461AD0FDF786FD304490F848008009B9
:10AC0000032802D001280ED007E04FF0A040D0F872
:10AC10001005E84010F0010F05D003212846BDE8DB
:10AC2000F041FFF711B90221F8E700F007FD002815
:10AC300022D02846FDF766FD04464FF4807000EBF5
:10AC400084000F4F81B207EB8400D0F8102542F04A
:10AC50000102C0F810250846FFF726F9B8F1000FE9
:10AC60000AD02846FDF74EFD56F82000002803D0F4
:10AC70000120A040C7F80403BDE8F081D0360020D1
:10AC8000006000402DE9FC41DFF8BC80044608EB81
:10AC90000400002790F930001346C0170E46401CF0
:10ACA00001D008274CE0B0781946C0F34002204696
:10ACB000FDF704FD0546401C41D0B078410719D48A
:10ACC000C0070AD04FF0A04000EB8401D1F8000784
:10ACD00020F00200C1F8000707E000217378204649
:10ACE00000910A460191FFF753F817492046543165
:10ACF000FEF780FDB078800718D51448317800EB56
:10AD00008500D0F81025124B1A40C0F810254FF4DA
:10AD1000F8524FF4403302EA042203EA01410A43A5
:10AD2000D0F810150A43C0F8102509E008EB05001B
:10AD3000327810F8481F41EA8211017000E00427C0
:10AD40003846BDE8FC810000D0360020006000409D
:10AD5000FFE0FCFF4FF0A041D1F81015C14011F009
:10AD6000010000D00120704770B5174D95F85800CC
:10AD700008B1082070BD0020411E2A18401CC0B236
:10AD800082F830102028F8D300242046FDF788FCF4
:10AD9000641CE4B20C2CF8D300240C49C0206C6570
:10ADA00081F8000401264020891FC1F800014FF4FA
:10ADB000BE70FFF779F80649F007C1F8040385F87B
:10ADC0005860204670BD0000D036002006E000E04C
:10ADD00000600040034890F85800002800D001208F
:10ADE00070470000D03600200121B1EB507F01D127
:10ADF000012070470020704738B50D4600F0F4FC84
:10AE0000040014D000208DF800006846FCF770FAAA
:10AE1000207928B19DF80000FCF78EFA112038BD8A
:10AE20000120256020719DF80000FCF785FA0020C4
:10AE300038BD00000149024801F0F6BD2C37002062
:10AE4000002000402DE9F0410546007916460F46E6
:10AE500000EB40012C4A01EBC00102EB810494F8A5
:10AE60002A1011B10820BDE8F081284951F82010BE
:10AE70002868FFF7C1FF08B11120F4E739462846DA
:10AE8000FCF774FA66603869206030004FF0010604
:10AE90002DD03F7F4FF48E712868FFF74EFE4FF4A0
:10AEA000A2712868FFF749FE28681949C0F8041301
:10AEB00028684FEA471140F30730002806DA00F00F
:10AEC0000F0000F1E02080F8141D03E000F1E02005
:10AED00080F80014286840F3073000F01F0106FADC
:10AEE00001F14009800000F1E020C0F8001128685D
:10AEF0000421C0F800150020A061E06184F8290059
:10AF000044F8140FA675AEE72C370020D4CF02000A
:10AF1000800002002DE9F05F054600794FF40176CC
:10AF200000EB400303EBC000344B03EB8004002034
:10AF3000636813B12B68C3F80863A3694FF0000975
:10AF40006BB1E06938B1606810B12868C0F804637B
:10AF50001120BDE8F09FE2610120216105E0C4F805
:10AF60002490A261E160C4F81C9094F82910014378
:10AF700002D1284600F0A7FD60680028286803D0A9
:10AF8000C0F804630020E4E74FF4A2763146FFF7EF
:10AF9000D4FDB2464FF4927B59462868FFF7C8FDAE
:10AFA00006464FF484712868FFF7C2FD804651467B
:10AFB0002868FFF7BDFD074648EA07003043EBD09D
:10AFC00056EA070007D12146286800F04DFDA16927
:10AFD000606A8142E0D8C4F818900EB10320B8E747
:10AFE0000FB10F20B5E794F8291001200029296836
:10AFF00001D00860C6E74860C4E700002C37002095
:10B000002DE9F05F054600790B4600EB400101EBAE
:10B01000C000244901EB8004284600F045F810B137
:10B020001120BDE8F09F62614FF00009C4F8209044
:10B03000A36084F828904FF48E784E4641462868E5
:10B04000FFF77BFD28684FF0010AC0F808A02146F1
:10B05000286801F021FC606808BBD5F800B067697A
:10B060000FE000BF94F8280008B10F2615E0414614
:10B070005846FFF75DFD0028F4D02146584601F000
:10B080000BFC206AB842F2D3574641462868FFF7C6
:10B090004FFD0028F9D02868C760C4F814903046E6
:10B0A000BFE700002C370020007900EB400101EBE6
:10B0B000C000044901EB80004069002800D0012055
:10B0C000704700002C3700200149024801F05ABDAA
:10B0D00058370020002000402DE9F0410546164673
:10B0E00000790F46154A00EBC00102EB810494F889
:10B0F000201011B10820BDE8F081114951F820104D
:10B100002868FFF779FE08B11120F4E73946284690
:10B11000FCF770F96660386920601EB1397F2846F7
:10B12000FDF786FF28680821C0F800150020A061FF
:10B13000E0616061012184F82010DCE758370020CD
:10B14000D8CF02002DE9F05F044600790E4600EBEF
:10B15000C001DFF8F0A017460AEB81053046FFF783
:10B1600043FEB0B168684FF000084FF4047910B1A5
:10B170002168C1F80893A8694FF0000B80B1E86915
:10B1800048B1686810B12068C0F804931120BDE888
:10B19000F09F1020FBE7EF614FF001082E6102E005
:10B1A000EE60C5E9067B00254FF488712068FFF743
:10B1B000D5FC4FF4A2712068FFF7D0FC2068C0F8DE
:10B1C0003465C0F838752068B8F1000F12D0D0F897
:10B1D000001241F02001C0F800122079D04600EBA7
:10B1E000C0010AEB8100406838B12068C0F80493C0
:10B1F0002846CCE701210160EFE74FF4887A4FF44D
:10B20000A27951462068FFF7A4FC0746494620680A
:10B21000FFF79FFC06464FF492712068FFF799FCF8
:10B22000014647EA06000843EBD0227902EBC2034D
:10B2300008EB8302C2F818B001B10325002ED7D065
:10B240000F25D5E7583700202DE9F04704460E4674
:10B250000079274900EBC00001EB80051746304616
:10B26000FFF7C2FD30B1204600F044F820B11120B4
:10B27000BDE8F0871020FBE76F61AE604FF4907778
:10B280004FF0000839462068FFF768FC4FF4AC76B1
:10B2900031462068FFF762FC2068AA686969C0F837
:10B2A0004425C0F8481520684FF00109C0F80890FF
:10B2B0006868D0B9BA4651462068FFF74AFC07468D
:10B2C00031462068FFF745FC0743F4D010B14FF03A
:10B2D0000F0808E02068C0F80C9031462068FFF79E
:10B2E00038FC0028F9D0002068614046C0E7000023
:10B2F000583700200079054900EBC00001EB8000C1
:10B300004069002800D00120704700005837002015
:10B310002DE9F04105460078002828D11548164946
:10B320000026401AC008012101EB004710E02869FF
:10B33000805DFBF7B3FF040009D0112CF7D038462D
:10B3400022460EA1FEF7CAFF2046FBF777FE761CC9
:10B35000A88AB042EBD8A98A2869084410F8010CE1
:10B360000D2804D10A20FBF799FF1128FAD0BDE877
:10B37000F081000048DB0200E0DA02004661696CFF
:10B38000656420726563656976696E67204E555302
:10B39000206D6573736167652E204572726F722030
:10B3A000307825782E20000010B550B103280CD13C
:10B3B0000220FCF753FF002807D0BDE81040FBF740
:10B3C0003DBEBDE8104000F071BC10BDF0B58BB0C3
:10B3D000002601960D4604468988406901AAFCF7BB
:10B3E0004DF80AA8CDE908600227ADF82070ADF845
:10B3F00022602189A88808AAADDF002819D1A06998
:10B40000002816D00998FCF789FD002811D0019E6C
:10B410000EB101203070182102A8FBF74EF88DF80C
:10B4200008700394A888ADF810000596A16902A8D9
:10B4300088470BB0F0BD000070B58D88027900EB35
:10B44000C5042273C97BA41D012902D0022904D19D
:10B4500001E0008800E040882080218860888142E7
:10B4600011D92846A5DF0126B0B1112816D0FFF763
:10B4700055FB02460B480C49401AC00806EB004039
:10B480000AA1FEF72BFFA179E079814208D928466D
:10B49000BDE87040FDF7BCBA6671F4E72671F2E7CB
:10B4A00070BD0000E8DA0200E0DA020073645F6257
:10B4B0006C655F67617474635F65786368616E670C
:10B4C000655F6D74755F7265717565737428292089
:10B4D00072657475726E65642025732E000000001D
:10B4E0007CB506468D88C88806EBC504A41D1728C0
:10B4F00000D217202188814200D8084660800020B1
:10B50000207121882846B5DF60B1FFF707FB0246AE
:10B510000F481049401AC008012101EB00400EA15C
:10B52000FEF7DCFE6079002810D1306900280DD0CC
:10B530001549D1E90201CDE90001ADF8025060885A
:10B54000ADF8040032696946304690477CBD000082
:10B55000E8DA0200E0DA020073645F626C655F673C
:10B56000617474735F65786368616E67655F6D743D
:10B57000755F7265706C7928292072657475726EBA
:10B5800065642025732E0000A8CF0200F0B587B0B7
:10B590000C4605468E1D8988406906AAFBF76EFF9A
:10B5A00018216846FAF789FF0195A088069AADF838
:10B5B0000800039231882B89002704F11200994278
:10B5C00002D17389022B0DD0AA8991421ED1A9699B
:10B5D00000291BD08DF8007004907089ADF814001C
:10B5E000A96911E0002A11D0FCF798FC20B1069956
:10B5F00001200870022002E00698077003208DF8F1
:10B600000000A969002901D06846884707B0F0BD4D
:10B610000068012803D0022801D0002070470120D3
:10B62000704700000449084490F93000082801DB05
:10B630000120704700207047D0360020044908449C
:10B6400090F93000082801D201207047002070478F
:10B65000D036002010B50C46017A052908D0407A72
:10B6600038B1084808A102682046FEF779FA00E0E0
:10B670001AB106A12046FEF773FA2046BDE8104035
:10B68000FEF77BBA802C0020257300000D0A000015
:10B690000B4910B5087A0C4A0A4C02EBC003C3F8F8
:10B6A0001045CC684434C3F81445096902EB8002A4
:10B6B0004431C2F81019012181400448016010BDD5
:10B6C000643400200411004000F0014004F5014002
:10B6D0002DE9F0431B4BDFF8709001209E79DD7956
:10B6E000DC7A00FA06F8C9F800801849DF6801EB37
:10B6F000C60C07F5A472CCF810250C37CCF81475DD
:10B7000001EB86060027C6F8107900FA05F6C9F89D
:10B71000006001EBC507C7F810250A1D02EBC40243
:10B72000C7F814259A6901EB8503C3F8102901EBCA
:10B73000C402506001EB840048EA0608C0F80088A3
:10B74000BDE8F0836434002008F5014000F00140BA
:10B7500038B5C3880D46044633B114A0009015A235
:10B7600016A12846FEF7FCF9217A05291CD0607A3B
:10B7700048B1A088FEF76EFC164951F8202016A1AA
:10B780002846FEF7EDF9A0880021FEF745FE0346A6
:10B790001049207A143951F8202001B02846BDE81C
:10B7A00030400EA1FEF7DCB938BD00001B5B306DE8
:10B7B000000000001B5B313B33316D0025734C6F83
:10B7C00067732064726F7070656420282564292572
:10B7D000730D0A00802C0020257300003C25733E69
:10B7E0002025733A200000000349884201D1034814
:10B7F000704700207047000000200040CC2B002044
:10B800002DE9F0413F4A002601243C4F3C4D131DD9
:10B810003D4905285FD2DFE800F0032B476E4A0060
:10B82000F8684465D0F85405E8634C60CC6035484E
:10B830003C380660C1F84061C1F844614FF4803083
:10B84000C1F8040347F23C301060401018602D4AE4
:10B850000220383A10600C602C4804600820FAF787
:10B8600047FFEE602879401C287100F0BFFD42E0E0
:10B87000D1F8400170B3D1F80403C0033BD54C604C
:10B88000C1F84061D1F84001C1F84461D1F84401E8
:10B8900000F06AFEF8684465D0F85405E86328783B
:10B8A00017485C30BDE8F081FAF76CFF23E04C608C
:10B8B000C1F84061C1F84461166847F21750064468
:10B8C00016601A68104418600C60E86847F230513E
:10B8D0000844E8600FE00E4A40F299110D48FAF76B
:10B8E00099FC0D480D49401AC008032101EB0040A6
:10B8F0000BA1FEF7EFFC02486430D3E7643400206C
:10B90000042B00204085004000800040FC1F0040C8
:10B91000F0D2020078563412E0DA0200E0DA0200D7
:10B920006170705F6572726F725F68616E646C6582
:10B93000720A000070B50546FDF7B1F9134C40B12D
:10B94000D4E904024FF08071411842F10000C4E9CB
:10B95000041000212846FDF7F3F830B1606820B1EB
:10B96000606800F0B3FC0020606001212846FDF70C
:10B97000E7F818B1FDF7C6FAC4E90601284600F059
:10B98000D1FC2846BDE8704000F034B8F02B002010
:10B9900070B5054600200C460870FDF7B3FAD5E9EE
:10B9A0000223101A63EB010300263146361A99412F
:10B9B00012DAB0F5350F03D3FBF7A6FB0B4942189B
:10B9C0004FF4960300210A48FDF775F910B10D28D0
:10B9D00006D009E0012070BD00210548FDF7A6F85A
:10B9E000284600F073FC2070002070BDFFFFB400FB
:10B9F000F82B0020F8B51A4C074600261948FFF727
:10BA000057F8D0B1616871B1D0E902106268D2E92B
:10BA10000232C91A904120D26068007F18B1616873
:10BA20001048FFF734F800F08DF905466946FFF736
:10BA3000AFFF98B1606840B10AE0606800280CD19F
:10BA40003846BDE8F840FDF732B93846FDF72BF926
:10BA500065609DF800000028D0D1F8BD6660CDE794
:10BA6000F02B0020ECCF020070B5054688690C462B
:10BA700000284FF4847128460AD0FFF75EF8D5F805
:10BA80001805626AE1688854606A401C606270BD93
:10BA9000FFF753F8D5F8180570BD1FB501238DF8D1
:10BAA0000030CDE90121D0E90012684690471FBD62
:10BAB0001FB501238DF80030CDE90121D0E9001236
:10BAC000684690471FBD10B5044600684FF4927158
:10BAD000FFF733F84FF484712068FFF72EF82068E1
